{
	"CarbonIntegrity.sol": {
		"CarbonProvenance_Final_PH2": {
			"abi": [
				{
					"inputs": [],
					"stateMutability": "nonpayable",
					"type": "constructor"
				},
				{
					"anonymous": false,
					"inputs": [
						{
							"indexed": false,
							"internalType": "string",
							"name": "id",
							"type": "string"
						},
						{
							"indexed": false,
							"internalType": "string",
							"name": "action",
							"type": "string"
						},
						{
							"indexed": false,
							"internalType": "address",
							"name": "user",
							"type": "address"
						},
						{
							"indexed": false,
							"internalType": "uint256",
							"name": "currentTons",
							"type": "uint256"
						}
					],
					"name": "TransactionUpdate",
					"type": "event"
				},
				{
					"inputs": [
						{
							"internalType": "string",
							"name": "_id",
							"type": "string"
						},
						{
							"internalType": "string",
							"name": "_land",
							"type": "string"
						},
						{
							"internalType": "string",
							"name": "_vintage",
							"type": "string"
						},
						{
							"internalType": "string",
							"name": "_pdf",
							"type": "string"
						},
						{
							"internalType": "uint256",
							"name": "_tons",
							"type": "uint256"
						}
					],
					"name": "createCredit",
					"outputs": [],
					"stateMutability": "nonpayable",
					"type": "function"
				},
				{
					"inputs": [
						{
							"internalType": "string",
							"name": "_id",
							"type": "string"
						}
					],
					"name": "getHistory",
					"outputs": [
						{
							"internalType": "address[]",
							"name": "",
							"type": "address[]"
						}
					],
					"stateMutability": "view",
					"type": "function"
				},
				{
					"inputs": [
						{
							"internalType": "address",
							"name": "_tokenAddr",
							"type": "address"
						}
					],
					"name": "linkToQIEDEX",
					"outputs": [],
					"stateMutability": "nonpayable",
					"type": "function"
				},
				{
					"inputs": [],
					"name": "qieDexTokenAddress",
					"outputs": [
						{
							"internalType": "address",
							"name": "",
							"type": "address"
						}
					],
					"stateMutability": "view",
					"type": "function"
				},
				{
					"inputs": [],
					"name": "researcher",
					"outputs": [
						{
							"internalType": "address",
							"name": "",
							"type": "address"
						}
					],
					"stateMutability": "view",
					"type": "function"
				},
				{
					"inputs": [
						{
							"internalType": "string",
							"name": "_id",
							"type": "string"
						},
						{
							"internalType": "string",
							"name": "_note",
							"type": "string"
						}
					],
					"name": "retireCredit",
					"outputs": [],
					"stateMutability": "nonpayable",
					"type": "function"
				},
				{
					"inputs": [
						{
							"internalType": "string",
							"name": "_id",
							"type": "string"
						},
						{
							"internalType": "address",
							"name": "_to",
							"type": "address"
						}
					],
					"name": "transferCredit",
					"outputs": [],
					"stateMutability": "nonpayable",
					"type": "function"
				},
				{
					"inputs": [
						{
							"internalType": "string",
							"name": "_id",
							"type": "string"
						},
						{
							"internalType": "uint256",
							"name": "_newTons",
							"type": "uint256"
						}
					],
					"name": "updateUtility",
					"outputs": [],
					"stateMutability": "nonpayable",
					"type": "function"
				},
				{
					"inputs": [
						{
							"internalType": "string",
							"name": "_id",
							"type": "string"
						}
					],
					"name": "viewFullDetails",
					"outputs": [
						{
							"internalType": "string",
							"name": "ID",
							"type": "string"
						},
						{
							"internalType": "string",
							"name": "Land_Anchor",
							"type": "string"
						},
						{
							"internalType": "string",
							"name": "Vintage_Year",
							"type": "string"
						},
						{
							"internalType": "string",
							"name": "Evidence_Link",
							"type": "string"
						},
						{
							"internalType": "uint256",
							"name": "Remaining_Tons",
							"type": "uint256"
						},
						{
							"internalType": "address",
							"name": "Current_Owner",
							"type": "address"
						},
						{
							"internalType": "bool",
							"name": "Is_Retired",
							"type": "bool"
						},
						{
							"internalType": "string",
							"name": "Status_Note",
							"type": "string"
						}
					],
					"stateMutability": "view",
					"type": "function"
				}
			],
			"devdoc": {
				"kind": "dev",
				"methods": {},
				"version": 1
			},
			"evm": {
				"assembly": "    /* \"CarbonIntegrity.sol\":225:4244  contract CarbonProvenance_Final_PH2 {... */\n  mstore(0x40, 0x80)\n    /* \"CarbonIntegrity.sol\":895:951  constructor() {... */\n  callvalue\n  dup1\n  iszero\n  tag_1\n  jumpi\n  0x00\n  dup1\n  revert\ntag_1:\n  pop\n    /* \"CarbonIntegrity.sol\":933:943  msg.sender */\n  caller\n    /* \"CarbonIntegrity.sol\":920:930  researcher */\n  0x00\n  dup1\n    /* \"CarbonIntegrity.sol\":920:943  researcher = msg.sender */\n  0x0100\n  exp\n  dup2\n  sload\n  dup2\n  0xffffffffffffffffffffffffffffffffffffffff\n  mul\n  not\n  and\n  swap1\n  dup4\n  0xffffffffffffffffffffffffffffffffffffffff\n  and\n  mul\n  or\n  swap1\n  sstore\n  pop\n    /* \"CarbonIntegrity.sol\":225:4244  contract CarbonProvenance_Final_PH2 {... */\n  dataSize(sub_0)\n  dup1\n  dataOffset(sub_0)\n  0x00\n  codecopy\n  0x00\n  return\nstop\n\nsub_0: assembly {\n        /* \"CarbonIntegrity.sol\":225:4244  contract CarbonProvenance_Final_PH2 {... */\n      mstore(0x40, 0x80)\n      callvalue\n      dup1\n      iszero\n      tag_1\n      jumpi\n      0x00\n      dup1\n      revert\n    tag_1:\n      pop\n      jumpi(tag_2, lt(calldatasize, 0x04))\n      shr(0xe0, calldataload(0x00))\n      dup1\n      0x947788bc\n      gt\n      tag_12\n      jumpi\n      dup1\n      0x947788bc\n      eq\n      tag_7\n      jumpi\n      dup1\n      0xe360736e\n      eq\n      tag_8\n      jumpi\n      dup1\n      0xe9506696\n      eq\n      tag_9\n      jumpi\n      dup1\n      0xf16d831c\n      eq\n      tag_10\n      jumpi\n      dup1\n      0xf1a7c8da\n      eq\n      tag_11\n      jumpi\n      jump(tag_2)\n    tag_12:\n      dup1\n      0x05c107c8\n      eq\n      tag_3\n      jumpi\n      dup1\n      0x1dc0a6a5\n      eq\n      tag_4\n      jumpi\n      dup1\n      0x30955b87\n      eq\n      tag_5\n      jumpi\n      dup1\n      0x43f179c0\n      eq\n      tag_6\n      jumpi\n    tag_2:\n      0x00\n      dup1\n      revert\n        /* \"CarbonIntegrity.sol\":1099:1742  function createCredit(string memory _id, string memory _land, string memory _vintage, string memory _pdf, uint256 _tons) public {... */\n    tag_3:\n      tag_13\n      0x04\n      dup1\n      calldatasize\n      sub\n      dup2\n      add\n      swap1\n      tag_14\n      swap2\n      swap1\n      tag_15\n      jump\t// in\n    tag_14:\n      tag_16\n      jump\t// in\n    tag_13:\n      stop\n        /* \"CarbonIntegrity.sol\":268:293  address public researcher */\n    tag_4:\n      tag_17\n      tag_18\n      jump\t// in\n    tag_17:\n      mload(0x40)\n      tag_19\n      swap2\n      swap1\n      tag_20\n      jump\t// in\n    tag_19:\n      mload(0x40)\n      dup1\n      swap2\n      sub\n      swap1\n      return\n        /* \"CarbonIntegrity.sol\":2966:3498  function updateUtility(string memory _id, uint256 _newTons) public {... */\n    tag_5:\n      tag_21\n      0x04\n      dup1\n      calldatasize\n      sub\n      dup2\n      add\n      swap1\n      tag_22\n      swap2\n      swap1\n      tag_23\n      jump\t// in\n    tag_22:\n      tag_24\n      jump\t// in\n    tag_21:\n      stop\n        /* \"CarbonIntegrity.sol\":2023:2426  function transferCredit(string memory _id, address _to) public {... */\n    tag_6:\n      tag_25\n      0x04\n      dup1\n      calldatasize\n      sub\n      dup2\n      add\n      swap1\n      tag_26\n      swap2\n      swap1\n      tag_27\n      jump\t// in\n    tag_26:\n      tag_28\n      jump\t// in\n    tag_25:\n      stop\n        /* \"CarbonIntegrity.sol\":2492:2882  function retireCredit(string memory _id, string memory _note) public {... */\n    tag_7:\n      tag_29\n      0x04\n      dup1\n      calldatasize\n      sub\n      dup2\n      add\n      swap1\n      tag_30\n      swap2\n      swap1\n      tag_31\n      jump\t// in\n    tag_30:\n      tag_32\n      jump\t// in\n    tag_29:\n      stop\n        /* \"CarbonIntegrity.sol\":4113:4241  function getHistory(string memory _id) public view returns (address[] memory) {... */\n    tag_8:\n      tag_33\n      0x04\n      dup1\n      calldatasize\n      sub\n      dup2\n      add\n      swap1\n      tag_34\n      swap2\n      swap1\n      tag_35\n      jump\t// in\n    tag_34:\n      tag_36\n      jump\t// in\n    tag_33:\n      mload(0x40)\n      tag_37\n      swap2\n      swap1\n      tag_38\n      jump\t// in\n    tag_37:\n      mload(0x40)\n      dup1\n      swap2\n      sub\n      swap1\n      return\n        /* \"CarbonIntegrity.sol\":1813:1973  function linkToQIEDEX(address _tokenAddr) public {... */\n    tag_9:\n      tag_39\n      0x04\n      dup1\n      calldatasize\n      sub\n      dup2\n      add\n      swap1\n      tag_40\n      swap2\n      swap1\n      tag_41\n      jump\t// in\n    tag_40:\n      tag_42\n      jump\t// in\n    tag_39:\n      stop\n        /* \"CarbonIntegrity.sol\":3557:4062  function viewFullDetails(string memory _id) public view returns (... */\n    tag_10:\n      tag_43\n      0x04\n      dup1\n      calldatasize\n      sub\n      dup2\n      add\n      swap1\n      tag_44\n      swap2\n      swap1\n      tag_35\n      jump\t// in\n    tag_44:\n      tag_45\n      jump\t// in\n    tag_43:\n      mload(0x40)\n      tag_46\n      swap9\n      swap8\n      swap7\n      swap6\n      swap5\n      swap4\n      swap3\n      swap2\n      swap1\n      tag_47\n      jump\t// in\n    tag_46:\n      mload(0x40)\n      dup1\n      swap2\n      sub\n      swap1\n      return\n        /* \"CarbonIntegrity.sol\":361:394  address public qieDexTokenAddress */\n    tag_11:\n      tag_48\n      tag_49\n      jump\t// in\n    tag_48:\n      mload(0x40)\n      tag_50\n      swap2\n      swap1\n      tag_20\n      jump\t// in\n    tag_50:\n      mload(0x40)\n      dup1\n      swap2\n      sub\n      swap1\n      return\n        /* \"CarbonIntegrity.sol\":1099:1742  function createCredit(string memory _id, string memory _land, string memory _vintage, string memory _pdf, uint256 _tons) public {... */\n    tag_16:\n        /* \"CarbonIntegrity.sol\":1260:1270  researcher */\n      0x00\n      dup1\n      sload\n      swap1\n      0x0100\n      exp\n      swap1\n      div\n      0xffffffffffffffffffffffffffffffffffffffff\n      and\n        /* \"CarbonIntegrity.sol\":1246:1270  msg.sender == researcher */\n      0xffffffffffffffffffffffffffffffffffffffff\n      and\n        /* \"CarbonIntegrity.sol\":1246:1256  msg.sender */\n      caller\n        /* \"CarbonIntegrity.sol\":1246:1270  msg.sender == researcher */\n      0xffffffffffffffffffffffffffffffffffffffff\n      and\n      eq\n        /* \"CarbonIntegrity.sol\":1238:1304  require(msg.sender == researcher, \"QIE Security: Only Researcher\") */\n      tag_52\n      jumpi\n      mload(0x40)\n      0x08c379a000000000000000000000000000000000000000000000000000000000\n      dup2\n      mstore\n      0x04\n      add\n      tag_53\n      swap1\n      tag_54\n      jump\t// in\n    tag_53:\n      mload(0x40)\n      dup1\n      swap2\n      sub\n      swap1\n      revert\n    tag_52:\n        /* \"CarbonIntegrity.sol\":1343:1344  0 */\n      0x00\n        /* \"CarbonIntegrity.sol\":1323:1329  ledger */\n      0x02\n        /* \"CarbonIntegrity.sol\":1330:1333  _id */\n      dup7\n        /* \"CarbonIntegrity.sol\":1323:1334  ledger[_id] */\n      mload(0x40)\n      tag_55\n      swap2\n      swap1\n      tag_56\n      jump\t// in\n    tag_55:\n      swap1\n      dup2\n      mstore\n      0x20\n      add\n      mload(0x40)\n      dup1\n      swap2\n      sub\n      swap1\n      keccak256\n        /* \"CarbonIntegrity.sol\":1323:1339  ledger[_id].tons */\n      0x04\n      add\n      sload\n        /* \"CarbonIntegrity.sol\":1323:1344  ledger[_id].tons == 0 */\n      eq\n        /* \"CarbonIntegrity.sol\":1315:1367  require(ledger[_id].tons == 0, \"ID Duplicate Error\") */\n      tag_57\n      jumpi\n      mload(0x40)\n      0x08c379a000000000000000000000000000000000000000000000000000000000\n      dup2\n      mstore\n      0x04\n      add\n      tag_58\n      swap1\n      tag_59\n      jump\t// in\n    tag_58:\n      mload(0x40)\n      dup1\n      swap2\n      sub\n      swap1\n      revert\n    tag_57:\n        /* \"CarbonIntegrity.sol\":1380:1396  Credit storage c */\n      0x00\n        /* \"CarbonIntegrity.sol\":1399:1405  ledger */\n      0x02\n        /* \"CarbonIntegrity.sol\":1406:1409  _id */\n      dup7\n        /* \"CarbonIntegrity.sol\":1399:1410  ledger[_id] */\n      mload(0x40)\n      tag_60\n      swap2\n      swap1\n      tag_56\n      jump\t// in\n    tag_60:\n      swap1\n      dup2\n      mstore\n      0x20\n      add\n      mload(0x40)\n      dup1\n      swap2\n      sub\n      swap1\n      keccak256\n        /* \"CarbonIntegrity.sol\":1380:1410  Credit storage c = ledger[_id] */\n      swap1\n      pop\n        /* \"CarbonIntegrity.sol\":1434:1437  _id */\n      dup6\n        /* \"CarbonIntegrity.sol\":1421:1422  c */\n      dup2\n        /* \"CarbonIntegrity.sol\":1421:1431  c.creditId */\n      0x00\n      add\n        /* \"CarbonIntegrity.sol\":1421:1437  c.creditId = _id */\n      swap1\n      dup2\n      tag_61\n      swap2\n      swap1\n      tag_62\n      jump\t// in\n    tag_61:\n      pop\n        /* \"CarbonIntegrity.sol\":1459:1464  _land */\n      dup5\n        /* \"CarbonIntegrity.sol\":1448:1449  c */\n      dup2\n        /* \"CarbonIntegrity.sol\":1448:1456  c.landId */\n      0x01\n      add\n        /* \"CarbonIntegrity.sol\":1448:1464  c.landId = _land */\n      swap1\n      dup2\n      tag_63\n      swap2\n      swap1\n      tag_62\n      jump\t// in\n    tag_63:\n      pop\n        /* \"CarbonIntegrity.sol\":1487:1495  _vintage */\n      dup4\n        /* \"CarbonIntegrity.sol\":1475:1476  c */\n      dup2\n        /* \"CarbonIntegrity.sol\":1475:1484  c.vintage */\n      0x02\n      add\n        /* \"CarbonIntegrity.sol\":1475:1495  c.vintage = _vintage */\n      swap1\n      dup2\n      tag_64\n      swap2\n      swap1\n      tag_62\n      jump\t// in\n    tag_64:\n      pop\n        /* \"CarbonIntegrity.sol\":1519:1523  _pdf */\n      dup3\n        /* \"CarbonIntegrity.sol\":1506:1507  c */\n      dup2\n        /* \"CarbonIntegrity.sol\":1506:1516  c.dataLink */\n      0x03\n      add\n        /* \"CarbonIntegrity.sol\":1506:1523  c.dataLink = _pdf */\n      swap1\n      dup2\n      tag_65\n      swap2\n      swap1\n      tag_62\n      jump\t// in\n    tag_65:\n      pop\n        /* \"CarbonIntegrity.sol\":1543:1548  _tons */\n      dup2\n        /* \"CarbonIntegrity.sol\":1534:1535  c */\n      dup2\n        /* \"CarbonIntegrity.sol\":1534:1540  c.tons */\n      0x04\n      add\n        /* \"CarbonIntegrity.sol\":1534:1548  c.tons = _tons */\n      dup2\n      swap1\n      sstore\n      pop\n        /* \"CarbonIntegrity.sol\":1576:1586  msg.sender */\n      caller\n        /* \"CarbonIntegrity.sol\":1559:1560  c */\n      dup2\n        /* \"CarbonIntegrity.sol\":1559:1573  c.currentOwner */\n      0x05\n      add\n      0x00\n        /* \"CarbonIntegrity.sol\":1559:1586  c.currentOwner = msg.sender */\n      0x0100\n      exp\n      dup2\n      sload\n      dup2\n      0xffffffffffffffffffffffffffffffffffffffff\n      mul\n      not\n      and\n      swap1\n      dup4\n      0xffffffffffffffffffffffffffffffffffffffff\n      and\n      mul\n      or\n      swap1\n      sstore\n      pop\n        /* \"CarbonIntegrity.sol\":1597:1598  c */\n      dup1\n        /* \"CarbonIntegrity.sol\":1597:1611  c.ownerHistory */\n      0x06\n      add\n        /* \"CarbonIntegrity.sol\":1617:1627  msg.sender */\n      caller\n        /* \"CarbonIntegrity.sol\":1597:1628  c.ownerHistory.push(msg.sender) */\n      swap1\n      dup1\n      0x01\n      dup2\n      sload\n      add\n      dup1\n      dup3\n      sstore\n      dup1\n      swap2\n      pop\n      pop\n      0x01\n      swap1\n      sub\n      swap1\n      0x00\n      mstore\n      keccak256(0x00, 0x20)\n      add\n      0x00\n      swap1\n      swap2\n      swap1\n      swap2\n      swap1\n      swap2\n      0x0100\n      exp\n      dup2\n      sload\n      dup2\n      0xffffffffffffffffffffffffffffffffffffffff\n      mul\n      not\n      and\n      swap1\n      dup4\n      0xffffffffffffffffffffffffffffffffffffffff\n      and\n      mul\n      or\n      swap1\n      sstore\n      pop\n        /* \"CarbonIntegrity.sol\":1653:1658  false */\n      0x00\n        /* \"CarbonIntegrity.sol\":1639:1640  c */\n      dup2\n        /* \"CarbonIntegrity.sol\":1639:1650  c.isRetired */\n      0x07\n      add\n      0x00\n        /* \"CarbonIntegrity.sol\":1639:1658  c.isRetired = false */\n      0x0100\n      exp\n      dup2\n      sload\n      dup2\n      0xff\n      mul\n      not\n      and\n      swap1\n      dup4\n      iszero\n      iszero\n      mul\n      or\n      swap1\n      sstore\n      pop\n        /* \"CarbonIntegrity.sol\":1684:1734  TransactionUpdate(_id, \"BIRTH\", msg.sender, _tons) */\n      0x18333675623e02fb1a443aed0d08aafe80d54464e407da936d5921418c6636e7\n        /* \"CarbonIntegrity.sol\":1702:1705  _id */\n      dup7\n        /* \"CarbonIntegrity.sol\":1716:1726  msg.sender */\n      caller\n        /* \"CarbonIntegrity.sol\":1728:1733  _tons */\n      dup5\n        /* \"CarbonIntegrity.sol\":1684:1734  TransactionUpdate(_id, \"BIRTH\", msg.sender, _tons) */\n      mload(0x40)\n      tag_67\n      swap4\n      swap3\n      swap2\n      swap1\n      tag_68\n      jump\t// in\n    tag_67:\n      mload(0x40)\n      dup1\n      swap2\n      sub\n      swap1\n      log1\n        /* \"CarbonIntegrity.sol\":1227:1742  {... */\n      pop\n        /* \"CarbonIntegrity.sol\":1099:1742  function createCredit(string memory _id, string memory _land, string memory _vintage, string memory _pdf, uint256 _tons) public {... */\n      pop\n      pop\n      pop\n      pop\n      pop\n      jump\t// out\n        /* \"CarbonIntegrity.sol\":268:293  address public researcher */\n    tag_18:\n      0x00\n      dup1\n      sload\n      swap1\n      0x0100\n      exp\n      swap1\n      div\n      0xffffffffffffffffffffffffffffffffffffffff\n      and\n      dup2\n      jump\t// out\n        /* \"CarbonIntegrity.sol\":2966:3498  function updateUtility(string memory _id, uint256 _newTons) public {... */\n    tag_24:\n        /* \"CarbonIntegrity.sol\":3066:3076  researcher */\n      0x00\n      dup1\n      sload\n      swap1\n      0x0100\n      exp\n      swap1\n      div\n      0xffffffffffffffffffffffffffffffffffffffff\n      and\n        /* \"CarbonIntegrity.sol\":3052:3076  msg.sender == researcher */\n      0xffffffffffffffffffffffffffffffffffffffff\n      and\n        /* \"CarbonIntegrity.sol\":3052:3062  msg.sender */\n      caller\n        /* \"CarbonIntegrity.sol\":3052:3076  msg.sender == researcher */\n      0xffffffffffffffffffffffffffffffffffffffff\n      and\n      eq\n        /* \"CarbonIntegrity.sol\":3044:3121  require(msg.sender == researcher, \"Only researcher can adjust for accidents\") */\n      tag_70\n      jumpi\n      mload(0x40)\n      0x08c379a000000000000000000000000000000000000000000000000000000000\n      dup2\n      mstore\n      0x04\n      add\n      tag_71\n      swap1\n      tag_72\n      jump\t// in\n    tag_71:\n      mload(0x40)\n      dup1\n      swap2\n      sub\n      swap1\n      revert\n    tag_70:\n        /* \"CarbonIntegrity.sol\":3141:3147  ledger */\n      0x02\n        /* \"CarbonIntegrity.sol\":3148:3151  _id */\n      dup3\n        /* \"CarbonIntegrity.sol\":3141:3152  ledger[_id] */\n      mload(0x40)\n      tag_73\n      swap2\n      swap1\n      tag_56\n      jump\t// in\n    tag_73:\n      swap1\n      dup2\n      mstore\n      0x20\n      add\n      mload(0x40)\n      dup1\n      swap2\n      sub\n      swap1\n      keccak256\n        /* \"CarbonIntegrity.sol\":3141:3162  ledger[_id].isRetired */\n      0x07\n      add\n      0x00\n      swap1\n      sload\n      swap1\n      0x0100\n      exp\n      swap1\n      div\n      0xff\n      and\n        /* \"CarbonIntegrity.sol\":3140:3162  !ledger[_id].isRetired */\n      iszero\n        /* \"CarbonIntegrity.sol\":3132:3197  require(!ledger[_id].isRetired, \"Cannot adjust a retired credit\") */\n      tag_74\n      jumpi\n      mload(0x40)\n      0x08c379a000000000000000000000000000000000000000000000000000000000\n      dup2\n      mstore\n      0x04\n      add\n      tag_75\n      swap1\n      tag_76\n      jump\t// in\n    tag_75:\n      mload(0x40)\n      dup1\n      swap2\n      sub\n      swap1\n      revert\n    tag_74:\n        /* \"CarbonIntegrity.sol\":3227:3233  ledger */\n      0x02\n        /* \"CarbonIntegrity.sol\":3234:3237  _id */\n      dup3\n        /* \"CarbonIntegrity.sol\":3227:3238  ledger[_id] */\n      mload(0x40)\n      tag_77\n      swap2\n      swap1\n      tag_56\n      jump\t// in\n    tag_77:\n      swap1\n      dup2\n      mstore\n      0x20\n      add\n      mload(0x40)\n      dup1\n      swap2\n      sub\n      swap1\n      keccak256\n        /* \"CarbonIntegrity.sol\":3227:3243  ledger[_id].tons */\n      0x04\n      add\n      sload\n        /* \"CarbonIntegrity.sol\":3216:3224  _newTons */\n      dup2\n        /* \"CarbonIntegrity.sol\":3216:3243  _newTons < ledger[_id].tons */\n      lt\n        /* \"CarbonIntegrity.sol\":3208:3282  require(_newTons < ledger[_id].tons, \"Can only downscale for honest loss\") */\n      tag_78\n      jumpi\n      mload(0x40)\n      0x08c379a000000000000000000000000000000000000000000000000000000000\n      dup2\n      mstore\n      0x04\n      add\n      tag_79\n      swap1\n      tag_80\n      jump\t// in\n    tag_79:\n      mload(0x40)\n      dup1\n      swap2\n      sub\n      swap1\n      revert\n    tag_78:\n        /* \"CarbonIntegrity.sol\":3322:3330  _newTons */\n      dup1\n        /* \"CarbonIntegrity.sol\":3303:3309  ledger */\n      0x02\n        /* \"CarbonIntegrity.sol\":3310:3313  _id */\n      dup4\n        /* \"CarbonIntegrity.sol\":3303:3314  ledger[_id] */\n      mload(0x40)\n      tag_81\n      swap2\n      swap1\n      tag_56\n      jump\t// in\n    tag_81:\n      swap1\n      dup2\n      mstore\n      0x20\n      add\n      mload(0x40)\n      dup1\n      swap2\n      sub\n      swap1\n      keccak256\n        /* \"CarbonIntegrity.sol\":3303:3319  ledger[_id].tons */\n      0x04\n      add\n        /* \"CarbonIntegrity.sol\":3303:3330  ledger[_id].tons = _newTons */\n      dup2\n      swap1\n      sstore\n      pop\n        /* \"CarbonIntegrity.sol\":3341:3405  ledger[_id].statusNote = \"Utility adjusted due to physical loss\" */\n      mload(0x40)\n      dup1\n      0x60\n      add\n      0x40\n      mstore\n      dup1\n      0x25\n      dup2\n      mstore\n      0x20\n      add\n      data_5329c912140d34bc84663399af99e00d31686e69dd7429f39d0eea6ff3510e30\n      0x25\n      swap2\n      codecopy\n        /* \"CarbonIntegrity.sol\":3341:3347  ledger */\n      0x02\n        /* \"CarbonIntegrity.sol\":3348:3351  _id */\n      dup4\n        /* \"CarbonIntegrity.sol\":3341:3352  ledger[_id] */\n      mload(0x40)\n      tag_82\n      swap2\n      swap1\n      tag_56\n      jump\t// in\n    tag_82:\n      swap1\n      dup2\n      mstore\n      0x20\n      add\n      mload(0x40)\n      dup1\n      swap2\n      sub\n      swap1\n      keccak256\n        /* \"CarbonIntegrity.sol\":3341:3363  ledger[_id].statusNote */\n      0x08\n      add\n        /* \"CarbonIntegrity.sol\":3341:3405  ledger[_id].statusNote = \"Utility adjusted due to physical loss\" */\n      swap1\n      dup2\n      tag_83\n      swap2\n      swap1\n      tag_62\n      jump\t// in\n    tag_83:\n      pop\n        /* \"CarbonIntegrity.sol\":3423:3490  TransactionUpdate(_id, \"ACCIDENT_ADJUSTMENT\", msg.sender, _newTons) */\n      0x18333675623e02fb1a443aed0d08aafe80d54464e407da936d5921418c6636e7\n        /* \"CarbonIntegrity.sol\":3441:3444  _id */\n      dup3\n        /* \"CarbonIntegrity.sol\":3469:3479  msg.sender */\n      caller\n        /* \"CarbonIntegrity.sol\":3481:3489  _newTons */\n      dup4\n        /* \"CarbonIntegrity.sol\":3423:3490  TransactionUpdate(_id, \"ACCIDENT_ADJUSTMENT\", msg.sender, _newTons) */\n      mload(0x40)\n      tag_84\n      swap4\n      swap3\n      swap2\n      swap1\n      tag_85\n      jump\t// in\n    tag_84:\n      mload(0x40)\n      dup1\n      swap2\n      sub\n      swap1\n      log1\n        /* \"CarbonIntegrity.sol\":2966:3498  function updateUtility(string memory _id, uint256 _newTons) public {... */\n      pop\n      pop\n      jump\t// out\n        /* \"CarbonIntegrity.sol\":2023:2426  function transferCredit(string memory _id, address _to) public {... */\n    tag_28:\n        /* \"CarbonIntegrity.sol\":2133:2143  msg.sender */\n      caller\n        /* \"CarbonIntegrity.sol\":2105:2143  ledger[_id].currentOwner == msg.sender */\n      0xffffffffffffffffffffffffffffffffffffffff\n      and\n        /* \"CarbonIntegrity.sol\":2105:2111  ledger */\n      0x02\n        /* \"CarbonIntegrity.sol\":2112:2115  _id */\n      dup4\n        /* \"CarbonIntegrity.sol\":2105:2116  ledger[_id] */\n      mload(0x40)\n      tag_87\n      swap2\n      swap1\n      tag_56\n      jump\t// in\n    tag_87:\n      swap1\n      dup2\n      mstore\n      0x20\n      add\n      mload(0x40)\n      dup1\n      swap2\n      sub\n      swap1\n      keccak256\n        /* \"CarbonIntegrity.sol\":2105:2129  ledger[_id].currentOwner */\n      0x05\n      add\n      0x00\n      swap1\n      sload\n      swap1\n      0x0100\n      exp\n      swap1\n      div\n      0xffffffffffffffffffffffffffffffffffffffff\n      and\n        /* \"CarbonIntegrity.sol\":2105:2143  ledger[_id].currentOwner == msg.sender */\n      0xffffffffffffffffffffffffffffffffffffffff\n      and\n      eq\n        /* \"CarbonIntegrity.sol\":2097:2174  require(ledger[_id].currentOwner == msg.sender, \"Error: You do not own this\") */\n      tag_88\n      jumpi\n      mload(0x40)\n      0x08c379a000000000000000000000000000000000000000000000000000000000\n      dup2\n      mstore\n      0x04\n      add\n      tag_89\n      swap1\n      tag_90\n      jump\t// in\n    tag_89:\n      mload(0x40)\n      dup1\n      swap2\n      sub\n      swap1\n      revert\n    tag_88:\n        /* \"CarbonIntegrity.sol\":2194:2200  ledger */\n      0x02\n        /* \"CarbonIntegrity.sol\":2201:2204  _id */\n      dup3\n        /* \"CarbonIntegrity.sol\":2194:2205  ledger[_id] */\n      mload(0x40)\n      tag_91\n      swap2\n      swap1\n      tag_56\n      jump\t// in\n    tag_91:\n      swap1\n      dup2\n      mstore\n      0x20\n      add\n      mload(0x40)\n      dup1\n      swap2\n      sub\n      swap1\n      keccak256\n        /* \"CarbonIntegrity.sol\":2194:2215  ledger[_id].isRetired */\n      0x07\n      add\n      0x00\n      swap1\n      sload\n      swap1\n      0x0100\n      exp\n      swap1\n      div\n      0xff\n      and\n        /* \"CarbonIntegrity.sol\":2193:2215  !ledger[_id].isRetired */\n      iszero\n        /* \"CarbonIntegrity.sol\":2185:2255  require(!ledger[_id].isRetired, \"Error: Credit is retired and locked\") */\n      tag_92\n      jumpi\n      mload(0x40)\n      0x08c379a000000000000000000000000000000000000000000000000000000000\n      dup2\n      mstore\n      0x04\n      add\n      tag_93\n      swap1\n      tag_94\n      jump\t// in\n    tag_93:\n      mload(0x40)\n      dup1\n      swap2\n      sub\n      swap1\n      revert\n    tag_92:\n        /* \"CarbonIntegrity.sol\":2295:2298  _to */\n      dup1\n        /* \"CarbonIntegrity.sol\":2268:2274  ledger */\n      0x02\n        /* \"CarbonIntegrity.sol\":2275:2278  _id */\n      dup4\n        /* \"CarbonIntegrity.sol\":2268:2279  ledger[_id] */\n      mload(0x40)\n      tag_95\n      swap2\n      swap1\n      tag_56\n      jump\t// in\n    tag_95:\n      swap1\n      dup2\n      mstore\n      0x20\n      add\n      mload(0x40)\n      dup1\n      swap2\n      sub\n      swap1\n      keccak256\n        /* \"CarbonIntegrity.sol\":2268:2292  ledger[_id].currentOwner */\n      0x05\n      add\n      0x00\n        /* \"CarbonIntegrity.sol\":2268:2298  ledger[_id].currentOwner = _to */\n      0x0100\n      exp\n      dup2\n      sload\n      dup2\n      0xffffffffffffffffffffffffffffffffffffffff\n      mul\n      not\n      and\n      swap1\n      dup4\n      0xffffffffffffffffffffffffffffffffffffffff\n      and\n      mul\n      or\n      swap1\n      sstore\n      pop\n        /* \"CarbonIntegrity.sol\":2309:2315  ledger */\n      0x02\n        /* \"CarbonIntegrity.sol\":2316:2319  _id */\n      dup3\n        /* \"CarbonIntegrity.sol\":2309:2320  ledger[_id] */\n      mload(0x40)\n      tag_96\n      swap2\n      swap1\n      tag_56\n      jump\t// in\n    tag_96:\n      swap1\n      dup2\n      mstore\n      0x20\n      add\n      mload(0x40)\n      dup1\n      swap2\n      sub\n      swap1\n      keccak256\n        /* \"CarbonIntegrity.sol\":2309:2333  ledger[_id].ownerHistory */\n      0x06\n      add\n        /* \"CarbonIntegrity.sol\":2339:2342  _to */\n      dup2\n        /* \"CarbonIntegrity.sol\":2309:2343  ledger[_id].ownerHistory.push(_to) */\n      swap1\n      dup1\n      0x01\n      dup2\n      sload\n      add\n      dup1\n      dup3\n      sstore\n      dup1\n      swap2\n      pop\n      pop\n      0x01\n      swap1\n      sub\n      swap1\n      0x00\n      mstore\n      keccak256(0x00, 0x20)\n      add\n      0x00\n      swap1\n      swap2\n      swap1\n      swap2\n      swap1\n      swap2\n      0x0100\n      exp\n      dup2\n      sload\n      dup2\n      0xffffffffffffffffffffffffffffffffffffffff\n      mul\n      not\n      and\n      swap1\n      dup4\n      0xffffffffffffffffffffffffffffffffffffffff\n      and\n      mul\n      or\n      swap1\n      sstore\n      pop\n        /* \"CarbonIntegrity.sol\":2361:2418  TransactionUpdate(_id, \"TRANSFER\", _to, ledger[_id].tons) */\n      0x18333675623e02fb1a443aed0d08aafe80d54464e407da936d5921418c6636e7\n        /* \"CarbonIntegrity.sol\":2379:2382  _id */\n      dup3\n        /* \"CarbonIntegrity.sol\":2396:2399  _to */\n      dup3\n        /* \"CarbonIntegrity.sol\":2401:2407  ledger */\n      0x02\n        /* \"CarbonIntegrity.sol\":2408:2411  _id */\n      dup6\n        /* \"CarbonIntegrity.sol\":2401:2412  ledger[_id] */\n      mload(0x40)\n      tag_98\n      swap2\n      swap1\n      tag_56\n      jump\t// in\n    tag_98:\n      swap1\n      dup2\n      mstore\n      0x20\n      add\n      mload(0x40)\n      dup1\n      swap2\n      sub\n      swap1\n      keccak256\n        /* \"CarbonIntegrity.sol\":2401:2417  ledger[_id].tons */\n      0x04\n      add\n      sload\n        /* \"CarbonIntegrity.sol\":2361:2418  TransactionUpdate(_id, \"TRANSFER\", _to, ledger[_id].tons) */\n      mload(0x40)\n      tag_99\n      swap4\n      swap3\n      swap2\n      swap1\n      tag_100\n      jump\t// in\n    tag_99:\n      mload(0x40)\n      dup1\n      swap2\n      sub\n      swap1\n      log1\n        /* \"CarbonIntegrity.sol\":2023:2426  function transferCredit(string memory _id, address _to) public {... */\n      pop\n      pop\n      jump\t// out\n        /* \"CarbonIntegrity.sol\":2492:2882  function retireCredit(string memory _id, string memory _note) public {... */\n    tag_32:\n        /* \"CarbonIntegrity.sol\":2608:2618  msg.sender */\n      caller\n        /* \"CarbonIntegrity.sol\":2580:2618  ledger[_id].currentOwner == msg.sender */\n      0xffffffffffffffffffffffffffffffffffffffff\n      and\n        /* \"CarbonIntegrity.sol\":2580:2586  ledger */\n      0x02\n        /* \"CarbonIntegrity.sol\":2587:2590  _id */\n      dup4\n        /* \"CarbonIntegrity.sol\":2580:2591  ledger[_id] */\n      mload(0x40)\n      tag_102\n      swap2\n      swap1\n      tag_56\n      jump\t// in\n    tag_102:\n      swap1\n      dup2\n      mstore\n      0x20\n      add\n      mload(0x40)\n      dup1\n      swap2\n      sub\n      swap1\n      keccak256\n        /* \"CarbonIntegrity.sol\":2580:2604  ledger[_id].currentOwner */\n      0x05\n      add\n      0x00\n      swap1\n      sload\n      swap1\n      0x0100\n      exp\n      swap1\n      div\n      0xffffffffffffffffffffffffffffffffffffffff\n      and\n        /* \"CarbonIntegrity.sol\":2580:2618  ledger[_id].currentOwner == msg.sender */\n      0xffffffffffffffffffffffffffffffffffffffff\n      and\n      eq\n        /* \"CarbonIntegrity.sol\":2572:2643  require(ledger[_id].currentOwner == msg.sender, \"Error: Not the owner\") */\n      tag_103\n      jumpi\n      mload(0x40)\n      0x08c379a000000000000000000000000000000000000000000000000000000000\n      dup2\n      mstore\n      0x04\n      add\n      tag_104\n      swap1\n      tag_105\n      jump\t// in\n    tag_104:\n      mload(0x40)\n      dup1\n      swap2\n      sub\n      swap1\n      revert\n    tag_103:\n        /* \"CarbonIntegrity.sol\":2663:2669  ledger */\n      0x02\n        /* \"CarbonIntegrity.sol\":2670:2673  _id */\n      dup3\n        /* \"CarbonIntegrity.sol\":2663:2674  ledger[_id] */\n      mload(0x40)\n      tag_106\n      swap2\n      swap1\n      tag_56\n      jump\t// in\n    tag_106:\n      swap1\n      dup2\n      mstore\n      0x20\n      add\n      mload(0x40)\n      dup1\n      swap2\n      sub\n      swap1\n      keccak256\n        /* \"CarbonIntegrity.sol\":2663:2684  ledger[_id].isRetired */\n      0x07\n      add\n      0x00\n      swap1\n      sload\n      swap1\n      0x0100\n      exp\n      swap1\n      div\n      0xff\n      and\n        /* \"CarbonIntegrity.sol\":2662:2684  !ledger[_id].isRetired */\n      iszero\n        /* \"CarbonIntegrity.sol\":2654:2711  require(!ledger[_id].isRetired, \"Error: Already retired\") */\n      tag_107\n      jumpi\n      mload(0x40)\n      0x08c379a000000000000000000000000000000000000000000000000000000000\n      dup2\n      mstore\n      0x04\n      add\n      tag_108\n      swap1\n      tag_109\n      jump\t// in\n    tag_108:\n      mload(0x40)\n      dup1\n      swap2\n      sub\n      swap1\n      revert\n    tag_107:\n        /* \"CarbonIntegrity.sol\":2748:2752  true */\n      0x01\n        /* \"CarbonIntegrity.sol\":2724:2730  ledger */\n      0x02\n        /* \"CarbonIntegrity.sol\":2731:2734  _id */\n      dup4\n        /* \"CarbonIntegrity.sol\":2724:2735  ledger[_id] */\n      mload(0x40)\n      tag_110\n      swap2\n      swap1\n      tag_56\n      jump\t// in\n    tag_110:\n      swap1\n      dup2\n      mstore\n      0x20\n      add\n      mload(0x40)\n      dup1\n      swap2\n      sub\n      swap1\n      keccak256\n        /* \"CarbonIntegrity.sol\":2724:2745  ledger[_id].isRetired */\n      0x07\n      add\n      0x00\n        /* \"CarbonIntegrity.sol\":2724:2752  ledger[_id].isRetired = true */\n      0x0100\n      exp\n      dup2\n      sload\n      dup2\n      0xff\n      mul\n      not\n      and\n      swap1\n      dup4\n      iszero\n      iszero\n      mul\n      or\n      swap1\n      sstore\n      pop\n        /* \"CarbonIntegrity.sol\":2788:2793  _note */\n      dup1\n        /* \"CarbonIntegrity.sol\":2763:2769  ledger */\n      0x02\n        /* \"CarbonIntegrity.sol\":2770:2773  _id */\n      dup4\n        /* \"CarbonIntegrity.sol\":2763:2774  ledger[_id] */\n      mload(0x40)\n      tag_111\n      swap2\n      swap1\n      tag_56\n      jump\t// in\n    tag_111:\n      swap1\n      dup2\n      mstore\n      0x20\n      add\n      mload(0x40)\n      dup1\n      swap2\n      sub\n      swap1\n      keccak256\n        /* \"CarbonIntegrity.sol\":2763:2785  ledger[_id].statusNote */\n      0x08\n      add\n        /* \"CarbonIntegrity.sol\":2763:2793  ledger[_id].statusNote = _note */\n      swap1\n      dup2\n      tag_112\n      swap2\n      swap1\n      tag_62\n      jump\t// in\n    tag_112:\n      pop\n        /* \"CarbonIntegrity.sol\":2811:2874  TransactionUpdate(_id, \"RETIRED\", msg.sender, ledger[_id].tons) */\n      0x18333675623e02fb1a443aed0d08aafe80d54464e407da936d5921418c6636e7\n        /* \"CarbonIntegrity.sol\":2829:2832  _id */\n      dup3\n        /* \"CarbonIntegrity.sol\":2845:2855  msg.sender */\n      caller\n        /* \"CarbonIntegrity.sol\":2857:2863  ledger */\n      0x02\n        /* \"CarbonIntegrity.sol\":2864:2867  _id */\n      dup6\n        /* \"CarbonIntegrity.sol\":2857:2868  ledger[_id] */\n      mload(0x40)\n      tag_113\n      swap2\n      swap1\n      tag_56\n      jump\t// in\n    tag_113:\n      swap1\n      dup2\n      mstore\n      0x20\n      add\n      mload(0x40)\n      dup1\n      swap2\n      sub\n      swap1\n      keccak256\n        /* \"CarbonIntegrity.sol\":2857:2873  ledger[_id].tons */\n      0x04\n      add\n      sload\n        /* \"CarbonIntegrity.sol\":2811:2874  TransactionUpdate(_id, \"RETIRED\", msg.sender, ledger[_id].tons) */\n      mload(0x40)\n      tag_114\n      swap4\n      swap3\n      swap2\n      swap1\n      tag_115\n      jump\t// in\n    tag_114:\n      mload(0x40)\n      dup1\n      swap2\n      sub\n      swap1\n      log1\n        /* \"CarbonIntegrity.sol\":2492:2882  function retireCredit(string memory _id, string memory _note) public {... */\n      pop\n      pop\n      jump\t// out\n        /* \"CarbonIntegrity.sol\":4113:4241  function getHistory(string memory _id) public view returns (address[] memory) {... */\n    tag_36:\n        /* \"CarbonIntegrity.sol\":4173:4189  address[] memory */\n      0x60\n        /* \"CarbonIntegrity.sol\":4209:4215  ledger */\n      0x02\n        /* \"CarbonIntegrity.sol\":4216:4219  _id */\n      dup3\n        /* \"CarbonIntegrity.sol\":4209:4220  ledger[_id] */\n      mload(0x40)\n      tag_117\n      swap2\n      swap1\n      tag_56\n      jump\t// in\n    tag_117:\n      swap1\n      dup2\n      mstore\n      0x20\n      add\n      mload(0x40)\n      dup1\n      swap2\n      sub\n      swap1\n      keccak256\n        /* \"CarbonIntegrity.sol\":4209:4233  ledger[_id].ownerHistory */\n      0x06\n      add\n        /* \"CarbonIntegrity.sol\":4202:4233  return ledger[_id].ownerHistory */\n      dup1\n      sload\n      dup1\n      0x20\n      mul\n      0x20\n      add\n      mload(0x40)\n      swap1\n      dup2\n      add\n      0x40\n      mstore\n      dup1\n      swap3\n      swap2\n      swap1\n      dup2\n      dup2\n      mstore\n      0x20\n      add\n      dup3\n      dup1\n      sload\n      dup1\n      iszero\n      tag_118\n      jumpi\n      0x20\n      mul\n      dup3\n      add\n      swap2\n      swap1\n      0x00\n      mstore\n      keccak256(0x00, 0x20)\n      swap1\n    tag_119:\n      dup2\n      0x00\n      swap1\n      sload\n      swap1\n      0x0100\n      exp\n      swap1\n      div\n      0xffffffffffffffffffffffffffffffffffffffff\n      and\n      0xffffffffffffffffffffffffffffffffffffffff\n      and\n      dup2\n      mstore\n      0x20\n      add\n      swap1\n      0x01\n      add\n      swap1\n      dup1\n      dup4\n      gt\n      tag_119\n      jumpi\n    tag_118:\n      pop\n      pop\n      pop\n      pop\n      pop\n      swap1\n      pop\n        /* \"CarbonIntegrity.sol\":4113:4241  function getHistory(string memory _id) public view returns (address[] memory) {... */\n      swap2\n      swap1\n      pop\n      jump\t// out\n        /* \"CarbonIntegrity.sol\":1813:1973  function linkToQIEDEX(address _tokenAddr) public {... */\n    tag_42:\n        /* \"CarbonIntegrity.sol\":1895:1905  researcher */\n      0x00\n      dup1\n      sload\n      swap1\n      0x0100\n      exp\n      swap1\n      div\n      0xffffffffffffffffffffffffffffffffffffffff\n      and\n        /* \"CarbonIntegrity.sol\":1881:1905  msg.sender == researcher */\n      0xffffffffffffffffffffffffffffffffffffffff\n      and\n        /* \"CarbonIntegrity.sol\":1881:1891  msg.sender */\n      caller\n        /* \"CarbonIntegrity.sol\":1881:1905  msg.sender == researcher */\n      0xffffffffffffffffffffffffffffffffffffffff\n      and\n      eq\n        /* \"CarbonIntegrity.sol\":1873:1923  require(msg.sender == researcher, \"Security Lock\") */\n      tag_121\n      jumpi\n      mload(0x40)\n      0x08c379a000000000000000000000000000000000000000000000000000000000\n      dup2\n      mstore\n      0x04\n      add\n      tag_122\n      swap1\n      tag_123\n      jump\t// in\n    tag_122:\n      mload(0x40)\n      dup1\n      swap2\n      sub\n      swap1\n      revert\n    tag_121:\n        /* \"CarbonIntegrity.sol\":1955:1965  _tokenAddr */\n      dup1\n        /* \"CarbonIntegrity.sol\":1934:1952  qieDexTokenAddress */\n      0x01\n      0x00\n        /* \"CarbonIntegrity.sol\":1934:1965  qieDexTokenAddress = _tokenAddr */\n      0x0100\n      exp\n      dup2\n      sload\n      dup2\n      0xffffffffffffffffffffffffffffffffffffffff\n      mul\n      not\n      and\n      swap1\n      dup4\n      0xffffffffffffffffffffffffffffffffffffffff\n      and\n      mul\n      or\n      swap1\n      sstore\n      pop\n        /* \"CarbonIntegrity.sol\":1813:1973  function linkToQIEDEX(address _tokenAddr) public {... */\n      pop\n      jump\t// out\n        /* \"CarbonIntegrity.sol\":3557:4062  function viewFullDetails(string memory _id) public view returns (... */\n    tag_45:\n        /* \"CarbonIntegrity.sol\":3632:3648  string memory ID */\n      0x60\n        /* \"CarbonIntegrity.sol\":3660:3685  string memory Land_Anchor */\n      dup1\n        /* \"CarbonIntegrity.sol\":3697:3723  string memory Vintage_Year */\n      0x60\n        /* \"CarbonIntegrity.sol\":3734:3761  string memory Evidence_Link */\n      dup1\n        /* \"CarbonIntegrity.sol\":3772:3794  uint256 Remaining_Tons */\n      0x00\n        /* \"CarbonIntegrity.sol\":3806:3827  address Current_Owner */\n      dup1\n        /* \"CarbonIntegrity.sol\":3839:3854  bool Is_Retired */\n      0x00\n        /* \"CarbonIntegrity.sol\":3866:3891  string memory Status_Note */\n      0x60\n        /* \"CarbonIntegrity.sol\":3910:3926  Credit storage c */\n      0x00\n        /* \"CarbonIntegrity.sol\":3929:3935  ledger */\n      0x02\n        /* \"CarbonIntegrity.sol\":3936:3939  _id */\n      dup11\n        /* \"CarbonIntegrity.sol\":3929:3940  ledger[_id] */\n      mload(0x40)\n      tag_125\n      swap2\n      swap1\n      tag_56\n      jump\t// in\n    tag_125:\n      swap1\n      dup2\n      mstore\n      0x20\n      add\n      mload(0x40)\n      dup1\n      swap2\n      sub\n      swap1\n      keccak256\n        /* \"CarbonIntegrity.sol\":3910:3940  Credit storage c = ledger[_id] */\n      swap1\n      pop\n        /* \"CarbonIntegrity.sol\":3959:3960  c */\n      dup1\n        /* \"CarbonIntegrity.sol\":3959:3969  c.creditId */\n      0x00\n      add\n        /* \"CarbonIntegrity.sol\":3971:3972  c */\n      dup2\n        /* \"CarbonIntegrity.sol\":3971:3979  c.landId */\n      0x01\n      add\n        /* \"CarbonIntegrity.sol\":3981:3982  c */\n      dup3\n        /* \"CarbonIntegrity.sol\":3981:3990  c.vintage */\n      0x02\n      add\n        /* \"CarbonIntegrity.sol\":3992:3993  c */\n      dup4\n        /* \"CarbonIntegrity.sol\":3992:4002  c.dataLink */\n      0x03\n      add\n        /* \"CarbonIntegrity.sol\":4004:4005  c */\n      dup5\n        /* \"CarbonIntegrity.sol\":4004:4010  c.tons */\n      0x04\n      add\n      sload\n        /* \"CarbonIntegrity.sol\":4012:4013  c */\n      dup6\n        /* \"CarbonIntegrity.sol\":4012:4026  c.currentOwner */\n      0x05\n      add\n      0x00\n      swap1\n      sload\n      swap1\n      0x0100\n      exp\n      swap1\n      div\n      0xffffffffffffffffffffffffffffffffffffffff\n      and\n        /* \"CarbonIntegrity.sol\":4028:4029  c */\n      dup7\n        /* \"CarbonIntegrity.sol\":4028:4039  c.isRetired */\n      0x07\n      add\n      0x00\n      swap1\n      sload\n      swap1\n      0x0100\n      exp\n      swap1\n      div\n      0xff\n      and\n        /* \"CarbonIntegrity.sol\":4041:4042  c */\n      dup8\n        /* \"CarbonIntegrity.sol\":4041:4053  c.statusNote */\n      0x08\n      add\n        /* \"CarbonIntegrity.sol\":3951:4054  return (c.creditId, c.landId, c.vintage, c.dataLink, c.tons, c.currentOwner, c.isRetired, c.statusNote) */\n      dup8\n      dup1\n      sload\n      tag_126\n      swap1\n      tag_127\n      jump\t// in\n    tag_126:\n      dup1\n      0x1f\n      add\n      0x20\n      dup1\n      swap2\n      div\n      mul\n      0x20\n      add\n      mload(0x40)\n      swap1\n      dup2\n      add\n      0x40\n      mstore\n      dup1\n      swap3\n      swap2\n      swap1\n      dup2\n      dup2\n      mstore\n      0x20\n      add\n      dup3\n      dup1\n      sload\n      tag_128\n      swap1\n      tag_127\n      jump\t// in\n    tag_128:\n      dup1\n      iszero\n      tag_129\n      jumpi\n      dup1\n      0x1f\n      lt\n      tag_130\n      jumpi\n      0x0100\n      dup1\n      dup4\n      sload\n      div\n      mul\n      dup4\n      mstore\n      swap2\n      0x20\n      add\n      swap2\n      jump(tag_129)\n    tag_130:\n      dup3\n      add\n      swap2\n      swap1\n      0x00\n      mstore\n      keccak256(0x00, 0x20)\n      swap1\n    tag_131:\n      dup2\n      sload\n      dup2\n      mstore\n      swap1\n      0x01\n      add\n      swap1\n      0x20\n      add\n      dup1\n      dup4\n      gt\n      tag_131\n      jumpi\n      dup3\n      swap1\n      sub\n      0x1f\n      and\n      dup3\n      add\n      swap2\n    tag_129:\n      pop\n      pop\n      pop\n      pop\n      pop\n      swap8\n      pop\n      dup7\n      dup1\n      sload\n      tag_132\n      swap1\n      tag_127\n      jump\t// in\n    tag_132:\n      dup1\n      0x1f\n      add\n      0x20\n      dup1\n      swap2\n      div\n      mul\n      0x20\n      add\n      mload(0x40)\n      swap1\n      dup2\n      add\n      0x40\n      mstore\n      dup1\n      swap3\n      swap2\n      swap1\n      dup2\n      dup2\n      mstore\n      0x20\n      add\n      dup3\n      dup1\n      sload\n      tag_133\n      swap1\n      tag_127\n      jump\t// in\n    tag_133:\n      dup1\n      iszero\n      tag_134\n      jumpi\n      dup1\n      0x1f\n      lt\n      tag_135\n      jumpi\n      0x0100\n      dup1\n      dup4\n      sload\n      div\n      mul\n      dup4\n      mstore\n      swap2\n      0x20\n      add\n      swap2\n      jump(tag_134)\n    tag_135:\n      dup3\n      add\n      swap2\n      swap1\n      0x00\n      mstore\n      keccak256(0x00, 0x20)\n      swap1\n    tag_136:\n      dup2\n      sload\n      dup2\n      mstore\n      swap1\n      0x01\n      add\n      swap1\n      0x20\n      add\n      dup1\n      dup4\n      gt\n      tag_136\n      jumpi\n      dup3\n      swap1\n      sub\n      0x1f\n      and\n      dup3\n      add\n      swap2\n    tag_134:\n      pop\n      pop\n      pop\n      pop\n      pop\n      swap7\n      pop\n      dup6\n      dup1\n      sload\n      tag_137\n      swap1\n      tag_127\n      jump\t// in\n    tag_137:\n      dup1\n      0x1f\n      add\n      0x20\n      dup1\n      swap2\n      div\n      mul\n      0x20\n      add\n      mload(0x40)\n      swap1\n      dup2\n      add\n      0x40\n      mstore\n      dup1\n      swap3\n      swap2\n      swap1\n      dup2\n      dup2\n      mstore\n      0x20\n      add\n      dup3\n      dup1\n      sload\n      tag_138\n      swap1\n      tag_127\n      jump\t// in\n    tag_138:\n      dup1\n      iszero\n      tag_139\n      jumpi\n      dup1\n      0x1f\n      lt\n      tag_140\n      jumpi\n      0x0100\n      dup1\n      dup4\n      sload\n      div\n      mul\n      dup4\n      mstore\n      swap2\n      0x20\n      add\n      swap2\n      jump(tag_139)\n    tag_140:\n      dup3\n      add\n      swap2\n      swap1\n      0x00\n      mstore\n      keccak256(0x00, 0x20)\n      swap1\n    tag_141:\n      dup2\n      sload\n      dup2\n      mstore\n      swap1\n      0x01\n      add\n      swap1\n      0x20\n      add\n      dup1\n      dup4\n      gt\n      tag_141\n      jumpi\n      dup3\n      swap1\n      sub\n      0x1f\n      and\n      dup3\n      add\n      swap2\n    tag_139:\n      pop\n      pop\n      pop\n      pop\n      pop\n      swap6\n      pop\n      dup5\n      dup1\n      sload\n      tag_142\n      swap1\n      tag_127\n      jump\t// in\n    tag_142:\n      dup1\n      0x1f\n      add\n      0x20\n      dup1\n      swap2\n      div\n      mul\n      0x20\n      add\n      mload(0x40)\n      swap1\n      dup2\n      add\n      0x40\n      mstore\n      dup1\n      swap3\n      swap2\n      swap1\n      dup2\n      dup2\n      mstore\n      0x20\n      add\n      dup3\n      dup1\n      sload\n      tag_143\n      swap1\n      tag_127\n      jump\t// in\n    tag_143:\n      dup1\n      iszero\n      tag_144\n      jumpi\n      dup1\n      0x1f\n      lt\n      tag_145\n      jumpi\n      0x0100\n      dup1\n      dup4\n      sload\n      div\n      mul\n      dup4\n      mstore\n      swap2\n      0x20\n      add\n      swap2\n      jump(tag_144)\n    tag_145:\n      dup3\n      add\n      swap2\n      swap1\n      0x00\n      mstore\n      keccak256(0x00, 0x20)\n      swap1\n    tag_146:\n      dup2\n      sload\n      dup2\n      mstore\n      swap1\n      0x01\n      add\n      swap1\n      0x20\n      add\n      dup1\n      dup4\n      gt\n      tag_146\n      jumpi\n      dup3\n      swap1\n      sub\n      0x1f\n      and\n      dup3\n      add\n      swap2\n    tag_144:\n      pop\n      pop\n      pop\n      pop\n      pop\n      swap5\n      pop\n      dup1\n      dup1\n      sload\n      tag_147\n      swap1\n      tag_127\n      jump\t// in\n    tag_147:\n      dup1\n      0x1f\n      add\n      0x20\n      dup1\n      swap2\n      div\n      mul\n      0x20\n      add\n      mload(0x40)\n      swap1\n      dup2\n      add\n      0x40\n      mstore\n      dup1\n      swap3\n      swap2\n      swap1\n      dup2\n      dup2\n      mstore\n      0x20\n      add\n      dup3\n      dup1\n      sload\n      tag_148\n      swap1\n      tag_127\n      jump\t// in\n    tag_148:\n      dup1\n      iszero\n      tag_149\n      jumpi\n      dup1\n      0x1f\n      lt\n      tag_150\n      jumpi\n      0x0100\n      dup1\n      dup4\n      sload\n      div\n      mul\n      dup4\n      mstore\n      swap2\n      0x20\n      add\n      swap2\n      jump(tag_149)\n    tag_150:\n      dup3\n      add\n      swap2\n      swap1\n      0x00\n      mstore\n      keccak256(0x00, 0x20)\n      swap1\n    tag_151:\n      dup2\n      sload\n      dup2\n      mstore\n      swap1\n      0x01\n      add\n      swap1\n      0x20\n      add\n      dup1\n      dup4\n      gt\n      tag_151\n      jumpi\n      dup3\n      swap1\n      sub\n      0x1f\n      and\n      dup3\n      add\n      swap2\n    tag_149:\n      pop\n      pop\n      pop\n      pop\n      pop\n      swap1\n      pop\n      swap9\n      pop\n      swap9\n      pop\n      swap9\n      pop\n      swap9\n      pop\n      swap9\n      pop\n      swap9\n      pop\n      swap9\n      pop\n      swap9\n      pop\n      pop\n        /* \"CarbonIntegrity.sol\":3557:4062  function viewFullDetails(string memory _id) public view returns (... */\n      swap2\n      swap4\n      swap6\n      swap8\n      pop\n      swap2\n      swap4\n      swap6\n      swap8\n      jump\t// out\n        /* \"CarbonIntegrity.sol\":361:394  address public qieDexTokenAddress */\n    tag_49:\n      0x01\n      0x00\n      swap1\n      sload\n      swap1\n      0x0100\n      exp\n      swap1\n      div\n      0xffffffffffffffffffffffffffffffffffffffff\n      and\n      dup2\n      jump\t// out\n        /* \"#utility.yul\":7:82   */\n    tag_152:\n        /* \"#utility.yul\":40:46   */\n      0x00\n        /* \"#utility.yul\":73:75   */\n      0x40\n        /* \"#utility.yul\":67:76   */\n      mload\n        /* \"#utility.yul\":57:76   */\n      swap1\n      pop\n        /* \"#utility.yul\":7:82   */\n      swap1\n      jump\t// out\n        /* \"#utility.yul\":88:205   */\n    tag_153:\n        /* \"#utility.yul\":197:198   */\n      0x00\n        /* \"#utility.yul\":194:195   */\n      dup1\n        /* \"#utility.yul\":187:199   */\n      revert\n        /* \"#utility.yul\":211:328   */\n    tag_154:\n        /* \"#utility.yul\":320:321   */\n      0x00\n        /* \"#utility.yul\":317:318   */\n      dup1\n        /* \"#utility.yul\":310:322   */\n      revert\n        /* \"#utility.yul\":334:451   */\n    tag_155:\n        /* \"#utility.yul\":443:444   */\n      0x00\n        /* \"#utility.yul\":440:441   */\n      dup1\n        /* \"#utility.yul\":433:445   */\n      revert\n        /* \"#utility.yul\":457:574   */\n    tag_156:\n        /* \"#utility.yul\":566:567   */\n      0x00\n        /* \"#utility.yul\":563:564   */\n      dup1\n        /* \"#utility.yul\":556:568   */\n      revert\n        /* \"#utility.yul\":580:682   */\n    tag_157:\n        /* \"#utility.yul\":621:627   */\n      0x00\n        /* \"#utility.yul\":672:674   */\n      0x1f\n        /* \"#utility.yul\":668:675   */\n      not\n        /* \"#utility.yul\":663:665   */\n      0x1f\n        /* \"#utility.yul\":656:661   */\n      dup4\n        /* \"#utility.yul\":652:666   */\n      add\n        /* \"#utility.yul\":648:676   */\n      and\n        /* \"#utility.yul\":638:676   */\n      swap1\n      pop\n        /* \"#utility.yul\":580:682   */\n      swap2\n      swap1\n      pop\n      jump\t// out\n        /* \"#utility.yul\":688:868   */\n    tag_158:\n        /* \"#utility.yul\":736:813   */\n      0x4e487b7100000000000000000000000000000000000000000000000000000000\n        /* \"#utility.yul\":733:734   */\n      0x00\n        /* \"#utility.yul\":726:814   */\n      mstore\n        /* \"#utility.yul\":833:837   */\n      0x41\n        /* \"#utility.yul\":830:831   */\n      0x04\n        /* \"#utility.yul\":823:838   */\n      mstore\n        /* \"#utility.yul\":857:861   */\n      0x24\n        /* \"#utility.yul\":854:855   */\n      0x00\n        /* \"#utility.yul\":847:862   */\n      revert\n        /* \"#utility.yul\":874:1155   */\n    tag_159:\n        /* \"#utility.yul\":957:984   */\n      tag_242\n        /* \"#utility.yul\":979:983   */\n      dup3\n        /* \"#utility.yul\":957:984   */\n      tag_157\n      jump\t// in\n    tag_242:\n        /* \"#utility.yul\":949:955   */\n      dup2\n        /* \"#utility.yul\":945:985   */\n      add\n        /* \"#utility.yul\":1087:1093   */\n      dup2\n        /* \"#utility.yul\":1075:1085   */\n      dup2\n        /* \"#utility.yul\":1072:1094   */\n      lt\n        /* \"#utility.yul\":1051:1069   */\n      0xffffffffffffffff\n        /* \"#utility.yul\":1039:1049   */\n      dup3\n        /* \"#utility.yul\":1036:1070   */\n      gt\n        /* \"#utility.yul\":1033:1095   */\n      or\n        /* \"#utility.yul\":1030:1118   */\n      iszero\n      tag_243\n      jumpi\n        /* \"#utility.yul\":1098:1116   */\n      tag_244\n      tag_158\n      jump\t// in\n    tag_244:\n        /* \"#utility.yul\":1030:1118   */\n    tag_243:\n        /* \"#utility.yul\":1138:1148   */\n      dup1\n        /* \"#utility.yul\":1134:1136   */\n      0x40\n        /* \"#utility.yul\":1127:1149   */\n      mstore\n        /* \"#utility.yul\":917:1155   */\n      pop\n        /* \"#utility.yul\":874:1155   */\n      pop\n      pop\n      jump\t// out\n        /* \"#utility.yul\":1161:1290   */\n    tag_160:\n        /* \"#utility.yul\":1195:1201   */\n      0x00\n        /* \"#utility.yul\":1222:1242   */\n      tag_246\n      tag_152\n      jump\t// in\n    tag_246:\n        /* \"#utility.yul\":1212:1242   */\n      swap1\n      pop\n        /* \"#utility.yul\":1251:1284   */\n      tag_247\n        /* \"#utility.yul\":1279:1283   */\n      dup3\n        /* \"#utility.yul\":1271:1277   */\n      dup3\n        /* \"#utility.yul\":1251:1284   */\n      tag_159\n      jump\t// in\n    tag_247:\n        /* \"#utility.yul\":1161:1290   */\n      swap2\n      swap1\n      pop\n      jump\t// out\n        /* \"#utility.yul\":1296:1604   */\n    tag_161:\n        /* \"#utility.yul\":1358:1362   */\n      0x00\n        /* \"#utility.yul\":1448:1466   */\n      0xffffffffffffffff\n        /* \"#utility.yul\":1440:1446   */\n      dup3\n        /* \"#utility.yul\":1437:1467   */\n      gt\n        /* \"#utility.yul\":1434:1490   */\n      iszero\n      tag_249\n      jumpi\n        /* \"#utility.yul\":1470:1488   */\n      tag_250\n      tag_158\n      jump\t// in\n    tag_250:\n        /* \"#utility.yul\":1434:1490   */\n    tag_249:\n        /* \"#utility.yul\":1508:1537   */\n      tag_251\n        /* \"#utility.yul\":1530:1536   */\n      dup3\n        /* \"#utility.yul\":1508:1537   */\n      tag_157\n      jump\t// in\n    tag_251:\n        /* \"#utility.yul\":1500:1537   */\n      swap1\n      pop\n        /* \"#utility.yul\":1592:1596   */\n      0x20\n        /* \"#utility.yul\":1586:1590   */\n      dup2\n        /* \"#utility.yul\":1582:1597   */\n      add\n        /* \"#utility.yul\":1574:1597   */\n      swap1\n      pop\n        /* \"#utility.yul\":1296:1604   */\n      swap2\n      swap1\n      pop\n      jump\t// out\n        /* \"#utility.yul\":1610:1758   */\n    tag_162:\n        /* \"#utility.yul\":1708:1714   */\n      dup3\n        /* \"#utility.yul\":1703:1706   */\n      dup2\n        /* \"#utility.yul\":1698:1701   */\n      dup4\n        /* \"#utility.yul\":1685:1715   */\n      calldatacopy\n        /* \"#utility.yul\":1749:1750   */\n      0x00\n        /* \"#utility.yul\":1740:1746   */\n      dup4\n        /* \"#utility.yul\":1735:1738   */\n      dup4\n        /* \"#utility.yul\":1731:1747   */\n      add\n        /* \"#utility.yul\":1724:1751   */\n      mstore\n        /* \"#utility.yul\":1610:1758   */\n      pop\n      pop\n      pop\n      jump\t// out\n        /* \"#utility.yul\":1764:2189   */\n    tag_163:\n        /* \"#utility.yul\":1842:1847   */\n      0x00\n        /* \"#utility.yul\":1867:1933   */\n      tag_254\n        /* \"#utility.yul\":1883:1932   */\n      tag_255\n        /* \"#utility.yul\":1925:1931   */\n      dup5\n        /* \"#utility.yul\":1883:1932   */\n      tag_161\n      jump\t// in\n    tag_255:\n        /* \"#utility.yul\":1867:1933   */\n      tag_160\n      jump\t// in\n    tag_254:\n        /* \"#utility.yul\":1858:1933   */\n      swap1\n      pop\n        /* \"#utility.yul\":1956:1962   */\n      dup3\n        /* \"#utility.yul\":1949:1954   */\n      dup2\n        /* \"#utility.yul\":1942:1963   */\n      mstore\n        /* \"#utility.yul\":1994:1998   */\n      0x20\n        /* \"#utility.yul\":1987:1992   */\n      dup2\n        /* \"#utility.yul\":1983:1999   */\n      add\n        /* \"#utility.yul\":2032:2035   */\n      dup5\n        /* \"#utility.yul\":2023:2029   */\n      dup5\n        /* \"#utility.yul\":2018:2021   */\n      dup5\n        /* \"#utility.yul\":2014:2030   */\n      add\n        /* \"#utility.yul\":2011:2036   */\n      gt\n        /* \"#utility.yul\":2008:2120   */\n      iszero\n      tag_256\n      jumpi\n        /* \"#utility.yul\":2039:2118   */\n      tag_257\n      tag_156\n      jump\t// in\n    tag_257:\n        /* \"#utility.yul\":2008:2120   */\n    tag_256:\n        /* \"#utility.yul\":2129:2183   */\n      tag_258\n        /* \"#utility.yul\":2176:2182   */\n      dup5\n        /* \"#utility.yul\":2171:2174   */\n      dup3\n        /* \"#utility.yul\":2166:2169   */\n      dup6\n        /* \"#utility.yul\":2129:2183   */\n      tag_162\n      jump\t// in\n    tag_258:\n        /* \"#utility.yul\":1848:2189   */\n      pop\n        /* \"#utility.yul\":1764:2189   */\n      swap4\n      swap3\n      pop\n      pop\n      pop\n      jump\t// out\n        /* \"#utility.yul\":2209:2549   */\n    tag_164:\n        /* \"#utility.yul\":2265:2270   */\n      0x00\n        /* \"#utility.yul\":2314:2317   */\n      dup3\n        /* \"#utility.yul\":2307:2311   */\n      0x1f\n        /* \"#utility.yul\":2299:2305   */\n      dup4\n        /* \"#utility.yul\":2295:2312   */\n      add\n        /* \"#utility.yul\":2291:2318   */\n      slt\n        /* \"#utility.yul\":2281:2403   */\n      tag_260\n      jumpi\n        /* \"#utility.yul\":2322:2401   */\n      tag_261\n      tag_155\n      jump\t// in\n    tag_261:\n        /* \"#utility.yul\":2281:2403   */\n    tag_260:\n        /* \"#utility.yul\":2439:2445   */\n      dup2\n        /* \"#utility.yul\":2426:2446   */\n      calldataload\n        /* \"#utility.yul\":2464:2543   */\n      tag_262\n        /* \"#utility.yul\":2539:2542   */\n      dup5\n        /* \"#utility.yul\":2531:2537   */\n      dup3\n        /* \"#utility.yul\":2524:2528   */\n      0x20\n        /* \"#utility.yul\":2516:2522   */\n      dup7\n        /* \"#utility.yul\":2512:2529   */\n      add\n        /* \"#utility.yul\":2464:2543   */\n      tag_163\n      jump\t// in\n    tag_262:\n        /* \"#utility.yul\":2455:2543   */\n      swap2\n      pop\n        /* \"#utility.yul\":2271:2549   */\n      pop\n        /* \"#utility.yul\":2209:2549   */\n      swap3\n      swap2\n      pop\n      pop\n      jump\t// out\n        /* \"#utility.yul\":2555:2632   */\n    tag_165:\n        /* \"#utility.yul\":2592:2599   */\n      0x00\n        /* \"#utility.yul\":2621:2626   */\n      dup2\n        /* \"#utility.yul\":2610:2626   */\n      swap1\n      pop\n        /* \"#utility.yul\":2555:2632   */\n      swap2\n      swap1\n      pop\n      jump\t// out\n        /* \"#utility.yul\":2638:2760   */\n    tag_166:\n        /* \"#utility.yul\":2711:2735   */\n      tag_265\n        /* \"#utility.yul\":2729:2734   */\n      dup2\n        /* \"#utility.yul\":2711:2735   */\n      tag_165\n      jump\t// in\n    tag_265:\n        /* \"#utility.yul\":2704:2709   */\n      dup2\n        /* \"#utility.yul\":2701:2736   */\n      eq\n        /* \"#utility.yul\":2691:2754   */\n      tag_266\n      jumpi\n        /* \"#utility.yul\":2750:2751   */\n      0x00\n        /* \"#utility.yul\":2747:2748   */\n      dup1\n        /* \"#utility.yul\":2740:2752   */\n      revert\n        /* \"#utility.yul\":2691:2754   */\n    tag_266:\n        /* \"#utility.yul\":2638:2760   */\n      pop\n      jump\t// out\n        /* \"#utility.yul\":2766:2905   */\n    tag_167:\n        /* \"#utility.yul\":2812:2817   */\n      0x00\n        /* \"#utility.yul\":2850:2856   */\n      dup2\n        /* \"#utility.yul\":2837:2857   */\n      calldataload\n        /* \"#utility.yul\":2828:2857   */\n      swap1\n      pop\n        /* \"#utility.yul\":2866:2899   */\n      tag_268\n        /* \"#utility.yul\":2893:2898   */\n      dup2\n        /* \"#utility.yul\":2866:2899   */\n      tag_166\n      jump\t// in\n    tag_268:\n        /* \"#utility.yul\":2766:2905   */\n      swap3\n      swap2\n      pop\n      pop\n      jump\t// out\n        /* \"#utility.yul\":2911:4542   */\n    tag_15:\n        /* \"#utility.yul\":3046:3052   */\n      0x00\n        /* \"#utility.yul\":3054:3060   */\n      dup1\n        /* \"#utility.yul\":3062:3068   */\n      0x00\n        /* \"#utility.yul\":3070:3076   */\n      dup1\n        /* \"#utility.yul\":3078:3084   */\n      0x00\n        /* \"#utility.yul\":3127:3130   */\n      0xa0\n        /* \"#utility.yul\":3115:3124   */\n      dup7\n        /* \"#utility.yul\":3106:3113   */\n      dup9\n        /* \"#utility.yul\":3102:3125   */\n      sub\n        /* \"#utility.yul\":3098:3131   */\n      slt\n        /* \"#utility.yul\":3095:3215   */\n      iszero\n      tag_270\n      jumpi\n        /* \"#utility.yul\":3134:3213   */\n      tag_271\n      tag_153\n      jump\t// in\n    tag_271:\n        /* \"#utility.yul\":3095:3215   */\n    tag_270:\n        /* \"#utility.yul\":3282:3283   */\n      0x00\n        /* \"#utility.yul\":3271:3280   */\n      dup7\n        /* \"#utility.yul\":3267:3284   */\n      add\n        /* \"#utility.yul\":3254:3285   */\n      calldataload\n        /* \"#utility.yul\":3312:3330   */\n      0xffffffffffffffff\n        /* \"#utility.yul\":3304:3310   */\n      dup2\n        /* \"#utility.yul\":3301:3331   */\n      gt\n        /* \"#utility.yul\":3298:3415   */\n      iszero\n      tag_272\n      jumpi\n        /* \"#utility.yul\":3334:3413   */\n      tag_273\n      tag_154\n      jump\t// in\n    tag_273:\n        /* \"#utility.yul\":3298:3415   */\n    tag_272:\n        /* \"#utility.yul\":3439:3502   */\n      tag_274\n        /* \"#utility.yul\":3494:3501   */\n      dup9\n        /* \"#utility.yul\":3485:3491   */\n      dup3\n        /* \"#utility.yul\":3474:3483   */\n      dup10\n        /* \"#utility.yul\":3470:3492   */\n      add\n        /* \"#utility.yul\":3439:3502   */\n      tag_164\n      jump\t// in\n    tag_274:\n        /* \"#utility.yul\":3429:3502   */\n      swap6\n      pop\n        /* \"#utility.yul\":3225:3512   */\n      pop\n        /* \"#utility.yul\":3579:3581   */\n      0x20\n        /* \"#utility.yul\":3568:3577   */\n      dup7\n        /* \"#utility.yul\":3564:3582   */\n      add\n        /* \"#utility.yul\":3551:3583   */\n      calldataload\n        /* \"#utility.yul\":3610:3628   */\n      0xffffffffffffffff\n        /* \"#utility.yul\":3602:3608   */\n      dup2\n        /* \"#utility.yul\":3599:3629   */\n      gt\n        /* \"#utility.yul\":3596:3713   */\n      iszero\n      tag_275\n      jumpi\n        /* \"#utility.yul\":3632:3711   */\n      tag_276\n      tag_154\n      jump\t// in\n    tag_276:\n        /* \"#utility.yul\":3596:3713   */\n    tag_275:\n        /* \"#utility.yul\":3737:3800   */\n      tag_277\n        /* \"#utility.yul\":3792:3799   */\n      dup9\n        /* \"#utility.yul\":3783:3789   */\n      dup3\n        /* \"#utility.yul\":3772:3781   */\n      dup10\n        /* \"#utility.yul\":3768:3790   */\n      add\n        /* \"#utility.yul\":3737:3800   */\n      tag_164\n      jump\t// in\n    tag_277:\n        /* \"#utility.yul\":3727:3800   */\n      swap5\n      pop\n        /* \"#utility.yul\":3522:3810   */\n      pop\n        /* \"#utility.yul\":3877:3879   */\n      0x40\n        /* \"#utility.yul\":3866:3875   */\n      dup7\n        /* \"#utility.yul\":3862:3880   */\n      add\n        /* \"#utility.yul\":3849:3881   */\n      calldataload\n        /* \"#utility.yul\":3908:3926   */\n      0xffffffffffffffff\n        /* \"#utility.yul\":3900:3906   */\n      dup2\n        /* \"#utility.yul\":3897:3927   */\n      gt\n        /* \"#utility.yul\":3894:4011   */\n      iszero\n      tag_278\n      jumpi\n        /* \"#utility.yul\":3930:4009   */\n      tag_279\n      tag_154\n      jump\t// in\n    tag_279:\n        /* \"#utility.yul\":3894:4011   */\n    tag_278:\n        /* \"#utility.yul\":4035:4098   */\n      tag_280\n        /* \"#utility.yul\":4090:4097   */\n      dup9\n        /* \"#utility.yul\":4081:4087   */\n      dup3\n        /* \"#utility.yul\":4070:4079   */\n      dup10\n        /* \"#utility.yul\":4066:4088   */\n      add\n        /* \"#utility.yul\":4035:4098   */\n      tag_164\n      jump\t// in\n    tag_280:\n        /* \"#utility.yul\":4025:4098   */\n      swap4\n      pop\n        /* \"#utility.yul\":3820:4108   */\n      pop\n        /* \"#utility.yul\":4175:4177   */\n      0x60\n        /* \"#utility.yul\":4164:4173   */\n      dup7\n        /* \"#utility.yul\":4160:4178   */\n      add\n        /* \"#utility.yul\":4147:4179   */\n      calldataload\n        /* \"#utility.yul\":4206:4224   */\n      0xffffffffffffffff\n        /* \"#utility.yul\":4198:4204   */\n      dup2\n        /* \"#utility.yul\":4195:4225   */\n      gt\n        /* \"#utility.yul\":4192:4309   */\n      iszero\n      tag_281\n      jumpi\n        /* \"#utility.yul\":4228:4307   */\n      tag_282\n      tag_154\n      jump\t// in\n    tag_282:\n        /* \"#utility.yul\":4192:4309   */\n    tag_281:\n        /* \"#utility.yul\":4333:4396   */\n      tag_283\n        /* \"#utility.yul\":4388:4395   */\n      dup9\n        /* \"#utility.yul\":4379:4385   */\n      dup3\n        /* \"#utility.yul\":4368:4377   */\n      dup10\n        /* \"#utility.yul\":4364:4386   */\n      add\n        /* \"#utility.yul\":4333:4396   */\n      tag_164\n      jump\t// in\n    tag_283:\n        /* \"#utility.yul\":4323:4396   */\n      swap3\n      pop\n        /* \"#utility.yul\":4118:4406   */\n      pop\n        /* \"#utility.yul\":4445:4448   */\n      0x80\n        /* \"#utility.yul\":4472:4525   */\n      tag_284\n        /* \"#utility.yul\":4517:4524   */\n      dup9\n        /* \"#utility.yul\":4508:4514   */\n      dup3\n        /* \"#utility.yul\":4497:4506   */\n      dup10\n        /* \"#utility.yul\":4493:4515   */\n      add\n        /* \"#utility.yul\":4472:4525   */\n      tag_167\n      jump\t// in\n    tag_284:\n        /* \"#utility.yul\":4462:4525   */\n      swap2\n      pop\n        /* \"#utility.yul\":4416:4535   */\n      pop\n        /* \"#utility.yul\":2911:4542   */\n      swap3\n      swap6\n      pop\n      swap3\n      swap6\n      swap1\n      swap4\n      pop\n      jump\t// out\n        /* \"#utility.yul\":4548:4674   */\n    tag_168:\n        /* \"#utility.yul\":4585:4592   */\n      0x00\n        /* \"#utility.yul\":4625:4667   */\n      0xffffffffffffffffffffffffffffffffffffffff\n        /* \"#utility.yul\":4618:4623   */\n      dup3\n        /* \"#utility.yul\":4614:4668   */\n      and\n        /* \"#utility.yul\":4603:4668   */\n      swap1\n      pop\n        /* \"#utility.yul\":4548:4674   */\n      swap2\n      swap1\n      pop\n      jump\t// out\n        /* \"#utility.yul\":4680:4776   */\n    tag_169:\n        /* \"#utility.yul\":4717:4724   */\n      0x00\n        /* \"#utility.yul\":4746:4770   */\n      tag_287\n        /* \"#utility.yul\":4764:4769   */\n      dup3\n        /* \"#utility.yul\":4746:4770   */\n      tag_168\n      jump\t// in\n    tag_287:\n        /* \"#utility.yul\":4735:4770   */\n      swap1\n      pop\n        /* \"#utility.yul\":4680:4776   */\n      swap2\n      swap1\n      pop\n      jump\t// out\n        /* \"#utility.yul\":4782:4900   */\n    tag_170:\n        /* \"#utility.yul\":4869:4893   */\n      tag_289\n        /* \"#utility.yul\":4887:4892   */\n      dup2\n        /* \"#utility.yul\":4869:4893   */\n      tag_169\n      jump\t// in\n    tag_289:\n        /* \"#utility.yul\":4864:4867   */\n      dup3\n        /* \"#utility.yul\":4857:4894   */\n      mstore\n        /* \"#utility.yul\":4782:4900   */\n      pop\n      pop\n      jump\t// out\n        /* \"#utility.yul\":4906:5128   */\n    tag_20:\n        /* \"#utility.yul\":4999:5003   */\n      0x00\n        /* \"#utility.yul\":5037:5039   */\n      0x20\n        /* \"#utility.yul\":5026:5035   */\n      dup3\n        /* \"#utility.yul\":5022:5040   */\n      add\n        /* \"#utility.yul\":5014:5040   */\n      swap1\n      pop\n        /* \"#utility.yul\":5050:5121   */\n      tag_291\n        /* \"#utility.yul\":5118:5119   */\n      0x00\n        /* \"#utility.yul\":5107:5116   */\n      dup4\n        /* \"#utility.yul\":5103:5120   */\n      add\n        /* \"#utility.yul\":5094:5100   */\n      dup5\n        /* \"#utility.yul\":5050:5121   */\n      tag_170\n      jump\t// in\n    tag_291:\n        /* \"#utility.yul\":4906:5128   */\n      swap3\n      swap2\n      pop\n      pop\n      jump\t// out\n        /* \"#utility.yul\":5134:5788   */\n    tag_23:\n        /* \"#utility.yul\":5212:5218   */\n      0x00\n        /* \"#utility.yul\":5220:5226   */\n      dup1\n        /* \"#utility.yul\":5269:5271   */\n      0x40\n        /* \"#utility.yul\":5257:5266   */\n      dup4\n        /* \"#utility.yul\":5248:5255   */\n      dup6\n        /* \"#utility.yul\":5244:5267   */\n      sub\n        /* \"#utility.yul\":5240:5272   */\n      slt\n        /* \"#utility.yul\":5237:5356   */\n      iszero\n      tag_293\n      jumpi\n        /* \"#utility.yul\":5275:5354   */\n      tag_294\n      tag_153\n      jump\t// in\n    tag_294:\n        /* \"#utility.yul\":5237:5356   */\n    tag_293:\n        /* \"#utility.yul\":5423:5424   */\n      0x00\n        /* \"#utility.yul\":5412:5421   */\n      dup4\n        /* \"#utility.yul\":5408:5425   */\n      add\n        /* \"#utility.yul\":5395:5426   */\n      calldataload\n        /* \"#utility.yul\":5453:5471   */\n      0xffffffffffffffff\n        /* \"#utility.yul\":5445:5451   */\n      dup2\n        /* \"#utility.yul\":5442:5472   */\n      gt\n        /* \"#utility.yul\":5439:5556   */\n      iszero\n      tag_295\n      jumpi\n        /* \"#utility.yul\":5475:5554   */\n      tag_296\n      tag_154\n      jump\t// in\n    tag_296:\n        /* \"#utility.yul\":5439:5556   */\n    tag_295:\n        /* \"#utility.yul\":5580:5643   */\n      tag_297\n        /* \"#utility.yul\":5635:5642   */\n      dup6\n        /* \"#utility.yul\":5626:5632   */\n      dup3\n        /* \"#utility.yul\":5615:5624   */\n      dup7\n        /* \"#utility.yul\":5611:5633   */\n      add\n        /* \"#utility.yul\":5580:5643   */\n      tag_164\n      jump\t// in\n    tag_297:\n        /* \"#utility.yul\":5570:5643   */\n      swap3\n      pop\n        /* \"#utility.yul\":5366:5653   */\n      pop\n        /* \"#utility.yul\":5692:5694   */\n      0x20\n        /* \"#utility.yul\":5718:5771   */\n      tag_298\n        /* \"#utility.yul\":5763:5770   */\n      dup6\n        /* \"#utility.yul\":5754:5760   */\n      dup3\n        /* \"#utility.yul\":5743:5752   */\n      dup7\n        /* \"#utility.yul\":5739:5761   */\n      add\n        /* \"#utility.yul\":5718:5771   */\n      tag_167\n      jump\t// in\n    tag_298:\n        /* \"#utility.yul\":5708:5771   */\n      swap2\n      pop\n        /* \"#utility.yul\":5663:5781   */\n      pop\n        /* \"#utility.yul\":5134:5788   */\n      swap3\n      pop\n      swap3\n      swap1\n      pop\n      jump\t// out\n        /* \"#utility.yul\":5794:5916   */\n    tag_171:\n        /* \"#utility.yul\":5867:5891   */\n      tag_300\n        /* \"#utility.yul\":5885:5890   */\n      dup2\n        /* \"#utility.yul\":5867:5891   */\n      tag_169\n      jump\t// in\n    tag_300:\n        /* \"#utility.yul\":5860:5865   */\n      dup2\n        /* \"#utility.yul\":5857:5892   */\n      eq\n        /* \"#utility.yul\":5847:5910   */\n      tag_301\n      jumpi\n        /* \"#utility.yul\":5906:5907   */\n      0x00\n        /* \"#utility.yul\":5903:5904   */\n      dup1\n        /* \"#utility.yul\":5896:5908   */\n      revert\n        /* \"#utility.yul\":5847:5910   */\n    tag_301:\n        /* \"#utility.yul\":5794:5916   */\n      pop\n      jump\t// out\n        /* \"#utility.yul\":5922:6061   */\n    tag_172:\n        /* \"#utility.yul\":5968:5973   */\n      0x00\n        /* \"#utility.yul\":6006:6012   */\n      dup2\n        /* \"#utility.yul\":5993:6013   */\n      calldataload\n        /* \"#utility.yul\":5984:6013   */\n      swap1\n      pop\n        /* \"#utility.yul\":6022:6055   */\n      tag_303\n        /* \"#utility.yul\":6049:6054   */\n      dup2\n        /* \"#utility.yul\":6022:6055   */\n      tag_171\n      jump\t// in\n    tag_303:\n        /* \"#utility.yul\":5922:6061   */\n      swap3\n      swap2\n      pop\n      pop\n      jump\t// out\n        /* \"#utility.yul\":6067:6721   */\n    tag_27:\n        /* \"#utility.yul\":6145:6151   */\n      0x00\n        /* \"#utility.yul\":6153:6159   */\n      dup1\n        /* \"#utility.yul\":6202:6204   */\n      0x40\n        /* \"#utility.yul\":6190:6199   */\n      dup4\n        /* \"#utility.yul\":6181:6188   */\n      dup6\n        /* \"#utility.yul\":6177:6200   */\n      sub\n        /* \"#utility.yul\":6173:6205   */\n      slt\n        /* \"#utility.yul\":6170:6289   */\n      iszero\n      tag_305\n      jumpi\n        /* \"#utility.yul\":6208:6287   */\n      tag_306\n      tag_153\n      jump\t// in\n    tag_306:\n        /* \"#utility.yul\":6170:6289   */\n    tag_305:\n        /* \"#utility.yul\":6356:6357   */\n      0x00\n        /* \"#utility.yul\":6345:6354   */\n      dup4\n        /* \"#utility.yul\":6341:6358   */\n      add\n        /* \"#utility.yul\":6328:6359   */\n      calldataload\n        /* \"#utility.yul\":6386:6404   */\n      0xffffffffffffffff\n        /* \"#utility.yul\":6378:6384   */\n      dup2\n        /* \"#utility.yul\":6375:6405   */\n      gt\n        /* \"#utility.yul\":6372:6489   */\n      iszero\n      tag_307\n      jumpi\n        /* \"#utility.yul\":6408:6487   */\n      tag_308\n      tag_154\n      jump\t// in\n    tag_308:\n        /* \"#utility.yul\":6372:6489   */\n    tag_307:\n        /* \"#utility.yul\":6513:6576   */\n      tag_309\n        /* \"#utility.yul\":6568:6575   */\n      dup6\n        /* \"#utility.yul\":6559:6565   */\n      dup3\n        /* \"#utility.yul\":6548:6557   */\n      dup7\n        /* \"#utility.yul\":6544:6566   */\n      add\n        /* \"#utility.yul\":6513:6576   */\n      tag_164\n      jump\t// in\n    tag_309:\n        /* \"#utility.yul\":6503:6576   */\n      swap3\n      pop\n        /* \"#utility.yul\":6299:6586   */\n      pop\n        /* \"#utility.yul\":6625:6627   */\n      0x20\n        /* \"#utility.yul\":6651:6704   */\n      tag_310\n        /* \"#utility.yul\":6696:6703   */\n      dup6\n        /* \"#utility.yul\":6687:6693   */\n      dup3\n        /* \"#utility.yul\":6676:6685   */\n      dup7\n        /* \"#utility.yul\":6672:6694   */\n      add\n        /* \"#utility.yul\":6651:6704   */\n      tag_172\n      jump\t// in\n    tag_310:\n        /* \"#utility.yul\":6641:6704   */\n      swap2\n      pop\n        /* \"#utility.yul\":6596:6714   */\n      pop\n        /* \"#utility.yul\":6067:6721   */\n      swap3\n      pop\n      swap3\n      swap1\n      pop\n      jump\t// out\n        /* \"#utility.yul\":6727:7561   */\n    tag_31:\n        /* \"#utility.yul\":6815:6821   */\n      0x00\n        /* \"#utility.yul\":6823:6829   */\n      dup1\n        /* \"#utility.yul\":6872:6874   */\n      0x40\n        /* \"#utility.yul\":6860:6869   */\n      dup4\n        /* \"#utility.yul\":6851:6858   */\n      dup6\n        /* \"#utility.yul\":6847:6870   */\n      sub\n        /* \"#utility.yul\":6843:6875   */\n      slt\n        /* \"#utility.yul\":6840:6959   */\n      iszero\n      tag_312\n      jumpi\n        /* \"#utility.yul\":6878:6957   */\n      tag_313\n      tag_153\n      jump\t// in\n    tag_313:\n        /* \"#utility.yul\":6840:6959   */\n    tag_312:\n        /* \"#utility.yul\":7026:7027   */\n      0x00\n        /* \"#utility.yul\":7015:7024   */\n      dup4\n        /* \"#utility.yul\":7011:7028   */\n      add\n        /* \"#utility.yul\":6998:7029   */\n      calldataload\n        /* \"#utility.yul\":7056:7074   */\n      0xffffffffffffffff\n        /* \"#utility.yul\":7048:7054   */\n      dup2\n        /* \"#utility.yul\":7045:7075   */\n      gt\n        /* \"#utility.yul\":7042:7159   */\n      iszero\n      tag_314\n      jumpi\n        /* \"#utility.yul\":7078:7157   */\n      tag_315\n      tag_154\n      jump\t// in\n    tag_315:\n        /* \"#utility.yul\":7042:7159   */\n    tag_314:\n        /* \"#utility.yul\":7183:7246   */\n      tag_316\n        /* \"#utility.yul\":7238:7245   */\n      dup6\n        /* \"#utility.yul\":7229:7235   */\n      dup3\n        /* \"#utility.yul\":7218:7227   */\n      dup7\n        /* \"#utility.yul\":7214:7236   */\n      add\n        /* \"#utility.yul\":7183:7246   */\n      tag_164\n      jump\t// in\n    tag_316:\n        /* \"#utility.yul\":7173:7246   */\n      swap3\n      pop\n        /* \"#utility.yul\":6969:7256   */\n      pop\n        /* \"#utility.yul\":7323:7325   */\n      0x20\n        /* \"#utility.yul\":7312:7321   */\n      dup4\n        /* \"#utility.yul\":7308:7326   */\n      add\n        /* \"#utility.yul\":7295:7327   */\n      calldataload\n        /* \"#utility.yul\":7354:7372   */\n      0xffffffffffffffff\n        /* \"#utility.yul\":7346:7352   */\n      dup2\n        /* \"#utility.yul\":7343:7373   */\n      gt\n        /* \"#utility.yul\":7340:7457   */\n      iszero\n      tag_317\n      jumpi\n        /* \"#utility.yul\":7376:7455   */\n      tag_318\n      tag_154\n      jump\t// in\n    tag_318:\n        /* \"#utility.yul\":7340:7457   */\n    tag_317:\n        /* \"#utility.yul\":7481:7544   */\n      tag_319\n        /* \"#utility.yul\":7536:7543   */\n      dup6\n        /* \"#utility.yul\":7527:7533   */\n      dup3\n        /* \"#utility.yul\":7516:7525   */\n      dup7\n        /* \"#utility.yul\":7512:7534   */\n      add\n        /* \"#utility.yul\":7481:7544   */\n      tag_164\n      jump\t// in\n    tag_319:\n        /* \"#utility.yul\":7471:7544   */\n      swap2\n      pop\n        /* \"#utility.yul\":7266:7554   */\n      pop\n        /* \"#utility.yul\":6727:7561   */\n      swap3\n      pop\n      swap3\n      swap1\n      pop\n      jump\t// out\n        /* \"#utility.yul\":7567:8076   */\n    tag_35:\n        /* \"#utility.yul\":7636:7642   */\n      0x00\n        /* \"#utility.yul\":7685:7687   */\n      0x20\n        /* \"#utility.yul\":7673:7682   */\n      dup3\n        /* \"#utility.yul\":7664:7671   */\n      dup5\n        /* \"#utility.yul\":7660:7683   */\n      sub\n        /* \"#utility.yul\":7656:7688   */\n      slt\n        /* \"#utility.yul\":7653:7772   */\n      iszero\n      tag_321\n      jumpi\n        /* \"#utility.yul\":7691:7770   */\n      tag_322\n      tag_153\n      jump\t// in\n    tag_322:\n        /* \"#utility.yul\":7653:7772   */\n    tag_321:\n        /* \"#utility.yul\":7839:7840   */\n      0x00\n        /* \"#utility.yul\":7828:7837   */\n      dup3\n        /* \"#utility.yul\":7824:7841   */\n      add\n        /* \"#utility.yul\":7811:7842   */\n      calldataload\n        /* \"#utility.yul\":7869:7887   */\n      0xffffffffffffffff\n        /* \"#utility.yul\":7861:7867   */\n      dup2\n        /* \"#utility.yul\":7858:7888   */\n      gt\n        /* \"#utility.yul\":7855:7972   */\n      iszero\n      tag_323\n      jumpi\n        /* \"#utility.yul\":7891:7970   */\n      tag_324\n      tag_154\n      jump\t// in\n    tag_324:\n        /* \"#utility.yul\":7855:7972   */\n    tag_323:\n        /* \"#utility.yul\":7996:8059   */\n      tag_325\n        /* \"#utility.yul\":8051:8058   */\n      dup5\n        /* \"#utility.yul\":8042:8048   */\n      dup3\n        /* \"#utility.yul\":8031:8040   */\n      dup6\n        /* \"#utility.yul\":8027:8049   */\n      add\n        /* \"#utility.yul\":7996:8059   */\n      tag_164\n      jump\t// in\n    tag_325:\n        /* \"#utility.yul\":7986:8059   */\n      swap2\n      pop\n        /* \"#utility.yul\":7782:8069   */\n      pop\n        /* \"#utility.yul\":7567:8076   */\n      swap3\n      swap2\n      pop\n      pop\n      jump\t// out\n        /* \"#utility.yul\":8082:8196   */\n    tag_173:\n        /* \"#utility.yul\":8149:8155   */\n      0x00\n        /* \"#utility.yul\":8183:8188   */\n      dup2\n        /* \"#utility.yul\":8177:8189   */\n      mload\n        /* \"#utility.yul\":8167:8189   */\n      swap1\n      pop\n        /* \"#utility.yul\":8082:8196   */\n      swap2\n      swap1\n      pop\n      jump\t// out\n        /* \"#utility.yul\":8202:8386   */\n    tag_174:\n        /* \"#utility.yul\":8301:8312   */\n      0x00\n        /* \"#utility.yul\":8335:8341   */\n      dup3\n        /* \"#utility.yul\":8330:8333   */\n      dup3\n        /* \"#utility.yul\":8323:8342   */\n      mstore\n        /* \"#utility.yul\":8375:8379   */\n      0x20\n        /* \"#utility.yul\":8370:8373   */\n      dup3\n        /* \"#utility.yul\":8366:8380   */\n      add\n        /* \"#utility.yul\":8351:8380   */\n      swap1\n      pop\n        /* \"#utility.yul\":8202:8386   */\n      swap3\n      swap2\n      pop\n      pop\n      jump\t// out\n        /* \"#utility.yul\":8392:8524   */\n    tag_175:\n        /* \"#utility.yul\":8459:8463   */\n      0x00\n        /* \"#utility.yul\":8482:8485   */\n      dup2\n        /* \"#utility.yul\":8474:8485   */\n      swap1\n      pop\n        /* \"#utility.yul\":8512:8516   */\n      0x20\n        /* \"#utility.yul\":8507:8510   */\n      dup3\n        /* \"#utility.yul\":8503:8517   */\n      add\n        /* \"#utility.yul\":8495:8517   */\n      swap1\n      pop\n        /* \"#utility.yul\":8392:8524   */\n      swap2\n      swap1\n      pop\n      jump\t// out\n        /* \"#utility.yul\":8530:8638   */\n    tag_176:\n        /* \"#utility.yul\":8607:8631   */\n      tag_330\n        /* \"#utility.yul\":8625:8630   */\n      dup2\n        /* \"#utility.yul\":8607:8631   */\n      tag_169\n      jump\t// in\n    tag_330:\n        /* \"#utility.yul\":8602:8605   */\n      dup3\n        /* \"#utility.yul\":8595:8632   */\n      mstore\n        /* \"#utility.yul\":8530:8638   */\n      pop\n      pop\n      jump\t// out\n        /* \"#utility.yul\":8644:8823   */\n    tag_177:\n        /* \"#utility.yul\":8713:8723   */\n      0x00\n        /* \"#utility.yul\":8734:8780   */\n      tag_332\n        /* \"#utility.yul\":8776:8779   */\n      dup4\n        /* \"#utility.yul\":8768:8774   */\n      dup4\n        /* \"#utility.yul\":8734:8780   */\n      tag_176\n      jump\t// in\n    tag_332:\n        /* \"#utility.yul\":8812:8816   */\n      0x20\n        /* \"#utility.yul\":8807:8810   */\n      dup4\n        /* \"#utility.yul\":8803:8817   */\n      add\n        /* \"#utility.yul\":8789:8817   */\n      swap1\n      pop\n        /* \"#utility.yul\":8644:8823   */\n      swap3\n      swap2\n      pop\n      pop\n      jump\t// out\n        /* \"#utility.yul\":8829:8942   */\n    tag_178:\n        /* \"#utility.yul\":8899:8903   */\n      0x00\n        /* \"#utility.yul\":8931:8935   */\n      0x20\n        /* \"#utility.yul\":8926:8929   */\n      dup3\n        /* \"#utility.yul\":8922:8936   */\n      add\n        /* \"#utility.yul\":8914:8936   */\n      swap1\n      pop\n        /* \"#utility.yul\":8829:8942   */\n      swap2\n      swap1\n      pop\n      jump\t// out\n        /* \"#utility.yul\":8978:9710   */\n    tag_179:\n        /* \"#utility.yul\":9097:9100   */\n      0x00\n        /* \"#utility.yul\":9126:9180   */\n      tag_335\n        /* \"#utility.yul\":9174:9179   */\n      dup3\n        /* \"#utility.yul\":9126:9180   */\n      tag_173\n      jump\t// in\n    tag_335:\n        /* \"#utility.yul\":9196:9282   */\n      tag_336\n        /* \"#utility.yul\":9275:9281   */\n      dup2\n        /* \"#utility.yul\":9270:9273   */\n      dup6\n        /* \"#utility.yul\":9196:9282   */\n      tag_174\n      jump\t// in\n    tag_336:\n        /* \"#utility.yul\":9189:9282   */\n      swap4\n      pop\n        /* \"#utility.yul\":9306:9362   */\n      tag_337\n        /* \"#utility.yul\":9356:9361   */\n      dup4\n        /* \"#utility.yul\":9306:9362   */\n      tag_175\n      jump\t// in\n    tag_337:\n        /* \"#utility.yul\":9385:9392   */\n      dup1\n        /* \"#utility.yul\":9416:9417   */\n      0x00\n        /* \"#utility.yul\":9401:9685   */\n    tag_338:\n        /* \"#utility.yul\":9426:9432   */\n      dup4\n        /* \"#utility.yul\":9423:9424   */\n      dup2\n        /* \"#utility.yul\":9420:9433   */\n      lt\n        /* \"#utility.yul\":9401:9685   */\n      iszero\n      tag_340\n      jumpi\n        /* \"#utility.yul\":9502:9508   */\n      dup2\n        /* \"#utility.yul\":9496:9509   */\n      mload\n        /* \"#utility.yul\":9529:9592   */\n      tag_341\n        /* \"#utility.yul\":9588:9591   */\n      dup9\n        /* \"#utility.yul\":9573:9586   */\n      dup3\n        /* \"#utility.yul\":9529:9592   */\n      tag_177\n      jump\t// in\n    tag_341:\n        /* \"#utility.yul\":9522:9592   */\n      swap8\n      pop\n        /* \"#utility.yul\":9615:9675   */\n      tag_342\n        /* \"#utility.yul\":9668:9674   */\n      dup4\n        /* \"#utility.yul\":9615:9675   */\n      tag_178\n      jump\t// in\n    tag_342:\n        /* \"#utility.yul\":9605:9675   */\n      swap3\n      pop\n        /* \"#utility.yul\":9461:9685   */\n      pop\n        /* \"#utility.yul\":9448:9449   */\n      0x01\n        /* \"#utility.yul\":9445:9446   */\n      dup2\n        /* \"#utility.yul\":9441:9450   */\n      add\n        /* \"#utility.yul\":9436:9450   */\n      swap1\n      pop\n        /* \"#utility.yul\":9401:9685   */\n      jump(tag_338)\n    tag_340:\n        /* \"#utility.yul\":9405:9419   */\n      pop\n        /* \"#utility.yul\":9701:9704   */\n      dup6\n        /* \"#utility.yul\":9694:9704   */\n      swap4\n      pop\n        /* \"#utility.yul\":9102:9710   */\n      pop\n      pop\n      pop\n        /* \"#utility.yul\":8978:9710   */\n      swap3\n      swap2\n      pop\n      pop\n      jump\t// out\n        /* \"#utility.yul\":9716:10089   */\n    tag_38:\n        /* \"#utility.yul\":9859:9863   */\n      0x00\n        /* \"#utility.yul\":9897:9899   */\n      0x20\n        /* \"#utility.yul\":9886:9895   */\n      dup3\n        /* \"#utility.yul\":9882:9900   */\n      add\n        /* \"#utility.yul\":9874:9900   */\n      swap1\n      pop\n        /* \"#utility.yul\":9946:9955   */\n      dup2\n        /* \"#utility.yul\":9940:9944   */\n      dup2\n        /* \"#utility.yul\":9936:9956   */\n      sub\n        /* \"#utility.yul\":9932:9933   */\n      0x00\n        /* \"#utility.yul\":9921:9930   */\n      dup4\n        /* \"#utility.yul\":9917:9934   */\n      add\n        /* \"#utility.yul\":9910:9957   */\n      mstore\n        /* \"#utility.yul\":9974:10082   */\n      tag_344\n        /* \"#utility.yul\":10077:10081   */\n      dup2\n        /* \"#utility.yul\":10068:10074   */\n      dup5\n        /* \"#utility.yul\":9974:10082   */\n      tag_179\n      jump\t// in\n    tag_344:\n        /* \"#utility.yul\":9966:10082   */\n      swap1\n      pop\n        /* \"#utility.yul\":9716:10089   */\n      swap3\n      swap2\n      pop\n      pop\n      jump\t// out\n        /* \"#utility.yul\":10095:10424   */\n    tag_41:\n        /* \"#utility.yul\":10154:10160   */\n      0x00\n        /* \"#utility.yul\":10203:10205   */\n      0x20\n        /* \"#utility.yul\":10191:10200   */\n      dup3\n        /* \"#utility.yul\":10182:10189   */\n      dup5\n        /* \"#utility.yul\":10178:10201   */\n      sub\n        /* \"#utility.yul\":10174:10206   */\n      slt\n        /* \"#utility.yul\":10171:10290   */\n      iszero\n      tag_346\n      jumpi\n        /* \"#utility.yul\":10209:10288   */\n      tag_347\n      tag_153\n      jump\t// in\n    tag_347:\n        /* \"#utility.yul\":10171:10290   */\n    tag_346:\n        /* \"#utility.yul\":10329:10330   */\n      0x00\n        /* \"#utility.yul\":10354:10407   */\n      tag_348\n        /* \"#utility.yul\":10399:10406   */\n      dup5\n        /* \"#utility.yul\":10390:10396   */\n      dup3\n        /* \"#utility.yul\":10379:10388   */\n      dup6\n        /* \"#utility.yul\":10375:10397   */\n      add\n        /* \"#utility.yul\":10354:10407   */\n      tag_172\n      jump\t// in\n    tag_348:\n        /* \"#utility.yul\":10344:10407   */\n      swap2\n      pop\n        /* \"#utility.yul\":10300:10417   */\n      pop\n        /* \"#utility.yul\":10095:10424   */\n      swap3\n      swap2\n      pop\n      pop\n      jump\t// out\n        /* \"#utility.yul\":10430:10529   */\n    tag_180:\n        /* \"#utility.yul\":10482:10488   */\n      0x00\n        /* \"#utility.yul\":10516:10521   */\n      dup2\n        /* \"#utility.yul\":10510:10522   */\n      mload\n        /* \"#utility.yul\":10500:10522   */\n      swap1\n      pop\n        /* \"#utility.yul\":10430:10529   */\n      swap2\n      swap1\n      pop\n      jump\t// out\n        /* \"#utility.yul\":10535:10704   */\n    tag_181:\n        /* \"#utility.yul\":10619:10630   */\n      0x00\n        /* \"#utility.yul\":10653:10659   */\n      dup3\n        /* \"#utility.yul\":10648:10651   */\n      dup3\n        /* \"#utility.yul\":10641:10660   */\n      mstore\n        /* \"#utility.yul\":10693:10697   */\n      0x20\n        /* \"#utility.yul\":10688:10691   */\n      dup3\n        /* \"#utility.yul\":10684:10698   */\n      add\n        /* \"#utility.yul\":10669:10698   */\n      swap1\n      pop\n        /* \"#utility.yul\":10535:10704   */\n      swap3\n      swap2\n      pop\n      pop\n      jump\t// out\n        /* \"#utility.yul\":10710:10958   */\n    tag_182:\n        /* \"#utility.yul\":10792:10793   */\n      0x00\n        /* \"#utility.yul\":10802:10915   */\n    tag_352:\n        /* \"#utility.yul\":10816:10822   */\n      dup4\n        /* \"#utility.yul\":10813:10814   */\n      dup2\n        /* \"#utility.yul\":10810:10823   */\n      lt\n        /* \"#utility.yul\":10802:10915   */\n      iszero\n      tag_354\n      jumpi\n        /* \"#utility.yul\":10901:10902   */\n      dup1\n        /* \"#utility.yul\":10896:10899   */\n      dup3\n        /* \"#utility.yul\":10892:10903   */\n      add\n        /* \"#utility.yul\":10886:10904   */\n      mload\n        /* \"#utility.yul\":10882:10883   */\n      dup2\n        /* \"#utility.yul\":10877:10880   */\n      dup5\n        /* \"#utility.yul\":10873:10884   */\n      add\n        /* \"#utility.yul\":10866:10905   */\n      mstore\n        /* \"#utility.yul\":10838:10840   */\n      0x20\n        /* \"#utility.yul\":10835:10836   */\n      dup2\n        /* \"#utility.yul\":10831:10841   */\n      add\n        /* \"#utility.yul\":10826:10841   */\n      swap1\n      pop\n        /* \"#utility.yul\":10802:10915   */\n      jump(tag_352)\n    tag_354:\n        /* \"#utility.yul\":10949:10950   */\n      0x00\n        /* \"#utility.yul\":10940:10946   */\n      dup5\n        /* \"#utility.yul\":10935:10938   */\n      dup5\n        /* \"#utility.yul\":10931:10947   */\n      add\n        /* \"#utility.yul\":10924:10951   */\n      mstore\n        /* \"#utility.yul\":10772:10958   */\n      pop\n        /* \"#utility.yul\":10710:10958   */\n      pop\n      pop\n      pop\n      jump\t// out\n        /* \"#utility.yul\":10964:11341   */\n    tag_183:\n        /* \"#utility.yul\":11052:11055   */\n      0x00\n        /* \"#utility.yul\":11080:11119   */\n      tag_356\n        /* \"#utility.yul\":11113:11118   */\n      dup3\n        /* \"#utility.yul\":11080:11119   */\n      tag_180\n      jump\t// in\n    tag_356:\n        /* \"#utility.yul\":11135:11206   */\n      tag_357\n        /* \"#utility.yul\":11199:11205   */\n      dup2\n        /* \"#utility.yul\":11194:11197   */\n      dup6\n        /* \"#utility.yul\":11135:11206   */\n      tag_181\n      jump\t// in\n    tag_357:\n        /* \"#utility.yul\":11128:11206   */\n      swap4\n      pop\n        /* \"#utility.yul\":11215:11280   */\n      tag_358\n        /* \"#utility.yul\":11273:11279   */\n      dup2\n        /* \"#utility.yul\":11268:11271   */\n      dup6\n        /* \"#utility.yul\":11261:11265   */\n      0x20\n        /* \"#utility.yul\":11254:11259   */\n      dup7\n        /* \"#utility.yul\":11250:11266   */\n      add\n        /* \"#utility.yul\":11215:11280   */\n      tag_182\n      jump\t// in\n    tag_358:\n        /* \"#utility.yul\":11305:11334   */\n      tag_359\n        /* \"#utility.yul\":11327:11333   */\n      dup2\n        /* \"#utility.yul\":11305:11334   */\n      tag_157\n      jump\t// in\n    tag_359:\n        /* \"#utility.yul\":11300:11303   */\n      dup5\n        /* \"#utility.yul\":11296:11335   */\n      add\n        /* \"#utility.yul\":11289:11335   */\n      swap2\n      pop\n        /* \"#utility.yul\":11056:11341   */\n      pop\n        /* \"#utility.yul\":10964:11341   */\n      swap3\n      swap2\n      pop\n      pop\n      jump\t// out\n        /* \"#utility.yul\":11347:11465   */\n    tag_184:\n        /* \"#utility.yul\":11434:11458   */\n      tag_361\n        /* \"#utility.yul\":11452:11457   */\n      dup2\n        /* \"#utility.yul\":11434:11458   */\n      tag_165\n      jump\t// in\n    tag_361:\n        /* \"#utility.yul\":11429:11432   */\n      dup3\n        /* \"#utility.yul\":11422:11459   */\n      mstore\n        /* \"#utility.yul\":11347:11465   */\n      pop\n      pop\n      jump\t// out\n        /* \"#utility.yul\":11471:11561   */\n    tag_185:\n        /* \"#utility.yul\":11505:11512   */\n      0x00\n        /* \"#utility.yul\":11548:11553   */\n      dup2\n        /* \"#utility.yul\":11541:11554   */\n      iszero\n        /* \"#utility.yul\":11534:11555   */\n      iszero\n        /* \"#utility.yul\":11523:11555   */\n      swap1\n      pop\n        /* \"#utility.yul\":11471:11561   */\n      swap2\n      swap1\n      pop\n      jump\t// out\n        /* \"#utility.yul\":11567:11676   */\n    tag_186:\n        /* \"#utility.yul\":11648:11669   */\n      tag_364\n        /* \"#utility.yul\":11663:11668   */\n      dup2\n        /* \"#utility.yul\":11648:11669   */\n      tag_185\n      jump\t// in\n    tag_364:\n        /* \"#utility.yul\":11643:11646   */\n      dup3\n        /* \"#utility.yul\":11636:11670   */\n      mstore\n        /* \"#utility.yul\":11567:11676   */\n      pop\n      pop\n      jump\t// out\n        /* \"#utility.yul\":11682:13122   */\n    tag_47:\n        /* \"#utility.yul\":12065:12069   */\n      0x00\n        /* \"#utility.yul\":12103:12106   */\n      0x0100\n        /* \"#utility.yul\":12092:12101   */\n      dup3\n        /* \"#utility.yul\":12088:12107   */\n      add\n        /* \"#utility.yul\":12080:12107   */\n      swap1\n      pop\n        /* \"#utility.yul\":12153:12162   */\n      dup2\n        /* \"#utility.yul\":12147:12151   */\n      dup2\n        /* \"#utility.yul\":12143:12163   */\n      sub\n        /* \"#utility.yul\":12139:12140   */\n      0x00\n        /* \"#utility.yul\":12128:12137   */\n      dup4\n        /* \"#utility.yul\":12124:12141   */\n      add\n        /* \"#utility.yul\":12117:12164   */\n      mstore\n        /* \"#utility.yul\":12181:12259   */\n      tag_366\n        /* \"#utility.yul\":12254:12258   */\n      dup2\n        /* \"#utility.yul\":12245:12251   */\n      dup12\n        /* \"#utility.yul\":12181:12259   */\n      tag_183\n      jump\t// in\n    tag_366:\n        /* \"#utility.yul\":12173:12259   */\n      swap1\n      pop\n        /* \"#utility.yul\":12306:12315   */\n      dup2\n        /* \"#utility.yul\":12300:12304   */\n      dup2\n        /* \"#utility.yul\":12296:12316   */\n      sub\n        /* \"#utility.yul\":12291:12293   */\n      0x20\n        /* \"#utility.yul\":12280:12289   */\n      dup4\n        /* \"#utility.yul\":12276:12294   */\n      add\n        /* \"#utility.yul\":12269:12317   */\n      mstore\n        /* \"#utility.yul\":12334:12412   */\n      tag_367\n        /* \"#utility.yul\":12407:12411   */\n      dup2\n        /* \"#utility.yul\":12398:12404   */\n      dup11\n        /* \"#utility.yul\":12334:12412   */\n      tag_183\n      jump\t// in\n    tag_367:\n        /* \"#utility.yul\":12326:12412   */\n      swap1\n      pop\n        /* \"#utility.yul\":12459:12468   */\n      dup2\n        /* \"#utility.yul\":12453:12457   */\n      dup2\n        /* \"#utility.yul\":12449:12469   */\n      sub\n        /* \"#utility.yul\":12444:12446   */\n      0x40\n        /* \"#utility.yul\":12433:12442   */\n      dup4\n        /* \"#utility.yul\":12429:12447   */\n      add\n        /* \"#utility.yul\":12422:12470   */\n      mstore\n        /* \"#utility.yul\":12487:12565   */\n      tag_368\n        /* \"#utility.yul\":12560:12564   */\n      dup2\n        /* \"#utility.yul\":12551:12557   */\n      dup10\n        /* \"#utility.yul\":12487:12565   */\n      tag_183\n      jump\t// in\n    tag_368:\n        /* \"#utility.yul\":12479:12565   */\n      swap1\n      pop\n        /* \"#utility.yul\":12612:12621   */\n      dup2\n        /* \"#utility.yul\":12606:12610   */\n      dup2\n        /* \"#utility.yul\":12602:12622   */\n      sub\n        /* \"#utility.yul\":12597:12599   */\n      0x60\n        /* \"#utility.yul\":12586:12595   */\n      dup4\n        /* \"#utility.yul\":12582:12600   */\n      add\n        /* \"#utility.yul\":12575:12623   */\n      mstore\n        /* \"#utility.yul\":12640:12718   */\n      tag_369\n        /* \"#utility.yul\":12713:12717   */\n      dup2\n        /* \"#utility.yul\":12704:12710   */\n      dup9\n        /* \"#utility.yul\":12640:12718   */\n      tag_183\n      jump\t// in\n    tag_369:\n        /* \"#utility.yul\":12632:12718   */\n      swap1\n      pop\n        /* \"#utility.yul\":12728:12801   */\n      tag_370\n        /* \"#utility.yul\":12796:12799   */\n      0x80\n        /* \"#utility.yul\":12785:12794   */\n      dup4\n        /* \"#utility.yul\":12781:12800   */\n      add\n        /* \"#utility.yul\":12772:12778   */\n      dup8\n        /* \"#utility.yul\":12728:12801   */\n      tag_184\n      jump\t// in\n    tag_370:\n        /* \"#utility.yul\":12811:12884   */\n      tag_371\n        /* \"#utility.yul\":12879:12882   */\n      0xa0\n        /* \"#utility.yul\":12868:12877   */\n      dup4\n        /* \"#utility.yul\":12864:12883   */\n      add\n        /* \"#utility.yul\":12855:12861   */\n      dup7\n        /* \"#utility.yul\":12811:12884   */\n      tag_170\n      jump\t// in\n    tag_371:\n        /* \"#utility.yul\":12894:12961   */\n      tag_372\n        /* \"#utility.yul\":12956:12959   */\n      0xc0\n        /* \"#utility.yul\":12945:12954   */\n      dup4\n        /* \"#utility.yul\":12941:12960   */\n      add\n        /* \"#utility.yul\":12932:12938   */\n      dup6\n        /* \"#utility.yul\":12894:12961   */\n      tag_186\n      jump\t// in\n    tag_372:\n        /* \"#utility.yul\":13009:13018   */\n      dup2\n        /* \"#utility.yul\":13003:13007   */\n      dup2\n        /* \"#utility.yul\":12999:13019   */\n      sub\n        /* \"#utility.yul\":12993:12996   */\n      0xe0\n        /* \"#utility.yul\":12982:12991   */\n      dup4\n        /* \"#utility.yul\":12978:12997   */\n      add\n        /* \"#utility.yul\":12971:13020   */\n      mstore\n        /* \"#utility.yul\":13037:13115   */\n      tag_373\n        /* \"#utility.yul\":13110:13114   */\n      dup2\n        /* \"#utility.yul\":13101:13107   */\n      dup5\n        /* \"#utility.yul\":13037:13115   */\n      tag_183\n      jump\t// in\n    tag_373:\n        /* \"#utility.yul\":13029:13115   */\n      swap1\n      pop\n        /* \"#utility.yul\":11682:13122   */\n      swap10\n      swap9\n      pop\n      pop\n      pop\n      pop\n      pop\n      pop\n      pop\n      pop\n      pop\n      jump\t// out\n        /* \"#utility.yul\":13128:13307   */\n    tag_187:\n        /* \"#utility.yul\":13268:13299   */\n      0x5149452053656375726974793a204f6e6c792052657365617263686572000000\n        /* \"#utility.yul\":13264:13265   */\n      0x00\n        /* \"#utility.yul\":13256:13262   */\n      dup3\n        /* \"#utility.yul\":13252:13266   */\n      add\n        /* \"#utility.yul\":13245:13300   */\n      mstore\n        /* \"#utility.yul\":13128:13307   */\n      pop\n      jump\t// out\n        /* \"#utility.yul\":13313:13679   */\n    tag_188:\n        /* \"#utility.yul\":13455:13458   */\n      0x00\n        /* \"#utility.yul\":13476:13543   */\n      tag_376\n        /* \"#utility.yul\":13540:13542   */\n      0x1d\n        /* \"#utility.yul\":13535:13538   */\n      dup4\n        /* \"#utility.yul\":13476:13543   */\n      tag_181\n      jump\t// in\n    tag_376:\n        /* \"#utility.yul\":13469:13543   */\n      swap2\n      pop\n        /* \"#utility.yul\":13552:13645   */\n      tag_377\n        /* \"#utility.yul\":13641:13644   */\n      dup3\n        /* \"#utility.yul\":13552:13645   */\n      tag_187\n      jump\t// in\n    tag_377:\n        /* \"#utility.yul\":13670:13672   */\n      0x20\n        /* \"#utility.yul\":13665:13668   */\n      dup3\n        /* \"#utility.yul\":13661:13673   */\n      add\n        /* \"#utility.yul\":13654:13673   */\n      swap1\n      pop\n        /* \"#utility.yul\":13313:13679   */\n      swap2\n      swap1\n      pop\n      jump\t// out\n        /* \"#utility.yul\":13685:14104   */\n    tag_54:\n        /* \"#utility.yul\":13851:13855   */\n      0x00\n        /* \"#utility.yul\":13889:13891   */\n      0x20\n        /* \"#utility.yul\":13878:13887   */\n      dup3\n        /* \"#utility.yul\":13874:13892   */\n      add\n        /* \"#utility.yul\":13866:13892   */\n      swap1\n      pop\n        /* \"#utility.yul\":13938:13947   */\n      dup2\n        /* \"#utility.yul\":13932:13936   */\n      dup2\n        /* \"#utility.yul\":13928:13948   */\n      sub\n        /* \"#utility.yul\":13924:13925   */\n      0x00\n        /* \"#utility.yul\":13913:13922   */\n      dup4\n        /* \"#utility.yul\":13909:13926   */\n      add\n        /* \"#utility.yul\":13902:13949   */\n      mstore\n        /* \"#utility.yul\":13966:14097   */\n      tag_379\n        /* \"#utility.yul\":14092:14096   */\n      dup2\n        /* \"#utility.yul\":13966:14097   */\n      tag_188\n      jump\t// in\n    tag_379:\n        /* \"#utility.yul\":13958:14097   */\n      swap1\n      pop\n        /* \"#utility.yul\":13685:14104   */\n      swap2\n      swap1\n      pop\n      jump\t// out\n        /* \"#utility.yul\":14110:14258   */\n    tag_189:\n        /* \"#utility.yul\":14212:14223   */\n      0x00\n        /* \"#utility.yul\":14249:14252   */\n      dup2\n        /* \"#utility.yul\":14234:14252   */\n      swap1\n      pop\n        /* \"#utility.yul\":14110:14258   */\n      swap3\n      swap2\n      pop\n      pop\n      jump\t// out\n        /* \"#utility.yul\":14264:14654   */\n    tag_190:\n        /* \"#utility.yul\":14370:14373   */\n      0x00\n        /* \"#utility.yul\":14398:14437   */\n      tag_382\n        /* \"#utility.yul\":14431:14436   */\n      dup3\n        /* \"#utility.yul\":14398:14437   */\n      tag_180\n      jump\t// in\n    tag_382:\n        /* \"#utility.yul\":14453:14542   */\n      tag_383\n        /* \"#utility.yul\":14535:14541   */\n      dup2\n        /* \"#utility.yul\":14530:14533   */\n      dup6\n        /* \"#utility.yul\":14453:14542   */\n      tag_189\n      jump\t// in\n    tag_383:\n        /* \"#utility.yul\":14446:14542   */\n      swap4\n      pop\n        /* \"#utility.yul\":14551:14616   */\n      tag_384\n        /* \"#utility.yul\":14609:14615   */\n      dup2\n        /* \"#utility.yul\":14604:14607   */\n      dup6\n        /* \"#utility.yul\":14597:14601   */\n      0x20\n        /* \"#utility.yul\":14590:14595   */\n      dup7\n        /* \"#utility.yul\":14586:14602   */\n      add\n        /* \"#utility.yul\":14551:14616   */\n      tag_182\n      jump\t// in\n    tag_384:\n        /* \"#utility.yul\":14641:14647   */\n      dup1\n        /* \"#utility.yul\":14636:14639   */\n      dup5\n        /* \"#utility.yul\":14632:14648   */\n      add\n        /* \"#utility.yul\":14625:14648   */\n      swap2\n      pop\n        /* \"#utility.yul\":14374:14654   */\n      pop\n        /* \"#utility.yul\":14264:14654   */\n      swap3\n      swap2\n      pop\n      pop\n      jump\t// out\n        /* \"#utility.yul\":14660:14935   */\n    tag_56:\n        /* \"#utility.yul\":14792:14795   */\n      0x00\n        /* \"#utility.yul\":14814:14909   */\n      tag_386\n        /* \"#utility.yul\":14905:14908   */\n      dup3\n        /* \"#utility.yul\":14896:14902   */\n      dup5\n        /* \"#utility.yul\":14814:14909   */\n      tag_190\n      jump\t// in\n    tag_386:\n        /* \"#utility.yul\":14807:14909   */\n      swap2\n      pop\n        /* \"#utility.yul\":14926:14929   */\n      dup2\n        /* \"#utility.yul\":14919:14929   */\n      swap1\n      pop\n        /* \"#utility.yul\":14660:14935   */\n      swap3\n      swap2\n      pop\n      pop\n      jump\t// out\n        /* \"#utility.yul\":14941:15109   */\n    tag_191:\n        /* \"#utility.yul\":15081:15101   */\n      0x4944204475706c6963617465204572726f720000000000000000000000000000\n        /* \"#utility.yul\":15077:15078   */\n      0x00\n        /* \"#utility.yul\":15069:15075   */\n      dup3\n        /* \"#utility.yul\":15065:15079   */\n      add\n        /* \"#utility.yul\":15058:15102   */\n      mstore\n        /* \"#utility.yul\":14941:15109   */\n      pop\n      jump\t// out\n        /* \"#utility.yul\":15115:15481   */\n    tag_192:\n        /* \"#utility.yul\":15257:15260   */\n      0x00\n        /* \"#utility.yul\":15278:15345   */\n      tag_389\n        /* \"#utility.yul\":15342:15344   */\n      0x12\n        /* \"#utility.yul\":15337:15340   */\n      dup4\n        /* \"#utility.yul\":15278:15345   */\n      tag_181\n      jump\t// in\n    tag_389:\n        /* \"#utility.yul\":15271:15345   */\n      swap2\n      pop\n        /* \"#utility.yul\":15354:15447   */\n      tag_390\n        /* \"#utility.yul\":15443:15446   */\n      dup3\n        /* \"#utility.yul\":15354:15447   */\n      tag_191\n      jump\t// in\n    tag_390:\n        /* \"#utility.yul\":15472:15474   */\n      0x20\n        /* \"#utility.yul\":15467:15470   */\n      dup3\n        /* \"#utility.yul\":15463:15475   */\n      add\n        /* \"#utility.yul\":15456:15475   */\n      swap1\n      pop\n        /* \"#utility.yul\":15115:15481   */\n      swap2\n      swap1\n      pop\n      jump\t// out\n        /* \"#utility.yul\":15487:15906   */\n    tag_59:\n        /* \"#utility.yul\":15653:15657   */\n      0x00\n        /* \"#utility.yul\":15691:15693   */\n      0x20\n        /* \"#utility.yul\":15680:15689   */\n      dup3\n        /* \"#utility.yul\":15676:15694   */\n      add\n        /* \"#utility.yul\":15668:15694   */\n      swap1\n      pop\n        /* \"#utility.yul\":15740:15749   */\n      dup2\n        /* \"#utility.yul\":15734:15738   */\n      dup2\n        /* \"#utility.yul\":15730:15750   */\n      sub\n        /* \"#utility.yul\":15726:15727   */\n      0x00\n        /* \"#utility.yul\":15715:15724   */\n      dup4\n        /* \"#utility.yul\":15711:15728   */\n      add\n        /* \"#utility.yul\":15704:15751   */\n      mstore\n        /* \"#utility.yul\":15768:15899   */\n      tag_392\n        /* \"#utility.yul\":15894:15898   */\n      dup2\n        /* \"#utility.yul\":15768:15899   */\n      tag_192\n      jump\t// in\n    tag_392:\n        /* \"#utility.yul\":15760:15899   */\n      swap1\n      pop\n        /* \"#utility.yul\":15487:15906   */\n      swap2\n      swap1\n      pop\n      jump\t// out\n        /* \"#utility.yul\":15912:16092   */\n    tag_193:\n        /* \"#utility.yul\":15960:16037   */\n      0x4e487b7100000000000000000000000000000000000000000000000000000000\n        /* \"#utility.yul\":15957:15958   */\n      0x00\n        /* \"#utility.yul\":15950:16038   */\n      mstore\n        /* \"#utility.yul\":16057:16061   */\n      0x22\n        /* \"#utility.yul\":16054:16055   */\n      0x04\n        /* \"#utility.yul\":16047:16062   */\n      mstore\n        /* \"#utility.yul\":16081:16085   */\n      0x24\n        /* \"#utility.yul\":16078:16079   */\n      0x00\n        /* \"#utility.yul\":16071:16086   */\n      revert\n        /* \"#utility.yul\":16098:16418   */\n    tag_127:\n        /* \"#utility.yul\":16142:16148   */\n      0x00\n        /* \"#utility.yul\":16179:16180   */\n      0x02\n        /* \"#utility.yul\":16173:16177   */\n      dup3\n        /* \"#utility.yul\":16169:16181   */\n      div\n        /* \"#utility.yul\":16159:16181   */\n      swap1\n      pop\n        /* \"#utility.yul\":16226:16227   */\n      0x01\n        /* \"#utility.yul\":16220:16224   */\n      dup3\n        /* \"#utility.yul\":16216:16228   */\n      and\n        /* \"#utility.yul\":16247:16265   */\n      dup1\n        /* \"#utility.yul\":16237:16318   */\n      tag_395\n      jumpi\n        /* \"#utility.yul\":16303:16307   */\n      0x7f\n        /* \"#utility.yul\":16295:16301   */\n      dup3\n        /* \"#utility.yul\":16291:16308   */\n      and\n        /* \"#utility.yul\":16281:16308   */\n      swap2\n      pop\n        /* \"#utility.yul\":16237:16318   */\n    tag_395:\n        /* \"#utility.yul\":16365:16367   */\n      0x20\n        /* \"#utility.yul\":16357:16363   */\n      dup3\n        /* \"#utility.yul\":16354:16368   */\n      lt\n        /* \"#utility.yul\":16334:16352   */\n      dup2\n        /* \"#utility.yul\":16331:16369   */\n      sub\n        /* \"#utility.yul\":16328:16412   */\n      tag_396\n      jumpi\n        /* \"#utility.yul\":16384:16402   */\n      tag_397\n      tag_193\n      jump\t// in\n    tag_397:\n        /* \"#utility.yul\":16328:16412   */\n    tag_396:\n        /* \"#utility.yul\":16149:16418   */\n      pop\n        /* \"#utility.yul\":16098:16418   */\n      swap2\n      swap1\n      pop\n      jump\t// out\n        /* \"#utility.yul\":16424:16565   */\n    tag_194:\n        /* \"#utility.yul\":16473:16477   */\n      0x00\n        /* \"#utility.yul\":16496:16499   */\n      dup2\n        /* \"#utility.yul\":16488:16499   */\n      swap1\n      pop\n        /* \"#utility.yul\":16519:16522   */\n      dup2\n        /* \"#utility.yul\":16516:16517   */\n      0x00\n        /* \"#utility.yul\":16509:16523   */\n      mstore\n        /* \"#utility.yul\":16553:16557   */\n      0x20\n        /* \"#utility.yul\":16550:16551   */\n      0x00\n        /* \"#utility.yul\":16540:16558   */\n      keccak256\n        /* \"#utility.yul\":16532:16558   */\n      swap1\n      pop\n        /* \"#utility.yul\":16424:16565   */\n      swap2\n      swap1\n      pop\n      jump\t// out\n        /* \"#utility.yul\":16571:16664   */\n    tag_195:\n        /* \"#utility.yul\":16608:16614   */\n      0x00\n        /* \"#utility.yul\":16655:16657   */\n      0x20\n        /* \"#utility.yul\":16650:16652   */\n      0x1f\n        /* \"#utility.yul\":16643:16648   */\n      dup4\n        /* \"#utility.yul\":16639:16653   */\n      add\n        /* \"#utility.yul\":16635:16658   */\n      div\n        /* \"#utility.yul\":16625:16658   */\n      swap1\n      pop\n        /* \"#utility.yul\":16571:16664   */\n      swap2\n      swap1\n      pop\n      jump\t// out\n        /* \"#utility.yul\":16670:16777   */\n    tag_196:\n        /* \"#utility.yul\":16714:16722   */\n      0x00\n        /* \"#utility.yul\":16764:16769   */\n      dup3\n        /* \"#utility.yul\":16758:16762   */\n      dup3\n        /* \"#utility.yul\":16754:16770   */\n      shl\n        /* \"#utility.yul\":16733:16770   */\n      swap1\n      pop\n        /* \"#utility.yul\":16670:16777   */\n      swap3\n      swap2\n      pop\n      pop\n      jump\t// out\n        /* \"#utility.yul\":16783:17176   */\n    tag_197:\n        /* \"#utility.yul\":16852:16858   */\n      0x00\n        /* \"#utility.yul\":16902:16903   */\n      0x08\n        /* \"#utility.yul\":16890:16900   */\n      dup4\n        /* \"#utility.yul\":16886:16904   */\n      mul\n        /* \"#utility.yul\":16925:17022   */\n      tag_402\n        /* \"#utility.yul\":16955:17021   */\n      0xffffffffffffffffffffffffffffffffffffffffffffffffffffffffffffffff\n        /* \"#utility.yul\":16944:16953   */\n      dup3\n        /* \"#utility.yul\":16925:17022   */\n      tag_196\n      jump\t// in\n    tag_402:\n        /* \"#utility.yul\":17043:17082   */\n      tag_403\n        /* \"#utility.yul\":17073:17081   */\n      dup7\n        /* \"#utility.yul\":17062:17071   */\n      dup4\n        /* \"#utility.yul\":17043:17082   */\n      tag_196\n      jump\t// in\n    tag_403:\n        /* \"#utility.yul\":17031:17082   */\n      swap6\n      pop\n        /* \"#utility.yul\":17115:17119   */\n      dup1\n        /* \"#utility.yul\":17111:17120   */\n      not\n        /* \"#utility.yul\":17104:17109   */\n      dup5\n        /* \"#utility.yul\":17100:17121   */\n      and\n        /* \"#utility.yul\":17091:17121   */\n      swap4\n      pop\n        /* \"#utility.yul\":17164:17168   */\n      dup1\n        /* \"#utility.yul\":17154:17162   */\n      dup7\n        /* \"#utility.yul\":17150:17169   */\n      and\n        /* \"#utility.yul\":17143:17148   */\n      dup5\n        /* \"#utility.yul\":17140:17170   */\n      or\n        /* \"#utility.yul\":17130:17170   */\n      swap3\n      pop\n        /* \"#utility.yul\":16859:17176   */\n      pop\n      pop\n        /* \"#utility.yul\":16783:17176   */\n      swap4\n      swap3\n      pop\n      pop\n      pop\n      jump\t// out\n        /* \"#utility.yul\":17182:17242   */\n    tag_198:\n        /* \"#utility.yul\":17210:17213   */\n      0x00\n        /* \"#utility.yul\":17231:17236   */\n      dup2\n        /* \"#utility.yul\":17224:17236   */\n      swap1\n      pop\n        /* \"#utility.yul\":17182:17242   */\n      swap2\n      swap1\n      pop\n      jump\t// out\n        /* \"#utility.yul\":17248:17390   */\n    tag_199:\n        /* \"#utility.yul\":17298:17307   */\n      0x00\n        /* \"#utility.yul\":17331:17384   */\n      tag_406\n        /* \"#utility.yul\":17349:17383   */\n      tag_407\n        /* \"#utility.yul\":17358:17382   */\n      tag_408\n        /* \"#utility.yul\":17376:17381   */\n      dup5\n        /* \"#utility.yul\":17358:17382   */\n      tag_165\n      jump\t// in\n    tag_408:\n        /* \"#utility.yul\":17349:17383   */\n      tag_198\n      jump\t// in\n    tag_407:\n        /* \"#utility.yul\":17331:17384   */\n      tag_165\n      jump\t// in\n    tag_406:\n        /* \"#utility.yul\":17318:17384   */\n      swap1\n      pop\n        /* \"#utility.yul\":17248:17390   */\n      swap2\n      swap1\n      pop\n      jump\t// out\n        /* \"#utility.yul\":17396:17471   */\n    tag_200:\n        /* \"#utility.yul\":17439:17442   */\n      0x00\n        /* \"#utility.yul\":17460:17465   */\n      dup2\n        /* \"#utility.yul\":17453:17465   */\n      swap1\n      pop\n        /* \"#utility.yul\":17396:17471   */\n      swap2\n      swap1\n      pop\n      jump\t// out\n        /* \"#utility.yul\":17477:17746   */\n    tag_201:\n        /* \"#utility.yul\":17587:17626   */\n      tag_411\n        /* \"#utility.yul\":17618:17625   */\n      dup4\n        /* \"#utility.yul\":17587:17626   */\n      tag_199\n      jump\t// in\n    tag_411:\n        /* \"#utility.yul\":17648:17739   */\n      tag_412\n        /* \"#utility.yul\":17697:17738   */\n      tag_413\n        /* \"#utility.yul\":17721:17737   */\n      dup3\n        /* \"#utility.yul\":17697:17738   */\n      tag_200\n      jump\t// in\n    tag_413:\n        /* \"#utility.yul\":17689:17695   */\n      dup5\n        /* \"#utility.yul\":17682:17686   */\n      dup5\n        /* \"#utility.yul\":17676:17687   */\n      sload\n        /* \"#utility.yul\":17648:17739   */\n      tag_197\n      jump\t// in\n    tag_412:\n        /* \"#utility.yul\":17642:17646   */\n      dup3\n        /* \"#utility.yul\":17635:17740   */\n      sstore\n        /* \"#utility.yul\":17553:17746   */\n      pop\n        /* \"#utility.yul\":17477:17746   */\n      pop\n      pop\n      pop\n      jump\t// out\n        /* \"#utility.yul\":17752:17825   */\n    tag_202:\n        /* \"#utility.yul\":17797:17800   */\n      0x00\n        /* \"#utility.yul\":17752:17825   */\n      swap1\n      jump\t// out\n        /* \"#utility.yul\":17831:18020   */\n    tag_203:\n        /* \"#utility.yul\":17908:17940   */\n      tag_416\n      tag_202\n      jump\t// in\n    tag_416:\n        /* \"#utility.yul\":17949:18014   */\n      tag_417\n        /* \"#utility.yul\":18007:18013   */\n      dup2\n        /* \"#utility.yul\":17999:18005   */\n      dup5\n        /* \"#utility.yul\":17993:17997   */\n      dup5\n        /* \"#utility.yul\":17949:18014   */\n      tag_201\n      jump\t// in\n    tag_417:\n        /* \"#utility.yul\":17884:18020   */\n      pop\n        /* \"#utility.yul\":17831:18020   */\n      pop\n      pop\n      jump\t// out\n        /* \"#utility.yul\":18026:18212   */\n    tag_204:\n        /* \"#utility.yul\":18086:18206   */\n    tag_419:\n        /* \"#utility.yul\":18103:18106   */\n      dup2\n        /* \"#utility.yul\":18096:18101   */\n      dup2\n        /* \"#utility.yul\":18093:18107   */\n      lt\n        /* \"#utility.yul\":18086:18206   */\n      iszero\n      tag_421\n      jumpi\n        /* \"#utility.yul\":18157:18196   */\n      tag_422\n        /* \"#utility.yul\":18194:18195   */\n      0x00\n        /* \"#utility.yul\":18187:18192   */\n      dup3\n        /* \"#utility.yul\":18157:18196   */\n      tag_203\n      jump\t// in\n    tag_422:\n        /* \"#utility.yul\":18130:18131   */\n      0x01\n        /* \"#utility.yul\":18123:18128   */\n      dup2\n        /* \"#utility.yul\":18119:18132   */\n      add\n        /* \"#utility.yul\":18110:18132   */\n      swap1\n      pop\n        /* \"#utility.yul\":18086:18206   */\n      jump(tag_419)\n    tag_421:\n        /* \"#utility.yul\":18026:18212   */\n      pop\n      pop\n      jump\t// out\n        /* \"#utility.yul\":18218:18761   */\n    tag_205:\n        /* \"#utility.yul\":18319:18321   */\n      0x1f\n        /* \"#utility.yul\":18314:18317   */\n      dup3\n        /* \"#utility.yul\":18311:18322   */\n      gt\n        /* \"#utility.yul\":18308:18754   */\n      iszero\n      tag_424\n      jumpi\n        /* \"#utility.yul\":18353:18391   */\n      tag_425\n        /* \"#utility.yul\":18385:18390   */\n      dup2\n        /* \"#utility.yul\":18353:18391   */\n      tag_194\n      jump\t// in\n    tag_425:\n        /* \"#utility.yul\":18437:18466   */\n      tag_426\n        /* \"#utility.yul\":18455:18465   */\n      dup5\n        /* \"#utility.yul\":18437:18466   */\n      tag_195\n      jump\t// in\n    tag_426:\n        /* \"#utility.yul\":18427:18435   */\n      dup2\n        /* \"#utility.yul\":18423:18467   */\n      add\n        /* \"#utility.yul\":18620:18622   */\n      0x20\n        /* \"#utility.yul\":18608:18618   */\n      dup6\n        /* \"#utility.yul\":18605:18623   */\n      lt\n        /* \"#utility.yul\":18602:18651   */\n      iszero\n      tag_427\n      jumpi\n        /* \"#utility.yul\":18641:18649   */\n      dup2\n        /* \"#utility.yul\":18626:18649   */\n      swap1\n      pop\n        /* \"#utility.yul\":18602:18651   */\n    tag_427:\n        /* \"#utility.yul\":18664:18744   */\n      tag_428\n        /* \"#utility.yul\":18720:18742   */\n      tag_429\n        /* \"#utility.yul\":18738:18741   */\n      dup6\n        /* \"#utility.yul\":18720:18742   */\n      tag_195\n      jump\t// in\n    tag_429:\n        /* \"#utility.yul\":18710:18718   */\n      dup4\n        /* \"#utility.yul\":18706:18743   */\n      add\n        /* \"#utility.yul\":18693:18704   */\n      dup3\n        /* \"#utility.yul\":18664:18744   */\n      tag_204\n      jump\t// in\n    tag_428:\n        /* \"#utility.yul\":18323:18754   */\n      pop\n      pop\n        /* \"#utility.yul\":18308:18754   */\n    tag_424:\n        /* \"#utility.yul\":18218:18761   */\n      pop\n      pop\n      pop\n      jump\t// out\n        /* \"#utility.yul\":18767:18884   */\n    tag_206:\n        /* \"#utility.yul\":18821:18829   */\n      0x00\n        /* \"#utility.yul\":18871:18876   */\n      dup3\n        /* \"#utility.yul\":18865:18869   */\n      dup3\n        /* \"#utility.yul\":18861:18877   */\n      shr\n        /* \"#utility.yul\":18840:18877   */\n      swap1\n      pop\n        /* \"#utility.yul\":18767:18884   */\n      swap3\n      swap2\n      pop\n      pop\n      jump\t// out\n        /* \"#utility.yul\":18890:19059   */\n    tag_207:\n        /* \"#utility.yul\":18934:18940   */\n      0x00\n        /* \"#utility.yul\":18967:19018   */\n      tag_432\n        /* \"#utility.yul\":19015:19016   */\n      0x00\n        /* \"#utility.yul\":19011:19017   */\n      not\n        /* \"#utility.yul\":19003:19008   */\n      dup5\n        /* \"#utility.yul\":19000:19001   */\n      0x08\n        /* \"#utility.yul\":18996:19009   */\n      mul\n        /* \"#utility.yul\":18967:19018   */\n      tag_206\n      jump\t// in\n    tag_432:\n        /* \"#utility.yul\":18963:19019   */\n      not\n        /* \"#utility.yul\":19048:19052   */\n      dup1\n        /* \"#utility.yul\":19042:19046   */\n      dup4\n        /* \"#utility.yul\":19038:19053   */\n      and\n        /* \"#utility.yul\":19028:19053   */\n      swap2\n      pop\n        /* \"#utility.yul\":18941:19059   */\n      pop\n        /* \"#utility.yul\":18890:19059   */\n      swap3\n      swap2\n      pop\n      pop\n      jump\t// out\n        /* \"#utility.yul\":19064:19359   */\n    tag_208:\n        /* \"#utility.yul\":19140:19144   */\n      0x00\n        /* \"#utility.yul\":19286:19315   */\n      tag_434\n        /* \"#utility.yul\":19311:19314   */\n      dup4\n        /* \"#utility.yul\":19305:19309   */\n      dup4\n        /* \"#utility.yul\":19286:19315   */\n      tag_207\n      jump\t// in\n    tag_434:\n        /* \"#utility.yul\":19278:19315   */\n      swap2\n      pop\n        /* \"#utility.yul\":19348:19351   */\n      dup3\n        /* \"#utility.yul\":19345:19346   */\n      0x02\n        /* \"#utility.yul\":19341:19352   */\n      mul\n        /* \"#utility.yul\":19335:19339   */\n      dup3\n        /* \"#utility.yul\":19332:19353   */\n      or\n        /* \"#utility.yul\":19324:19353   */\n      swap1\n      pop\n        /* \"#utility.yul\":19064:19359   */\n      swap3\n      swap2\n      pop\n      pop\n      jump\t// out\n        /* \"#utility.yul\":19364:20759   */\n    tag_62:\n        /* \"#utility.yul\":19481:19518   */\n      tag_436\n        /* \"#utility.yul\":19514:19517   */\n      dup3\n        /* \"#utility.yul\":19481:19518   */\n      tag_180\n      jump\t// in\n    tag_436:\n        /* \"#utility.yul\":19583:19601   */\n      0xffffffffffffffff\n        /* \"#utility.yul\":19575:19581   */\n      dup2\n        /* \"#utility.yul\":19572:19602   */\n      gt\n        /* \"#utility.yul\":19569:19625   */\n      iszero\n      tag_437\n      jumpi\n        /* \"#utility.yul\":19605:19623   */\n      tag_438\n      tag_158\n      jump\t// in\n    tag_438:\n        /* \"#utility.yul\":19569:19625   */\n    tag_437:\n        /* \"#utility.yul\":19649:19687   */\n      tag_439\n        /* \"#utility.yul\":19681:19685   */\n      dup3\n        /* \"#utility.yul\":19675:19686   */\n      sload\n        /* \"#utility.yul\":19649:19687   */\n      tag_127\n      jump\t// in\n    tag_439:\n        /* \"#utility.yul\":19734:19801   */\n      tag_440\n        /* \"#utility.yul\":19794:19800   */\n      dup3\n        /* \"#utility.yul\":19786:19792   */\n      dup3\n        /* \"#utility.yul\":19780:19784   */\n      dup6\n        /* \"#utility.yul\":19734:19801   */\n      tag_205\n      jump\t// in\n    tag_440:\n        /* \"#utility.yul\":19828:19829   */\n      0x00\n        /* \"#utility.yul\":19852:19856   */\n      0x20\n        /* \"#utility.yul\":19839:19856   */\n      swap1\n      pop\n        /* \"#utility.yul\":19884:19886   */\n      0x1f\n        /* \"#utility.yul\":19876:19882   */\n      dup4\n        /* \"#utility.yul\":19873:19887   */\n      gt\n        /* \"#utility.yul\":19901:19902   */\n      0x01\n        /* \"#utility.yul\":19896:20514   */\n      dup2\n      eq\n      tag_442\n      jumpi\n        /* \"#utility.yul\":20558:20559   */\n      0x00\n        /* \"#utility.yul\":20575:20581   */\n      dup5\n        /* \"#utility.yul\":20572:20649   */\n      iszero\n      tag_443\n      jumpi\n        /* \"#utility.yul\":20624:20633   */\n      dup3\n        /* \"#utility.yul\":20619:20622   */\n      dup8\n        /* \"#utility.yul\":20615:20634   */\n      add\n        /* \"#utility.yul\":20609:20635   */\n      mload\n        /* \"#utility.yul\":20600:20635   */\n      swap1\n      pop\n        /* \"#utility.yul\":20572:20649   */\n    tag_443:\n        /* \"#utility.yul\":20675:20742   */\n      tag_444\n        /* \"#utility.yul\":20735:20741   */\n      dup6\n        /* \"#utility.yul\":20728:20733   */\n      dup3\n        /* \"#utility.yul\":20675:20742   */\n      tag_208\n      jump\t// in\n    tag_444:\n        /* \"#utility.yul\":20669:20673   */\n      dup7\n        /* \"#utility.yul\":20662:20743   */\n      sstore\n        /* \"#utility.yul\":20531:20753   */\n      pop\n        /* \"#utility.yul\":19866:20753   */\n      jump(tag_441)\n        /* \"#utility.yul\":19896:20514   */\n    tag_442:\n        /* \"#utility.yul\":19948:19952   */\n      0x1f\n        /* \"#utility.yul\":19944:19953   */\n      not\n        /* \"#utility.yul\":19936:19942   */\n      dup5\n        /* \"#utility.yul\":19932:19954   */\n      and\n        /* \"#utility.yul\":19982:20019   */\n      tag_445\n        /* \"#utility.yul\":20014:20018   */\n      dup7\n        /* \"#utility.yul\":19982:20019   */\n      tag_194\n      jump\t// in\n    tag_445:\n        /* \"#utility.yul\":20041:20042   */\n      0x00\n        /* \"#utility.yul\":20055:20263   */\n    tag_446:\n        /* \"#utility.yul\":20069:20076   */\n      dup3\n        /* \"#utility.yul\":20066:20067   */\n      dup2\n        /* \"#utility.yul\":20063:20077   */\n      lt\n        /* \"#utility.yul\":20055:20263   */\n      iszero\n      tag_448\n      jumpi\n        /* \"#utility.yul\":20148:20157   */\n      dup5\n        /* \"#utility.yul\":20143:20146   */\n      dup10\n        /* \"#utility.yul\":20139:20158   */\n      add\n        /* \"#utility.yul\":20133:20159   */\n      mload\n        /* \"#utility.yul\":20125:20131   */\n      dup3\n        /* \"#utility.yul\":20118:20160   */\n      sstore\n        /* \"#utility.yul\":20199:20200   */\n      0x01\n        /* \"#utility.yul\":20191:20197   */\n      dup3\n        /* \"#utility.yul\":20187:20201   */\n      add\n        /* \"#utility.yul\":20177:20201   */\n      swap2\n      pop\n        /* \"#utility.yul\":20246:20248   */\n      0x20\n        /* \"#utility.yul\":20235:20244   */\n      dup6\n        /* \"#utility.yul\":20231:20249   */\n      add\n        /* \"#utility.yul\":20218:20249   */\n      swap5\n      pop\n        /* \"#utility.yul\":20092:20096   */\n      0x20\n        /* \"#utility.yul\":20089:20090   */\n      dup2\n        /* \"#utility.yul\":20085:20097   */\n      add\n        /* \"#utility.yul\":20080:20097   */\n      swap1\n      pop\n        /* \"#utility.yul\":20055:20263   */\n      jump(tag_446)\n    tag_448:\n        /* \"#utility.yul\":20291:20297   */\n      dup7\n        /* \"#utility.yul\":20282:20289   */\n      dup4\n        /* \"#utility.yul\":20279:20298   */\n      lt\n        /* \"#utility.yul\":20276:20455   */\n      iszero\n      tag_449\n      jumpi\n        /* \"#utility.yul\":20349:20358   */\n      dup5\n        /* \"#utility.yul\":20344:20347   */\n      dup10\n        /* \"#utility.yul\":20340:20359   */\n      add\n        /* \"#utility.yul\":20334:20360   */\n      mload\n        /* \"#utility.yul\":20392:20440   */\n      tag_450\n        /* \"#utility.yul\":20434:20438   */\n      0x1f\n        /* \"#utility.yul\":20426:20432   */\n      dup10\n        /* \"#utility.yul\":20422:20439   */\n      and\n        /* \"#utility.yul\":20411:20420   */\n      dup3\n        /* \"#utility.yul\":20392:20440   */\n      tag_207\n      jump\t// in\n    tag_450:\n        /* \"#utility.yul\":20384:20390   */\n      dup4\n        /* \"#utility.yul\":20377:20441   */\n      sstore\n        /* \"#utility.yul\":20299:20455   */\n      pop\n        /* \"#utility.yul\":20276:20455   */\n    tag_449:\n        /* \"#utility.yul\":20501:20502   */\n      0x01\n        /* \"#utility.yul\":20497:20498   */\n      0x02\n        /* \"#utility.yul\":20489:20495   */\n      dup9\n        /* \"#utility.yul\":20485:20499   */\n      mul\n        /* \"#utility.yul\":20481:20503   */\n      add\n        /* \"#utility.yul\":20475:20479   */\n      dup9\n        /* \"#utility.yul\":20468:20504   */\n      sstore\n        /* \"#utility.yul\":19903:20514   */\n      pop\n      pop\n      pop\n        /* \"#utility.yul\":19866:20753   */\n    tag_441:\n      pop\n        /* \"#utility.yul\":19456:20759   */\n      pop\n      pop\n      pop\n        /* \"#utility.yul\":19364:20759   */\n      pop\n      pop\n      jump\t// out\n        /* \"#utility.yul\":20765:20920   */\n    tag_209:\n        /* \"#utility.yul\":20905:20912   */\n      0x4249525448000000000000000000000000000000000000000000000000000000\n        /* \"#utility.yul\":20901:20902   */\n      0x00\n        /* \"#utility.yul\":20893:20899   */\n      dup3\n        /* \"#utility.yul\":20889:20903   */\n      add\n        /* \"#utility.yul\":20882:20913   */\n      mstore\n        /* \"#utility.yul\":20765:20920   */\n      pop\n      jump\t// out\n        /* \"#utility.yul\":20926:21291   */\n    tag_210:\n        /* \"#utility.yul\":21068:21071   */\n      0x00\n        /* \"#utility.yul\":21089:21155   */\n      tag_453\n        /* \"#utility.yul\":21153:21154   */\n      0x05\n        /* \"#utility.yul\":21148:21151   */\n      dup4\n        /* \"#utility.yul\":21089:21155   */\n      tag_181\n      jump\t// in\n    tag_453:\n        /* \"#utility.yul\":21082:21155   */\n      swap2\n      pop\n        /* \"#utility.yul\":21164:21257   */\n      tag_454\n        /* \"#utility.yul\":21253:21256   */\n      dup3\n        /* \"#utility.yul\":21164:21257   */\n      tag_209\n      jump\t// in\n    tag_454:\n        /* \"#utility.yul\":21282:21284   */\n      0x20\n        /* \"#utility.yul\":21277:21280   */\n      dup3\n        /* \"#utility.yul\":21273:21285   */\n      add\n        /* \"#utility.yul\":21266:21285   */\n      swap1\n      pop\n        /* \"#utility.yul\":20926:21291   */\n      swap2\n      swap1\n      pop\n      jump\t// out\n        /* \"#utility.yul\":21297:22138   */\n    tag_68:\n        /* \"#utility.yul\":21567:21571   */\n      0x00\n        /* \"#utility.yul\":21605:21608   */\n      0x80\n        /* \"#utility.yul\":21594:21603   */\n      dup3\n        /* \"#utility.yul\":21590:21609   */\n      add\n        /* \"#utility.yul\":21582:21609   */\n      swap1\n      pop\n        /* \"#utility.yul\":21655:21664   */\n      dup2\n        /* \"#utility.yul\":21649:21653   */\n      dup2\n        /* \"#utility.yul\":21645:21665   */\n      sub\n        /* \"#utility.yul\":21641:21642   */\n      0x00\n        /* \"#utility.yul\":21630:21639   */\n      dup4\n        /* \"#utility.yul\":21626:21643   */\n      add\n        /* \"#utility.yul\":21619:21666   */\n      mstore\n        /* \"#utility.yul\":21683:21761   */\n      tag_456\n        /* \"#utility.yul\":21756:21760   */\n      dup2\n        /* \"#utility.yul\":21747:21753   */\n      dup7\n        /* \"#utility.yul\":21683:21761   */\n      tag_183\n      jump\t// in\n    tag_456:\n        /* \"#utility.yul\":21675:21761   */\n      swap1\n      pop\n        /* \"#utility.yul\":21808:21817   */\n      dup2\n        /* \"#utility.yul\":21802:21806   */\n      dup2\n        /* \"#utility.yul\":21798:21818   */\n      sub\n        /* \"#utility.yul\":21793:21795   */\n      0x20\n        /* \"#utility.yul\":21782:21791   */\n      dup4\n        /* \"#utility.yul\":21778:21796   */\n      add\n        /* \"#utility.yul\":21771:21819   */\n      mstore\n        /* \"#utility.yul\":21836:21967   */\n      tag_457\n        /* \"#utility.yul\":21962:21966   */\n      dup2\n        /* \"#utility.yul\":21836:21967   */\n      tag_210\n      jump\t// in\n    tag_457:\n        /* \"#utility.yul\":21828:21967   */\n      swap1\n      pop\n        /* \"#utility.yul\":21977:22049   */\n      tag_458\n        /* \"#utility.yul\":22045:22047   */\n      0x40\n        /* \"#utility.yul\":22034:22043   */\n      dup4\n        /* \"#utility.yul\":22030:22048   */\n      add\n        /* \"#utility.yul\":22021:22027   */\n      dup6\n        /* \"#utility.yul\":21977:22049   */\n      tag_170\n      jump\t// in\n    tag_458:\n        /* \"#utility.yul\":22059:22131   */\n      tag_459\n        /* \"#utility.yul\":22127:22129   */\n      0x60\n        /* \"#utility.yul\":22116:22125   */\n      dup4\n        /* \"#utility.yul\":22112:22130   */\n      add\n        /* \"#utility.yul\":22103:22109   */\n      dup5\n        /* \"#utility.yul\":22059:22131   */\n      tag_184\n      jump\t// in\n    tag_459:\n        /* \"#utility.yul\":21297:22138   */\n      swap5\n      swap4\n      pop\n      pop\n      pop\n      pop\n      jump\t// out\n        /* \"#utility.yul\":22144:22371   */\n    tag_211:\n        /* \"#utility.yul\":22284:22318   */\n      0x4f6e6c7920726573656172636865722063616e2061646a75737420666f722061\n        /* \"#utility.yul\":22280:22281   */\n      0x00\n        /* \"#utility.yul\":22272:22278   */\n      dup3\n        /* \"#utility.yul\":22268:22282   */\n      add\n        /* \"#utility.yul\":22261:22319   */\n      mstore\n        /* \"#utility.yul\":22353:22363   */\n      0x63636964656e7473000000000000000000000000000000000000000000000000\n        /* \"#utility.yul\":22348:22350   */\n      0x20\n        /* \"#utility.yul\":22340:22346   */\n      dup3\n        /* \"#utility.yul\":22336:22351   */\n      add\n        /* \"#utility.yul\":22329:22364   */\n      mstore\n        /* \"#utility.yul\":22144:22371   */\n      pop\n      jump\t// out\n        /* \"#utility.yul\":22377:22743   */\n    tag_212:\n        /* \"#utility.yul\":22519:22522   */\n      0x00\n        /* \"#utility.yul\":22540:22607   */\n      tag_462\n        /* \"#utility.yul\":22604:22606   */\n      0x28\n        /* \"#utility.yul\":22599:22602   */\n      dup4\n        /* \"#utility.yul\":22540:22607   */\n      tag_181\n      jump\t// in\n    tag_462:\n        /* \"#utility.yul\":22533:22607   */\n      swap2\n      pop\n        /* \"#utility.yul\":22616:22709   */\n      tag_463\n        /* \"#utility.yul\":22705:22708   */\n      dup3\n        /* \"#utility.yul\":22616:22709   */\n      tag_211\n      jump\t// in\n    tag_463:\n        /* \"#utility.yul\":22734:22736   */\n      0x40\n        /* \"#utility.yul\":22729:22732   */\n      dup3\n        /* \"#utility.yul\":22725:22737   */\n      add\n        /* \"#utility.yul\":22718:22737   */\n      swap1\n      pop\n        /* \"#utility.yul\":22377:22743   */\n      swap2\n      swap1\n      pop\n      jump\t// out\n        /* \"#utility.yul\":22749:23168   */\n    tag_72:\n        /* \"#utility.yul\":22915:22919   */\n      0x00\n        /* \"#utility.yul\":22953:22955   */\n      0x20\n        /* \"#utility.yul\":22942:22951   */\n      dup3\n        /* \"#utility.yul\":22938:22956   */\n      add\n        /* \"#utility.yul\":22930:22956   */\n      swap1\n      pop\n        /* \"#utility.yul\":23002:23011   */\n      dup2\n        /* \"#utility.yul\":22996:23000   */\n      dup2\n        /* \"#utility.yul\":22992:23012   */\n      sub\n        /* \"#utility.yul\":22988:22989   */\n      0x00\n        /* \"#utility.yul\":22977:22986   */\n      dup4\n        /* \"#utility.yul\":22973:22990   */\n      add\n        /* \"#utility.yul\":22966:23013   */\n      mstore\n        /* \"#utility.yul\":23030:23161   */\n      tag_465\n        /* \"#utility.yul\":23156:23160   */\n      dup2\n        /* \"#utility.yul\":23030:23161   */\n      tag_212\n      jump\t// in\n    tag_465:\n        /* \"#utility.yul\":23022:23161   */\n      swap1\n      pop\n        /* \"#utility.yul\":22749:23168   */\n      swap2\n      swap1\n      pop\n      jump\t// out\n        /* \"#utility.yul\":23174:23354   */\n    tag_213:\n        /* \"#utility.yul\":23314:23346   */\n      0x43616e6e6f742061646a75737420612072657469726564206372656469740000\n        /* \"#utility.yul\":23310:23311   */\n      0x00\n        /* \"#utility.yul\":23302:23308   */\n      dup3\n        /* \"#utility.yul\":23298:23312   */\n      add\n        /* \"#utility.yul\":23291:23347   */\n      mstore\n        /* \"#utility.yul\":23174:23354   */\n      pop\n      jump\t// out\n        /* \"#utility.yul\":23360:23726   */\n    tag_214:\n        /* \"#utility.yul\":23502:23505   */\n      0x00\n        /* \"#utility.yul\":23523:23590   */\n      tag_468\n        /* \"#utility.yul\":23587:23589   */\n      0x1e\n        /* \"#utility.yul\":23582:23585   */\n      dup4\n        /* \"#utility.yul\":23523:23590   */\n      tag_181\n      jump\t// in\n    tag_468:\n        /* \"#utility.yul\":23516:23590   */\n      swap2\n      pop\n        /* \"#utility.yul\":23599:23692   */\n      tag_469\n        /* \"#utility.yul\":23688:23691   */\n      dup3\n        /* \"#utility.yul\":23599:23692   */\n      tag_213\n      jump\t// in\n    tag_469:\n        /* \"#utility.yul\":23717:23719   */\n      0x20\n        /* \"#utility.yul\":23712:23715   */\n      dup3\n        /* \"#utility.yul\":23708:23720   */\n      add\n        /* \"#utility.yul\":23701:23720   */\n      swap1\n      pop\n        /* \"#utility.yul\":23360:23726   */\n      swap2\n      swap1\n      pop\n      jump\t// out\n        /* \"#utility.yul\":23732:24151   */\n    tag_76:\n        /* \"#utility.yul\":23898:23902   */\n      0x00\n        /* \"#utility.yul\":23936:23938   */\n      0x20\n        /* \"#utility.yul\":23925:23934   */\n      dup3\n        /* \"#utility.yul\":23921:23939   */\n      add\n        /* \"#utility.yul\":23913:23939   */\n      swap1\n      pop\n        /* \"#utility.yul\":23985:23994   */\n      dup2\n        /* \"#utility.yul\":23979:23983   */\n      dup2\n        /* \"#utility.yul\":23975:23995   */\n      sub\n        /* \"#utility.yul\":23971:23972   */\n      0x00\n        /* \"#utility.yul\":23960:23969   */\n      dup4\n        /* \"#utility.yul\":23956:23973   */\n      add\n        /* \"#utility.yul\":23949:23996   */\n      mstore\n        /* \"#utility.yul\":24013:24144   */\n      tag_471\n        /* \"#utility.yul\":24139:24143   */\n      dup2\n        /* \"#utility.yul\":24013:24144   */\n      tag_214\n      jump\t// in\n    tag_471:\n        /* \"#utility.yul\":24005:24144   */\n      swap1\n      pop\n        /* \"#utility.yul\":23732:24151   */\n      swap2\n      swap1\n      pop\n      jump\t// out\n        /* \"#utility.yul\":24157:24378   */\n    tag_215:\n        /* \"#utility.yul\":24297:24331   */\n      0x43616e206f6e6c7920646f776e7363616c6520666f7220686f6e657374206c6f\n        /* \"#utility.yul\":24293:24294   */\n      0x00\n        /* \"#utility.yul\":24285:24291   */\n      dup3\n        /* \"#utility.yul\":24281:24295   */\n      add\n        /* \"#utility.yul\":24274:24332   */\n      mstore\n        /* \"#utility.yul\":24366:24370   */\n      0x7373000000000000000000000000000000000000000000000000000000000000\n        /* \"#utility.yul\":24361:24363   */\n      0x20\n        /* \"#utility.yul\":24353:24359   */\n      dup3\n        /* \"#utility.yul\":24349:24364   */\n      add\n        /* \"#utility.yul\":24342:24371   */\n      mstore\n        /* \"#utility.yul\":24157:24378   */\n      pop\n      jump\t// out\n        /* \"#utility.yul\":24384:24750   */\n    tag_216:\n        /* \"#utility.yul\":24526:24529   */\n      0x00\n        /* \"#utility.yul\":24547:24614   */\n      tag_474\n        /* \"#utility.yul\":24611:24613   */\n      0x22\n        /* \"#utility.yul\":24606:24609   */\n      dup4\n        /* \"#utility.yul\":24547:24614   */\n      tag_181\n      jump\t// in\n    tag_474:\n        /* \"#utility.yul\":24540:24614   */\n      swap2\n      pop\n        /* \"#utility.yul\":24623:24716   */\n      tag_475\n        /* \"#utility.yul\":24712:24715   */\n      dup3\n        /* \"#utility.yul\":24623:24716   */\n      tag_215\n      jump\t// in\n    tag_475:\n        /* \"#utility.yul\":24741:24743   */\n      0x40\n        /* \"#utility.yul\":24736:24739   */\n      dup3\n        /* \"#utility.yul\":24732:24744   */\n      add\n        /* \"#utility.yul\":24725:24744   */\n      swap1\n      pop\n        /* \"#utility.yul\":24384:24750   */\n      swap2\n      swap1\n      pop\n      jump\t// out\n        /* \"#utility.yul\":24756:25175   */\n    tag_80:\n        /* \"#utility.yul\":24922:24926   */\n      0x00\n        /* \"#utility.yul\":24960:24962   */\n      0x20\n        /* \"#utility.yul\":24949:24958   */\n      dup3\n        /* \"#utility.yul\":24945:24963   */\n      add\n        /* \"#utility.yul\":24937:24963   */\n      swap1\n      pop\n        /* \"#utility.yul\":25009:25018   */\n      dup2\n        /* \"#utility.yul\":25003:25007   */\n      dup2\n        /* \"#utility.yul\":24999:25019   */\n      sub\n        /* \"#utility.yul\":24995:24996   */\n      0x00\n        /* \"#utility.yul\":24984:24993   */\n      dup4\n        /* \"#utility.yul\":24980:24997   */\n      add\n        /* \"#utility.yul\":24973:25020   */\n      mstore\n        /* \"#utility.yul\":25037:25168   */\n      tag_477\n        /* \"#utility.yul\":25163:25167   */\n      dup2\n        /* \"#utility.yul\":25037:25168   */\n      tag_216\n      jump\t// in\n    tag_477:\n        /* \"#utility.yul\":25029:25168   */\n      swap1\n      pop\n        /* \"#utility.yul\":24756:25175   */\n      swap2\n      swap1\n      pop\n      jump\t// out\n        /* \"#utility.yul\":25181:25350   */\n    tag_217:\n        /* \"#utility.yul\":25321:25342   */\n      0x4143434944454e545f41444a5553544d454e5400000000000000000000000000\n        /* \"#utility.yul\":25317:25318   */\n      0x00\n        /* \"#utility.yul\":25309:25315   */\n      dup3\n        /* \"#utility.yul\":25305:25319   */\n      add\n        /* \"#utility.yul\":25298:25343   */\n      mstore\n        /* \"#utility.yul\":25181:25350   */\n      pop\n      jump\t// out\n        /* \"#utility.yul\":25356:25722   */\n    tag_218:\n        /* \"#utility.yul\":25498:25501   */\n      0x00\n        /* \"#utility.yul\":25519:25586   */\n      tag_480\n        /* \"#utility.yul\":25583:25585   */\n      0x13\n        /* \"#utility.yul\":25578:25581   */\n      dup4\n        /* \"#utility.yul\":25519:25586   */\n      tag_181\n      jump\t// in\n    tag_480:\n        /* \"#utility.yul\":25512:25586   */\n      swap2\n      pop\n        /* \"#utility.yul\":25595:25688   */\n      tag_481\n        /* \"#utility.yul\":25684:25687   */\n      dup3\n        /* \"#utility.yul\":25595:25688   */\n      tag_217\n      jump\t// in\n    tag_481:\n        /* \"#utility.yul\":25713:25715   */\n      0x20\n        /* \"#utility.yul\":25708:25711   */\n      dup3\n        /* \"#utility.yul\":25704:25716   */\n      add\n        /* \"#utility.yul\":25697:25716   */\n      swap1\n      pop\n        /* \"#utility.yul\":25356:25722   */\n      swap2\n      swap1\n      pop\n      jump\t// out\n        /* \"#utility.yul\":25728:26569   */\n    tag_85:\n        /* \"#utility.yul\":25998:26002   */\n      0x00\n        /* \"#utility.yul\":26036:26039   */\n      0x80\n        /* \"#utility.yul\":26025:26034   */\n      dup3\n        /* \"#utility.yul\":26021:26040   */\n      add\n        /* \"#utility.yul\":26013:26040   */\n      swap1\n      pop\n        /* \"#utility.yul\":26086:26095   */\n      dup2\n        /* \"#utility.yul\":26080:26084   */\n      dup2\n        /* \"#utility.yul\":26076:26096   */\n      sub\n        /* \"#utility.yul\":26072:26073   */\n      0x00\n        /* \"#utility.yul\":26061:26070   */\n      dup4\n        /* \"#utility.yul\":26057:26074   */\n      add\n        /* \"#utility.yul\":26050:26097   */\n      mstore\n        /* \"#utility.yul\":26114:26192   */\n      tag_483\n        /* \"#utility.yul\":26187:26191   */\n      dup2\n        /* \"#utility.yul\":26178:26184   */\n      dup7\n        /* \"#utility.yul\":26114:26192   */\n      tag_183\n      jump\t// in\n    tag_483:\n        /* \"#utility.yul\":26106:26192   */\n      swap1\n      pop\n        /* \"#utility.yul\":26239:26248   */\n      dup2\n        /* \"#utility.yul\":26233:26237   */\n      dup2\n        /* \"#utility.yul\":26229:26249   */\n      sub\n        /* \"#utility.yul\":26224:26226   */\n      0x20\n        /* \"#utility.yul\":26213:26222   */\n      dup4\n        /* \"#utility.yul\":26209:26227   */\n      add\n        /* \"#utility.yul\":26202:26250   */\n      mstore\n        /* \"#utility.yul\":26267:26398   */\n      tag_484\n        /* \"#utility.yul\":26393:26397   */\n      dup2\n        /* \"#utility.yul\":26267:26398   */\n      tag_218\n      jump\t// in\n    tag_484:\n        /* \"#utility.yul\":26259:26398   */\n      swap1\n      pop\n        /* \"#utility.yul\":26408:26480   */\n      tag_485\n        /* \"#utility.yul\":26476:26478   */\n      0x40\n        /* \"#utility.yul\":26465:26474   */\n      dup4\n        /* \"#utility.yul\":26461:26479   */\n      add\n        /* \"#utility.yul\":26452:26458   */\n      dup6\n        /* \"#utility.yul\":26408:26480   */\n      tag_170\n      jump\t// in\n    tag_485:\n        /* \"#utility.yul\":26490:26562   */\n      tag_486\n        /* \"#utility.yul\":26558:26560   */\n      0x60\n        /* \"#utility.yul\":26547:26556   */\n      dup4\n        /* \"#utility.yul\":26543:26561   */\n      add\n        /* \"#utility.yul\":26534:26540   */\n      dup5\n        /* \"#utility.yul\":26490:26562   */\n      tag_184\n      jump\t// in\n    tag_486:\n        /* \"#utility.yul\":25728:26569   */\n      swap5\n      swap4\n      pop\n      pop\n      pop\n      pop\n      jump\t// out\n        /* \"#utility.yul\":26575:26751   */\n    tag_219:\n        /* \"#utility.yul\":26715:26743   */\n      0x4572726f723a20596f7520646f206e6f74206f776e2074686973000000000000\n        /* \"#utility.yul\":26711:26712   */\n      0x00\n        /* \"#utility.yul\":26703:26709   */\n      dup3\n        /* \"#utility.yul\":26699:26713   */\n      add\n        /* \"#utility.yul\":26692:26744   */\n      mstore\n        /* \"#utility.yul\":26575:26751   */\n      pop\n      jump\t// out\n        /* \"#utility.yul\":26757:27123   */\n    tag_220:\n        /* \"#utility.yul\":26899:26902   */\n      0x00\n        /* \"#utility.yul\":26920:26987   */\n      tag_489\n        /* \"#utility.yul\":26984:26986   */\n      0x1a\n        /* \"#utility.yul\":26979:26982   */\n      dup4\n        /* \"#utility.yul\":26920:26987   */\n      tag_181\n      jump\t// in\n    tag_489:\n        /* \"#utility.yul\":26913:26987   */\n      swap2\n      pop\n        /* \"#utility.yul\":26996:27089   */\n      tag_490\n        /* \"#utility.yul\":27085:27088   */\n      dup3\n        /* \"#utility.yul\":26996:27089   */\n      tag_219\n      jump\t// in\n    tag_490:\n        /* \"#utility.yul\":27114:27116   */\n      0x20\n        /* \"#utility.yul\":27109:27112   */\n      dup3\n        /* \"#utility.yul\":27105:27117   */\n      add\n        /* \"#utility.yul\":27098:27117   */\n      swap1\n      pop\n        /* \"#utility.yul\":26757:27123   */\n      swap2\n      swap1\n      pop\n      jump\t// out\n        /* \"#utility.yul\":27129:27548   */\n    tag_90:\n        /* \"#utility.yul\":27295:27299   */\n      0x00\n        /* \"#utility.yul\":27333:27335   */\n      0x20\n        /* \"#utility.yul\":27322:27331   */\n      dup3\n        /* \"#utility.yul\":27318:27336   */\n      add\n        /* \"#utility.yul\":27310:27336   */\n      swap1\n      pop\n        /* \"#utility.yul\":27382:27391   */\n      dup2\n        /* \"#utility.yul\":27376:27380   */\n      dup2\n        /* \"#utility.yul\":27372:27392   */\n      sub\n        /* \"#utility.yul\":27368:27369   */\n      0x00\n        /* \"#utility.yul\":27357:27366   */\n      dup4\n        /* \"#utility.yul\":27353:27370   */\n      add\n        /* \"#utility.yul\":27346:27393   */\n      mstore\n        /* \"#utility.yul\":27410:27541   */\n      tag_492\n        /* \"#utility.yul\":27536:27540   */\n      dup2\n        /* \"#utility.yul\":27410:27541   */\n      tag_220\n      jump\t// in\n    tag_492:\n        /* \"#utility.yul\":27402:27541   */\n      swap1\n      pop\n        /* \"#utility.yul\":27129:27548   */\n      swap2\n      swap1\n      pop\n      jump\t// out\n        /* \"#utility.yul\":27554:27776   */\n    tag_221:\n        /* \"#utility.yul\":27694:27728   */\n      0x4572726f723a20437265646974206973207265746972656420616e64206c6f63\n        /* \"#utility.yul\":27690:27691   */\n      0x00\n        /* \"#utility.yul\":27682:27688   */\n      dup3\n        /* \"#utility.yul\":27678:27692   */\n      add\n        /* \"#utility.yul\":27671:27729   */\n      mstore\n        /* \"#utility.yul\":27763:27768   */\n      0x6b65640000000000000000000000000000000000000000000000000000000000\n        /* \"#utility.yul\":27758:27760   */\n      0x20\n        /* \"#utility.yul\":27750:27756   */\n      dup3\n        /* \"#utility.yul\":27746:27761   */\n      add\n        /* \"#utility.yul\":27739:27769   */\n      mstore\n        /* \"#utility.yul\":27554:27776   */\n      pop\n      jump\t// out\n        /* \"#utility.yul\":27782:28148   */\n    tag_222:\n        /* \"#utility.yul\":27924:27927   */\n      0x00\n        /* \"#utility.yul\":27945:28012   */\n      tag_495\n        /* \"#utility.yul\":28009:28011   */\n      0x23\n        /* \"#utility.yul\":28004:28007   */\n      dup4\n        /* \"#utility.yul\":27945:28012   */\n      tag_181\n      jump\t// in\n    tag_495:\n        /* \"#utility.yul\":27938:28012   */\n      swap2\n      pop\n        /* \"#utility.yul\":28021:28114   */\n      tag_496\n        /* \"#utility.yul\":28110:28113   */\n      dup3\n        /* \"#utility.yul\":28021:28114   */\n      tag_221\n      jump\t// in\n    tag_496:\n        /* \"#utility.yul\":28139:28141   */\n      0x40\n        /* \"#utility.yul\":28134:28137   */\n      dup3\n        /* \"#utility.yul\":28130:28142   */\n      add\n        /* \"#utility.yul\":28123:28142   */\n      swap1\n      pop\n        /* \"#utility.yul\":27782:28148   */\n      swap2\n      swap1\n      pop\n      jump\t// out\n        /* \"#utility.yul\":28154:28573   */\n    tag_94:\n        /* \"#utility.yul\":28320:28324   */\n      0x00\n        /* \"#utility.yul\":28358:28360   */\n      0x20\n        /* \"#utility.yul\":28347:28356   */\n      dup3\n        /* \"#utility.yul\":28343:28361   */\n      add\n        /* \"#utility.yul\":28335:28361   */\n      swap1\n      pop\n        /* \"#utility.yul\":28407:28416   */\n      dup2\n        /* \"#utility.yul\":28401:28405   */\n      dup2\n        /* \"#utility.yul\":28397:28417   */\n      sub\n        /* \"#utility.yul\":28393:28394   */\n      0x00\n        /* \"#utility.yul\":28382:28391   */\n      dup4\n        /* \"#utility.yul\":28378:28395   */\n      add\n        /* \"#utility.yul\":28371:28418   */\n      mstore\n        /* \"#utility.yul\":28435:28566   */\n      tag_498\n        /* \"#utility.yul\":28561:28565   */\n      dup2\n        /* \"#utility.yul\":28435:28566   */\n      tag_222\n      jump\t// in\n    tag_498:\n        /* \"#utility.yul\":28427:28566   */\n      swap1\n      pop\n        /* \"#utility.yul\":28154:28573   */\n      swap2\n      swap1\n      pop\n      jump\t// out\n        /* \"#utility.yul\":28579:28737   */\n    tag_223:\n        /* \"#utility.yul\":28719:28729   */\n      0x5452414e53464552000000000000000000000000000000000000000000000000\n        /* \"#utility.yul\":28715:28716   */\n      0x00\n        /* \"#utility.yul\":28707:28713   */\n      dup3\n        /* \"#utility.yul\":28703:28717   */\n      add\n        /* \"#utility.yul\":28696:28730   */\n      mstore\n        /* \"#utility.yul\":28579:28737   */\n      pop\n      jump\t// out\n        /* \"#utility.yul\":28743:29108   */\n    tag_224:\n        /* \"#utility.yul\":28885:28888   */\n      0x00\n        /* \"#utility.yul\":28906:28972   */\n      tag_501\n        /* \"#utility.yul\":28970:28971   */\n      0x08\n        /* \"#utility.yul\":28965:28968   */\n      dup4\n        /* \"#utility.yul\":28906:28972   */\n      tag_181\n      jump\t// in\n    tag_501:\n        /* \"#utility.yul\":28899:28972   */\n      swap2\n      pop\n        /* \"#utility.yul\":28981:29074   */\n      tag_502\n        /* \"#utility.yul\":29070:29073   */\n      dup3\n        /* \"#utility.yul\":28981:29074   */\n      tag_223\n      jump\t// in\n    tag_502:\n        /* \"#utility.yul\":29099:29101   */\n      0x20\n        /* \"#utility.yul\":29094:29097   */\n      dup3\n        /* \"#utility.yul\":29090:29102   */\n      add\n        /* \"#utility.yul\":29083:29102   */\n      swap1\n      pop\n        /* \"#utility.yul\":28743:29108   */\n      swap2\n      swap1\n      pop\n      jump\t// out\n        /* \"#utility.yul\":29114:29955   */\n    tag_100:\n        /* \"#utility.yul\":29384:29388   */\n      0x00\n        /* \"#utility.yul\":29422:29425   */\n      0x80\n        /* \"#utility.yul\":29411:29420   */\n      dup3\n        /* \"#utility.yul\":29407:29426   */\n      add\n        /* \"#utility.yul\":29399:29426   */\n      swap1\n      pop\n        /* \"#utility.yul\":29472:29481   */\n      dup2\n        /* \"#utility.yul\":29466:29470   */\n      dup2\n        /* \"#utility.yul\":29462:29482   */\n      sub\n        /* \"#utility.yul\":29458:29459   */\n      0x00\n        /* \"#utility.yul\":29447:29456   */\n      dup4\n        /* \"#utility.yul\":29443:29460   */\n      add\n        /* \"#utility.yul\":29436:29483   */\n      mstore\n        /* \"#utility.yul\":29500:29578   */\n      tag_504\n        /* \"#utility.yul\":29573:29577   */\n      dup2\n        /* \"#utility.yul\":29564:29570   */\n      dup7\n        /* \"#utility.yul\":29500:29578   */\n      tag_183\n      jump\t// in\n    tag_504:\n        /* \"#utility.yul\":29492:29578   */\n      swap1\n      pop\n        /* \"#utility.yul\":29625:29634   */\n      dup2\n        /* \"#utility.yul\":29619:29623   */\n      dup2\n        /* \"#utility.yul\":29615:29635   */\n      sub\n        /* \"#utility.yul\":29610:29612   */\n      0x20\n        /* \"#utility.yul\":29599:29608   */\n      dup4\n        /* \"#utility.yul\":29595:29613   */\n      add\n        /* \"#utility.yul\":29588:29636   */\n      mstore\n        /* \"#utility.yul\":29653:29784   */\n      tag_505\n        /* \"#utility.yul\":29779:29783   */\n      dup2\n        /* \"#utility.yul\":29653:29784   */\n      tag_224\n      jump\t// in\n    tag_505:\n        /* \"#utility.yul\":29645:29784   */\n      swap1\n      pop\n        /* \"#utility.yul\":29794:29866   */\n      tag_506\n        /* \"#utility.yul\":29862:29864   */\n      0x40\n        /* \"#utility.yul\":29851:29860   */\n      dup4\n        /* \"#utility.yul\":29847:29865   */\n      add\n        /* \"#utility.yul\":29838:29844   */\n      dup6\n        /* \"#utility.yul\":29794:29866   */\n      tag_170\n      jump\t// in\n    tag_506:\n        /* \"#utility.yul\":29876:29948   */\n      tag_507\n        /* \"#utility.yul\":29944:29946   */\n      0x60\n        /* \"#utility.yul\":29933:29942   */\n      dup4\n        /* \"#utility.yul\":29929:29947   */\n      add\n        /* \"#utility.yul\":29920:29926   */\n      dup5\n        /* \"#utility.yul\":29876:29948   */\n      tag_184\n      jump\t// in\n    tag_507:\n        /* \"#utility.yul\":29114:29955   */\n      swap5\n      swap4\n      pop\n      pop\n      pop\n      pop\n      jump\t// out\n        /* \"#utility.yul\":29961:30131   */\n    tag_225:\n        /* \"#utility.yul\":30101:30123   */\n      0x4572726f723a204e6f7420746865206f776e6572000000000000000000000000\n        /* \"#utility.yul\":30097:30098   */\n      0x00\n        /* \"#utility.yul\":30089:30095   */\n      dup3\n        /* \"#utility.yul\":30085:30099   */\n      add\n        /* \"#utility.yul\":30078:30124   */\n      mstore\n        /* \"#utility.yul\":29961:30131   */\n      pop\n      jump\t// out\n        /* \"#utility.yul\":30137:30503   */\n    tag_226:\n        /* \"#utility.yul\":30279:30282   */\n      0x00\n        /* \"#utility.yul\":30300:30367   */\n      tag_510\n        /* \"#utility.yul\":30364:30366   */\n      0x14\n        /* \"#utility.yul\":30359:30362   */\n      dup4\n        /* \"#utility.yul\":30300:30367   */\n      tag_181\n      jump\t// in\n    tag_510:\n        /* \"#utility.yul\":30293:30367   */\n      swap2\n      pop\n        /* \"#utility.yul\":30376:30469   */\n      tag_511\n        /* \"#utility.yul\":30465:30468   */\n      dup3\n        /* \"#utility.yul\":30376:30469   */\n      tag_225\n      jump\t// in\n    tag_511:\n        /* \"#utility.yul\":30494:30496   */\n      0x20\n        /* \"#utility.yul\":30489:30492   */\n      dup3\n        /* \"#utility.yul\":30485:30497   */\n      add\n        /* \"#utility.yul\":30478:30497   */\n      swap1\n      pop\n        /* \"#utility.yul\":30137:30503   */\n      swap2\n      swap1\n      pop\n      jump\t// out\n        /* \"#utility.yul\":30509:30928   */\n    tag_105:\n        /* \"#utility.yul\":30675:30679   */\n      0x00\n        /* \"#utility.yul\":30713:30715   */\n      0x20\n        /* \"#utility.yul\":30702:30711   */\n      dup3\n        /* \"#utility.yul\":30698:30716   */\n      add\n        /* \"#utility.yul\":30690:30716   */\n      swap1\n      pop\n        /* \"#utility.yul\":30762:30771   */\n      dup2\n        /* \"#utility.yul\":30756:30760   */\n      dup2\n        /* \"#utility.yul\":30752:30772   */\n      sub\n        /* \"#utility.yul\":30748:30749   */\n      0x00\n        /* \"#utility.yul\":30737:30746   */\n      dup4\n        /* \"#utility.yul\":30733:30750   */\n      add\n        /* \"#utility.yul\":30726:30773   */\n      mstore\n        /* \"#utility.yul\":30790:30921   */\n      tag_513\n        /* \"#utility.yul\":30916:30920   */\n      dup2\n        /* \"#utility.yul\":30790:30921   */\n      tag_226\n      jump\t// in\n    tag_513:\n        /* \"#utility.yul\":30782:30921   */\n      swap1\n      pop\n        /* \"#utility.yul\":30509:30928   */\n      swap2\n      swap1\n      pop\n      jump\t// out\n        /* \"#utility.yul\":30934:31106   */\n    tag_227:\n        /* \"#utility.yul\":31074:31098   */\n      0x4572726f723a20416c7265616479207265746972656400000000000000000000\n        /* \"#utility.yul\":31070:31071   */\n      0x00\n        /* \"#utility.yul\":31062:31068   */\n      dup3\n        /* \"#utility.yul\":31058:31072   */\n      add\n        /* \"#utility.yul\":31051:31099   */\n      mstore\n        /* \"#utility.yul\":30934:31106   */\n      pop\n      jump\t// out\n        /* \"#utility.yul\":31112:31478   */\n    tag_228:\n        /* \"#utility.yul\":31254:31257   */\n      0x00\n        /* \"#utility.yul\":31275:31342   */\n      tag_516\n        /* \"#utility.yul\":31339:31341   */\n      0x16\n        /* \"#utility.yul\":31334:31337   */\n      dup4\n        /* \"#utility.yul\":31275:31342   */\n      tag_181\n      jump\t// in\n    tag_516:\n        /* \"#utility.yul\":31268:31342   */\n      swap2\n      pop\n        /* \"#utility.yul\":31351:31444   */\n      tag_517\n        /* \"#utility.yul\":31440:31443   */\n      dup3\n        /* \"#utility.yul\":31351:31444   */\n      tag_227\n      jump\t// in\n    tag_517:\n        /* \"#utility.yul\":31469:31471   */\n      0x20\n        /* \"#utility.yul\":31464:31467   */\n      dup3\n        /* \"#utility.yul\":31460:31472   */\n      add\n        /* \"#utility.yul\":31453:31472   */\n      swap1\n      pop\n        /* \"#utility.yul\":31112:31478   */\n      swap2\n      swap1\n      pop\n      jump\t// out\n        /* \"#utility.yul\":31484:31903   */\n    tag_109:\n        /* \"#utility.yul\":31650:31654   */\n      0x00\n        /* \"#utility.yul\":31688:31690   */\n      0x20\n        /* \"#utility.yul\":31677:31686   */\n      dup3\n        /* \"#utility.yul\":31673:31691   */\n      add\n        /* \"#utility.yul\":31665:31691   */\n      swap1\n      pop\n        /* \"#utility.yul\":31737:31746   */\n      dup2\n        /* \"#utility.yul\":31731:31735   */\n      dup2\n        /* \"#utility.yul\":31727:31747   */\n      sub\n        /* \"#utility.yul\":31723:31724   */\n      0x00\n        /* \"#utility.yul\":31712:31721   */\n      dup4\n        /* \"#utility.yul\":31708:31725   */\n      add\n        /* \"#utility.yul\":31701:31748   */\n      mstore\n        /* \"#utility.yul\":31765:31896   */\n      tag_519\n        /* \"#utility.yul\":31891:31895   */\n      dup2\n        /* \"#utility.yul\":31765:31896   */\n      tag_228\n      jump\t// in\n    tag_519:\n        /* \"#utility.yul\":31757:31896   */\n      swap1\n      pop\n        /* \"#utility.yul\":31484:31903   */\n      swap2\n      swap1\n      pop\n      jump\t// out\n        /* \"#utility.yul\":31909:32066   */\n    tag_229:\n        /* \"#utility.yul\":32049:32058   */\n      0x5245544952454400000000000000000000000000000000000000000000000000\n        /* \"#utility.yul\":32045:32046   */\n      0x00\n        /* \"#utility.yul\":32037:32043   */\n      dup3\n        /* \"#utility.yul\":32033:32047   */\n      add\n        /* \"#utility.yul\":32026:32059   */\n      mstore\n        /* \"#utility.yul\":31909:32066   */\n      pop\n      jump\t// out\n        /* \"#utility.yul\":32072:32437   */\n    tag_230:\n        /* \"#utility.yul\":32214:32217   */\n      0x00\n        /* \"#utility.yul\":32235:32301   */\n      tag_522\n        /* \"#utility.yul\":32299:32300   */\n      0x07\n        /* \"#utility.yul\":32294:32297   */\n      dup4\n        /* \"#utility.yul\":32235:32301   */\n      tag_181\n      jump\t// in\n    tag_522:\n        /* \"#utility.yul\":32228:32301   */\n      swap2\n      pop\n        /* \"#utility.yul\":32310:32403   */\n      tag_523\n        /* \"#utility.yul\":32399:32402   */\n      dup3\n        /* \"#utility.yul\":32310:32403   */\n      tag_229\n      jump\t// in\n    tag_523:\n        /* \"#utility.yul\":32428:32430   */\n      0x20\n        /* \"#utility.yul\":32423:32426   */\n      dup3\n        /* \"#utility.yul\":32419:32431   */\n      add\n        /* \"#utility.yul\":32412:32431   */\n      swap1\n      pop\n        /* \"#utility.yul\":32072:32437   */\n      swap2\n      swap1\n      pop\n      jump\t// out\n        /* \"#utility.yul\":32443:33284   */\n    tag_115:\n        /* \"#utility.yul\":32713:32717   */\n      0x00\n        /* \"#utility.yul\":32751:32754   */\n      0x80\n        /* \"#utility.yul\":32740:32749   */\n      dup3\n        /* \"#utility.yul\":32736:32755   */\n      add\n        /* \"#utility.yul\":32728:32755   */\n      swap1\n      pop\n        /* \"#utility.yul\":32801:32810   */\n      dup2\n        /* \"#utility.yul\":32795:32799   */\n      dup2\n        /* \"#utility.yul\":32791:32811   */\n      sub\n        /* \"#utility.yul\":32787:32788   */\n      0x00\n        /* \"#utility.yul\":32776:32785   */\n      dup4\n        /* \"#utility.yul\":32772:32789   */\n      add\n        /* \"#utility.yul\":32765:32812   */\n      mstore\n        /* \"#utility.yul\":32829:32907   */\n      tag_525\n        /* \"#utility.yul\":32902:32906   */\n      dup2\n        /* \"#utility.yul\":32893:32899   */\n      dup7\n        /* \"#utility.yul\":32829:32907   */\n      tag_183\n      jump\t// in\n    tag_525:\n        /* \"#utility.yul\":32821:32907   */\n      swap1\n      pop\n        /* \"#utility.yul\":32954:32963   */\n      dup2\n        /* \"#utility.yul\":32948:32952   */\n      dup2\n        /* \"#utility.yul\":32944:32964   */\n      sub\n        /* \"#utility.yul\":32939:32941   */\n      0x20\n        /* \"#utility.yul\":32928:32937   */\n      dup4\n        /* \"#utility.yul\":32924:32942   */\n      add\n        /* \"#utility.yul\":32917:32965   */\n      mstore\n        /* \"#utility.yul\":32982:33113   */\n      tag_526\n        /* \"#utility.yul\":33108:33112   */\n      dup2\n        /* \"#utility.yul\":32982:33113   */\n      tag_230\n      jump\t// in\n    tag_526:\n        /* \"#utility.yul\":32974:33113   */\n      swap1\n      pop\n        /* \"#utility.yul\":33123:33195   */\n      tag_527\n        /* \"#utility.yul\":33191:33193   */\n      0x40\n        /* \"#utility.yul\":33180:33189   */\n      dup4\n        /* \"#utility.yul\":33176:33194   */\n      add\n        /* \"#utility.yul\":33167:33173   */\n      dup6\n        /* \"#utility.yul\":33123:33195   */\n      tag_170\n      jump\t// in\n    tag_527:\n        /* \"#utility.yul\":33205:33277   */\n      tag_528\n        /* \"#utility.yul\":33273:33275   */\n      0x60\n        /* \"#utility.yul\":33262:33271   */\n      dup4\n        /* \"#utility.yul\":33258:33276   */\n      add\n        /* \"#utility.yul\":33249:33255   */\n      dup5\n        /* \"#utility.yul\":33205:33277   */\n      tag_184\n      jump\t// in\n    tag_528:\n        /* \"#utility.yul\":32443:33284   */\n      swap5\n      swap4\n      pop\n      pop\n      pop\n      pop\n      jump\t// out\n        /* \"#utility.yul\":33290:33453   */\n    tag_231:\n        /* \"#utility.yul\":33430:33445   */\n      0x5365637572697479204c6f636b00000000000000000000000000000000000000\n        /* \"#utility.yul\":33426:33427   */\n      0x00\n        /* \"#utility.yul\":33418:33424   */\n      dup3\n        /* \"#utility.yul\":33414:33428   */\n      add\n        /* \"#utility.yul\":33407:33446   */\n      mstore\n        /* \"#utility.yul\":33290:33453   */\n      pop\n      jump\t// out\n        /* \"#utility.yul\":33459:33825   */\n    tag_232:\n        /* \"#utility.yul\":33601:33604   */\n      0x00\n        /* \"#utility.yul\":33622:33689   */\n      tag_531\n        /* \"#utility.yul\":33686:33688   */\n      0x0d\n        /* \"#utility.yul\":33681:33684   */\n      dup4\n        /* \"#utility.yul\":33622:33689   */\n      tag_181\n      jump\t// in\n    tag_531:\n        /* \"#utility.yul\":33615:33689   */\n      swap2\n      pop\n        /* \"#utility.yul\":33698:33791   */\n      tag_532\n        /* \"#utility.yul\":33787:33790   */\n      dup3\n        /* \"#utility.yul\":33698:33791   */\n      tag_231\n      jump\t// in\n    tag_532:\n        /* \"#utility.yul\":33816:33818   */\n      0x20\n        /* \"#utility.yul\":33811:33814   */\n      dup3\n        /* \"#utility.yul\":33807:33819   */\n      add\n        /* \"#utility.yul\":33800:33819   */\n      swap1\n      pop\n        /* \"#utility.yul\":33459:33825   */\n      swap2\n      swap1\n      pop\n      jump\t// out\n        /* \"#utility.yul\":33831:34250   */\n    tag_123:\n        /* \"#utility.yul\":33997:34001   */\n      0x00\n        /* \"#utility.yul\":34035:34037   */\n      0x20\n        /* \"#utility.yul\":34024:34033   */\n      dup3\n        /* \"#utility.yul\":34020:34038   */\n      add\n        /* \"#utility.yul\":34012:34038   */\n      swap1\n      pop\n        /* \"#utility.yul\":34084:34093   */\n      dup2\n        /* \"#utility.yul\":34078:34082   */\n      dup2\n        /* \"#utility.yul\":34074:34094   */\n      sub\n        /* \"#utility.yul\":34070:34071   */\n      0x00\n        /* \"#utility.yul\":34059:34068   */\n      dup4\n        /* \"#utility.yul\":34055:34072   */\n      add\n        /* \"#utility.yul\":34048:34095   */\n      mstore\n        /* \"#utility.yul\":34112:34243   */\n      tag_534\n        /* \"#utility.yul\":34238:34242   */\n      dup2\n        /* \"#utility.yul\":34112:34243   */\n      tag_232\n      jump\t// in\n    tag_534:\n        /* \"#utility.yul\":34104:34243   */\n      swap1\n      pop\n        /* \"#utility.yul\":33831:34250   */\n      swap2\n      swap1\n      pop\n      jump\t// out\n    stop\n    data_5329c912140d34bc84663399af99e00d31686e69dd7429f39d0eea6ff3510e30 5574696c6974792061646a75737465642064756520746f20706879736963616c206c6f7373\n\n    auxdata: 0xa2646970667358221220c9cc7c58ba7c772e5ea2fcd31bf36c10699bc9d655b448fda2849d6efb2ca6ed64736f6c634300081f0033\n}\n",
				"bytecode": {
					"linkReferences": {},
					"object": "6080604052348015600f57600080fd5b50336000806101000a81548173ffffffffffffffffffffffffffffffffffffffff021916908373ffffffffffffffffffffffffffffffffffffffff1602179055506121268061005f6000396000f3fe608060405234801561001057600080fd5b50600436106100935760003560e01c8063947788bc11610066578063947788bc1461010a578063e360736e14610126578063e950669614610156578063f16d831c14610172578063f1a7c8da146101a957610093565b806305c107c8146100985780631dc0a6a5146100b457806330955b87146100d257806343f179c0146100ee575b600080fd5b6100b260048036038101906100ad9190611139565b6101c7565b005b6100bc610434565b6040516100c99190611265565b60405180910390f35b6100ec60048036038101906100e79190611280565b610458565b005b61010860048036038101906101039190611308565b610664565b005b610124600480360381019061011f9190611364565b6108c4565b005b610140600480360381019061013b91906113dc565b610aab565b60405161014d91906114e3565b60405180910390f35b610170600480360381019061016b9190611505565b610b5a565b005b61018c600480360381019061018791906113dc565b610c2c565b6040516101a09897969594939291906115db565b60405180910390f35b6101b1610f83565b6040516101be9190611265565b60405180910390f35b60008054906101000a900473ffffffffffffffffffffffffffffffffffffffff1673ffffffffffffffffffffffffffffffffffffffff163373ffffffffffffffffffffffffffffffffffffffff1614610255576040517f08c379a000000000000000000000000000000000000000000000000000000000815260040161024c906116c8565b60405180910390fd5b60006002866040516102679190611724565b908152602001604051809103902060040154146102b9576040517f08c379a00000000000000000000000000000000000000000000000000000000081526004016102b090611787565b60405180910390fd5b60006002866040516102cb9190611724565b90815260200160405180910390209050858160000190816102ec91906119b3565b50848160010190816102fe91906119b3565b508381600201908161031091906119b3565b508281600301908161032291906119b3565b50818160040181905550338160050160006101000a81548173ffffffffffffffffffffffffffffffffffffffff021916908373ffffffffffffffffffffffffffffffffffffffff16021790555080600601339080600181540180825580915050600190039060005260206000200160009091909190916101000a81548173ffffffffffffffffffffffffffffffffffffffff021916908373ffffffffffffffffffffffffffffffffffffffff16021790555060008160070160006101000a81548160ff0219169083151502179055507f18333675623e02fb1a443aed0d08aafe80d54464e407da936d5921418c6636e786338460405161042493929190611ad1565b60405180910390a1505050505050565b60008054906101000a900473ffffffffffffffffffffffffffffffffffffffff1681565b60008054906101000a900473ffffffffffffffffffffffffffffffffffffffff1673ffffffffffffffffffffffffffffffffffffffff163373ffffffffffffffffffffffffffffffffffffffff16146104e6576040517f08c379a00000000000000000000000000000000000000000000000000000000081526004016104dd90611b94565b60405180910390fd5b6002826040516104f69190611724565b908152602001604051809103902060070160009054906101000a900460ff1615610555576040517f08c379a000000000000000000000000000000000000000000000000000000000815260040161054c90611c00565b60405180910390fd5b6002826040516105659190611724565b90815260200160405180910390206004015481106105b8576040517f08c379a00000000000000000000000000000000000000000000000000000000081526004016105af90611c92565b60405180910390fd5b806002836040516105c99190611724565b9081526020016040518091039020600401819055506040518060600160405280602581526020016120cc602591396002836040516106079190611724565b9081526020016040518091039020600801908161062491906119b3565b507f18333675623e02fb1a443aed0d08aafe80d54464e407da936d5921418c6636e782338360405161065893929190611cfe565b60405180910390a15050565b3373ffffffffffffffffffffffffffffffffffffffff1660028360405161068b9190611724565b908152602001604051809103902060050160009054906101000a900473ffffffffffffffffffffffffffffffffffffffff1673ffffffffffffffffffffffffffffffffffffffff1614610713576040517f08c379a000000000000000000000000000000000000000000000000000000000815260040161070a90611d9b565b60405180910390fd5b6002826040516107239190611724565b908152602001604051809103902060070160009054906101000a900460ff1615610782576040517f08c379a000000000000000000000000000000000000000000000000000000000815260040161077990611e2d565b60405180910390fd5b806002836040516107939190611724565b908152602001604051809103902060050160006101000a81548173ffffffffffffffffffffffffffffffffffffffff021916908373ffffffffffffffffffffffffffffffffffffffff1602179055506002826040516107f29190611724565b9081526020016040518091039020600601819080600181540180825580915050600190039060005260206000200160009091909190916101000a81548173ffffffffffffffffffffffffffffffffffffffff021916908373ffffffffffffffffffffffffffffffffffffffff1602179055507f18333675623e02fb1a443aed0d08aafe80d54464e407da936d5921418c6636e782826002856040516108979190611724565b9081526020016040518091039020600401546040516108b893929190611e99565b60405180910390a15050565b3373ffffffffffffffffffffffffffffffffffffffff166002836040516108eb9190611724565b908152602001604051809103902060050160009054906101000a900473ffffffffffffffffffffffffffffffffffffffff1673ffffffffffffffffffffffffffffffffffffffff1614610973576040517f08c379a000000000000000000000000000000000000000000000000000000000815260040161096a90611f36565b60405180910390fd5b6002826040516109839190611724565b908152602001604051809103902060070160009054906101000a900460ff16156109e2576040517f08c379a00000000000000000000000000000000000000000000000000000000081526004016109d990611fa2565b60405180910390fd5b60016002836040516109f49190611724565b908152602001604051809103902060070160006101000a81548160ff02191690831515021790555080600283604051610a2d9190611724565b90815260200160405180910390206008019081610a4a91906119b3565b507f18333675623e02fb1a443aed0d08aafe80d54464e407da936d5921418c6636e78233600285604051610a7e9190611724565b908152602001604051809103902060040154604051610a9f9392919061200e565b60405180910390a15050565b6060600282604051610abd9190611724565b9081526020016040518091039020600601805480602002602001604051908101604052809291908181526020018280548015610b4e57602002820191906000526020600020905b8160009054906101000a900473ffffffffffffffffffffffffffffffffffffffff1673ffffffffffffffffffffffffffffffffffffffff1681526020019060010190808311610b04575b50505050509050919050565b60008054906101000a900473ffffffffffffffffffffffffffffffffffffffff1673ffffffffffffffffffffffffffffffffffffffff163373ffffffffffffffffffffffffffffffffffffffff1614610be8576040517f08c379a0000000000000000000000000000000000000000000000000000000008152600401610bdf906120ab565b60405180910390fd5b80600160006101000a81548173ffffffffffffffffffffffffffffffffffffffff021916908373ffffffffffffffffffffffffffffffffffffffff16021790555050565b60608060608060008060006060600060028a604051610c4b9190611724565b908152602001604051809103902090508060000181600101826002018360030184600401548560050160009054906101000a900473ffffffffffffffffffffffffffffffffffffffff168660070160009054906101000a900460ff1687600801878054610cb7906117d6565b80601f0160208091040260200160405190810160405280929190818152602001828054610ce3906117d6565b8015610d305780601f10610d0557610100808354040283529160200191610d30565b820191906000526020600020905b815481529060010190602001808311610d1357829003601f168201915b50505050509750868054610d43906117d6565b80601f0160208091040260200160405190810160405280929190818152602001828054610d6f906117d6565b8015610dbc5780601f10610d9157610100808354040283529160200191610dbc565b820191906000526020600020905b815481529060010190602001808311610d9f57829003601f168201915b50505050509650858054610dcf906117d6565b80601f0160208091040260200160405190810160405280929190818152602001828054610dfb906117d6565b8015610e485780601f10610e1d57610100808354040283529160200191610e48565b820191906000526020600020905b815481529060010190602001808311610e2b57829003601f168201915b50505050509550848054610e5b906117d6565b80601f0160208091040260200160405190810160405280929190818152602001828054610e87906117d6565b8015610ed45780601f10610ea957610100808354040283529160200191610ed4565b820191906000526020600020905b815481529060010190602001808311610eb757829003601f168201915b50505050509450808054610ee7906117d6565b80601f0160208091040260200160405190810160405280929190818152602001828054610f13906117d6565b8015610f605780601f10610f3557610100808354040283529160200191610f60565b820191906000526020600020905b815481529060010190602001808311610f4357829003601f168201915b505050505090509850985098509850985098509850985050919395975091939597565b600160009054906101000a900473ffffffffffffffffffffffffffffffffffffffff1681565b6000604051905090565b600080fd5b600080fd5b600080fd5b600080fd5b6000601f19601f8301169050919050565b7f4e487b7100000000000000000000000000000000000000000000000000000000600052604160045260246000fd5b61101082610fc7565b810181811067ffffffffffffffff8211171561102f5761102e610fd8565b5b80604052505050565b6000611042610fa9565b905061104e8282611007565b919050565b600067ffffffffffffffff82111561106e5761106d610fd8565b5b61107782610fc7565b9050602081019050919050565b82818337600083830152505050565b60006110a66110a184611053565b611038565b9050828152602081018484840111156110c2576110c1610fc2565b5b6110cd848285611084565b509392505050565b600082601f8301126110ea576110e9610fbd565b5b81356110fa848260208601611093565b91505092915050565b6000819050919050565b61111681611103565b811461112157600080fd5b50565b6000813590506111338161110d565b92915050565b600080600080600060a0868803121561115557611154610fb3565b5b600086013567ffffffffffffffff81111561117357611172610fb8565b5b61117f888289016110d5565b955050602086013567ffffffffffffffff8111156111a05761119f610fb8565b5b6111ac888289016110d5565b945050604086013567ffffffffffffffff8111156111cd576111cc610fb8565b5b6111d9888289016110d5565b935050606086013567ffffffffffffffff8111156111fa576111f9610fb8565b5b611206888289016110d5565b925050608061121788828901611124565b9150509295509295909350565b600073ffffffffffffffffffffffffffffffffffffffff82169050919050565b600061124f82611224565b9050919050565b61125f81611244565b82525050565b600060208201905061127a6000830184611256565b92915050565b6000806040838503121561129757611296610fb3565b5b600083013567ffffffffffffffff8111156112b5576112b4610fb8565b5b6112c1858286016110d5565b92505060206112d285828601611124565b9150509250929050565b6112e581611244565b81146112f057600080fd5b50565b600081359050611302816112dc565b92915050565b6000806040838503121561131f5761131e610fb3565b5b600083013567ffffffffffffffff81111561133d5761133c610fb8565b5b611349858286016110d5565b925050602061135a858286016112f3565b9150509250929050565b6000806040838503121561137b5761137a610fb3565b5b600083013567ffffffffffffffff81111561139957611398610fb8565b5b6113a5858286016110d5565b925050602083013567ffffffffffffffff8111156113c6576113c5610fb8565b5b6113d2858286016110d5565b9150509250929050565b6000602082840312156113f2576113f1610fb3565b5b600082013567ffffffffffffffff8111156114105761140f610fb8565b5b61141c848285016110d5565b91505092915050565b600081519050919050565b600082825260208201905092915050565b6000819050602082019050919050565b61145a81611244565b82525050565b600061146c8383611451565b60208301905092915050565b6000602082019050919050565b600061149082611425565b61149a8185611430565b93506114a583611441565b8060005b838110156114d65781516114bd8882611460565b97506114c883611478565b9250506001810190506114a9565b5085935050505092915050565b600060208201905081810360008301526114fd8184611485565b905092915050565b60006020828403121561151b5761151a610fb3565b5b6000611529848285016112f3565b91505092915050565b600081519050919050565b600082825260208201905092915050565b60005b8381101561156c578082015181840152602081019050611551565b60008484015250505050565b600061158382611532565b61158d818561153d565b935061159d81856020860161154e565b6115a681610fc7565b840191505092915050565b6115ba81611103565b82525050565b60008115159050919050565b6115d5816115c0565b82525050565b60006101008201905081810360008301526115f6818b611578565b9050818103602083015261160a818a611578565b9050818103604083015261161e8189611578565b905081810360608301526116328188611578565b905061164160808301876115b1565b61164e60a0830186611256565b61165b60c08301856115cc565b81810360e083015261166d8184611578565b90509998505050505050505050565b7f5149452053656375726974793a204f6e6c792052657365617263686572000000600082015250565b60006116b2601d8361153d565b91506116bd8261167c565b602082019050919050565b600060208201905081810360008301526116e1816116a5565b9050919050565b600081905092915050565b60006116fe82611532565b61170881856116e8565b935061171881856020860161154e565b80840191505092915050565b600061173082846116f3565b915081905092915050565b7f4944204475706c6963617465204572726f720000000000000000000000000000600082015250565b600061177160128361153d565b915061177c8261173b565b602082019050919050565b600060208201905081810360008301526117a081611764565b9050919050565b7f4e487b7100000000000000000000000000000000000000000000000000000000600052602260045260246000fd5b600060028204905060018216806117ee57607f821691505b602082108103611801576118006117a7565b5b50919050565b60008190508160005260206000209050919050565b60006020601f8301049050919050565b600082821b905092915050565b6000600883026118697fffffffffffffffffffffffffffffffffffffffffffffffffffffffffffffffff8261182c565b611873868361182c565b95508019841693508086168417925050509392505050565b6000819050919050565b60006118b06118ab6118a684611103565b61188b565b611103565b9050919050565b6000819050919050565b6118ca83611895565b6118de6118d6826118b7565b848454611839565b825550505050565b600090565b6118f36118e6565b6118fe8184846118c1565b505050565b5b81811015611922576119176000826118eb565b600181019050611904565b5050565b601f8211156119675761193881611807565b6119418461181c565b81016020851015611950578190505b61196461195c8561181c565b830182611903565b50505b505050565b600082821c905092915050565b600061198a6000198460080261196c565b1980831691505092915050565b60006119a38383611979565b9150826002028217905092915050565b6119bc82611532565b67ffffffffffffffff8111156119d5576119d4610fd8565b5b6119df82546117d6565b6119ea828285611926565b600060209050601f831160018114611a1d5760008415611a0b578287015190505b611a158582611997565b865550611a7d565b601f198416611a2b86611807565b60005b82811015611a5357848901518255600182019150602085019450602081019050611a2e565b86831015611a705784890151611a6c601f891682611979565b8355505b6001600288020188555050505b505050505050565b7f4249525448000000000000000000000000000000000000000000000000000000600082015250565b6000611abb60058361153d565b9150611ac682611a85565b602082019050919050565b60006080820190508181036000830152611aeb8186611578565b90508181036020830152611afe81611aae565b9050611b0d6040830185611256565b611b1a60608301846115b1565b949350505050565b7f4f6e6c7920726573656172636865722063616e2061646a75737420666f72206160008201527f63636964656e7473000000000000000000000000000000000000000000000000602082015250565b6000611b7e60288361153d565b9150611b8982611b22565b604082019050919050565b60006020820190508181036000830152611bad81611b71565b9050919050565b7f43616e6e6f742061646a75737420612072657469726564206372656469740000600082015250565b6000611bea601e8361153d565b9150611bf582611bb4565b602082019050919050565b60006020820190508181036000830152611c1981611bdd565b9050919050565b7f43616e206f6e6c7920646f776e7363616c6520666f7220686f6e657374206c6f60008201527f7373000000000000000000000000000000000000000000000000000000000000602082015250565b6000611c7c60228361153d565b9150611c8782611c20565b604082019050919050565b60006020820190508181036000830152611cab81611c6f565b9050919050565b7f4143434944454e545f41444a5553544d454e5400000000000000000000000000600082015250565b6000611ce860138361153d565b9150611cf382611cb2565b602082019050919050565b60006080820190508181036000830152611d188186611578565b90508181036020830152611d2b81611cdb565b9050611d3a6040830185611256565b611d4760608301846115b1565b949350505050565b7f4572726f723a20596f7520646f206e6f74206f776e2074686973000000000000600082015250565b6000611d85601a8361153d565b9150611d9082611d4f565b602082019050919050565b60006020820190508181036000830152611db481611d78565b9050919050565b7f4572726f723a20437265646974206973207265746972656420616e64206c6f6360008201527f6b65640000000000000000000000000000000000000000000000000000000000602082015250565b6000611e1760238361153d565b9150611e2282611dbb565b604082019050919050565b60006020820190508181036000830152611e4681611e0a565b9050919050565b7f5452414e53464552000000000000000000000000000000000000000000000000600082015250565b6000611e8360088361153d565b9150611e8e82611e4d565b602082019050919050565b60006080820190508181036000830152611eb38186611578565b90508181036020830152611ec681611e76565b9050611ed56040830185611256565b611ee260608301846115b1565b949350505050565b7f4572726f723a204e6f7420746865206f776e6572000000000000000000000000600082015250565b6000611f2060148361153d565b9150611f2b82611eea565b602082019050919050565b60006020820190508181036000830152611f4f81611f13565b9050919050565b7f4572726f723a20416c7265616479207265746972656400000000000000000000600082015250565b6000611f8c60168361153d565b9150611f9782611f56565b602082019050919050565b60006020820190508181036000830152611fbb81611f7f565b9050919050565b7f5245544952454400000000000000000000000000000000000000000000000000600082015250565b6000611ff860078361153d565b915061200382611fc2565b602082019050919050565b600060808201905081810360008301526120288186611578565b9050818103602083015261203b81611feb565b905061204a6040830185611256565b61205760608301846115b1565b949350505050565b7f5365637572697479204c6f636b00000000000000000000000000000000000000600082015250565b6000612095600d8361153d565b91506120a08261205f565b602082019050919050565b600060208201905081810360008301526120c481612088565b905091905056fe5574696c6974792061646a75737465642064756520746f20706879736963616c206c6f7373a2646970667358221220c9cc7c58ba7c772e5ea2fcd31bf36c10699bc9d655b448fda2849d6efb2ca6ed64736f6c634300081f0033",
					"opcodes": "PUSH1 0x80 PUSH1 0x40 MSTORE CALLVALUE DUP1 ISZERO PUSH1 0xF JUMPI PUSH1 0x0 DUP1 REVERT JUMPDEST POP CALLER PUSH1 0x0 DUP1 PUSH2 0x100 EXP DUP2 SLOAD DUP2 PUSH20 0xFFFFFFFFFFFFFFFFFFFFFFFFFFFFFFFFFFFFFFFF MUL NOT AND SWAP1 DUP4 PUSH20 0xFFFFFFFFFFFFFFFFFFFFFFFFFFFFFFFFFFFFFFFF AND MUL OR SWAP1 SSTORE POP PUSH2 0x2126 DUP1 PUSH2 0x5F PUSH1 0x0 CODECOPY PUSH1 0x0 RETURN INVALID PUSH1 0x80 PUSH1 0x40 MSTORE CALLVALUE DUP1 ISZERO PUSH2 0x10 JUMPI PUSH1 0x0 DUP1 REVERT JUMPDEST POP PUSH1 0x4 CALLDATASIZE LT PUSH2 0x93 JUMPI PUSH1 0x0 CALLDATALOAD PUSH1 0xE0 SHR DUP1 PUSH4 0x947788BC GT PUSH2 0x66 JUMPI DUP1 PUSH4 0x947788BC EQ PUSH2 0x10A JUMPI DUP1 PUSH4 0xE360736E EQ PUSH2 0x126 JUMPI DUP1 PUSH4 0xE9506696 EQ PUSH2 0x156 JUMPI DUP1 PUSH4 0xF16D831C EQ PUSH2 0x172 JUMPI DUP1 PUSH4 0xF1A7C8DA EQ PUSH2 0x1A9 JUMPI PUSH2 0x93 JUMP JUMPDEST DUP1 PUSH4 0x5C107C8 EQ PUSH2 0x98 JUMPI DUP1 PUSH4 0x1DC0A6A5 EQ PUSH2 0xB4 JUMPI DUP1 PUSH4 0x30955B87 EQ PUSH2 0xD2 JUMPI DUP1 PUSH4 0x43F179C0 EQ PUSH2 0xEE JUMPI JUMPDEST PUSH1 0x0 DUP1 REVERT JUMPDEST PUSH2 0xB2 PUSH1 0x4 DUP1 CALLDATASIZE SUB DUP2 ADD SWAP1 PUSH2 0xAD SWAP2 SWAP1 PUSH2 0x1139 JUMP JUMPDEST PUSH2 0x1C7 JUMP JUMPDEST STOP JUMPDEST PUSH2 0xBC PUSH2 0x434 JUMP JUMPDEST PUSH1 0x40 MLOAD PUSH2 0xC9 SWAP2 SWAP1 PUSH2 0x1265 JUMP JUMPDEST PUSH1 0x40 MLOAD DUP1 SWAP2 SUB SWAP1 RETURN JUMPDEST PUSH2 0xEC PUSH1 0x4 DUP1 CALLDATASIZE SUB DUP2 ADD SWAP1 PUSH2 0xE7 SWAP2 SWAP1 PUSH2 0x1280 JUMP JUMPDEST PUSH2 0x458 JUMP JUMPDEST STOP JUMPDEST PUSH2 0x108 PUSH1 0x4 DUP1 CALLDATASIZE SUB DUP2 ADD SWAP1 PUSH2 0x103 SWAP2 SWAP1 PUSH2 0x1308 JUMP JUMPDEST PUSH2 0x664 JUMP JUMPDEST STOP JUMPDEST PUSH2 0x124 PUSH1 0x4 DUP1 CALLDATASIZE SUB DUP2 ADD SWAP1 PUSH2 0x11F SWAP2 SWAP1 PUSH2 0x1364 JUMP JUMPDEST PUSH2 0x8C4 JUMP JUMPDEST STOP JUMPDEST PUSH2 0x140 PUSH1 0x4 DUP1 CALLDATASIZE SUB DUP2 ADD SWAP1 PUSH2 0x13B SWAP2 SWAP1 PUSH2 0x13DC JUMP JUMPDEST PUSH2 0xAAB JUMP JUMPDEST PUSH1 0x40 MLOAD PUSH2 0x14D SWAP2 SWAP1 PUSH2 0x14E3 JUMP JUMPDEST PUSH1 0x40 MLOAD DUP1 SWAP2 SUB SWAP1 RETURN JUMPDEST PUSH2 0x170 PUSH1 0x4 DUP1 CALLDATASIZE SUB DUP2 ADD SWAP1 PUSH2 0x16B SWAP2 SWAP1 PUSH2 0x1505 JUMP JUMPDEST PUSH2 0xB5A JUMP JUMPDEST STOP JUMPDEST PUSH2 0x18C PUSH1 0x4 DUP1 CALLDATASIZE SUB DUP2 ADD SWAP1 PUSH2 0x187 SWAP2 SWAP1 PUSH2 0x13DC JUMP JUMPDEST PUSH2 0xC2C JUMP JUMPDEST PUSH1 0x40 MLOAD PUSH2 0x1A0 SWAP9 SWAP8 SWAP7 SWAP6 SWAP5 SWAP4 SWAP3 SWAP2 SWAP1 PUSH2 0x15DB JUMP JUMPDEST PUSH1 0x40 MLOAD DUP1 SWAP2 SUB SWAP1 RETURN JUMPDEST PUSH2 0x1B1 PUSH2 0xF83 JUMP JUMPDEST PUSH1 0x40 MLOAD PUSH2 0x1BE SWAP2 SWAP1 PUSH2 0x1265 JUMP JUMPDEST PUSH1 0x40 MLOAD DUP1 SWAP2 SUB SWAP1 RETURN JUMPDEST PUSH1 0x0 DUP1 SLOAD SWAP1 PUSH2 0x100 EXP SWAP1 DIV PUSH20 0xFFFFFFFFFFFFFFFFFFFFFFFFFFFFFFFFFFFFFFFF AND PUSH20 0xFFFFFFFFFFFFFFFFFFFFFFFFFFFFFFFFFFFFFFFF AND CALLER PUSH20 0xFFFFFFFFFFFFFFFFFFFFFFFFFFFFFFFFFFFFFFFF AND EQ PUSH2 0x255 JUMPI PUSH1 0x40 MLOAD PUSH32 0x8C379A000000000000000000000000000000000000000000000000000000000 DUP2 MSTORE PUSH1 0x4 ADD PUSH2 0x24C SWAP1 PUSH2 0x16C8 JUMP JUMPDEST PUSH1 0x40 MLOAD DUP1 SWAP2 SUB SWAP1 REVERT JUMPDEST PUSH1 0x0 PUSH1 0x2 DUP7 PUSH1 0x40 MLOAD PUSH2 0x267 SWAP2 SWAP1 PUSH2 0x1724 JUMP JUMPDEST SWAP1 DUP2 MSTORE PUSH1 0x20 ADD PUSH1 0x40 MLOAD DUP1 SWAP2 SUB SWAP1 KECCAK256 PUSH1 0x4 ADD SLOAD EQ PUSH2 0x2B9 JUMPI PUSH1 0x40 MLOAD PUSH32 0x8C379A000000000000000000000000000000000000000000000000000000000 DUP2 MSTORE PUSH1 0x4 ADD PUSH2 0x2B0 SWAP1 PUSH2 0x1787 JUMP JUMPDEST PUSH1 0x40 MLOAD DUP1 SWAP2 SUB SWAP1 REVERT JUMPDEST PUSH1 0x0 PUSH1 0x2 DUP7 PUSH1 0x40 MLOAD PUSH2 0x2CB SWAP2 SWAP1 PUSH2 0x1724 JUMP JUMPDEST SWAP1 DUP2 MSTORE PUSH1 0x20 ADD PUSH1 0x40 MLOAD DUP1 SWAP2 SUB SWAP1 KECCAK256 SWAP1 POP DUP6 DUP2 PUSH1 0x0 ADD SWAP1 DUP2 PUSH2 0x2EC SWAP2 SWAP1 PUSH2 0x19B3 JUMP JUMPDEST POP DUP5 DUP2 PUSH1 0x1 ADD SWAP1 DUP2 PUSH2 0x2FE SWAP2 SWAP1 PUSH2 0x19B3 JUMP JUMPDEST POP DUP4 DUP2 PUSH1 0x2 ADD SWAP1 DUP2 PUSH2 0x310 SWAP2 SWAP1 PUSH2 0x19B3 JUMP JUMPDEST POP DUP3 DUP2 PUSH1 0x3 ADD SWAP1 DUP2 PUSH2 0x322 SWAP2 SWAP1 PUSH2 0x19B3 JUMP JUMPDEST POP DUP2 DUP2 PUSH1 0x4 ADD DUP2 SWAP1 SSTORE POP CALLER DUP2 PUSH1 0x5 ADD PUSH1 0x0 PUSH2 0x100 EXP DUP2 SLOAD DUP2 PUSH20 0xFFFFFFFFFFFFFFFFFFFFFFFFFFFFFFFFFFFFFFFF MUL NOT AND SWAP1 DUP4 PUSH20 0xFFFFFFFFFFFFFFFFFFFFFFFFFFFFFFFFFFFFFFFF AND MUL OR SWAP1 SSTORE POP DUP1 PUSH1 0x6 ADD CALLER SWAP1 DUP1 PUSH1 0x1 DUP2 SLOAD ADD DUP1 DUP3 SSTORE DUP1 SWAP2 POP POP PUSH1 0x1 SWAP1 SUB SWAP1 PUSH1 0x0 MSTORE PUSH1 0x20 PUSH1 0x0 KECCAK256 ADD PUSH1 0x0 SWAP1 SWAP2 SWAP1 SWAP2 SWAP1 SWAP2 PUSH2 0x100 EXP DUP2 SLOAD DUP2 PUSH20 0xFFFFFFFFFFFFFFFFFFFFFFFFFFFFFFFFFFFFFFFF MUL NOT AND SWAP1 DUP4 PUSH20 0xFFFFFFFFFFFFFFFFFFFFFFFFFFFFFFFFFFFFFFFF AND MUL OR SWAP1 SSTORE POP PUSH1 0x0 DUP2 PUSH1 0x7 ADD PUSH1 0x0 PUSH2 0x100 EXP DUP2 SLOAD DUP2 PUSH1 0xFF MUL NOT AND SWAP1 DUP4 ISZERO ISZERO MUL OR SWAP1 SSTORE POP PUSH32 0x18333675623E02FB1A443AED0D08AAFE80D54464E407DA936D5921418C6636E7 DUP7 CALLER DUP5 PUSH1 0x40 MLOAD PUSH2 0x424 SWAP4 SWAP3 SWAP2 SWAP1 PUSH2 0x1AD1 JUMP JUMPDEST PUSH1 0x40 MLOAD DUP1 SWAP2 SUB SWAP1 LOG1 POP POP POP POP POP POP JUMP JUMPDEST PUSH1 0x0 DUP1 SLOAD SWAP1 PUSH2 0x100 EXP SWAP1 DIV PUSH20 0xFFFFFFFFFFFFFFFFFFFFFFFFFFFFFFFFFFFFFFFF AND DUP2 JUMP JUMPDEST PUSH1 0x0 DUP1 SLOAD SWAP1 PUSH2 0x100 EXP SWAP1 DIV PUSH20 0xFFFFFFFFFFFFFFFFFFFFFFFFFFFFFFFFFFFFFFFF AND PUSH20 0xFFFFFFFFFFFFFFFFFFFFFFFFFFFFFFFFFFFFFFFF AND CALLER PUSH20 0xFFFFFFFFFFFFFFFFFFFFFFFFFFFFFFFFFFFFFFFF AND EQ PUSH2 0x4E6 JUMPI PUSH1 0x40 MLOAD PUSH32 0x8C379A000000000000000000000000000000000000000000000000000000000 DUP2 MSTORE PUSH1 0x4 ADD PUSH2 0x4DD SWAP1 PUSH2 0x1B94 JUMP JUMPDEST PUSH1 0x40 MLOAD DUP1 SWAP2 SUB SWAP1 REVERT JUMPDEST PUSH1 0x2 DUP3 PUSH1 0x40 MLOAD PUSH2 0x4F6 SWAP2 SWAP1 PUSH2 0x1724 JUMP JUMPDEST SWAP1 DUP2 MSTORE PUSH1 0x20 ADD PUSH1 0x40 MLOAD DUP1 SWAP2 SUB SWAP1 KECCAK256 PUSH1 0x7 ADD PUSH1 0x0 SWAP1 SLOAD SWAP1 PUSH2 0x100 EXP SWAP1 DIV PUSH1 0xFF AND ISZERO PUSH2 0x555 JUMPI PUSH1 0x40 MLOAD PUSH32 0x8C379A000000000000000000000000000000000000000000000000000000000 DUP2 MSTORE PUSH1 0x4 ADD PUSH2 0x54C SWAP1 PUSH2 0x1C00 JUMP JUMPDEST PUSH1 0x40 MLOAD DUP1 SWAP2 SUB SWAP1 REVERT JUMPDEST PUSH1 0x2 DUP3 PUSH1 0x40 MLOAD PUSH2 0x565 SWAP2 SWAP1 PUSH2 0x1724 JUMP JUMPDEST SWAP1 DUP2 MSTORE PUSH1 0x20 ADD PUSH1 0x40 MLOAD DUP1 SWAP2 SUB SWAP1 KECCAK256 PUSH1 0x4 ADD SLOAD DUP2 LT PUSH2 0x5B8 JUMPI PUSH1 0x40 MLOAD PUSH32 0x8C379A000000000000000000000000000000000000000000000000000000000 DUP2 MSTORE PUSH1 0x4 ADD PUSH2 0x5AF SWAP1 PUSH2 0x1C92 JUMP JUMPDEST PUSH1 0x40 MLOAD DUP1 SWAP2 SUB SWAP1 REVERT JUMPDEST DUP1 PUSH1 0x2 DUP4 PUSH1 0x40 MLOAD PUSH2 0x5C9 SWAP2 SWAP1 PUSH2 0x1724 JUMP JUMPDEST SWAP1 DUP2 MSTORE PUSH1 0x20 ADD PUSH1 0x40 MLOAD DUP1 SWAP2 SUB SWAP1 KECCAK256 PUSH1 0x4 ADD DUP2 SWAP1 SSTORE POP PUSH1 0x40 MLOAD DUP1 PUSH1 0x60 ADD PUSH1 0x40 MSTORE DUP1 PUSH1 0x25 DUP2 MSTORE PUSH1 0x20 ADD PUSH2 0x20CC PUSH1 0x25 SWAP2 CODECOPY PUSH1 0x2 DUP4 PUSH1 0x40 MLOAD PUSH2 0x607 SWAP2 SWAP1 PUSH2 0x1724 JUMP JUMPDEST SWAP1 DUP2 MSTORE PUSH1 0x20 ADD PUSH1 0x40 MLOAD DUP1 SWAP2 SUB SWAP1 KECCAK256 PUSH1 0x8 ADD SWAP1 DUP2 PUSH2 0x624 SWAP2 SWAP1 PUSH2 0x19B3 JUMP JUMPDEST POP PUSH32 0x18333675623E02FB1A443AED0D08AAFE80D54464E407DA936D5921418C6636E7 DUP3 CALLER DUP4 PUSH1 0x40 MLOAD PUSH2 0x658 SWAP4 SWAP3 SWAP2 SWAP1 PUSH2 0x1CFE JUMP JUMPDEST PUSH1 0x40 MLOAD DUP1 SWAP2 SUB SWAP1 LOG1 POP POP JUMP JUMPDEST CALLER PUSH20 0xFFFFFFFFFFFFFFFFFFFFFFFFFFFFFFFFFFFFFFFF AND PUSH1 0x2 DUP4 PUSH1 0x40 MLOAD PUSH2 0x68B SWAP2 SWAP1 PUSH2 0x1724 JUMP JUMPDEST SWAP1 DUP2 MSTORE PUSH1 0x20 ADD PUSH1 0x40 MLOAD DUP1 SWAP2 SUB SWAP1 KECCAK256 PUSH1 0x5 ADD PUSH1 0x0 SWAP1 SLOAD SWAP1 PUSH2 0x100 EXP SWAP1 DIV PUSH20 0xFFFFFFFFFFFFFFFFFFFFFFFFFFFFFFFFFFFFFFFF AND PUSH20 0xFFFFFFFFFFFFFFFFFFFFFFFFFFFFFFFFFFFFFFFF AND EQ PUSH2 0x713 JUMPI PUSH1 0x40 MLOAD PUSH32 0x8C379A000000000000000000000000000000000000000000000000000000000 DUP2 MSTORE PUSH1 0x4 ADD PUSH2 0x70A SWAP1 PUSH2 0x1D9B JUMP JUMPDEST PUSH1 0x40 MLOAD DUP1 SWAP2 SUB SWAP1 REVERT JUMPDEST PUSH1 0x2 DUP3 PUSH1 0x40 MLOAD PUSH2 0x723 SWAP2 SWAP1 PUSH2 0x1724 JUMP JUMPDEST SWAP1 DUP2 MSTORE PUSH1 0x20 ADD PUSH1 0x40 MLOAD DUP1 SWAP2 SUB SWAP1 KECCAK256 PUSH1 0x7 ADD PUSH1 0x0 SWAP1 SLOAD SWAP1 PUSH2 0x100 EXP SWAP1 DIV PUSH1 0xFF AND ISZERO PUSH2 0x782 JUMPI PUSH1 0x40 MLOAD PUSH32 0x8C379A000000000000000000000000000000000000000000000000000000000 DUP2 MSTORE PUSH1 0x4 ADD PUSH2 0x779 SWAP1 PUSH2 0x1E2D JUMP JUMPDEST PUSH1 0x40 MLOAD DUP1 SWAP2 SUB SWAP1 REVERT JUMPDEST DUP1 PUSH1 0x2 DUP4 PUSH1 0x40 MLOAD PUSH2 0x793 SWAP2 SWAP1 PUSH2 0x1724 JUMP JUMPDEST SWAP1 DUP2 MSTORE PUSH1 0x20 ADD PUSH1 0x40 MLOAD DUP1 SWAP2 SUB SWAP1 KECCAK256 PUSH1 0x5 ADD PUSH1 0x0 PUSH2 0x100 EXP DUP2 SLOAD DUP2 PUSH20 0xFFFFFFFFFFFFFFFFFFFFFFFFFFFFFFFFFFFFFFFF MUL NOT AND SWAP1 DUP4 PUSH20 0xFFFFFFFFFFFFFFFFFFFFFFFFFFFFFFFFFFFFFFFF AND MUL OR SWAP1 SSTORE POP PUSH1 0x2 DUP3 PUSH1 0x40 MLOAD PUSH2 0x7F2 SWAP2 SWAP1 PUSH2 0x1724 JUMP JUMPDEST SWAP1 DUP2 MSTORE PUSH1 0x20 ADD PUSH1 0x40 MLOAD DUP1 SWAP2 SUB SWAP1 KECCAK256 PUSH1 0x6 ADD DUP2 SWAP1 DUP1 PUSH1 0x1 DUP2 SLOAD ADD DUP1 DUP3 SSTORE DUP1 SWAP2 POP POP PUSH1 0x1 SWAP1 SUB SWAP1 PUSH1 0x0 MSTORE PUSH1 0x20 PUSH1 0x0 KECCAK256 ADD PUSH1 0x0 SWAP1 SWAP2 SWAP1 SWAP2 SWAP1 SWAP2 PUSH2 0x100 EXP DUP2 SLOAD DUP2 PUSH20 0xFFFFFFFFFFFFFFFFFFFFFFFFFFFFFFFFFFFFFFFF MUL NOT AND SWAP1 DUP4 PUSH20 0xFFFFFFFFFFFFFFFFFFFFFFFFFFFFFFFFFFFFFFFF AND MUL OR SWAP1 SSTORE POP PUSH32 0x18333675623E02FB1A443AED0D08AAFE80D54464E407DA936D5921418C6636E7 DUP3 DUP3 PUSH1 0x2 DUP6 PUSH1 0x40 MLOAD PUSH2 0x897 SWAP2 SWAP1 PUSH2 0x1724 JUMP JUMPDEST SWAP1 DUP2 MSTORE PUSH1 0x20 ADD PUSH1 0x40 MLOAD DUP1 SWAP2 SUB SWAP1 KECCAK256 PUSH1 0x4 ADD SLOAD PUSH1 0x40 MLOAD PUSH2 0x8B8 SWAP4 SWAP3 SWAP2 SWAP1 PUSH2 0x1E99 JUMP JUMPDEST PUSH1 0x40 MLOAD DUP1 SWAP2 SUB SWAP1 LOG1 POP POP JUMP JUMPDEST CALLER PUSH20 0xFFFFFFFFFFFFFFFFFFFFFFFFFFFFFFFFFFFFFFFF AND PUSH1 0x2 DUP4 PUSH1 0x40 MLOAD PUSH2 0x8EB SWAP2 SWAP1 PUSH2 0x1724 JUMP JUMPDEST SWAP1 DUP2 MSTORE PUSH1 0x20 ADD PUSH1 0x40 MLOAD DUP1 SWAP2 SUB SWAP1 KECCAK256 PUSH1 0x5 ADD PUSH1 0x0 SWAP1 SLOAD SWAP1 PUSH2 0x100 EXP SWAP1 DIV PUSH20 0xFFFFFFFFFFFFFFFFFFFFFFFFFFFFFFFFFFFFFFFF AND PUSH20 0xFFFFFFFFFFFFFFFFFFFFFFFFFFFFFFFFFFFFFFFF AND EQ PUSH2 0x973 JUMPI PUSH1 0x40 MLOAD PUSH32 0x8C379A000000000000000000000000000000000000000000000000000000000 DUP2 MSTORE PUSH1 0x4 ADD PUSH2 0x96A SWAP1 PUSH2 0x1F36 JUMP JUMPDEST PUSH1 0x40 MLOAD DUP1 SWAP2 SUB SWAP1 REVERT JUMPDEST PUSH1 0x2 DUP3 PUSH1 0x40 MLOAD PUSH2 0x983 SWAP2 SWAP1 PUSH2 0x1724 JUMP JUMPDEST SWAP1 DUP2 MSTORE PUSH1 0x20 ADD PUSH1 0x40 MLOAD DUP1 SWAP2 SUB SWAP1 KECCAK256 PUSH1 0x7 ADD PUSH1 0x0 SWAP1 SLOAD SWAP1 PUSH2 0x100 EXP SWAP1 DIV PUSH1 0xFF AND ISZERO PUSH2 0x9E2 JUMPI PUSH1 0x40 MLOAD PUSH32 0x8C379A000000000000000000000000000000000000000000000000000000000 DUP2 MSTORE PUSH1 0x4 ADD PUSH2 0x9D9 SWAP1 PUSH2 0x1FA2 JUMP JUMPDEST PUSH1 0x40 MLOAD DUP1 SWAP2 SUB SWAP1 REVERT JUMPDEST PUSH1 0x1 PUSH1 0x2 DUP4 PUSH1 0x40 MLOAD PUSH2 0x9F4 SWAP2 SWAP1 PUSH2 0x1724 JUMP JUMPDEST SWAP1 DUP2 MSTORE PUSH1 0x20 ADD PUSH1 0x40 MLOAD DUP1 SWAP2 SUB SWAP1 KECCAK256 PUSH1 0x7 ADD PUSH1 0x0 PUSH2 0x100 EXP DUP2 SLOAD DUP2 PUSH1 0xFF MUL NOT AND SWAP1 DUP4 ISZERO ISZERO MUL OR SWAP1 SSTORE POP DUP1 PUSH1 0x2 DUP4 PUSH1 0x40 MLOAD PUSH2 0xA2D SWAP2 SWAP1 PUSH2 0x1724 JUMP JUMPDEST SWAP1 DUP2 MSTORE PUSH1 0x20 ADD PUSH1 0x40 MLOAD DUP1 SWAP2 SUB SWAP1 KECCAK256 PUSH1 0x8 ADD SWAP1 DUP2 PUSH2 0xA4A SWAP2 SWAP1 PUSH2 0x19B3 JUMP JUMPDEST POP PUSH32 0x18333675623E02FB1A443AED0D08AAFE80D54464E407DA936D5921418C6636E7 DUP3 CALLER PUSH1 0x2 DUP6 PUSH1 0x40 MLOAD PUSH2 0xA7E SWAP2 SWAP1 PUSH2 0x1724 JUMP JUMPDEST SWAP1 DUP2 MSTORE PUSH1 0x20 ADD PUSH1 0x40 MLOAD DUP1 SWAP2 SUB SWAP1 KECCAK256 PUSH1 0x4 ADD SLOAD PUSH1 0x40 MLOAD PUSH2 0xA9F SWAP4 SWAP3 SWAP2 SWAP1 PUSH2 0x200E JUMP JUMPDEST PUSH1 0x40 MLOAD DUP1 SWAP2 SUB SWAP1 LOG1 POP POP JUMP JUMPDEST PUSH1 0x60 PUSH1 0x2 DUP3 PUSH1 0x40 MLOAD PUSH2 0xABD SWAP2 SWAP1 PUSH2 0x1724 JUMP JUMPDEST SWAP1 DUP2 MSTORE PUSH1 0x20 ADD PUSH1 0x40 MLOAD DUP1 SWAP2 SUB SWAP1 KECCAK256 PUSH1 0x6 ADD DUP1 SLOAD DUP1 PUSH1 0x20 MUL PUSH1 0x20 ADD PUSH1 0x40 MLOAD SWAP1 DUP2 ADD PUSH1 0x40 MSTORE DUP1 SWAP3 SWAP2 SWAP1 DUP2 DUP2 MSTORE PUSH1 0x20 ADD DUP3 DUP1 SLOAD DUP1 ISZERO PUSH2 0xB4E JUMPI PUSH1 0x20 MUL DUP3 ADD SWAP2 SWAP1 PUSH1 0x0 MSTORE PUSH1 0x20 PUSH1 0x0 KECCAK256 SWAP1 JUMPDEST DUP2 PUSH1 0x0 SWAP1 SLOAD SWAP1 PUSH2 0x100 EXP SWAP1 DIV PUSH20 0xFFFFFFFFFFFFFFFFFFFFFFFFFFFFFFFFFFFFFFFF AND PUSH20 0xFFFFFFFFFFFFFFFFFFFFFFFFFFFFFFFFFFFFFFFF AND DUP2 MSTORE PUSH1 0x20 ADD SWAP1 PUSH1 0x1 ADD SWAP1 DUP1 DUP4 GT PUSH2 0xB04 JUMPI JUMPDEST POP POP POP POP POP SWAP1 POP SWAP2 SWAP1 POP JUMP JUMPDEST PUSH1 0x0 DUP1 SLOAD SWAP1 PUSH2 0x100 EXP SWAP1 DIV PUSH20 0xFFFFFFFFFFFFFFFFFFFFFFFFFFFFFFFFFFFFFFFF AND PUSH20 0xFFFFFFFFFFFFFFFFFFFFFFFFFFFFFFFFFFFFFFFF AND CALLER PUSH20 0xFFFFFFFFFFFFFFFFFFFFFFFFFFFFFFFFFFFFFFFF AND EQ PUSH2 0xBE8 JUMPI PUSH1 0x40 MLOAD PUSH32 0x8C379A000000000000000000000000000000000000000000000000000000000 DUP2 MSTORE PUSH1 0x4 ADD PUSH2 0xBDF SWAP1 PUSH2 0x20AB JUMP JUMPDEST PUSH1 0x40 MLOAD DUP1 SWAP2 SUB SWAP1 REVERT JUMPDEST DUP1 PUSH1 0x1 PUSH1 0x0 PUSH2 0x100 EXP DUP2 SLOAD DUP2 PUSH20 0xFFFFFFFFFFFFFFFFFFFFFFFFFFFFFFFFFFFFFFFF MUL NOT AND SWAP1 DUP4 PUSH20 0xFFFFFFFFFFFFFFFFFFFFFFFFFFFFFFFFFFFFFFFF AND MUL OR SWAP1 SSTORE POP POP JUMP JUMPDEST PUSH1 0x60 DUP1 PUSH1 0x60 DUP1 PUSH1 0x0 DUP1 PUSH1 0x0 PUSH1 0x60 PUSH1 0x0 PUSH1 0x2 DUP11 PUSH1 0x40 MLOAD PUSH2 0xC4B SWAP2 SWAP1 PUSH2 0x1724 JUMP JUMPDEST SWAP1 DUP2 MSTORE PUSH1 0x20 ADD PUSH1 0x40 MLOAD DUP1 SWAP2 SUB SWAP1 KECCAK256 SWAP1 POP DUP1 PUSH1 0x0 ADD DUP2 PUSH1 0x1 ADD DUP3 PUSH1 0x2 ADD DUP4 PUSH1 0x3 ADD DUP5 PUSH1 0x4 ADD SLOAD DUP6 PUSH1 0x5 ADD PUSH1 0x0 SWAP1 SLOAD SWAP1 PUSH2 0x100 EXP SWAP1 DIV PUSH20 0xFFFFFFFFFFFFFFFFFFFFFFFFFFFFFFFFFFFFFFFF AND DUP7 PUSH1 0x7 ADD PUSH1 0x0 SWAP1 SLOAD SWAP1 PUSH2 0x100 EXP SWAP1 DIV PUSH1 0xFF AND DUP8 PUSH1 0x8 ADD DUP8 DUP1 SLOAD PUSH2 0xCB7 SWAP1 PUSH2 0x17D6 JUMP JUMPDEST DUP1 PUSH1 0x1F ADD PUSH1 0x20 DUP1 SWAP2 DIV MUL PUSH1 0x20 ADD PUSH1 0x40 MLOAD SWAP1 DUP2 ADD PUSH1 0x40 MSTORE DUP1 SWAP3 SWAP2 SWAP1 DUP2 DUP2 MSTORE PUSH1 0x20 ADD DUP3 DUP1 SLOAD PUSH2 0xCE3 SWAP1 PUSH2 0x17D6 JUMP JUMPDEST DUP1 ISZERO PUSH2 0xD30 JUMPI DUP1 PUSH1 0x1F LT PUSH2 0xD05 JUMPI PUSH2 0x100 DUP1 DUP4 SLOAD DIV MUL DUP4 MSTORE SWAP2 PUSH1 0x20 ADD SWAP2 PUSH2 0xD30 JUMP JUMPDEST DUP3 ADD SWAP2 SWAP1 PUSH1 0x0 MSTORE PUSH1 0x20 PUSH1 0x0 KECCAK256 SWAP1 JUMPDEST DUP2 SLOAD DUP2 MSTORE SWAP1 PUSH1 0x1 ADD SWAP1 PUSH1 0x20 ADD DUP1 DUP4 GT PUSH2 0xD13 JUMPI DUP3 SWAP1 SUB PUSH1 0x1F AND DUP3 ADD SWAP2 JUMPDEST POP POP POP POP POP SWAP8 POP DUP7 DUP1 SLOAD PUSH2 0xD43 SWAP1 PUSH2 0x17D6 JUMP JUMPDEST DUP1 PUSH1 0x1F ADD PUSH1 0x20 DUP1 SWAP2 DIV MUL PUSH1 0x20 ADD PUSH1 0x40 MLOAD SWAP1 DUP2 ADD PUSH1 0x40 MSTORE DUP1 SWAP3 SWAP2 SWAP1 DUP2 DUP2 MSTORE PUSH1 0x20 ADD DUP3 DUP1 SLOAD PUSH2 0xD6F SWAP1 PUSH2 0x17D6 JUMP JUMPDEST DUP1 ISZERO PUSH2 0xDBC JUMPI DUP1 PUSH1 0x1F LT PUSH2 0xD91 JUMPI PUSH2 0x100 DUP1 DUP4 SLOAD DIV MUL DUP4 MSTORE SWAP2 PUSH1 0x20 ADD SWAP2 PUSH2 0xDBC JUMP JUMPDEST DUP3 ADD SWAP2 SWAP1 PUSH1 0x0 MSTORE PUSH1 0x20 PUSH1 0x0 KECCAK256 SWAP1 JUMPDEST DUP2 SLOAD DUP2 MSTORE SWAP1 PUSH1 0x1 ADD SWAP1 PUSH1 0x20 ADD DUP1 DUP4 GT PUSH2 0xD9F JUMPI DUP3 SWAP1 SUB PUSH1 0x1F AND DUP3 ADD SWAP2 JUMPDEST POP POP POP POP POP SWAP7 POP DUP6 DUP1 SLOAD PUSH2 0xDCF SWAP1 PUSH2 0x17D6 JUMP JUMPDEST DUP1 PUSH1 0x1F ADD PUSH1 0x20 DUP1 SWAP2 DIV MUL PUSH1 0x20 ADD PUSH1 0x40 MLOAD SWAP1 DUP2 ADD PUSH1 0x40 MSTORE DUP1 SWAP3 SWAP2 SWAP1 DUP2 DUP2 MSTORE PUSH1 0x20 ADD DUP3 DUP1 SLOAD PUSH2 0xDFB SWAP1 PUSH2 0x17D6 JUMP JUMPDEST DUP1 ISZERO PUSH2 0xE48 JUMPI DUP1 PUSH1 0x1F LT PUSH2 0xE1D JUMPI PUSH2 0x100 DUP1 DUP4 SLOAD DIV MUL DUP4 MSTORE SWAP2 PUSH1 0x20 ADD SWAP2 PUSH2 0xE48 JUMP JUMPDEST DUP3 ADD SWAP2 SWAP1 PUSH1 0x0 MSTORE PUSH1 0x20 PUSH1 0x0 KECCAK256 SWAP1 JUMPDEST DUP2 SLOAD DUP2 MSTORE SWAP1 PUSH1 0x1 ADD SWAP1 PUSH1 0x20 ADD DUP1 DUP4 GT PUSH2 0xE2B JUMPI DUP3 SWAP1 SUB PUSH1 0x1F AND DUP3 ADD SWAP2 JUMPDEST POP POP POP POP POP SWAP6 POP DUP5 DUP1 SLOAD PUSH2 0xE5B SWAP1 PUSH2 0x17D6 JUMP JUMPDEST DUP1 PUSH1 0x1F ADD PUSH1 0x20 DUP1 SWAP2 DIV MUL PUSH1 0x20 ADD PUSH1 0x40 MLOAD SWAP1 DUP2 ADD PUSH1 0x40 MSTORE DUP1 SWAP3 SWAP2 SWAP1 DUP2 DUP2 MSTORE PUSH1 0x20 ADD DUP3 DUP1 SLOAD PUSH2 0xE87 SWAP1 PUSH2 0x17D6 JUMP JUMPDEST DUP1 ISZERO PUSH2 0xED4 JUMPI DUP1 PUSH1 0x1F LT PUSH2 0xEA9 JUMPI PUSH2 0x100 DUP1 DUP4 SLOAD DIV MUL DUP4 MSTORE SWAP2 PUSH1 0x20 ADD SWAP2 PUSH2 0xED4 JUMP JUMPDEST DUP3 ADD SWAP2 SWAP1 PUSH1 0x0 MSTORE PUSH1 0x20 PUSH1 0x0 KECCAK256 SWAP1 JUMPDEST DUP2 SLOAD DUP2 MSTORE SWAP1 PUSH1 0x1 ADD SWAP1 PUSH1 0x20 ADD DUP1 DUP4 GT PUSH2 0xEB7 JUMPI DUP3 SWAP1 SUB PUSH1 0x1F AND DUP3 ADD SWAP2 JUMPDEST POP POP POP POP POP SWAP5 POP DUP1 DUP1 SLOAD PUSH2 0xEE7 SWAP1 PUSH2 0x17D6 JUMP JUMPDEST DUP1 PUSH1 0x1F ADD PUSH1 0x20 DUP1 SWAP2 DIV MUL PUSH1 0x20 ADD PUSH1 0x40 MLOAD SWAP1 DUP2 ADD PUSH1 0x40 MSTORE DUP1 SWAP3 SWAP2 SWAP1 DUP2 DUP2 MSTORE PUSH1 0x20 ADD DUP3 DUP1 SLOAD PUSH2 0xF13 SWAP1 PUSH2 0x17D6 JUMP JUMPDEST DUP1 ISZERO PUSH2 0xF60 JUMPI DUP1 PUSH1 0x1F LT PUSH2 0xF35 JUMPI PUSH2 0x100 DUP1 DUP4 SLOAD DIV MUL DUP4 MSTORE SWAP2 PUSH1 0x20 ADD SWAP2 PUSH2 0xF60 JUMP JUMPDEST DUP3 ADD SWAP2 SWAP1 PUSH1 0x0 MSTORE PUSH1 0x20 PUSH1 0x0 KECCAK256 SWAP1 JUMPDEST DUP2 SLOAD DUP2 MSTORE SWAP1 PUSH1 0x1 ADD SWAP1 PUSH1 0x20 ADD DUP1 DUP4 GT PUSH2 0xF43 JUMPI DUP3 SWAP1 SUB PUSH1 0x1F AND DUP3 ADD SWAP2 JUMPDEST POP POP POP POP POP SWAP1 POP SWAP9 POP SWAP9 POP SWAP9 POP SWAP9 POP SWAP9 POP SWAP9 POP SWAP9 POP SWAP9 POP POP SWAP2 SWAP4 SWAP6 SWAP8 POP SWAP2 SWAP4 SWAP6 SWAP8 JUMP JUMPDEST PUSH1 0x1 PUSH1 0x0 SWAP1 SLOAD SWAP1 PUSH2 0x100 EXP SWAP1 DIV PUSH20 0xFFFFFFFFFFFFFFFFFFFFFFFFFFFFFFFFFFFFFFFF AND DUP2 JUMP JUMPDEST PUSH1 0x0 PUSH1 0x40 MLOAD SWAP1 POP SWAP1 JUMP JUMPDEST PUSH1 0x0 DUP1 REVERT JUMPDEST PUSH1 0x0 DUP1 REVERT JUMPDEST PUSH1 0x0 DUP1 REVERT JUMPDEST PUSH1 0x0 DUP1 REVERT JUMPDEST PUSH1 0x0 PUSH1 0x1F NOT PUSH1 0x1F DUP4 ADD AND SWAP1 POP SWAP2 SWAP1 POP JUMP JUMPDEST PUSH32 0x4E487B7100000000000000000000000000000000000000000000000000000000 PUSH1 0x0 MSTORE PUSH1 0x41 PUSH1 0x4 MSTORE PUSH1 0x24 PUSH1 0x0 REVERT JUMPDEST PUSH2 0x1010 DUP3 PUSH2 0xFC7 JUMP JUMPDEST DUP2 ADD DUP2 DUP2 LT PUSH8 0xFFFFFFFFFFFFFFFF DUP3 GT OR ISZERO PUSH2 0x102F JUMPI PUSH2 0x102E PUSH2 0xFD8 JUMP JUMPDEST JUMPDEST DUP1 PUSH1 0x40 MSTORE POP POP POP JUMP JUMPDEST PUSH1 0x0 PUSH2 0x1042 PUSH2 0xFA9 JUMP JUMPDEST SWAP1 POP PUSH2 0x104E DUP3 DUP3 PUSH2 0x1007 JUMP JUMPDEST SWAP2 SWAP1 POP JUMP JUMPDEST PUSH1 0x0 PUSH8 0xFFFFFFFFFFFFFFFF DUP3 GT ISZERO PUSH2 0x106E JUMPI PUSH2 0x106D PUSH2 0xFD8 JUMP JUMPDEST JUMPDEST PUSH2 0x1077 DUP3 PUSH2 0xFC7 JUMP JUMPDEST SWAP1 POP PUSH1 0x20 DUP2 ADD SWAP1 POP SWAP2 SWAP1 POP JUMP JUMPDEST DUP3 DUP2 DUP4 CALLDATACOPY PUSH1 0x0 DUP4 DUP4 ADD MSTORE POP POP POP JUMP JUMPDEST PUSH1 0x0 PUSH2 0x10A6 PUSH2 0x10A1 DUP5 PUSH2 0x1053 JUMP JUMPDEST PUSH2 0x1038 JUMP JUMPDEST SWAP1 POP DUP3 DUP2 MSTORE PUSH1 0x20 DUP2 ADD DUP5 DUP5 DUP5 ADD GT ISZERO PUSH2 0x10C2 JUMPI PUSH2 0x10C1 PUSH2 0xFC2 JUMP JUMPDEST JUMPDEST PUSH2 0x10CD DUP5 DUP3 DUP6 PUSH2 0x1084 JUMP JUMPDEST POP SWAP4 SWAP3 POP POP POP JUMP JUMPDEST PUSH1 0x0 DUP3 PUSH1 0x1F DUP4 ADD SLT PUSH2 0x10EA JUMPI PUSH2 0x10E9 PUSH2 0xFBD JUMP JUMPDEST JUMPDEST DUP2 CALLDATALOAD PUSH2 0x10FA DUP5 DUP3 PUSH1 0x20 DUP7 ADD PUSH2 0x1093 JUMP JUMPDEST SWAP2 POP POP SWAP3 SWAP2 POP POP JUMP JUMPDEST PUSH1 0x0 DUP2 SWAP1 POP SWAP2 SWAP1 POP JUMP JUMPDEST PUSH2 0x1116 DUP2 PUSH2 0x1103 JUMP JUMPDEST DUP2 EQ PUSH2 0x1121 JUMPI PUSH1 0x0 DUP1 REVERT JUMPDEST POP JUMP JUMPDEST PUSH1 0x0 DUP2 CALLDATALOAD SWAP1 POP PUSH2 0x1133 DUP2 PUSH2 0x110D JUMP JUMPDEST SWAP3 SWAP2 POP POP JUMP JUMPDEST PUSH1 0x0 DUP1 PUSH1 0x0 DUP1 PUSH1 0x0 PUSH1 0xA0 DUP7 DUP9 SUB SLT ISZERO PUSH2 0x1155 JUMPI PUSH2 0x1154 PUSH2 0xFB3 JUMP JUMPDEST JUMPDEST PUSH1 0x0 DUP7 ADD CALLDATALOAD PUSH8 0xFFFFFFFFFFFFFFFF DUP2 GT ISZERO PUSH2 0x1173 JUMPI PUSH2 0x1172 PUSH2 0xFB8 JUMP JUMPDEST JUMPDEST PUSH2 0x117F DUP9 DUP3 DUP10 ADD PUSH2 0x10D5 JUMP JUMPDEST SWAP6 POP POP PUSH1 0x20 DUP7 ADD CALLDATALOAD PUSH8 0xFFFFFFFFFFFFFFFF DUP2 GT ISZERO PUSH2 0x11A0 JUMPI PUSH2 0x119F PUSH2 0xFB8 JUMP JUMPDEST JUMPDEST PUSH2 0x11AC DUP9 DUP3 DUP10 ADD PUSH2 0x10D5 JUMP JUMPDEST SWAP5 POP POP PUSH1 0x40 DUP7 ADD CALLDATALOAD PUSH8 0xFFFFFFFFFFFFFFFF DUP2 GT ISZERO PUSH2 0x11CD JUMPI PUSH2 0x11CC PUSH2 0xFB8 JUMP JUMPDEST JUMPDEST PUSH2 0x11D9 DUP9 DUP3 DUP10 ADD PUSH2 0x10D5 JUMP JUMPDEST SWAP4 POP POP PUSH1 0x60 DUP7 ADD CALLDATALOAD PUSH8 0xFFFFFFFFFFFFFFFF DUP2 GT ISZERO PUSH2 0x11FA JUMPI PUSH2 0x11F9 PUSH2 0xFB8 JUMP JUMPDEST JUMPDEST PUSH2 0x1206 DUP9 DUP3 DUP10 ADD PUSH2 0x10D5 JUMP JUMPDEST SWAP3 POP POP PUSH1 0x80 PUSH2 0x1217 DUP9 DUP3 DUP10 ADD PUSH2 0x1124 JUMP JUMPDEST SWAP2 POP POP SWAP3 SWAP6 POP SWAP3 SWAP6 SWAP1 SWAP4 POP JUMP JUMPDEST PUSH1 0x0 PUSH20 0xFFFFFFFFFFFFFFFFFFFFFFFFFFFFFFFFFFFFFFFF DUP3 AND SWAP1 POP SWAP2 SWAP1 POP JUMP JUMPDEST PUSH1 0x0 PUSH2 0x124F DUP3 PUSH2 0x1224 JUMP JUMPDEST SWAP1 POP SWAP2 SWAP1 POP JUMP JUMPDEST PUSH2 0x125F DUP2 PUSH2 0x1244 JUMP JUMPDEST DUP3 MSTORE POP POP JUMP JUMPDEST PUSH1 0x0 PUSH1 0x20 DUP3 ADD SWAP1 POP PUSH2 0x127A PUSH1 0x0 DUP4 ADD DUP5 PUSH2 0x1256 JUMP JUMPDEST SWAP3 SWAP2 POP POP JUMP JUMPDEST PUSH1 0x0 DUP1 PUSH1 0x40 DUP4 DUP6 SUB SLT ISZERO PUSH2 0x1297 JUMPI PUSH2 0x1296 PUSH2 0xFB3 JUMP JUMPDEST JUMPDEST PUSH1 0x0 DUP4 ADD CALLDATALOAD PUSH8 0xFFFFFFFFFFFFFFFF DUP2 GT ISZERO PUSH2 0x12B5 JUMPI PUSH2 0x12B4 PUSH2 0xFB8 JUMP JUMPDEST JUMPDEST PUSH2 0x12C1 DUP6 DUP3 DUP7 ADD PUSH2 0x10D5 JUMP JUMPDEST SWAP3 POP POP PUSH1 0x20 PUSH2 0x12D2 DUP6 DUP3 DUP7 ADD PUSH2 0x1124 JUMP JUMPDEST SWAP2 POP POP SWAP3 POP SWAP3 SWAP1 POP JUMP JUMPDEST PUSH2 0x12E5 DUP2 PUSH2 0x1244 JUMP JUMPDEST DUP2 EQ PUSH2 0x12F0 JUMPI PUSH1 0x0 DUP1 REVERT JUMPDEST POP JUMP JUMPDEST PUSH1 0x0 DUP2 CALLDATALOAD SWAP1 POP PUSH2 0x1302 DUP2 PUSH2 0x12DC JUMP JUMPDEST SWAP3 SWAP2 POP POP JUMP JUMPDEST PUSH1 0x0 DUP1 PUSH1 0x40 DUP4 DUP6 SUB SLT ISZERO PUSH2 0x131F JUMPI PUSH2 0x131E PUSH2 0xFB3 JUMP JUMPDEST JUMPDEST PUSH1 0x0 DUP4 ADD CALLDATALOAD PUSH8 0xFFFFFFFFFFFFFFFF DUP2 GT ISZERO PUSH2 0x133D JUMPI PUSH2 0x133C PUSH2 0xFB8 JUMP JUMPDEST JUMPDEST PUSH2 0x1349 DUP6 DUP3 DUP7 ADD PUSH2 0x10D5 JUMP JUMPDEST SWAP3 POP POP PUSH1 0x20 PUSH2 0x135A DUP6 DUP3 DUP7 ADD PUSH2 0x12F3 JUMP JUMPDEST SWAP2 POP POP SWAP3 POP SWAP3 SWAP1 POP JUMP JUMPDEST PUSH1 0x0 DUP1 PUSH1 0x40 DUP4 DUP6 SUB SLT ISZERO PUSH2 0x137B JUMPI PUSH2 0x137A PUSH2 0xFB3 JUMP JUMPDEST JUMPDEST PUSH1 0x0 DUP4 ADD CALLDATALOAD PUSH8 0xFFFFFFFFFFFFFFFF DUP2 GT ISZERO PUSH2 0x1399 JUMPI PUSH2 0x1398 PUSH2 0xFB8 JUMP JUMPDEST JUMPDEST PUSH2 0x13A5 DUP6 DUP3 DUP7 ADD PUSH2 0x10D5 JUMP JUMPDEST SWAP3 POP POP PUSH1 0x20 DUP4 ADD CALLDATALOAD PUSH8 0xFFFFFFFFFFFFFFFF DUP2 GT ISZERO PUSH2 0x13C6 JUMPI PUSH2 0x13C5 PUSH2 0xFB8 JUMP JUMPDEST JUMPDEST PUSH2 0x13D2 DUP6 DUP3 DUP7 ADD PUSH2 0x10D5 JUMP JUMPDEST SWAP2 POP POP SWAP3 POP SWAP3 SWAP1 POP JUMP JUMPDEST PUSH1 0x0 PUSH1 0x20 DUP3 DUP5 SUB SLT ISZERO PUSH2 0x13F2 JUMPI PUSH2 0x13F1 PUSH2 0xFB3 JUMP JUMPDEST JUMPDEST PUSH1 0x0 DUP3 ADD CALLDATALOAD PUSH8 0xFFFFFFFFFFFFFFFF DUP2 GT ISZERO PUSH2 0x1410 JUMPI PUSH2 0x140F PUSH2 0xFB8 JUMP JUMPDEST JUMPDEST PUSH2 0x141C DUP5 DUP3 DUP6 ADD PUSH2 0x10D5 JUMP JUMPDEST SWAP2 POP POP SWAP3 SWAP2 POP POP JUMP JUMPDEST PUSH1 0x0 DUP2 MLOAD SWAP1 POP SWAP2 SWAP1 POP JUMP JUMPDEST PUSH1 0x0 DUP3 DUP3 MSTORE PUSH1 0x20 DUP3 ADD SWAP1 POP SWAP3 SWAP2 POP POP JUMP JUMPDEST PUSH1 0x0 DUP2 SWAP1 POP PUSH1 0x20 DUP3 ADD SWAP1 POP SWAP2 SWAP1 POP JUMP JUMPDEST PUSH2 0x145A DUP2 PUSH2 0x1244 JUMP JUMPDEST DUP3 MSTORE POP POP JUMP JUMPDEST PUSH1 0x0 PUSH2 0x146C DUP4 DUP4 PUSH2 0x1451 JUMP JUMPDEST PUSH1 0x20 DUP4 ADD SWAP1 POP SWAP3 SWAP2 POP POP JUMP JUMPDEST PUSH1 0x0 PUSH1 0x20 DUP3 ADD SWAP1 POP SWAP2 SWAP1 POP JUMP JUMPDEST PUSH1 0x0 PUSH2 0x1490 DUP3 PUSH2 0x1425 JUMP JUMPDEST PUSH2 0x149A DUP2 DUP6 PUSH2 0x1430 JUMP JUMPDEST SWAP4 POP PUSH2 0x14A5 DUP4 PUSH2 0x1441 JUMP JUMPDEST DUP1 PUSH1 0x0 JUMPDEST DUP4 DUP2 LT ISZERO PUSH2 0x14D6 JUMPI DUP2 MLOAD PUSH2 0x14BD DUP9 DUP3 PUSH2 0x1460 JUMP JUMPDEST SWAP8 POP PUSH2 0x14C8 DUP4 PUSH2 0x1478 JUMP JUMPDEST SWAP3 POP POP PUSH1 0x1 DUP2 ADD SWAP1 POP PUSH2 0x14A9 JUMP JUMPDEST POP DUP6 SWAP4 POP POP POP POP SWAP3 SWAP2 POP POP JUMP JUMPDEST PUSH1 0x0 PUSH1 0x20 DUP3 ADD SWAP1 POP DUP2 DUP2 SUB PUSH1 0x0 DUP4 ADD MSTORE PUSH2 0x14FD DUP2 DUP5 PUSH2 0x1485 JUMP JUMPDEST SWAP1 POP SWAP3 SWAP2 POP POP JUMP JUMPDEST PUSH1 0x0 PUSH1 0x20 DUP3 DUP5 SUB SLT ISZERO PUSH2 0x151B JUMPI PUSH2 0x151A PUSH2 0xFB3 JUMP JUMPDEST JUMPDEST PUSH1 0x0 PUSH2 0x1529 DUP5 DUP3 DUP6 ADD PUSH2 0x12F3 JUMP JUMPDEST SWAP2 POP POP SWAP3 SWAP2 POP POP JUMP JUMPDEST PUSH1 0x0 DUP2 MLOAD SWAP1 POP SWAP2 SWAP1 POP JUMP JUMPDEST PUSH1 0x0 DUP3 DUP3 MSTORE PUSH1 0x20 DUP3 ADD SWAP1 POP SWAP3 SWAP2 POP POP JUMP JUMPDEST PUSH1 0x0 JUMPDEST DUP4 DUP2 LT ISZERO PUSH2 0x156C JUMPI DUP1 DUP3 ADD MLOAD DUP2 DUP5 ADD MSTORE PUSH1 0x20 DUP2 ADD SWAP1 POP PUSH2 0x1551 JUMP JUMPDEST PUSH1 0x0 DUP5 DUP5 ADD MSTORE POP POP POP POP JUMP JUMPDEST PUSH1 0x0 PUSH2 0x1583 DUP3 PUSH2 0x1532 JUMP JUMPDEST PUSH2 0x158D DUP2 DUP6 PUSH2 0x153D JUMP JUMPDEST SWAP4 POP PUSH2 0x159D DUP2 DUP6 PUSH1 0x20 DUP7 ADD PUSH2 0x154E JUMP JUMPDEST PUSH2 0x15A6 DUP2 PUSH2 0xFC7 JUMP JUMPDEST DUP5 ADD SWAP2 POP POP SWAP3 SWAP2 POP POP JUMP JUMPDEST PUSH2 0x15BA DUP2 PUSH2 0x1103 JUMP JUMPDEST DUP3 MSTORE POP POP JUMP JUMPDEST PUSH1 0x0 DUP2 ISZERO ISZERO SWAP1 POP SWAP2 SWAP1 POP JUMP JUMPDEST PUSH2 0x15D5 DUP2 PUSH2 0x15C0 JUMP JUMPDEST DUP3 MSTORE POP POP JUMP JUMPDEST PUSH1 0x0 PUSH2 0x100 DUP3 ADD SWAP1 POP DUP2 DUP2 SUB PUSH1 0x0 DUP4 ADD MSTORE PUSH2 0x15F6 DUP2 DUP12 PUSH2 0x1578 JUMP JUMPDEST SWAP1 POP DUP2 DUP2 SUB PUSH1 0x20 DUP4 ADD MSTORE PUSH2 0x160A DUP2 DUP11 PUSH2 0x1578 JUMP JUMPDEST SWAP1 POP DUP2 DUP2 SUB PUSH1 0x40 DUP4 ADD MSTORE PUSH2 0x161E DUP2 DUP10 PUSH2 0x1578 JUMP JUMPDEST SWAP1 POP DUP2 DUP2 SUB PUSH1 0x60 DUP4 ADD MSTORE PUSH2 0x1632 DUP2 DUP9 PUSH2 0x1578 JUMP JUMPDEST SWAP1 POP PUSH2 0x1641 PUSH1 0x80 DUP4 ADD DUP8 PUSH2 0x15B1 JUMP JUMPDEST PUSH2 0x164E PUSH1 0xA0 DUP4 ADD DUP7 PUSH2 0x1256 JUMP JUMPDEST PUSH2 0x165B PUSH1 0xC0 DUP4 ADD DUP6 PUSH2 0x15CC JUMP JUMPDEST DUP2 DUP2 SUB PUSH1 0xE0 DUP4 ADD MSTORE PUSH2 0x166D DUP2 DUP5 PUSH2 0x1578 JUMP JUMPDEST SWAP1 POP SWAP10 SWAP9 POP POP POP POP POP POP POP POP POP JUMP JUMPDEST PUSH32 0x5149452053656375726974793A204F6E6C792052657365617263686572000000 PUSH1 0x0 DUP3 ADD MSTORE POP JUMP JUMPDEST PUSH1 0x0 PUSH2 0x16B2 PUSH1 0x1D DUP4 PUSH2 0x153D JUMP JUMPDEST SWAP2 POP PUSH2 0x16BD DUP3 PUSH2 0x167C JUMP JUMPDEST PUSH1 0x20 DUP3 ADD SWAP1 POP SWAP2 SWAP1 POP JUMP JUMPDEST PUSH1 0x0 PUSH1 0x20 DUP3 ADD SWAP1 POP DUP2 DUP2 SUB PUSH1 0x0 DUP4 ADD MSTORE PUSH2 0x16E1 DUP2 PUSH2 0x16A5 JUMP JUMPDEST SWAP1 POP SWAP2 SWAP1 POP JUMP JUMPDEST PUSH1 0x0 DUP2 SWAP1 POP SWAP3 SWAP2 POP POP JUMP JUMPDEST PUSH1 0x0 PUSH2 0x16FE DUP3 PUSH2 0x1532 JUMP JUMPDEST PUSH2 0x1708 DUP2 DUP6 PUSH2 0x16E8 JUMP JUMPDEST SWAP4 POP PUSH2 0x1718 DUP2 DUP6 PUSH1 0x20 DUP7 ADD PUSH2 0x154E JUMP JUMPDEST DUP1 DUP5 ADD SWAP2 POP POP SWAP3 SWAP2 POP POP JUMP JUMPDEST PUSH1 0x0 PUSH2 0x1730 DUP3 DUP5 PUSH2 0x16F3 JUMP JUMPDEST SWAP2 POP DUP2 SWAP1 POP SWAP3 SWAP2 POP POP JUMP JUMPDEST PUSH32 0x4944204475706C6963617465204572726F720000000000000000000000000000 PUSH1 0x0 DUP3 ADD MSTORE POP JUMP JUMPDEST PUSH1 0x0 PUSH2 0x1771 PUSH1 0x12 DUP4 PUSH2 0x153D JUMP JUMPDEST SWAP2 POP PUSH2 0x177C DUP3 PUSH2 0x173B JUMP JUMPDEST PUSH1 0x20 DUP3 ADD SWAP1 POP SWAP2 SWAP1 POP JUMP JUMPDEST PUSH1 0x0 PUSH1 0x20 DUP3 ADD SWAP1 POP DUP2 DUP2 SUB PUSH1 0x0 DUP4 ADD MSTORE PUSH2 0x17A0 DUP2 PUSH2 0x1764 JUMP JUMPDEST SWAP1 POP SWAP2 SWAP1 POP JUMP JUMPDEST PUSH32 0x4E487B7100000000000000000000000000000000000000000000000000000000 PUSH1 0x0 MSTORE PUSH1 0x22 PUSH1 0x4 MSTORE PUSH1 0x24 PUSH1 0x0 REVERT JUMPDEST PUSH1 0x0 PUSH1 0x2 DUP3 DIV SWAP1 POP PUSH1 0x1 DUP3 AND DUP1 PUSH2 0x17EE JUMPI PUSH1 0x7F DUP3 AND SWAP2 POP JUMPDEST PUSH1 0x20 DUP3 LT DUP2 SUB PUSH2 0x1801 JUMPI PUSH2 0x1800 PUSH2 0x17A7 JUMP JUMPDEST JUMPDEST POP SWAP2 SWAP1 POP JUMP JUMPDEST PUSH1 0x0 DUP2 SWAP1 POP DUP2 PUSH1 0x0 MSTORE PUSH1 0x20 PUSH1 0x0 KECCAK256 SWAP1 POP SWAP2 SWAP1 POP JUMP JUMPDEST PUSH1 0x0 PUSH1 0x20 PUSH1 0x1F DUP4 ADD DIV SWAP1 POP SWAP2 SWAP1 POP JUMP JUMPDEST PUSH1 0x0 DUP3 DUP3 SHL SWAP1 POP SWAP3 SWAP2 POP POP JUMP JUMPDEST PUSH1 0x0 PUSH1 0x8 DUP4 MUL PUSH2 0x1869 PUSH32 0xFFFFFFFFFFFFFFFFFFFFFFFFFFFFFFFFFFFFFFFFFFFFFFFFFFFFFFFFFFFFFFFF DUP3 PUSH2 0x182C JUMP JUMPDEST PUSH2 0x1873 DUP7 DUP4 PUSH2 0x182C JUMP JUMPDEST SWAP6 POP DUP1 NOT DUP5 AND SWAP4 POP DUP1 DUP7 AND DUP5 OR SWAP3 POP POP POP SWAP4 SWAP3 POP POP POP JUMP JUMPDEST PUSH1 0x0 DUP2 SWAP1 POP SWAP2 SWAP1 POP JUMP JUMPDEST PUSH1 0x0 PUSH2 0x18B0 PUSH2 0x18AB PUSH2 0x18A6 DUP5 PUSH2 0x1103 JUMP JUMPDEST PUSH2 0x188B JUMP JUMPDEST PUSH2 0x1103 JUMP JUMPDEST SWAP1 POP SWAP2 SWAP1 POP JUMP JUMPDEST PUSH1 0x0 DUP2 SWAP1 POP SWAP2 SWAP1 POP JUMP JUMPDEST PUSH2 0x18CA DUP4 PUSH2 0x1895 JUMP JUMPDEST PUSH2 0x18DE PUSH2 0x18D6 DUP3 PUSH2 0x18B7 JUMP JUMPDEST DUP5 DUP5 SLOAD PUSH2 0x1839 JUMP JUMPDEST DUP3 SSTORE POP POP POP POP JUMP JUMPDEST PUSH1 0x0 SWAP1 JUMP JUMPDEST PUSH2 0x18F3 PUSH2 0x18E6 JUMP JUMPDEST PUSH2 0x18FE DUP2 DUP5 DUP5 PUSH2 0x18C1 JUMP JUMPDEST POP POP POP JUMP JUMPDEST JUMPDEST DUP2 DUP2 LT ISZERO PUSH2 0x1922 JUMPI PUSH2 0x1917 PUSH1 0x0 DUP3 PUSH2 0x18EB JUMP JUMPDEST PUSH1 0x1 DUP2 ADD SWAP1 POP PUSH2 0x1904 JUMP JUMPDEST POP POP JUMP JUMPDEST PUSH1 0x1F DUP3 GT ISZERO PUSH2 0x1967 JUMPI PUSH2 0x1938 DUP2 PUSH2 0x1807 JUMP JUMPDEST PUSH2 0x1941 DUP5 PUSH2 0x181C JUMP JUMPDEST DUP2 ADD PUSH1 0x20 DUP6 LT ISZERO PUSH2 0x1950 JUMPI DUP2 SWAP1 POP JUMPDEST PUSH2 0x1964 PUSH2 0x195C DUP6 PUSH2 0x181C JUMP JUMPDEST DUP4 ADD DUP3 PUSH2 0x1903 JUMP JUMPDEST POP POP JUMPDEST POP POP POP JUMP JUMPDEST PUSH1 0x0 DUP3 DUP3 SHR SWAP1 POP SWAP3 SWAP2 POP POP JUMP JUMPDEST PUSH1 0x0 PUSH2 0x198A PUSH1 0x0 NOT DUP5 PUSH1 0x8 MUL PUSH2 0x196C JUMP JUMPDEST NOT DUP1 DUP4 AND SWAP2 POP POP SWAP3 SWAP2 POP POP JUMP JUMPDEST PUSH1 0x0 PUSH2 0x19A3 DUP4 DUP4 PUSH2 0x1979 JUMP JUMPDEST SWAP2 POP DUP3 PUSH1 0x2 MUL DUP3 OR SWAP1 POP SWAP3 SWAP2 POP POP JUMP JUMPDEST PUSH2 0x19BC DUP3 PUSH2 0x1532 JUMP JUMPDEST PUSH8 0xFFFFFFFFFFFFFFFF DUP2 GT ISZERO PUSH2 0x19D5 JUMPI PUSH2 0x19D4 PUSH2 0xFD8 JUMP JUMPDEST JUMPDEST PUSH2 0x19DF DUP3 SLOAD PUSH2 0x17D6 JUMP JUMPDEST PUSH2 0x19EA DUP3 DUP3 DUP6 PUSH2 0x1926 JUMP JUMPDEST PUSH1 0x0 PUSH1 0x20 SWAP1 POP PUSH1 0x1F DUP4 GT PUSH1 0x1 DUP2 EQ PUSH2 0x1A1D JUMPI PUSH1 0x0 DUP5 ISZERO PUSH2 0x1A0B JUMPI DUP3 DUP8 ADD MLOAD SWAP1 POP JUMPDEST PUSH2 0x1A15 DUP6 DUP3 PUSH2 0x1997 JUMP JUMPDEST DUP7 SSTORE POP PUSH2 0x1A7D JUMP JUMPDEST PUSH1 0x1F NOT DUP5 AND PUSH2 0x1A2B DUP7 PUSH2 0x1807 JUMP JUMPDEST PUSH1 0x0 JUMPDEST DUP3 DUP2 LT ISZERO PUSH2 0x1A53 JUMPI DUP5 DUP10 ADD MLOAD DUP3 SSTORE PUSH1 0x1 DUP3 ADD SWAP2 POP PUSH1 0x20 DUP6 ADD SWAP5 POP PUSH1 0x20 DUP2 ADD SWAP1 POP PUSH2 0x1A2E JUMP JUMPDEST DUP7 DUP4 LT ISZERO PUSH2 0x1A70 JUMPI DUP5 DUP10 ADD MLOAD PUSH2 0x1A6C PUSH1 0x1F DUP10 AND DUP3 PUSH2 0x1979 JUMP JUMPDEST DUP4 SSTORE POP JUMPDEST PUSH1 0x1 PUSH1 0x2 DUP9 MUL ADD DUP9 SSTORE POP POP POP JUMPDEST POP POP POP POP POP POP JUMP JUMPDEST PUSH32 0x4249525448000000000000000000000000000000000000000000000000000000 PUSH1 0x0 DUP3 ADD MSTORE POP JUMP JUMPDEST PUSH1 0x0 PUSH2 0x1ABB PUSH1 0x5 DUP4 PUSH2 0x153D JUMP JUMPDEST SWAP2 POP PUSH2 0x1AC6 DUP3 PUSH2 0x1A85 JUMP JUMPDEST PUSH1 0x20 DUP3 ADD SWAP1 POP SWAP2 SWAP1 POP JUMP JUMPDEST PUSH1 0x0 PUSH1 0x80 DUP3 ADD SWAP1 POP DUP2 DUP2 SUB PUSH1 0x0 DUP4 ADD MSTORE PUSH2 0x1AEB DUP2 DUP7 PUSH2 0x1578 JUMP JUMPDEST SWAP1 POP DUP2 DUP2 SUB PUSH1 0x20 DUP4 ADD MSTORE PUSH2 0x1AFE DUP2 PUSH2 0x1AAE JUMP JUMPDEST SWAP1 POP PUSH2 0x1B0D PUSH1 0x40 DUP4 ADD DUP6 PUSH2 0x1256 JUMP JUMPDEST PUSH2 0x1B1A PUSH1 0x60 DUP4 ADD DUP5 PUSH2 0x15B1 JUMP JUMPDEST SWAP5 SWAP4 POP POP POP POP JUMP JUMPDEST PUSH32 0x4F6E6C7920726573656172636865722063616E2061646A75737420666F722061 PUSH1 0x0 DUP3 ADD MSTORE PUSH32 0x63636964656E7473000000000000000000000000000000000000000000000000 PUSH1 0x20 DUP3 ADD MSTORE POP JUMP JUMPDEST PUSH1 0x0 PUSH2 0x1B7E PUSH1 0x28 DUP4 PUSH2 0x153D JUMP JUMPDEST SWAP2 POP PUSH2 0x1B89 DUP3 PUSH2 0x1B22 JUMP JUMPDEST PUSH1 0x40 DUP3 ADD SWAP1 POP SWAP2 SWAP1 POP JUMP JUMPDEST PUSH1 0x0 PUSH1 0x20 DUP3 ADD SWAP1 POP DUP2 DUP2 SUB PUSH1 0x0 DUP4 ADD MSTORE PUSH2 0x1BAD DUP2 PUSH2 0x1B71 JUMP JUMPDEST SWAP1 POP SWAP2 SWAP1 POP JUMP JUMPDEST PUSH32 0x43616E6E6F742061646A75737420612072657469726564206372656469740000 PUSH1 0x0 DUP3 ADD MSTORE POP JUMP JUMPDEST PUSH1 0x0 PUSH2 0x1BEA PUSH1 0x1E DUP4 PUSH2 0x153D JUMP JUMPDEST SWAP2 POP PUSH2 0x1BF5 DUP3 PUSH2 0x1BB4 JUMP JUMPDEST PUSH1 0x20 DUP3 ADD SWAP1 POP SWAP2 SWAP1 POP JUMP JUMPDEST PUSH1 0x0 PUSH1 0x20 DUP3 ADD SWAP1 POP DUP2 DUP2 SUB PUSH1 0x0 DUP4 ADD MSTORE PUSH2 0x1C19 DUP2 PUSH2 0x1BDD JUMP JUMPDEST SWAP1 POP SWAP2 SWAP1 POP JUMP JUMPDEST PUSH32 0x43616E206F6E6C7920646F776E7363616C6520666F7220686F6E657374206C6F PUSH1 0x0 DUP3 ADD MSTORE PUSH32 0x7373000000000000000000000000000000000000000000000000000000000000 PUSH1 0x20 DUP3 ADD MSTORE POP JUMP JUMPDEST PUSH1 0x0 PUSH2 0x1C7C PUSH1 0x22 DUP4 PUSH2 0x153D JUMP JUMPDEST SWAP2 POP PUSH2 0x1C87 DUP3 PUSH2 0x1C20 JUMP JUMPDEST PUSH1 0x40 DUP3 ADD SWAP1 POP SWAP2 SWAP1 POP JUMP JUMPDEST PUSH1 0x0 PUSH1 0x20 DUP3 ADD SWAP1 POP DUP2 DUP2 SUB PUSH1 0x0 DUP4 ADD MSTORE PUSH2 0x1CAB DUP2 PUSH2 0x1C6F JUMP JUMPDEST SWAP1 POP SWAP2 SWAP1 POP JUMP JUMPDEST PUSH32 0x4143434944454E545F41444A5553544D454E5400000000000000000000000000 PUSH1 0x0 DUP3 ADD MSTORE POP JUMP JUMPDEST PUSH1 0x0 PUSH2 0x1CE8 PUSH1 0x13 DUP4 PUSH2 0x153D JUMP JUMPDEST SWAP2 POP PUSH2 0x1CF3 DUP3 PUSH2 0x1CB2 JUMP JUMPDEST PUSH1 0x20 DUP3 ADD SWAP1 POP SWAP2 SWAP1 POP JUMP JUMPDEST PUSH1 0x0 PUSH1 0x80 DUP3 ADD SWAP1 POP DUP2 DUP2 SUB PUSH1 0x0 DUP4 ADD MSTORE PUSH2 0x1D18 DUP2 DUP7 PUSH2 0x1578 JUMP JUMPDEST SWAP1 POP DUP2 DUP2 SUB PUSH1 0x20 DUP4 ADD MSTORE PUSH2 0x1D2B DUP2 PUSH2 0x1CDB JUMP JUMPDEST SWAP1 POP PUSH2 0x1D3A PUSH1 0x40 DUP4 ADD DUP6 PUSH2 0x1256 JUMP JUMPDEST PUSH2 0x1D47 PUSH1 0x60 DUP4 ADD DUP5 PUSH2 0x15B1 JUMP JUMPDEST SWAP5 SWAP4 POP POP POP POP JUMP JUMPDEST PUSH32 0x4572726F723A20596F7520646F206E6F74206F776E2074686973000000000000 PUSH1 0x0 DUP3 ADD MSTORE POP JUMP JUMPDEST PUSH1 0x0 PUSH2 0x1D85 PUSH1 0x1A DUP4 PUSH2 0x153D JUMP JUMPDEST SWAP2 POP PUSH2 0x1D90 DUP3 PUSH2 0x1D4F JUMP JUMPDEST PUSH1 0x20 DUP3 ADD SWAP1 POP SWAP2 SWAP1 POP JUMP JUMPDEST PUSH1 0x0 PUSH1 0x20 DUP3 ADD SWAP1 POP DUP2 DUP2 SUB PUSH1 0x0 DUP4 ADD MSTORE PUSH2 0x1DB4 DUP2 PUSH2 0x1D78 JUMP JUMPDEST SWAP1 POP SWAP2 SWAP1 POP JUMP JUMPDEST PUSH32 0x4572726F723A20437265646974206973207265746972656420616E64206C6F63 PUSH1 0x0 DUP3 ADD MSTORE PUSH32 0x6B65640000000000000000000000000000000000000000000000000000000000 PUSH1 0x20 DUP3 ADD MSTORE POP JUMP JUMPDEST PUSH1 0x0 PUSH2 0x1E17 PUSH1 0x23 DUP4 PUSH2 0x153D JUMP JUMPDEST SWAP2 POP PUSH2 0x1E22 DUP3 PUSH2 0x1DBB JUMP JUMPDEST PUSH1 0x40 DUP3 ADD SWAP1 POP SWAP2 SWAP1 POP JUMP JUMPDEST PUSH1 0x0 PUSH1 0x20 DUP3 ADD SWAP1 POP DUP2 DUP2 SUB PUSH1 0x0 DUP4 ADD MSTORE PUSH2 0x1E46 DUP2 PUSH2 0x1E0A JUMP JUMPDEST SWAP1 POP SWAP2 SWAP1 POP JUMP JUMPDEST PUSH32 0x5452414E53464552000000000000000000000000000000000000000000000000 PUSH1 0x0 DUP3 ADD MSTORE POP JUMP JUMPDEST PUSH1 0x0 PUSH2 0x1E83 PUSH1 0x8 DUP4 PUSH2 0x153D JUMP JUMPDEST SWAP2 POP PUSH2 0x1E8E DUP3 PUSH2 0x1E4D JUMP JUMPDEST PUSH1 0x20 DUP3 ADD SWAP1 POP SWAP2 SWAP1 POP JUMP JUMPDEST PUSH1 0x0 PUSH1 0x80 DUP3 ADD SWAP1 POP DUP2 DUP2 SUB PUSH1 0x0 DUP4 ADD MSTORE PUSH2 0x1EB3 DUP2 DUP7 PUSH2 0x1578 JUMP JUMPDEST SWAP1 POP DUP2 DUP2 SUB PUSH1 0x20 DUP4 ADD MSTORE PUSH2 0x1EC6 DUP2 PUSH2 0x1E76 JUMP JUMPDEST SWAP1 POP PUSH2 0x1ED5 PUSH1 0x40 DUP4 ADD DUP6 PUSH2 0x1256 JUMP JUMPDEST PUSH2 0x1EE2 PUSH1 0x60 DUP4 ADD DUP5 PUSH2 0x15B1 JUMP JUMPDEST SWAP5 SWAP4 POP POP POP POP JUMP JUMPDEST PUSH32 0x4572726F723A204E6F7420746865206F776E6572000000000000000000000000 PUSH1 0x0 DUP3 ADD MSTORE POP JUMP JUMPDEST PUSH1 0x0 PUSH2 0x1F20 PUSH1 0x14 DUP4 PUSH2 0x153D JUMP JUMPDEST SWAP2 POP PUSH2 0x1F2B DUP3 PUSH2 0x1EEA JUMP JUMPDEST PUSH1 0x20 DUP3 ADD SWAP1 POP SWAP2 SWAP1 POP JUMP JUMPDEST PUSH1 0x0 PUSH1 0x20 DUP3 ADD SWAP1 POP DUP2 DUP2 SUB PUSH1 0x0 DUP4 ADD MSTORE PUSH2 0x1F4F DUP2 PUSH2 0x1F13 JUMP JUMPDEST SWAP1 POP SWAP2 SWAP1 POP JUMP JUMPDEST PUSH32 0x4572726F723A20416C7265616479207265746972656400000000000000000000 PUSH1 0x0 DUP3 ADD MSTORE POP JUMP JUMPDEST PUSH1 0x0 PUSH2 0x1F8C PUSH1 0x16 DUP4 PUSH2 0x153D JUMP JUMPDEST SWAP2 POP PUSH2 0x1F97 DUP3 PUSH2 0x1F56 JUMP JUMPDEST PUSH1 0x20 DUP3 ADD SWAP1 POP SWAP2 SWAP1 POP JUMP JUMPDEST PUSH1 0x0 PUSH1 0x20 DUP3 ADD SWAP1 POP DUP2 DUP2 SUB PUSH1 0x0 DUP4 ADD MSTORE PUSH2 0x1FBB DUP2 PUSH2 0x1F7F JUMP JUMPDEST SWAP1 POP SWAP2 SWAP1 POP JUMP JUMPDEST PUSH32 0x5245544952454400000000000000000000000000000000000000000000000000 PUSH1 0x0 DUP3 ADD MSTORE POP JUMP JUMPDEST PUSH1 0x0 PUSH2 0x1FF8 PUSH1 0x7 DUP4 PUSH2 0x153D JUMP JUMPDEST SWAP2 POP PUSH2 0x2003 DUP3 PUSH2 0x1FC2 JUMP JUMPDEST PUSH1 0x20 DUP3 ADD SWAP1 POP SWAP2 SWAP1 POP JUMP JUMPDEST PUSH1 0x0 PUSH1 0x80 DUP3 ADD SWAP1 POP DUP2 DUP2 SUB PUSH1 0x0 DUP4 ADD MSTORE PUSH2 0x2028 DUP2 DUP7 PUSH2 0x1578 JUMP JUMPDEST SWAP1 POP DUP2 DUP2 SUB PUSH1 0x20 DUP4 ADD MSTORE PUSH2 0x203B DUP2 PUSH2 0x1FEB JUMP JUMPDEST SWAP1 POP PUSH2 0x204A PUSH1 0x40 DUP4 ADD DUP6 PUSH2 0x1256 JUMP JUMPDEST PUSH2 0x2057 PUSH1 0x60 DUP4 ADD DUP5 PUSH2 0x15B1 JUMP JUMPDEST SWAP5 SWAP4 POP POP POP POP JUMP JUMPDEST PUSH32 0x5365637572697479204C6F636B00000000000000000000000000000000000000 PUSH1 0x0 DUP3 ADD MSTORE POP JUMP JUMPDEST PUSH1 0x0 PUSH2 0x2095 PUSH1 0xD DUP4 PUSH2 0x153D JUMP JUMPDEST SWAP2 POP PUSH2 0x20A0 DUP3 PUSH2 0x205F JUMP JUMPDEST PUSH1 0x20 DUP3 ADD SWAP1 POP SWAP2 SWAP1 POP JUMP JUMPDEST PUSH1 0x0 PUSH1 0x20 DUP3 ADD SWAP1 POP DUP2 DUP2 SUB PUSH1 0x0 DUP4 ADD MSTORE PUSH2 0x20C4 DUP2 PUSH2 0x2088 JUMP JUMPDEST SWAP1 POP SWAP2 SWAP1 POP JUMP INVALID SSTORE PUSH21 0x696C6974792061646A75737465642064756520746F KECCAK256 PUSH17 0x6879736963616C206C6F7373A264697066 PUSH20 0x58221220C9CC7C58BA7C772E5EA2FCD31BF36C10 PUSH10 0x9BC9D655B448FDA2849D PUSH15 0xFB2CA6ED64736F6C634300081F0033 "
				},
				"gasEstimates": {
					"creation": {
						"codeDepositCost": "1697200",
						"executionCost": "26051",
						"totalCost": "1723251"
					},
					"external": {
						"createCredit(string,string,string,string,uint256)": "infinite",
						"getHistory(string)": "infinite",
						"linkToQIEDEX(address)": "26933",
						"qieDexTokenAddress()": "2602",
						"researcher()": "2534",
						"retireCredit(string,string)": "infinite",
						"transferCredit(string,address)": "infinite",
						"updateUtility(string,uint256)": "infinite",
						"viewFullDetails(string)": "infinite"
					}
				},
				"methodIdentifiers": {
					"createCredit(string,string,string,string,uint256)": "05c107c8",
					"getHistory(string)": "e360736e",
					"linkToQIEDEX(address)": "e9506696",
					"qieDexTokenAddress()": "f1a7c8da",
					"researcher()": "1dc0a6a5",
					"retireCredit(string,string)": "947788bc",
					"transferCredit(string,address)": "43f179c0",
					"updateUtility(string,uint256)": "30955b87",
					"viewFullDetails(string)": "f16d831c"
				}
			},
			"storageLayout": {
				"storage": [
					{
						"astId": 11,
						"contract": "CarbonIntegrity.sol:CarbonProvenance_Final_PH2",
						"label": "researcher",
						"offset": 0,
						"slot": "0",
						"type": "t_address"
					},
					{
						"astId": 13,
						"contract": "CarbonIntegrity.sol:CarbonProvenance_Final_PH2",
						"label": "qieDexTokenAddress",
						"offset": 0,
						"slot": "1",
						"type": "t_address"
					},
					{
						"astId": 38,
						"contract": "CarbonIntegrity.sol:CarbonProvenance_Final_PH2",
						"label": "ledger",
						"offset": 0,
						"slot": "2",
						"type": "t_mapping(t_string_memory_ptr,t_struct(Credit)33_storage)"
					}
				],
				"types": {
					"t_address": {
						"encoding": "inplace",
						"label": "address",
						"numberOfBytes": "20"
					},
					"t_array(t_address)dyn_storage": {
						"base": "t_address",
						"encoding": "dynamic_array",
						"label": "address[]",
						"numberOfBytes": "32"
					},
					"t_bool": {
						"encoding": "inplace",
						"label": "bool",
						"numberOfBytes": "1"
					},
					"t_mapping(t_string_memory_ptr,t_struct(Credit)33_storage)": {
						"encoding": "mapping",
						"key": "t_string_memory_ptr",
						"label": "mapping(string => struct CarbonProvenance_Final_PH2.Credit)",
						"numberOfBytes": "32",
						"value": "t_struct(Credit)33_storage"
					},
					"t_string_memory_ptr": {
						"encoding": "bytes",
						"label": "string",
						"numberOfBytes": "32"
					},
					"t_string_storage": {
						"encoding": "bytes",
						"label": "string",
						"numberOfBytes": "32"
					},
					"t_struct(Credit)33_storage": {
						"encoding": "inplace",
						"label": "struct CarbonProvenance_Final_PH2.Credit",
						"members": [
							{
								"astId": 15,
								"contract": "CarbonIntegrity.sol:CarbonProvenance_Final_PH2",
								"label": "creditId",
								"offset": 0,
								"slot": "0",
								"type": "t_string_storage"
							},
							{
								"astId": 17,
								"contract": "CarbonIntegrity.sol:CarbonProvenance_Final_PH2",
								"label": "landId",
								"offset": 0,
								"slot": "1",
								"type": "t_string_storage"
							},
							{
								"astId": 19,
								"contract": "CarbonIntegrity.sol:CarbonProvenance_Final_PH2",
								"label": "vintage",
								"offset": 0,
								"slot": "2",
								"type": "t_string_storage"
							},
							{
								"astId": 21,
								"contract": "CarbonIntegrity.sol:CarbonProvenance_Final_PH2",
								"label": "dataLink",
								"offset": 0,
								"slot": "3",
								"type": "t_string_storage"
							},
							{
								"astId": 23,
								"contract": "CarbonIntegrity.sol:CarbonProvenance_Final_PH2",
								"label": "tons",
								"offset": 0,
								"slot": "4",
								"type": "t_uint256"
							},
							{
								"astId": 25,
								"contract": "CarbonIntegrity.sol:CarbonProvenance_Final_PH2",
								"label": "currentOwner",
								"offset": 0,
								"slot": "5",
								"type": "t_address"
							},
							{
								"astId": 28,
								"contract": "CarbonIntegrity.sol:CarbonProvenance_Final_PH2",
								"label": "ownerHistory",
								"offset": 0,
								"slot": "6",
								"type": "t_array(t_address)dyn_storage"
							},
							{
								"astId": 30,
								"contract": "CarbonIntegrity.sol:CarbonProvenance_Final_PH2",
								"label": "isRetired",
								"offset": 0,
								"slot": "7",
								"type": "t_bool"
							},
							{
								"astId": 32,
								"contract": "CarbonIntegrity.sol:CarbonProvenance_Final_PH2",
								"label": "statusNote",
								"offset": 0,
								"slot": "8",
								"type": "t_string_storage"
							}
						],
						"numberOfBytes": "288"
					},
					"t_uint256": {
						"encoding": "inplace",
						"label": "uint256",
						"numberOfBytes": "32"
					}
				}
			},
			"userdoc": {
				"kind": "user",
				"methods": {},
				"version": 1
			}
		}
	}
}