{
	"data": {
		"bytecode": {
			"linkReferences": {},
			"object": "6080604052348015600f57600080fd5b50336000806101000a81548173ffffffffffffffffffffffffffffffffffffffff021916908373ffffffffffffffffffffffffffffffffffffffff1602179055506119828061005f6000396000f3fe608060405234801561001057600080fd5b506004361061007d5760003560e01c806343f179c01161005b57806343f179c0146100d8578063535d9b42146100f4578063947788bc1461012b578063e360736e146101475761007d565b806305c107c8146100825780631dc0a6a51461009e57806330955b87146100bc575b600080fd5b61009c60048036038101906100979190610dc0565b610177565b005b6100a66103a9565b6040516100b39190610eec565b60405180910390f35b6100d660048036038101906100d19190610f07565b6103cd565b005b6100f260048036038101906100ed9190610f8f565b61052f565b005b61010e60048036038101906101099190610feb565b610733565b6040516101229897969594939291906110dd565b60405180910390f35b6101456004803603810190610140919061117e565b610a66565b005b610161600480360381019061015c9190610feb565b610b81565b60405161016e91906112b4565b60405180910390f35b60008054906101000a900473ffffffffffffffffffffffffffffffffffffffff1673ffffffffffffffffffffffffffffffffffffffff163373ffffffffffffffffffffffffffffffffffffffff1614610205576040517f08c379a00000000000000000000000000000000000000000000000000000000081526004016101fc90611348565b60405180910390fd5b600060018660405161021791906113a4565b90815260200160405180910390206004015414610269576040517f08c379a000000000000000000000000000000000000000000000000000000000815260040161026090611407565b60405180910390fd5b600060018660405161027b91906113a4565b908152602001604051809103902090508581600001908161029c9190611633565b50848160010190816102ae9190611633565b50838160020190816102c09190611633565b50828160030190816102d29190611633565b50818160040181905550338160050160006101000a81548173ffffffffffffffffffffffffffffffffffffffff021916908373ffffffffffffffffffffffffffffffffffffffff16021790555080600601339080600181540180825580915050600190039060005260206000200160009091909190916101000a81548173ffffffffffffffffffffffffffffffffffffffff021916908373ffffffffffffffffffffffffffffffffffffffff16021790555060008160070160006101000a81548160ff021916908315150217905550505050505050565b60008054906101000a900473ffffffffffffffffffffffffffffffffffffffff1681565b60008054906101000a900473ffffffffffffffffffffffffffffffffffffffff1673ffffffffffffffffffffffffffffffffffffffff163373ffffffffffffffffffffffffffffffffffffffff161461045b576040517f08c379a000000000000000000000000000000000000000000000000000000000815260040161045290611777565b60405180910390fd5b60018260405161046b91906113a4565b90815260200160405180910390206004015481106104be576040517f08c379a00000000000000000000000000000000000000000000000000000000081526004016104b590611809565b60405180910390fd5b806001836040516104cf91906113a4565b9081526020016040518091039020600401819055506040518060600160405280602581526020016119286025913960018360405161050d91906113a4565b9081526020016040518091039020600801908161052a9190611633565b505050565b3373ffffffffffffffffffffffffffffffffffffffff1660018360405161055691906113a4565b908152602001604051809103902060050160009054906101000a900473ffffffffffffffffffffffffffffffffffffffff1673ffffffffffffffffffffffffffffffffffffffff16146105de576040517f08c379a00000000000000000000000000000000000000000000000000000000081526004016105d590611875565b60405180910390fd5b6001826040516105ee91906113a4565b908152602001604051809103902060070160009054906101000a900460ff161561064d576040517f08c379a000000000000000000000000000000000000000000000000000000000815260040161064490611907565b60405180910390fd5b8060018360405161065e91906113a4565b908152602001604051809103902060050160006101000a81548173ffffffffffffffffffffffffffffffffffffffff021916908373ffffffffffffffffffffffffffffffffffffffff1602179055506001826040516106bd91906113a4565b9081526020016040518091039020600601819080600181540180825580915050600190039060005260206000200160009091909190916101000a81548173ffffffffffffffffffffffffffffffffffffffff021916908373ffffffffffffffffffffffffffffffffffffffff1602179055505050565b60018180516020810182018051848252602083016020850120818352809550505050505060009150905080600001805461076c90611456565b80601f016020809104026020016040519081016040528092919081815260200182805461079890611456565b80156107e55780601f106107ba576101008083540402835291602001916107e5565b820191906000526020600020905b8154815290600101906020018083116107c857829003601f168201915b5050505050908060010180546107fa90611456565b80601f016020809104026020016040519081016040528092919081815260200182805461082690611456565b80156108735780601f1061084857610100808354040283529160200191610873565b820191906000526020600020905b81548152906001019060200180831161085657829003601f168201915b50505050509080600201805461088890611456565b80601f01602080910402602001604051908101604052809291908181526020018280546108b490611456565b80156109015780601f106108d657610100808354040283529160200191610901565b820191906000526020600020905b8154815290600101906020018083116108e457829003601f168201915b50505050509080600301805461091690611456565b80601f016020809104026020016040519081016040528092919081815260200182805461094290611456565b801561098f5780601f106109645761010080835404028352916020019161098f565b820191906000526020600020905b81548152906001019060200180831161097257829003601f168201915b5050505050908060040154908060050160009054906101000a900473ffffffffffffffffffffffffffffffffffffffff16908060070160009054906101000a900460ff16908060080180546109e390611456565b80601f0160208091040260200160405190810160405280929190818152602001828054610a0f90611456565b8015610a5c5780601f10610a3157610100808354040283529160200191610a5c565b820191906000526020600020905b815481529060010190602001808311610a3f57829003601f168201915b5050505050905088565b3373ffffffffffffffffffffffffffffffffffffffff16600183604051610a8d91906113a4565b908152602001604051809103902060050160009054906101000a900473ffffffffffffffffffffffffffffffffffffffff1673ffffffffffffffffffffffffffffffffffffffff1614610b15576040517f08c379a0000000000000000000000000000000000000000000000000000000008152600401610b0c90611875565b60405180910390fd5b60018083604051610b2691906113a4565b908152602001604051809103902060070160006101000a81548160ff02191690831515021790555080600183604051610b5f91906113a4565b90815260200160405180910390206008019081610b7c9190611633565b505050565b6060600182604051610b9391906113a4565b9081526020016040518091039020600601805480602002602001604051908101604052809291908181526020018280548015610c2457602002820191906000526020600020905b8160009054906101000a900473ffffffffffffffffffffffffffffffffffffffff1673ffffffffffffffffffffffffffffffffffffffff1681526020019060010190808311610bda575b50505050509050919050565b6000604051905090565b600080fd5b600080fd5b600080fd5b600080fd5b6000601f19601f8301169050919050565b7f4e487b7100000000000000000000000000000000000000000000000000000000600052604160045260246000fd5b610c9782610c4e565b810181811067ffffffffffffffff82111715610cb657610cb5610c5f565b5b80604052505050565b6000610cc9610c30565b9050610cd58282610c8e565b919050565b600067ffffffffffffffff821115610cf557610cf4610c5f565b5b610cfe82610c4e565b9050602081019050919050565b82818337600083830152505050565b6000610d2d610d2884610cda565b610cbf565b905082815260208101848484011115610d4957610d48610c49565b5b610d54848285610d0b565b509392505050565b600082601f830112610d7157610d70610c44565b5b8135610d81848260208601610d1a565b91505092915050565b6000819050919050565b610d9d81610d8a565b8114610da857600080fd5b50565b600081359050610dba81610d94565b92915050565b600080600080600060a08688031215610ddc57610ddb610c3a565b5b600086013567ffffffffffffffff811115610dfa57610df9610c3f565b5b610e0688828901610d5c565b955050602086013567ffffffffffffffff811115610e2757610e26610c3f565b5b610e3388828901610d5c565b945050604086013567ffffffffffffffff811115610e5457610e53610c3f565b5b610e6088828901610d5c565b935050606086013567ffffffffffffffff811115610e8157610e80610c3f565b5b610e8d88828901610d5c565b9250506080610e9e88828901610dab565b9150509295509295909350565b600073ffffffffffffffffffffffffffffffffffffffff82169050919050565b6000610ed682610eab565b9050919050565b610ee681610ecb565b82525050565b6000602082019050610f016000830184610edd565b92915050565b60008060408385031215610f1e57610f1d610c3a565b5b600083013567ffffffffffffffff811115610f3c57610f3b610c3f565b5b610f4885828601610d5c565b9250506020610f5985828601610dab565b9150509250929050565b610f6c81610ecb565b8114610f7757600080fd5b50565b600081359050610f8981610f63565b92915050565b60008060408385031215610fa657610fa5610c3a565b5b600083013567ffffffffffffffff811115610fc457610fc3610c3f565b5b610fd085828601610d5c565b9250506020610fe185828601610f7a565b9150509250929050565b60006020828403121561100157611000610c3a565b5b600082013567ffffffffffffffff81111561101f5761101e610c3f565b5b61102b84828501610d5c565b91505092915050565b600081519050919050565b600082825260208201905092915050565b60005b8381101561106e578082015181840152602081019050611053565b60008484015250505050565b600061108582611034565b61108f818561103f565b935061109f818560208601611050565b6110a881610c4e565b840191505092915050565b6110bc81610d8a565b82525050565b60008115159050919050565b6110d7816110c2565b82525050565b60006101008201905081810360008301526110f8818b61107a565b9050818103602083015261110c818a61107a565b90508181036040830152611120818961107a565b90508181036060830152611134818861107a565b905061114360808301876110b3565b61115060a0830186610edd565b61115d60c08301856110ce565b81810360e083015261116f818461107a565b90509998505050505050505050565b6000806040838503121561119557611194610c3a565b5b600083013567ffffffffffffffff8111156111b3576111b2610c3f565b5b6111bf85828601610d5c565b925050602083013567ffffffffffffffff8111156111e0576111df610c3f565b5b6111ec85828601610d5c565b9150509250929050565b600081519050919050565b600082825260208201905092915050565b6000819050602082019050919050565b61122b81610ecb565b82525050565b600061123d8383611222565b60208301905092915050565b6000602082019050919050565b6000611261826111f6565b61126b8185611201565b935061127683611212565b8060005b838110156112a757815161128e8882611231565b975061129983611249565b92505060018101905061127a565b5085935050505092915050565b600060208201905081810360008301526112ce8184611256565b905092915050565b7f4f6e6c7920766572696669656420726573656172636865722063616e2069737360008201527f7565000000000000000000000000000000000000000000000000000000000000602082015250565b600061133260228361103f565b915061133d826112d6565b604082019050919050565b6000602082019050818103600083015261136181611325565b9050919050565b600081905092915050565b600061137e82611034565b6113888185611368565b9350611398818560208601611050565b80840191505092915050565b60006113b08284611373565b915081905092915050565b7f494420616c726561647920657869737473000000000000000000000000000000600082015250565b60006113f160118361103f565b91506113fc826113bb565b602082019050919050565b60006020820190508181036000830152611420816113e4565b9050919050565b7f4e487b7100000000000000000000000000000000000000000000000000000000600052602260045260246000fd5b6000600282049050600182168061146e57607f821691505b60208210810361148157611480611427565b5b50919050565b60008190508160005260206000209050919050565b60006020601f8301049050919050565b600082821b905092915050565b6000600883026114e97fffffffffffffffffffffffffffffffffffffffffffffffffffffffffffffffff826114ac565b6114f386836114ac565b95508019841693508086168417925050509392505050565b6000819050919050565b600061153061152b61152684610d8a565b61150b565b610d8a565b9050919050565b6000819050919050565b61154a83611515565b61155e61155682611537565b8484546114b9565b825550505050565b600090565b611573611566565b61157e818484611541565b505050565b5b818110156115a25761159760008261156b565b600181019050611584565b5050565b601f8211156115e7576115b881611487565b6115c18461149c565b810160208510156115d0578190505b6115e46115dc8561149c565b830182611583565b50505b505050565b600082821c905092915050565b600061160a600019846008026115ec565b1980831691505092915050565b600061162383836115f9565b9150826002028217905092915050565b61163c82611034565b67ffffffffffffffff81111561165557611654610c5f565b5b61165f8254611456565b61166a8282856115a6565b600060209050601f83116001811461169d576000841561168b578287015190505b6116958582611617565b8655506116fd565b601f1984166116ab86611487565b60005b828110156116d3578489015182556001820191506020850194506020810190506116ae565b868310156116f057848901516116ec601f8916826115f9565b8355505b6001600288020188555050505b505050505050565b7f4f6e6c7920726573656172636865722063616e2061646a75737420666f72206160008201527f63636964656e7473000000000000000000000000000000000000000000000000602082015250565b600061176160288361103f565b915061176c82611705565b604082019050919050565b6000602082019050818103600083015261179081611754565b9050919050565b7f43616e206f6e6c7920646f776e7363616c6520666f7220686f6e657374206c6f60008201527f7373000000000000000000000000000000000000000000000000000000000000602082015250565b60006117f360228361103f565b91506117fe82611797565b604082019050919050565b60006020820190508181036000830152611822816117e6565b9050919050565b7f4e6f7420746865206f776e657200000000000000000000000000000000000000600082015250565b600061185f600d8361103f565b915061186a82611829565b602082019050919050565b6000602082019050818103600083015261188e81611852565b9050919050565b7f4c4f434b45443a20416c72656164792072657469726564206f72207265766f6b60008201527f6564000000000000000000000000000000000000000000000000000000000000602082015250565b60006118f160228361103f565b91506118fc82611895565b604082019050919050565b60006020820190508181036000830152611920816118e4565b905091905056fe5574696c6974792061646a75737465642064756520746f20706879736963616c206c6f7373a2646970667358221220c4cbefe1d6a8ef84fb217ac2f405974a8b2f118661d2fcf0d84acd309b6a783064736f6c634300081f0033",
			"opcodes": "PUSH1 0x80 PUSH1 0x40 MSTORE CALLVALUE DUP1 ISZERO PUSH1 0xF JUMPI PUSH1 0x0 DUP1 REVERT JUMPDEST POP CALLER PUSH1 0x0 DUP1 PUSH2 0x100 EXP DUP2 SLOAD DUP2 PUSH20 0xFFFFFFFFFFFFFFFFFFFFFFFFFFFFFFFFFFFFFFFF MUL NOT AND SWAP1 DUP4 PUSH20 0xFFFFFFFFFFFFFFFFFFFFFFFFFFFFFFFFFFFFFFFF AND MUL OR SWAP1 SSTORE POP PUSH2 0x1982 DUP1 PUSH2 0x5F PUSH1 0x0 CODECOPY PUSH1 0x0 RETURN INVALID PUSH1 0x80 PUSH1 0x40 MSTORE CALLVALUE DUP1 ISZERO PUSH2 0x10 JUMPI PUSH1 0x0 DUP1 REVERT JUMPDEST POP PUSH1 0x4 CALLDATASIZE LT PUSH2 0x7D JUMPI PUSH1 0x0 CALLDATALOAD PUSH1 0xE0 SHR DUP1 PUSH4 0x43F179C0 GT PUSH2 0x5B JUMPI DUP1 PUSH4 0x43F179C0 EQ PUSH2 0xD8 JUMPI DUP1 PUSH4 0x535D9B42 EQ PUSH2 0xF4 JUMPI DUP1 PUSH4 0x947788BC EQ PUSH2 0x12B JUMPI DUP1 PUSH4 0xE360736E EQ PUSH2 0x147 JUMPI PUSH2 0x7D JUMP JUMPDEST DUP1 PUSH4 0x5C107C8 EQ PUSH2 0x82 JUMPI DUP1 PUSH4 0x1DC0A6A5 EQ PUSH2 0x9E JUMPI DUP1 PUSH4 0x30955B87 EQ PUSH2 0xBC JUMPI JUMPDEST PUSH1 0x0 DUP1 REVERT JUMPDEST PUSH2 0x9C PUSH1 0x4 DUP1 CALLDATASIZE SUB DUP2 ADD SWAP1 PUSH2 0x97 SWAP2 SWAP1 PUSH2 0xDC0 JUMP JUMPDEST PUSH2 0x177 JUMP JUMPDEST STOP JUMPDEST PUSH2 0xA6 PUSH2 0x3A9 JUMP JUMPDEST PUSH1 0x40 MLOAD PUSH2 0xB3 SWAP2 SWAP1 PUSH2 0xEEC JUMP JUMPDEST PUSH1 0x40 MLOAD DUP1 SWAP2 SUB SWAP1 RETURN JUMPDEST PUSH2 0xD6 PUSH1 0x4 DUP1 CALLDATASIZE SUB DUP2 ADD SWAP1 PUSH2 0xD1 SWAP2 SWAP1 PUSH2 0xF07 JUMP JUMPDEST PUSH2 0x3CD JUMP JUMPDEST STOP JUMPDEST PUSH2 0xF2 PUSH1 0x4 DUP1 CALLDATASIZE SUB DUP2 ADD SWAP1 PUSH2 0xED SWAP2 SWAP1 PUSH2 0xF8F JUMP JUMPDEST PUSH2 0x52F JUMP JUMPDEST STOP JUMPDEST PUSH2 0x10E PUSH1 0x4 DUP1 CALLDATASIZE SUB DUP2 ADD SWAP1 PUSH2 0x109 SWAP2 SWAP1 PUSH2 0xFEB JUMP JUMPDEST PUSH2 0x733 JUMP JUMPDEST PUSH1 0x40 MLOAD PUSH2 0x122 SWAP9 SWAP8 SWAP7 SWAP6 SWAP5 SWAP4 SWAP3 SWAP2 SWAP1 PUSH2 0x10DD JUMP JUMPDEST PUSH1 0x40 MLOAD DUP1 SWAP2 SUB SWAP1 RETURN JUMPDEST PUSH2 0x145 PUSH1 0x4 DUP1 CALLDATASIZE SUB DUP2 ADD SWAP1 PUSH2 0x140 SWAP2 SWAP1 PUSH2 0x117E JUMP JUMPDEST PUSH2 0xA66 JUMP JUMPDEST STOP JUMPDEST PUSH2 0x161 PUSH1 0x4 DUP1 CALLDATASIZE SUB DUP2 ADD SWAP1 PUSH2 0x15C SWAP2 SWAP1 PUSH2 0xFEB JUMP JUMPDEST PUSH2 0xB81 JUMP JUMPDEST PUSH1 0x40 MLOAD PUSH2 0x16E SWAP2 SWAP1 PUSH2 0x12B4 JUMP JUMPDEST PUSH1 0x40 MLOAD DUP1 SWAP2 SUB SWAP1 RETURN JUMPDEST PUSH1 0x0 DUP1 SLOAD SWAP1 PUSH2 0x100 EXP SWAP1 DIV PUSH20 0xFFFFFFFFFFFFFFFFFFFFFFFFFFFFFFFFFFFFFFFF AND PUSH20 0xFFFFFFFFFFFFFFFFFFFFFFFFFFFFFFFFFFFFFFFF AND CALLER PUSH20 0xFFFFFFFFFFFFFFFFFFFFFFFFFFFFFFFFFFFFFFFF AND EQ PUSH2 0x205 JUMPI PUSH1 0x40 MLOAD PUSH32 0x8C379A000000000000000000000000000000000000000000000000000000000 DUP2 MSTORE PUSH1 0x4 ADD PUSH2 0x1FC SWAP1 PUSH2 0x1348 JUMP JUMPDEST PUSH1 0x40 MLOAD DUP1 SWAP2 SUB SWAP1 REVERT JUMPDEST PUSH1 0x0 PUSH1 0x1 DUP7 PUSH1 0x40 MLOAD PUSH2 0x217 SWAP2 SWAP1 PUSH2 0x13A4 JUMP JUMPDEST SWAP1 DUP2 MSTORE PUSH1 0x20 ADD PUSH1 0x40 MLOAD DUP1 SWAP2 SUB SWAP1 KECCAK256 PUSH1 0x4 ADD SLOAD EQ PUSH2 0x269 JUMPI PUSH1 0x40 MLOAD PUSH32 0x8C379A000000000000000000000000000000000000000000000000000000000 DUP2 MSTORE PUSH1 0x4 ADD PUSH2 0x260 SWAP1 PUSH2 0x1407 JUMP JUMPDEST PUSH1 0x40 MLOAD DUP1 SWAP2 SUB SWAP1 REVERT JUMPDEST PUSH1 0x0 PUSH1 0x1 DUP7 PUSH1 0x40 MLOAD PUSH2 0x27B SWAP2 SWAP1 PUSH2 0x13A4 JUMP JUMPDEST SWAP1 DUP2 MSTORE PUSH1 0x20 ADD PUSH1 0x40 MLOAD DUP1 SWAP2 SUB SWAP1 KECCAK256 SWAP1 POP DUP6 DUP2 PUSH1 0x0 ADD SWAP1 DUP2 PUSH2 0x29C SWAP2 SWAP1 PUSH2 0x1633 JUMP JUMPDEST POP DUP5 DUP2 PUSH1 0x1 ADD SWAP1 DUP2 PUSH2 0x2AE SWAP2 SWAP1 PUSH2 0x1633 JUMP JUMPDEST POP DUP4 DUP2 PUSH1 0x2 ADD SWAP1 DUP2 PUSH2 0x2C0 SWAP2 SWAP1 PUSH2 0x1633 JUMP JUMPDEST POP DUP3 DUP2 PUSH1 0x3 ADD SWAP1 DUP2 PUSH2 0x2D2 SWAP2 SWAP1 PUSH2 0x1633 JUMP JUMPDEST POP DUP2 DUP2 PUSH1 0x4 ADD DUP2 SWAP1 SSTORE POP CALLER DUP2 PUSH1 0x5 ADD PUSH1 0x0 PUSH2 0x100 EXP DUP2 SLOAD DUP2 PUSH20 0xFFFFFFFFFFFFFFFFFFFFFFFFFFFFFFFFFFFFFFFF MUL NOT AND SWAP1 DUP4 PUSH20 0xFFFFFFFFFFFFFFFFFFFFFFFFFFFFFFFFFFFFFFFF AND MUL OR SWAP1 SSTORE POP DUP1 PUSH1 0x6 ADD CALLER SWAP1 DUP1 PUSH1 0x1 DUP2 SLOAD ADD DUP1 DUP3 SSTORE DUP1 SWAP2 POP POP PUSH1 0x1 SWAP1 SUB SWAP1 PUSH1 0x0 MSTORE PUSH1 0x20 PUSH1 0x0 KECCAK256 ADD PUSH1 0x0 SWAP1 SWAP2 SWAP1 SWAP2 SWAP1 SWAP2 PUSH2 0x100 EXP DUP2 SLOAD DUP2 PUSH20 0xFFFFFFFFFFFFFFFFFFFFFFFFFFFFFFFFFFFFFFFF MUL NOT AND SWAP1 DUP4 PUSH20 0xFFFFFFFFFFFFFFFFFFFFFFFFFFFFFFFFFFFFFFFF AND MUL OR SWAP1 SSTORE POP PUSH1 0x0 DUP2 PUSH1 0x7 ADD PUSH1 0x0 PUSH2 0x100 EXP DUP2 SLOAD DUP2 PUSH1 0xFF MUL NOT AND SWAP1 DUP4 ISZERO ISZERO MUL OR SWAP1 SSTORE POP POP POP POP POP POP POP JUMP JUMPDEST PUSH1 0x0 DUP1 SLOAD SWAP1 PUSH2 0x100 EXP SWAP1 DIV PUSH20 0xFFFFFFFFFFFFFFFFFFFFFFFFFFFFFFFFFFFFFFFF AND DUP2 JUMP JUMPDEST PUSH1 0x0 DUP1 SLOAD SWAP1 PUSH2 0x100 EXP SWAP1 DIV PUSH20 0xFFFFFFFFFFFFFFFFFFFFFFFFFFFFFFFFFFFFFFFF AND PUSH20 0xFFFFFFFFFFFFFFFFFFFFFFFFFFFFFFFFFFFFFFFF AND CALLER PUSH20 0xFFFFFFFFFFFFFFFFFFFFFFFFFFFFFFFFFFFFFFFF AND EQ PUSH2 0x45B JUMPI PUSH1 0x40 MLOAD PUSH32 0x8C379A000000000000000000000000000000000000000000000000000000000 DUP2 MSTORE PUSH1 0x4 ADD PUSH2 0x452 SWAP1 PUSH2 0x1777 JUMP JUMPDEST PUSH1 0x40 MLOAD DUP1 SWAP2 SUB SWAP1 REVERT JUMPDEST PUSH1 0x1 DUP3 PUSH1 0x40 MLOAD PUSH2 0x46B SWAP2 SWAP1 PUSH2 0x13A4 JUMP JUMPDEST SWAP1 DUP2 MSTORE PUSH1 0x20 ADD PUSH1 0x40 MLOAD DUP1 SWAP2 SUB SWAP1 KECCAK256 PUSH1 0x4 ADD SLOAD DUP2 LT PUSH2 0x4BE JUMPI PUSH1 0x40 MLOAD PUSH32 0x8C379A000000000000000000000000000000000000000000000000000000000 DUP2 MSTORE PUSH1 0x4 ADD PUSH2 0x4B5 SWAP1 PUSH2 0x1809 JUMP JUMPDEST PUSH1 0x40 MLOAD DUP1 SWAP2 SUB SWAP1 REVERT JUMPDEST DUP1 PUSH1 0x1 DUP4 PUSH1 0x40 MLOAD PUSH2 0x4CF SWAP2 SWAP1 PUSH2 0x13A4 JUMP JUMPDEST SWAP1 DUP2 MSTORE PUSH1 0x20 ADD PUSH1 0x40 MLOAD DUP1 SWAP2 SUB SWAP1 KECCAK256 PUSH1 0x4 ADD DUP2 SWAP1 SSTORE POP PUSH1 0x40 MLOAD DUP1 PUSH1 0x60 ADD PUSH1 0x40 MSTORE DUP1 PUSH1 0x25 DUP2 MSTORE PUSH1 0x20 ADD PUSH2 0x1928 PUSH1 0x25 SWAP2 CODECOPY PUSH1 0x1 DUP4 PUSH1 0x40 MLOAD PUSH2 0x50D SWAP2 SWAP1 PUSH2 0x13A4 JUMP JUMPDEST SWAP1 DUP2 MSTORE PUSH1 0x20 ADD PUSH1 0x40 MLOAD DUP1 SWAP2 SUB SWAP1 KECCAK256 PUSH1 0x8 ADD SWAP1 DUP2 PUSH2 0x52A SWAP2 SWAP1 PUSH2 0x1633 JUMP JUMPDEST POP POP POP JUMP JUMPDEST CALLER PUSH20 0xFFFFFFFFFFFFFFFFFFFFFFFFFFFFFFFFFFFFFFFF AND PUSH1 0x1 DUP4 PUSH1 0x40 MLOAD PUSH2 0x556 SWAP2 SWAP1 PUSH2 0x13A4 JUMP JUMPDEST SWAP1 DUP2 MSTORE PUSH1 0x20 ADD PUSH1 0x40 MLOAD DUP1 SWAP2 SUB SWAP1 KECCAK256 PUSH1 0x5 ADD PUSH1 0x0 SWAP1 SLOAD SWAP1 PUSH2 0x100 EXP SWAP1 DIV PUSH20 0xFFFFFFFFFFFFFFFFFFFFFFFFFFFFFFFFFFFFFFFF AND PUSH20 0xFFFFFFFFFFFFFFFFFFFFFFFFFFFFFFFFFFFFFFFF AND EQ PUSH2 0x5DE JUMPI PUSH1 0x40 MLOAD PUSH32 0x8C379A000000000000000000000000000000000000000000000000000000000 DUP2 MSTORE PUSH1 0x4 ADD PUSH2 0x5D5 SWAP1 PUSH2 0x1875 JUMP JUMPDEST PUSH1 0x40 MLOAD DUP1 SWAP2 SUB SWAP1 REVERT JUMPDEST PUSH1 0x1 DUP3 PUSH1 0x40 MLOAD PUSH2 0x5EE SWAP2 SWAP1 PUSH2 0x13A4 JUMP JUMPDEST SWAP1 DUP2 MSTORE PUSH1 0x20 ADD PUSH1 0x40 MLOAD DUP1 SWAP2 SUB SWAP1 KECCAK256 PUSH1 0x7 ADD PUSH1 0x0 SWAP1 SLOAD SWAP1 PUSH2 0x100 EXP SWAP1 DIV PUSH1 0xFF AND ISZERO PUSH2 0x64D JUMPI PUSH1 0x40 MLOAD PUSH32 0x8C379A000000000000000000000000000000000000000000000000000000000 DUP2 MSTORE PUSH1 0x4 ADD PUSH2 0x644 SWAP1 PUSH2 0x1907 JUMP JUMPDEST PUSH1 0x40 MLOAD DUP1 SWAP2 SUB SWAP1 REVERT JUMPDEST DUP1 PUSH1 0x1 DUP4 PUSH1 0x40 MLOAD PUSH2 0x65E SWAP2 SWAP1 PUSH2 0x13A4 JUMP JUMPDEST SWAP1 DUP2 MSTORE PUSH1 0x20 ADD PUSH1 0x40 MLOAD DUP1 SWAP2 SUB SWAP1 KECCAK256 PUSH1 0x5 ADD PUSH1 0x0 PUSH2 0x100 EXP DUP2 SLOAD DUP2 PUSH20 0xFFFFFFFFFFFFFFFFFFFFFFFFFFFFFFFFFFFFFFFF MUL NOT AND SWAP1 DUP4 PUSH20 0xFFFFFFFFFFFFFFFFFFFFFFFFFFFFFFFFFFFFFFFF AND MUL OR SWAP1 SSTORE POP PUSH1 0x1 DUP3 PUSH1 0x40 MLOAD PUSH2 0x6BD SWAP2 SWAP1 PUSH2 0x13A4 JUMP JUMPDEST SWAP1 DUP2 MSTORE PUSH1 0x20 ADD PUSH1 0x40 MLOAD DUP1 SWAP2 SUB SWAP1 KECCAK256 PUSH1 0x6 ADD DUP2 SWAP1 DUP1 PUSH1 0x1 DUP2 SLOAD ADD DUP1 DUP3 SSTORE DUP1 SWAP2 POP POP PUSH1 0x1 SWAP1 SUB SWAP1 PUSH1 0x0 MSTORE PUSH1 0x20 PUSH1 0x0 KECCAK256 ADD PUSH1 0x0 SWAP1 SWAP2 SWAP1 SWAP2 SWAP1 SWAP2 PUSH2 0x100 EXP DUP2 SLOAD DUP2 PUSH20 0xFFFFFFFFFFFFFFFFFFFFFFFFFFFFFFFFFFFFFFFF MUL NOT AND SWAP1 DUP4 PUSH20 0xFFFFFFFFFFFFFFFFFFFFFFFFFFFFFFFFFFFFFFFF AND MUL OR SWAP1 SSTORE POP POP POP JUMP JUMPDEST PUSH1 0x1 DUP2 DUP1 MLOAD PUSH1 0x20 DUP2 ADD DUP3 ADD DUP1 MLOAD DUP5 DUP3 MSTORE PUSH1 0x20 DUP4 ADD PUSH1 0x20 DUP6 ADD KECCAK256 DUP2 DUP4 MSTORE DUP1 SWAP6 POP POP POP POP POP POP PUSH1 0x0 SWAP2 POP SWAP1 POP DUP1 PUSH1 0x0 ADD DUP1 SLOAD PUSH2 0x76C SWAP1 PUSH2 0x1456 JUMP JUMPDEST DUP1 PUSH1 0x1F ADD PUSH1 0x20 DUP1 SWAP2 DIV MUL PUSH1 0x20 ADD PUSH1 0x40 MLOAD SWAP1 DUP2 ADD PUSH1 0x40 MSTORE DUP1 SWAP3 SWAP2 SWAP1 DUP2 DUP2 MSTORE PUSH1 0x20 ADD DUP3 DUP1 SLOAD PUSH2 0x798 SWAP1 PUSH2 0x1456 JUMP JUMPDEST DUP1 ISZERO PUSH2 0x7E5 JUMPI DUP1 PUSH1 0x1F LT PUSH2 0x7BA JUMPI PUSH2 0x100 DUP1 DUP4 SLOAD DIV MUL DUP4 MSTORE SWAP2 PUSH1 0x20 ADD SWAP2 PUSH2 0x7E5 JUMP JUMPDEST DUP3 ADD SWAP2 SWAP1 PUSH1 0x0 MSTORE PUSH1 0x20 PUSH1 0x0 KECCAK256 SWAP1 JUMPDEST DUP2 SLOAD DUP2 MSTORE SWAP1 PUSH1 0x1 ADD SWAP1 PUSH1 0x20 ADD DUP1 DUP4 GT PUSH2 0x7C8 JUMPI DUP3 SWAP1 SUB PUSH1 0x1F AND DUP3 ADD SWAP2 JUMPDEST POP POP POP POP POP SWAP1 DUP1 PUSH1 0x1 ADD DUP1 SLOAD PUSH2 0x7FA SWAP1 PUSH2 0x1456 JUMP JUMPDEST DUP1 PUSH1 0x1F ADD PUSH1 0x20 DUP1 SWAP2 DIV MUL PUSH1 0x20 ADD PUSH1 0x40 MLOAD SWAP1 DUP2 ADD PUSH1 0x40 MSTORE DUP1 SWAP3 SWAP2 SWAP1 DUP2 DUP2 MSTORE PUSH1 0x20 ADD DUP3 DUP1 SLOAD PUSH2 0x826 SWAP1 PUSH2 0x1456 JUMP JUMPDEST DUP1 ISZERO PUSH2 0x873 JUMPI DUP1 PUSH1 0x1F LT PUSH2 0x848 JUMPI PUSH2 0x100 DUP1 DUP4 SLOAD DIV MUL DUP4 MSTORE SWAP2 PUSH1 0x20 ADD SWAP2 PUSH2 0x873 JUMP JUMPDEST DUP3 ADD SWAP2 SWAP1 PUSH1 0x0 MSTORE PUSH1 0x20 PUSH1 0x0 KECCAK256 SWAP1 JUMPDEST DUP2 SLOAD DUP2 MSTORE SWAP1 PUSH1 0x1 ADD SWAP1 PUSH1 0x20 ADD DUP1 DUP4 GT PUSH2 0x856 JUMPI DUP3 SWAP1 SUB PUSH1 0x1F AND DUP3 ADD SWAP2 JUMPDEST POP POP POP POP POP SWAP1 DUP1 PUSH1 0x2 ADD DUP1 SLOAD PUSH2 0x888 SWAP1 PUSH2 0x1456 JUMP JUMPDEST DUP1 PUSH1 0x1F ADD PUSH1 0x20 DUP1 SWAP2 DIV MUL PUSH1 0x20 ADD PUSH1 0x40 MLOAD SWAP1 DUP2 ADD PUSH1 0x40 MSTORE DUP1 SWAP3 SWAP2 SWAP1 DUP2 DUP2 MSTORE PUSH1 0x20 ADD DUP3 DUP1 SLOAD PUSH2 0x8B4 SWAP1 PUSH2 0x1456 JUMP JUMPDEST DUP1 ISZERO PUSH2 0x901 JUMPI DUP1 PUSH1 0x1F LT PUSH2 0x8D6 JUMPI PUSH2 0x100 DUP1 DUP4 SLOAD DIV MUL DUP4 MSTORE SWAP2 PUSH1 0x20 ADD SWAP2 PUSH2 0x901 JUMP JUMPDEST DUP3 ADD SWAP2 SWAP1 PUSH1 0x0 MSTORE PUSH1 0x20 PUSH1 0x0 KECCAK256 SWAP1 JUMPDEST DUP2 SLOAD DUP2 MSTORE SWAP1 PUSH1 0x1 ADD SWAP1 PUSH1 0x20 ADD DUP1 DUP4 GT PUSH2 0x8E4 JUMPI DUP3 SWAP1 SUB PUSH1 0x1F AND DUP3 ADD SWAP2 JUMPDEST POP POP POP POP POP SWAP1 DUP1 PUSH1 0x3 ADD DUP1 SLOAD PUSH2 0x916 SWAP1 PUSH2 0x1456 JUMP JUMPDEST DUP1 PUSH1 0x1F ADD PUSH1 0x20 DUP1 SWAP2 DIV MUL PUSH1 0x20 ADD PUSH1 0x40 MLOAD SWAP1 DUP2 ADD PUSH1 0x40 MSTORE DUP1 SWAP3 SWAP2 SWAP1 DUP2 DUP2 MSTORE PUSH1 0x20 ADD DUP3 DUP1 SLOAD PUSH2 0x942 SWAP1 PUSH2 0x1456 JUMP JUMPDEST DUP1 ISZERO PUSH2 0x98F JUMPI DUP1 PUSH1 0x1F LT PUSH2 0x964 JUMPI PUSH2 0x100 DUP1 DUP4 SLOAD DIV MUL DUP4 MSTORE SWAP2 PUSH1 0x20 ADD SWAP2 PUSH2 0x98F JUMP JUMPDEST DUP3 ADD SWAP2 SWAP1 PUSH1 0x0 MSTORE PUSH1 0x20 PUSH1 0x0 KECCAK256 SWAP1 JUMPDEST DUP2 SLOAD DUP2 MSTORE SWAP1 PUSH1 0x1 ADD SWAP1 PUSH1 0x20 ADD DUP1 DUP4 GT PUSH2 0x972 JUMPI DUP3 SWAP1 SUB PUSH1 0x1F AND DUP3 ADD SWAP2 JUMPDEST POP POP POP POP POP SWAP1 DUP1 PUSH1 0x4 ADD SLOAD SWAP1 DUP1 PUSH1 0x5 ADD PUSH1 0x0 SWAP1 SLOAD SWAP1 PUSH2 0x100 EXP SWAP1 DIV PUSH20 0xFFFFFFFFFFFFFFFFFFFFFFFFFFFFFFFFFFFFFFFF AND SWAP1 DUP1 PUSH1 0x7 ADD PUSH1 0x0 SWAP1 SLOAD SWAP1 PUSH2 0x100 EXP SWAP1 DIV PUSH1 0xFF AND SWAP1 DUP1 PUSH1 0x8 ADD DUP1 SLOAD PUSH2 0x9E3 SWAP1 PUSH2 0x1456 JUMP JUMPDEST DUP1 PUSH1 0x1F ADD PUSH1 0x20 DUP1 SWAP2 DIV MUL PUSH1 0x20 ADD PUSH1 0x40 MLOAD SWAP1 DUP2 ADD PUSH1 0x40 MSTORE DUP1 SWAP3 SWAP2 SWAP1 DUP2 DUP2 MSTORE PUSH1 0x20 ADD DUP3 DUP1 SLOAD PUSH2 0xA0F SWAP1 PUSH2 0x1456 JUMP JUMPDEST DUP1 ISZERO PUSH2 0xA5C JUMPI DUP1 PUSH1 0x1F LT PUSH2 0xA31 JUMPI PUSH2 0x100 DUP1 DUP4 SLOAD DIV MUL DUP4 MSTORE SWAP2 PUSH1 0x20 ADD SWAP2 PUSH2 0xA5C JUMP JUMPDEST DUP3 ADD SWAP2 SWAP1 PUSH1 0x0 MSTORE PUSH1 0x20 PUSH1 0x0 KECCAK256 SWAP1 JUMPDEST DUP2 SLOAD DUP2 MSTORE SWAP1 PUSH1 0x1 ADD SWAP1 PUSH1 0x20 ADD DUP1 DUP4 GT PUSH2 0xA3F JUMPI DUP3 SWAP1 SUB PUSH1 0x1F AND DUP3 ADD SWAP2 JUMPDEST POP POP POP POP POP SWAP1 POP DUP9 JUMP JUMPDEST CALLER PUSH20 0xFFFFFFFFFFFFFFFFFFFFFFFFFFFFFFFFFFFFFFFF AND PUSH1 0x1 DUP4 PUSH1 0x40 MLOAD PUSH2 0xA8D SWAP2 SWAP1 PUSH2 0x13A4 JUMP JUMPDEST SWAP1 DUP2 MSTORE PUSH1 0x20 ADD PUSH1 0x40 MLOAD DUP1 SWAP2 SUB SWAP1 KECCAK256 PUSH1 0x5 ADD PUSH1 0x0 SWAP1 SLOAD SWAP1 PUSH2 0x100 EXP SWAP1 DIV PUSH20 0xFFFFFFFFFFFFFFFFFFFFFFFFFFFFFFFFFFFFFFFF AND PUSH20 0xFFFFFFFFFFFFFFFFFFFFFFFFFFFFFFFFFFFFFFFF AND EQ PUSH2 0xB15 JUMPI PUSH1 0x40 MLOAD PUSH32 0x8C379A000000000000000000000000000000000000000000000000000000000 DUP2 MSTORE PUSH1 0x4 ADD PUSH2 0xB0C SWAP1 PUSH2 0x1875 JUMP JUMPDEST PUSH1 0x40 MLOAD DUP1 SWAP2 SUB SWAP1 REVERT JUMPDEST PUSH1 0x1 DUP1 DUP4 PUSH1 0x40 MLOAD PUSH2 0xB26 SWAP2 SWAP1 PUSH2 0x13A4 JUMP JUMPDEST SWAP1 DUP2 MSTORE PUSH1 0x20 ADD PUSH1 0x40 MLOAD DUP1 SWAP2 SUB SWAP1 KECCAK256 PUSH1 0x7 ADD PUSH1 0x0 PUSH2 0x100 EXP DUP2 SLOAD DUP2 PUSH1 0xFF MUL NOT AND SWAP1 DUP4 ISZERO ISZERO MUL OR SWAP1 SSTORE POP DUP1 PUSH1 0x1 DUP4 PUSH1 0x40 MLOAD PUSH2 0xB5F SWAP2 SWAP1 PUSH2 0x13A4 JUMP JUMPDEST SWAP1 DUP2 MSTORE PUSH1 0x20 ADD PUSH1 0x40 MLOAD DUP1 SWAP2 SUB SWAP1 KECCAK256 PUSH1 0x8 ADD SWAP1 DUP2 PUSH2 0xB7C SWAP2 SWAP1 PUSH2 0x1633 JUMP JUMPDEST POP POP POP JUMP JUMPDEST PUSH1 0x60 PUSH1 0x1 DUP3 PUSH1 0x40 MLOAD PUSH2 0xB93 SWAP2 SWAP1 PUSH2 0x13A4 JUMP JUMPDEST SWAP1 DUP2 MSTORE PUSH1 0x20 ADD PUSH1 0x40 MLOAD DUP1 SWAP2 SUB SWAP1 KECCAK256 PUSH1 0x6 ADD DUP1 SLOAD DUP1 PUSH1 0x20 MUL PUSH1 0x20 ADD PUSH1 0x40 MLOAD SWAP1 DUP2 ADD PUSH1 0x40 MSTORE DUP1 SWAP3 SWAP2 SWAP1 DUP2 DUP2 MSTORE PUSH1 0x20 ADD DUP3 DUP1 SLOAD DUP1 ISZERO PUSH2 0xC24 JUMPI PUSH1 0x20 MUL DUP3 ADD SWAP2 SWAP1 PUSH1 0x0 MSTORE PUSH1 0x20 PUSH1 0x0 KECCAK256 SWAP1 JUMPDEST DUP2 PUSH1 0x0 SWAP1 SLOAD SWAP1 PUSH2 0x100 EXP SWAP1 DIV PUSH20 0xFFFFFFFFFFFFFFFFFFFFFFFFFFFFFFFFFFFFFFFF AND PUSH20 0xFFFFFFFFFFFFFFFFFFFFFFFFFFFFFFFFFFFFFFFF AND DUP2 MSTORE PUSH1 0x20 ADD SWAP1 PUSH1 0x1 ADD SWAP1 DUP1 DUP4 GT PUSH2 0xBDA JUMPI JUMPDEST POP POP POP POP POP SWAP1 POP SWAP2 SWAP1 POP JUMP JUMPDEST PUSH1 0x0 PUSH1 0x40 MLOAD SWAP1 POP SWAP1 JUMP JUMPDEST PUSH1 0x0 DUP1 REVERT JUMPDEST PUSH1 0x0 DUP1 REVERT JUMPDEST PUSH1 0x0 DUP1 REVERT JUMPDEST PUSH1 0x0 DUP1 REVERT JUMPDEST PUSH1 0x0 PUSH1 0x1F NOT PUSH1 0x1F DUP4 ADD AND SWAP1 POP SWAP2 SWAP1 POP JUMP JUMPDEST PUSH32 0x4E487B7100000000000000000000000000000000000000000000000000000000 PUSH1 0x0 MSTORE PUSH1 0x41 PUSH1 0x4 MSTORE PUSH1 0x24 PUSH1 0x0 REVERT JUMPDEST PUSH2 0xC97 DUP3 PUSH2 0xC4E JUMP JUMPDEST DUP2 ADD DUP2 DUP2 LT PUSH8 0xFFFFFFFFFFFFFFFF DUP3 GT OR ISZERO PUSH2 0xCB6 JUMPI PUSH2 0xCB5 PUSH2 0xC5F JUMP JUMPDEST JUMPDEST DUP1 PUSH1 0x40 MSTORE POP POP POP JUMP JUMPDEST PUSH1 0x0 PUSH2 0xCC9 PUSH2 0xC30 JUMP JUMPDEST SWAP1 POP PUSH2 0xCD5 DUP3 DUP3 PUSH2 0xC8E JUMP JUMPDEST SWAP2 SWAP1 POP JUMP JUMPDEST PUSH1 0x0 PUSH8 0xFFFFFFFFFFFFFFFF DUP3 GT ISZERO PUSH2 0xCF5 JUMPI PUSH2 0xCF4 PUSH2 0xC5F JUMP JUMPDEST JUMPDEST PUSH2 0xCFE DUP3 PUSH2 0xC4E JUMP JUMPDEST SWAP1 POP PUSH1 0x20 DUP2 ADD SWAP1 POP SWAP2 SWAP1 POP JUMP JUMPDEST DUP3 DUP2 DUP4 CALLDATACOPY PUSH1 0x0 DUP4 DUP4 ADD MSTORE POP POP POP JUMP JUMPDEST PUSH1 0x0 PUSH2 0xD2D PUSH2 0xD28 DUP5 PUSH2 0xCDA JUMP JUMPDEST PUSH2 0xCBF JUMP JUMPDEST SWAP1 POP DUP3 DUP2 MSTORE PUSH1 0x20 DUP2 ADD DUP5 DUP5 DUP5 ADD GT ISZERO PUSH2 0xD49 JUMPI PUSH2 0xD48 PUSH2 0xC49 JUMP JUMPDEST JUMPDEST PUSH2 0xD54 DUP5 DUP3 DUP6 PUSH2 0xD0B JUMP JUMPDEST POP SWAP4 SWAP3 POP POP POP JUMP JUMPDEST PUSH1 0x0 DUP3 PUSH1 0x1F DUP4 ADD SLT PUSH2 0xD71 JUMPI PUSH2 0xD70 PUSH2 0xC44 JUMP JUMPDEST JUMPDEST DUP2 CALLDATALOAD PUSH2 0xD81 DUP5 DUP3 PUSH1 0x20 DUP7 ADD PUSH2 0xD1A JUMP JUMPDEST SWAP2 POP POP SWAP3 SWAP2 POP POP JUMP JUMPDEST PUSH1 0x0 DUP2 SWAP1 POP SWAP2 SWAP1 POP JUMP JUMPDEST PUSH2 0xD9D DUP2 PUSH2 0xD8A JUMP JUMPDEST DUP2 EQ PUSH2 0xDA8 JUMPI PUSH1 0x0 DUP1 REVERT JUMPDEST POP JUMP JUMPDEST PUSH1 0x0 DUP2 CALLDATALOAD SWAP1 POP PUSH2 0xDBA DUP2 PUSH2 0xD94 JUMP JUMPDEST SWAP3 SWAP2 POP POP JUMP JUMPDEST PUSH1 0x0 DUP1 PUSH1 0x0 DUP1 PUSH1 0x0 PUSH1 0xA0 DUP7 DUP9 SUB SLT ISZERO PUSH2 0xDDC JUMPI PUSH2 0xDDB PUSH2 0xC3A JUMP JUMPDEST JUMPDEST PUSH1 0x0 DUP7 ADD CALLDATALOAD PUSH8 0xFFFFFFFFFFFFFFFF DUP2 GT ISZERO PUSH2 0xDFA JUMPI PUSH2 0xDF9 PUSH2 0xC3F JUMP JUMPDEST JUMPDEST PUSH2 0xE06 DUP9 DUP3 DUP10 ADD PUSH2 0xD5C JUMP JUMPDEST SWAP6 POP POP PUSH1 0x20 DUP7 ADD CALLDATALOAD PUSH8 0xFFFFFFFFFFFFFFFF DUP2 GT ISZERO PUSH2 0xE27 JUMPI PUSH2 0xE26 PUSH2 0xC3F JUMP JUMPDEST JUMPDEST PUSH2 0xE33 DUP9 DUP3 DUP10 ADD PUSH2 0xD5C JUMP JUMPDEST SWAP5 POP POP PUSH1 0x40 DUP7 ADD CALLDATALOAD PUSH8 0xFFFFFFFFFFFFFFFF DUP2 GT ISZERO PUSH2 0xE54 JUMPI PUSH2 0xE53 PUSH2 0xC3F JUMP JUMPDEST JUMPDEST PUSH2 0xE60 DUP9 DUP3 DUP10 ADD PUSH2 0xD5C JUMP JUMPDEST SWAP4 POP POP PUSH1 0x60 DUP7 ADD CALLDATALOAD PUSH8 0xFFFFFFFFFFFFFFFF DUP2 GT ISZERO PUSH2 0xE81 JUMPI PUSH2 0xE80 PUSH2 0xC3F JUMP JUMPDEST JUMPDEST PUSH2 0xE8D DUP9 DUP3 DUP10 ADD PUSH2 0xD5C JUMP JUMPDEST SWAP3 POP POP PUSH1 0x80 PUSH2 0xE9E DUP9 DUP3 DUP10 ADD PUSH2 0xDAB JUMP JUMPDEST SWAP2 POP POP SWAP3 SWAP6 POP SWAP3 SWAP6 SWAP1 SWAP4 POP JUMP JUMPDEST PUSH1 0x0 PUSH20 0xFFFFFFFFFFFFFFFFFFFFFFFFFFFFFFFFFFFFFFFF DUP3 AND SWAP1 POP SWAP2 SWAP1 POP JUMP JUMPDEST PUSH1 0x0 PUSH2 0xED6 DUP3 PUSH2 0xEAB JUMP JUMPDEST SWAP1 POP SWAP2 SWAP1 POP JUMP JUMPDEST PUSH2 0xEE6 DUP2 PUSH2 0xECB JUMP JUMPDEST DUP3 MSTORE POP POP JUMP JUMPDEST PUSH1 0x0 PUSH1 0x20 DUP3 ADD SWAP1 POP PUSH2 0xF01 PUSH1 0x0 DUP4 ADD DUP5 PUSH2 0xEDD JUMP JUMPDEST SWAP3 SWAP2 POP POP JUMP JUMPDEST PUSH1 0x0 DUP1 PUSH1 0x40 DUP4 DUP6 SUB SLT ISZERO PUSH2 0xF1E JUMPI PUSH2 0xF1D PUSH2 0xC3A JUMP JUMPDEST JUMPDEST PUSH1 0x0 DUP4 ADD CALLDATALOAD PUSH8 0xFFFFFFFFFFFFFFFF DUP2 GT ISZERO PUSH2 0xF3C JUMPI PUSH2 0xF3B PUSH2 0xC3F JUMP JUMPDEST JUMPDEST PUSH2 0xF48 DUP6 DUP3 DUP7 ADD PUSH2 0xD5C JUMP JUMPDEST SWAP3 POP POP PUSH1 0x20 PUSH2 0xF59 DUP6 DUP3 DUP7 ADD PUSH2 0xDAB JUMP JUMPDEST SWAP2 POP POP SWAP3 POP SWAP3 SWAP1 POP JUMP JUMPDEST PUSH2 0xF6C DUP2 PUSH2 0xECB JUMP JUMPDEST DUP2 EQ PUSH2 0xF77 JUMPI PUSH1 0x0 DUP1 REVERT JUMPDEST POP JUMP JUMPDEST PUSH1 0x0 DUP2 CALLDATALOAD SWAP1 POP PUSH2 0xF89 DUP2 PUSH2 0xF63 JUMP JUMPDEST SWAP3 SWAP2 POP POP JUMP JUMPDEST PUSH1 0x0 DUP1 PUSH1 0x40 DUP4 DUP6 SUB SLT ISZERO PUSH2 0xFA6 JUMPI PUSH2 0xFA5 PUSH2 0xC3A JUMP JUMPDEST JUMPDEST PUSH1 0x0 DUP4 ADD CALLDATALOAD PUSH8 0xFFFFFFFFFFFFFFFF DUP2 GT ISZERO PUSH2 0xFC4 JUMPI PUSH2 0xFC3 PUSH2 0xC3F JUMP JUMPDEST JUMPDEST PUSH2 0xFD0 DUP6 DUP3 DUP7 ADD PUSH2 0xD5C JUMP JUMPDEST SWAP3 POP POP PUSH1 0x20 PUSH2 0xFE1 DUP6 DUP3 DUP7 ADD PUSH2 0xF7A JUMP JUMPDEST SWAP2 POP POP SWAP3 POP SWAP3 SWAP1 POP JUMP JUMPDEST PUSH1 0x0 PUSH1 0x20 DUP3 DUP5 SUB SLT ISZERO PUSH2 0x1001 JUMPI PUSH2 0x1000 PUSH2 0xC3A JUMP JUMPDEST JUMPDEST PUSH1 0x0 DUP3 ADD CALLDATALOAD PUSH8 0xFFFFFFFFFFFFFFFF DUP2 GT ISZERO PUSH2 0x101F JUMPI PUSH2 0x101E PUSH2 0xC3F JUMP JUMPDEST JUMPDEST PUSH2 0x102B DUP5 DUP3 DUP6 ADD PUSH2 0xD5C JUMP JUMPDEST SWAP2 POP POP SWAP3 SWAP2 POP POP JUMP JUMPDEST PUSH1 0x0 DUP2 MLOAD SWAP1 POP SWAP2 SWAP1 POP JUMP JUMPDEST PUSH1 0x0 DUP3 DUP3 MSTORE PUSH1 0x20 DUP3 ADD SWAP1 POP SWAP3 SWAP2 POP POP JUMP JUMPDEST PUSH1 0x0 JUMPDEST DUP4 DUP2 LT ISZERO PUSH2 0x106E JUMPI DUP1 DUP3 ADD MLOAD DUP2 DUP5 ADD MSTORE PUSH1 0x20 DUP2 ADD SWAP1 POP PUSH2 0x1053 JUMP JUMPDEST PUSH1 0x0 DUP5 DUP5 ADD MSTORE POP POP POP POP JUMP JUMPDEST PUSH1 0x0 PUSH2 0x1085 DUP3 PUSH2 0x1034 JUMP JUMPDEST PUSH2 0x108F DUP2 DUP6 PUSH2 0x103F JUMP JUMPDEST SWAP4 POP PUSH2 0x109F DUP2 DUP6 PUSH1 0x20 DUP7 ADD PUSH2 0x1050 JUMP JUMPDEST PUSH2 0x10A8 DUP2 PUSH2 0xC4E JUMP JUMPDEST DUP5 ADD SWAP2 POP POP SWAP3 SWAP2 POP POP JUMP JUMPDEST PUSH2 0x10BC DUP2 PUSH2 0xD8A JUMP JUMPDEST DUP3 MSTORE POP POP JUMP JUMPDEST PUSH1 0x0 DUP2 ISZERO ISZERO SWAP1 POP SWAP2 SWAP1 POP JUMP JUMPDEST PUSH2 0x10D7 DUP2 PUSH2 0x10C2 JUMP JUMPDEST DUP3 MSTORE POP POP JUMP JUMPDEST PUSH1 0x0 PUSH2 0x100 DUP3 ADD SWAP1 POP DUP2 DUP2 SUB PUSH1 0x0 DUP4 ADD MSTORE PUSH2 0x10F8 DUP2 DUP12 PUSH2 0x107A JUMP JUMPDEST SWAP1 POP DUP2 DUP2 SUB PUSH1 0x20 DUP4 ADD MSTORE PUSH2 0x110C DUP2 DUP11 PUSH2 0x107A JUMP JUMPDEST SWAP1 POP DUP2 DUP2 SUB PUSH1 0x40 DUP4 ADD MSTORE PUSH2 0x1120 DUP2 DUP10 PUSH2 0x107A JUMP JUMPDEST SWAP1 POP DUP2 DUP2 SUB PUSH1 0x60 DUP4 ADD MSTORE PUSH2 0x1134 DUP2 DUP9 PUSH2 0x107A JUMP JUMPDEST SWAP1 POP PUSH2 0x1143 PUSH1 0x80 DUP4 ADD DUP8 PUSH2 0x10B3 JUMP JUMPDEST PUSH2 0x1150 PUSH1 0xA0 DUP4 ADD DUP7 PUSH2 0xEDD JUMP JUMPDEST PUSH2 0x115D PUSH1 0xC0 DUP4 ADD DUP6 PUSH2 0x10CE JUMP JUMPDEST DUP2 DUP2 SUB PUSH1 0xE0 DUP4 ADD MSTORE PUSH2 0x116F DUP2 DUP5 PUSH2 0x107A JUMP JUMPDEST SWAP1 POP SWAP10 SWAP9 POP POP POP POP POP POP POP POP POP JUMP JUMPDEST PUSH1 0x0 DUP1 PUSH1 0x40 DUP4 DUP6 SUB SLT ISZERO PUSH2 0x1195 JUMPI PUSH2 0x1194 PUSH2 0xC3A JUMP JUMPDEST JUMPDEST PUSH1 0x0 DUP4 ADD CALLDATALOAD PUSH8 0xFFFFFFFFFFFFFFFF DUP2 GT ISZERO PUSH2 0x11B3 JUMPI PUSH2 0x11B2 PUSH2 0xC3F JUMP JUMPDEST JUMPDEST PUSH2 0x11BF DUP6 DUP3 DUP7 ADD PUSH2 0xD5C JUMP JUMPDEST SWAP3 POP POP PUSH1 0x20 DUP4 ADD CALLDATALOAD PUSH8 0xFFFFFFFFFFFFFFFF DUP2 GT ISZERO PUSH2 0x11E0 JUMPI PUSH2 0x11DF PUSH2 0xC3F JUMP JUMPDEST JUMPDEST PUSH2 0x11EC DUP6 DUP3 DUP7 ADD PUSH2 0xD5C JUMP JUMPDEST SWAP2 POP POP SWAP3 POP SWAP3 SWAP1 POP JUMP JUMPDEST PUSH1 0x0 DUP2 MLOAD SWAP1 POP SWAP2 SWAP1 POP JUMP JUMPDEST PUSH1 0x0 DUP3 DUP3 MSTORE PUSH1 0x20 DUP3 ADD SWAP1 POP SWAP3 SWAP2 POP POP JUMP JUMPDEST PUSH1 0x0 DUP2 SWAP1 POP PUSH1 0x20 DUP3 ADD SWAP1 POP SWAP2 SWAP1 POP JUMP JUMPDEST PUSH2 0x122B DUP2 PUSH2 0xECB JUMP JUMPDEST DUP3 MSTORE POP POP JUMP JUMPDEST PUSH1 0x0 PUSH2 0x123D DUP4 DUP4 PUSH2 0x1222 JUMP JUMPDEST PUSH1 0x20 DUP4 ADD SWAP1 POP SWAP3 SWAP2 POP POP JUMP JUMPDEST PUSH1 0x0 PUSH1 0x20 DUP3 ADD SWAP1 POP SWAP2 SWAP1 POP JUMP JUMPDEST PUSH1 0x0 PUSH2 0x1261 DUP3 PUSH2 0x11F6 JUMP JUMPDEST PUSH2 0x126B DUP2 DUP6 PUSH2 0x1201 JUMP JUMPDEST SWAP4 POP PUSH2 0x1276 DUP4 PUSH2 0x1212 JUMP JUMPDEST DUP1 PUSH1 0x0 JUMPDEST DUP4 DUP2 LT ISZERO PUSH2 0x12A7 JUMPI DUP2 MLOAD PUSH2 0x128E DUP9 DUP3 PUSH2 0x1231 JUMP JUMPDEST SWAP8 POP PUSH2 0x1299 DUP4 PUSH2 0x1249 JUMP JUMPDEST SWAP3 POP POP PUSH1 0x1 DUP2 ADD SWAP1 POP PUSH2 0x127A JUMP JUMPDEST POP DUP6 SWAP4 POP POP POP POP SWAP3 SWAP2 POP POP JUMP JUMPDEST PUSH1 0x0 PUSH1 0x20 DUP3 ADD SWAP1 POP DUP2 DUP2 SUB PUSH1 0x0 DUP4 ADD MSTORE PUSH2 0x12CE DUP2 DUP5 PUSH2 0x1256 JUMP JUMPDEST SWAP1 POP SWAP3 SWAP2 POP POP JUMP JUMPDEST PUSH32 0x4F6E6C7920766572696669656420726573656172636865722063616E20697373 PUSH1 0x0 DUP3 ADD MSTORE PUSH32 0x7565000000000000000000000000000000000000000000000000000000000000 PUSH1 0x20 DUP3 ADD MSTORE POP JUMP JUMPDEST PUSH1 0x0 PUSH2 0x1332 PUSH1 0x22 DUP4 PUSH2 0x103F JUMP JUMPDEST SWAP2 POP PUSH2 0x133D DUP3 PUSH2 0x12D6 JUMP JUMPDEST PUSH1 0x40 DUP3 ADD SWAP1 POP SWAP2 SWAP1 POP JUMP JUMPDEST PUSH1 0x0 PUSH1 0x20 DUP3 ADD SWAP1 POP DUP2 DUP2 SUB PUSH1 0x0 DUP4 ADD MSTORE PUSH2 0x1361 DUP2 PUSH2 0x1325 JUMP JUMPDEST SWAP1 POP SWAP2 SWAP1 POP JUMP JUMPDEST PUSH1 0x0 DUP2 SWAP1 POP SWAP3 SWAP2 POP POP JUMP JUMPDEST PUSH1 0x0 PUSH2 0x137E DUP3 PUSH2 0x1034 JUMP JUMPDEST PUSH2 0x1388 DUP2 DUP6 PUSH2 0x1368 JUMP JUMPDEST SWAP4 POP PUSH2 0x1398 DUP2 DUP6 PUSH1 0x20 DUP7 ADD PUSH2 0x1050 JUMP JUMPDEST DUP1 DUP5 ADD SWAP2 POP POP SWAP3 SWAP2 POP POP JUMP JUMPDEST PUSH1 0x0 PUSH2 0x13B0 DUP3 DUP5 PUSH2 0x1373 JUMP JUMPDEST SWAP2 POP DUP2 SWAP1 POP SWAP3 SWAP2 POP POP JUMP JUMPDEST PUSH32 0x494420616C726561647920657869737473000000000000000000000000000000 PUSH1 0x0 DUP3 ADD MSTORE POP JUMP JUMPDEST PUSH1 0x0 PUSH2 0x13F1 PUSH1 0x11 DUP4 PUSH2 0x103F JUMP JUMPDEST SWAP2 POP PUSH2 0x13FC DUP3 PUSH2 0x13BB JUMP JUMPDEST PUSH1 0x20 DUP3 ADD SWAP1 POP SWAP2 SWAP1 POP JUMP JUMPDEST PUSH1 0x0 PUSH1 0x20 DUP3 ADD SWAP1 POP DUP2 DUP2 SUB PUSH1 0x0 DUP4 ADD MSTORE PUSH2 0x1420 DUP2 PUSH2 0x13E4 JUMP JUMPDEST SWAP1 POP SWAP2 SWAP1 POP JUMP JUMPDEST PUSH32 0x4E487B7100000000000000000000000000000000000000000000000000000000 PUSH1 0x0 MSTORE PUSH1 0x22 PUSH1 0x4 MSTORE PUSH1 0x24 PUSH1 0x0 REVERT JUMPDEST PUSH1 0x0 PUSH1 0x2 DUP3 DIV SWAP1 POP PUSH1 0x1 DUP3 AND DUP1 PUSH2 0x146E JUMPI PUSH1 0x7F DUP3 AND SWAP2 POP JUMPDEST PUSH1 0x20 DUP3 LT DUP2 SUB PUSH2 0x1481 JUMPI PUSH2 0x1480 PUSH2 0x1427 JUMP JUMPDEST JUMPDEST POP SWAP2 SWAP1 POP JUMP JUMPDEST PUSH1 0x0 DUP2 SWAP1 POP DUP2 PUSH1 0x0 MSTORE PUSH1 0x20 PUSH1 0x0 KECCAK256 SWAP1 POP SWAP2 SWAP1 POP JUMP JUMPDEST PUSH1 0x0 PUSH1 0x20 PUSH1 0x1F DUP4 ADD DIV SWAP1 POP SWAP2 SWAP1 POP JUMP JUMPDEST PUSH1 0x0 DUP3 DUP3 SHL SWAP1 POP SWAP3 SWAP2 POP POP JUMP JUMPDEST PUSH1 0x0 PUSH1 0x8 DUP4 MUL PUSH2 0x14E9 PUSH32 0xFFFFFFFFFFFFFFFFFFFFFFFFFFFFFFFFFFFFFFFFFFFFFFFFFFFFFFFFFFFFFFFF DUP3 PUSH2 0x14AC JUMP JUMPDEST PUSH2 0x14F3 DUP7 DUP4 PUSH2 0x14AC JUMP JUMPDEST SWAP6 POP DUP1 NOT DUP5 AND SWAP4 POP DUP1 DUP7 AND DUP5 OR SWAP3 POP POP POP SWAP4 SWAP3 POP POP POP JUMP JUMPDEST PUSH1 0x0 DUP2 SWAP1 POP SWAP2 SWAP1 POP JUMP JUMPDEST PUSH1 0x0 PUSH2 0x1530 PUSH2 0x152B PUSH2 0x1526 DUP5 PUSH2 0xD8A JUMP JUMPDEST PUSH2 0x150B JUMP JUMPDEST PUSH2 0xD8A JUMP JUMPDEST SWAP1 POP SWAP2 SWAP1 POP JUMP JUMPDEST PUSH1 0x0 DUP2 SWAP1 POP SWAP2 SWAP1 POP JUMP JUMPDEST PUSH2 0x154A DUP4 PUSH2 0x1515 JUMP JUMPDEST PUSH2 0x155E PUSH2 0x1556 DUP3 PUSH2 0x1537 JUMP JUMPDEST DUP5 DUP5 SLOAD PUSH2 0x14B9 JUMP JUMPDEST DUP3 SSTORE POP POP POP POP JUMP JUMPDEST PUSH1 0x0 SWAP1 JUMP JUMPDEST PUSH2 0x1573 PUSH2 0x1566 JUMP JUMPDEST PUSH2 0x157E DUP2 DUP5 DUP5 PUSH2 0x1541 JUMP JUMPDEST POP POP POP JUMP JUMPDEST JUMPDEST DUP2 DUP2 LT ISZERO PUSH2 0x15A2 JUMPI PUSH2 0x1597 PUSH1 0x0 DUP3 PUSH2 0x156B JUMP JUMPDEST PUSH1 0x1 DUP2 ADD SWAP1 POP PUSH2 0x1584 JUMP JUMPDEST POP POP JUMP JUMPDEST PUSH1 0x1F DUP3 GT ISZERO PUSH2 0x15E7 JUMPI PUSH2 0x15B8 DUP2 PUSH2 0x1487 JUMP JUMPDEST PUSH2 0x15C1 DUP5 PUSH2 0x149C JUMP JUMPDEST DUP2 ADD PUSH1 0x20 DUP6 LT ISZERO PUSH2 0x15D0 JUMPI DUP2 SWAP1 POP JUMPDEST PUSH2 0x15E4 PUSH2 0x15DC DUP6 PUSH2 0x149C JUMP JUMPDEST DUP4 ADD DUP3 PUSH2 0x1583 JUMP JUMPDEST POP POP JUMPDEST POP POP POP JUMP JUMPDEST PUSH1 0x0 DUP3 DUP3 SHR SWAP1 POP SWAP3 SWAP2 POP POP JUMP JUMPDEST PUSH1 0x0 PUSH2 0x160A PUSH1 0x0 NOT DUP5 PUSH1 0x8 MUL PUSH2 0x15EC JUMP JUMPDEST NOT DUP1 DUP4 AND SWAP2 POP POP SWAP3 SWAP2 POP POP JUMP JUMPDEST PUSH1 0x0 PUSH2 0x1623 DUP4 DUP4 PUSH2 0x15F9 JUMP JUMPDEST SWAP2 POP DUP3 PUSH1 0x2 MUL DUP3 OR SWAP1 POP SWAP3 SWAP2 POP POP JUMP JUMPDEST PUSH2 0x163C DUP3 PUSH2 0x1034 JUMP JUMPDEST PUSH8 0xFFFFFFFFFFFFFFFF DUP2 GT ISZERO PUSH2 0x1655 JUMPI PUSH2 0x1654 PUSH2 0xC5F JUMP JUMPDEST JUMPDEST PUSH2 0x165F DUP3 SLOAD PUSH2 0x1456 JUMP JUMPDEST PUSH2 0x166A DUP3 DUP3 DUP6 PUSH2 0x15A6 JUMP JUMPDEST PUSH1 0x0 PUSH1 0x20 SWAP1 POP PUSH1 0x1F DUP4 GT PUSH1 0x1 DUP2 EQ PUSH2 0x169D JUMPI PUSH1 0x0 DUP5 ISZERO PUSH2 0x168B JUMPI DUP3 DUP8 ADD MLOAD SWAP1 POP JUMPDEST PUSH2 0x1695 DUP6 DUP3 PUSH2 0x1617 JUMP JUMPDEST DUP7 SSTORE POP PUSH2 0x16FD JUMP JUMPDEST PUSH1 0x1F NOT DUP5 AND PUSH2 0x16AB DUP7 PUSH2 0x1487 JUMP JUMPDEST PUSH1 0x0 JUMPDEST DUP3 DUP2 LT ISZERO PUSH2 0x16D3 JUMPI DUP5 DUP10 ADD MLOAD DUP3 SSTORE PUSH1 0x1 DUP3 ADD SWAP2 POP PUSH1 0x20 DUP6 ADD SWAP5 POP PUSH1 0x20 DUP2 ADD SWAP1 POP PUSH2 0x16AE JUMP JUMPDEST DUP7 DUP4 LT ISZERO PUSH2 0x16F0 JUMPI DUP5 DUP10 ADD MLOAD PUSH2 0x16EC PUSH1 0x1F DUP10 AND DUP3 PUSH2 0x15F9 JUMP JUMPDEST DUP4 SSTORE POP JUMPDEST PUSH1 0x1 PUSH1 0x2 DUP9 MUL ADD DUP9 SSTORE POP POP POP JUMPDEST POP POP POP POP POP POP JUMP JUMPDEST PUSH32 0x4F6E6C7920726573656172636865722063616E2061646A75737420666F722061 PUSH1 0x0 DUP3 ADD MSTORE PUSH32 0x63636964656E7473000000000000000000000000000000000000000000000000 PUSH1 0x20 DUP3 ADD MSTORE POP JUMP JUMPDEST PUSH1 0x0 PUSH2 0x1761 PUSH1 0x28 DUP4 PUSH2 0x103F JUMP JUMPDEST SWAP2 POP PUSH2 0x176C DUP3 PUSH2 0x1705 JUMP JUMPDEST PUSH1 0x40 DUP3 ADD SWAP1 POP SWAP2 SWAP1 POP JUMP JUMPDEST PUSH1 0x0 PUSH1 0x20 DUP3 ADD SWAP1 POP DUP2 DUP2 SUB PUSH1 0x0 DUP4 ADD MSTORE PUSH2 0x1790 DUP2 PUSH2 0x1754 JUMP JUMPDEST SWAP1 POP SWAP2 SWAP1 POP JUMP JUMPDEST PUSH32 0x43616E206F6E6C7920646F776E7363616C6520666F7220686F6E657374206C6F PUSH1 0x0 DUP3 ADD MSTORE PUSH32 0x7373000000000000000000000000000000000000000000000000000000000000 PUSH1 0x20 DUP3 ADD MSTORE POP JUMP JUMPDEST PUSH1 0x0 PUSH2 0x17F3 PUSH1 0x22 DUP4 PUSH2 0x103F JUMP JUMPDEST SWAP2 POP PUSH2 0x17FE DUP3 PUSH2 0x1797 JUMP JUMPDEST PUSH1 0x40 DUP3 ADD SWAP1 POP SWAP2 SWAP1 POP JUMP JUMPDEST PUSH1 0x0 PUSH1 0x20 DUP3 ADD SWAP1 POP DUP2 DUP2 SUB PUSH1 0x0 DUP4 ADD MSTORE PUSH2 0x1822 DUP2 PUSH2 0x17E6 JUMP JUMPDEST SWAP1 POP SWAP2 SWAP1 POP JUMP JUMPDEST PUSH32 0x4E6F7420746865206F776E657200000000000000000000000000000000000000 PUSH1 0x0 DUP3 ADD MSTORE POP JUMP JUMPDEST PUSH1 0x0 PUSH2 0x185F PUSH1 0xD DUP4 PUSH2 0x103F JUMP JUMPDEST SWAP2 POP PUSH2 0x186A DUP3 PUSH2 0x1829 JUMP JUMPDEST PUSH1 0x20 DUP3 ADD SWAP1 POP SWAP2 SWAP1 POP JUMP JUMPDEST PUSH1 0x0 PUSH1 0x20 DUP3 ADD SWAP1 POP DUP2 DUP2 SUB PUSH1 0x0 DUP4 ADD MSTORE PUSH2 0x188E DUP2 PUSH2 0x1852 JUMP JUMPDEST SWAP1 POP SWAP2 SWAP1 POP JUMP JUMPDEST PUSH32 0x4C4F434B45443A20416C72656164792072657469726564206F72207265766F6B PUSH1 0x0 DUP3 ADD MSTORE PUSH32 0x6564000000000000000000000000000000000000000000000000000000000000 PUSH1 0x20 DUP3 ADD MSTORE POP JUMP JUMPDEST PUSH1 0x0 PUSH2 0x18F1 PUSH1 0x22 DUP4 PUSH2 0x103F JUMP JUMPDEST SWAP2 POP PUSH2 0x18FC DUP3 PUSH2 0x1895 JUMP JUMPDEST PUSH1 0x40 DUP3 ADD SWAP1 POP SWAP2 SWAP1 POP JUMP JUMPDEST PUSH1 0x0 PUSH1 0x20 DUP3 ADD SWAP1 POP DUP2 DUP2 SUB PUSH1 0x0 DUP4 ADD MSTORE PUSH2 0x1920 DUP2 PUSH2 0x18E4 JUMP JUMPDEST SWAP1 POP SWAP2 SWAP1 POP JUMP INVALID SSTORE PUSH21 0x696C6974792061646A75737465642064756520746F KECCAK256 PUSH17 0x6879736963616C206C6F7373A264697066 PUSH20 0x58221220C4CBEFE1D6A8EF84FB217AC2F405974A DUP12 0x2F GT DUP7 PUSH2 0xD2FC CREATE 0xD8 BLOBBASEFEE 0xCD ADDRESS SWAP12 PUSH11 0x783064736F6C634300081F STOP CALLER "
		},
		"gasEstimates": {
			"creation": {
				"codeDepositCost": "1306000",
				"executionCost": "25629",
				"totalCost": "1331629"
			},
			"external": {
				"createCredit(string,string,string,string,uint256)": "infinite",
				"getHistory(string)": "infinite",
				"ledger(string)": "infinite",
				"researcher()": "2534",
				"retireCredit(string,string)": "infinite",
				"transferCredit(string,address)": "infinite",
				"updateUtility(string,uint256)": "infinite"
			}
		},
		"methodIdentifiers": {
			"createCredit(string,string,string,string,uint256)": "05c107c8",
			"getHistory(string)": "e360736e",
			"ledger(string)": "535d9b42",
			"researcher()": "1dc0a6a5",
			"retireCredit(string,string)": "947788bc",
			"transferCredit(string,address)": "43f179c0",
			"updateUtility(string,uint256)": "30955b87"
		}
	},
	"abi": [
		{
			"inputs": [],
			"stateMutability": "nonpayable",
			"type": "constructor"
		},
		{
			"inputs": [
				{
					"internalType": "string",
					"name": "_id",
					"type": "string"
				},
				{
					"internalType": "string",
					"name": "_land",
					"type": "string"
				},
				{
					"internalType": "string",
					"name": "_vintage",
					"type": "string"
				},
				{
					"internalType": "string",
					"name": "_pdfLink",
					"type": "string"
				},
				{
					"internalType": "uint256",
					"name": "_tons",
					"type": "uint256"
				}
			],
			"name": "createCredit",
			"outputs": [],
			"stateMutability": "nonpayable",
			"type": "function"
		},
		{
			"inputs": [
				{
					"internalType": "string",
					"name": "_id",
					"type": "string"
				}
			],
			"name": "getHistory",
			"outputs": [
				{
					"internalType": "address[]",
					"name": "",
					"type": "address[]"
				}
			],
			"stateMutability": "view",
			"type": "function"
		},
		{
			"inputs": [
				{
					"internalType": "string",
					"name": "",
					"type": "string"
				}
			],
			"name": "ledger",
			"outputs": [
				{
					"internalType": "string",
					"name": "creditId",
					"type": "string"
				},
				{
					"internalType": "string",
					"name": "landId",
					"type": "string"
				},
				{
					"internalType": "string",
					"name": "vintage",
					"type": "string"
				},
				{
					"internalType": "string",
					"name": "dataLink",
					"type": "string"
				},
				{
					"internalType": "uint256",
					"name": "tons",
					"type": "uint256"
				},
				{
					"internalType": "address",
					"name": "currentOwner",
					"type": "address"
				},
				{
					"internalType": "bool",
					"name": "isRetired",
					"type": "bool"
				},
				{
					"internalType": "string",
					"name": "statusNote",
					"type": "string"
				}
			],
			"stateMutability": "view",
			"type": "function"
		},
		{
			"inputs": [],
			"name": "researcher",
			"outputs": [
				{
					"internalType": "address",
					"name": "",
					"type": "address"
				}
			],
			"stateMutability": "view",
			"type": "function"
		},
		{
			"inputs": [
				{
					"internalType": "string",
					"name": "_id",
					"type": "string"
				},
				{
					"internalType": "string",
					"name": "_note",
					"type": "string"
				}
			],
			"name": "retireCredit",
			"outputs": [],
			"stateMutability": "nonpayable",
			"type": "function"
		},
		{
			"inputs": [
				{
					"internalType": "string",
					"name": "_id",
					"type": "string"
				},
				{
					"internalType": "address",
					"name": "_to",
					"type": "address"
				}
			],
			"name": "transferCredit",
			"outputs": [],
			"stateMutability": "nonpayable",
			"type": "function"
		},
		{
			"inputs": [
				{
					"internalType": "string",
					"name": "_id",
					"type": "string"
				},
				{
					"internalType": "uint256",
					"name": "_newTons",
					"type": "uint256"
				}
			],
			"name": "updateUtility",
			"outputs": [],
			"stateMutability": "nonpayable",
			"type": "function"
		}
	]
}