{
	"data": {
		"bytecode": {
			"linkReferences": {},
			"object": "6080604052348015600f57600080fd5b50610fca8061001f6000396000f3fe608060405234801561001057600080fd5b506004361061004c5760003560e01c80631daa8ffc1461005157806343f179c01461006d578063535d9b4214610089578063947788bc146100bd575b600080fd5b61006b6004803603810190610066919061083b565b6100d9565b005b61008760048036038101906100829190610911565b6101be565b005b6100a3600480360381019061009e919061096d565b61037b565b6040516100b4959493929190610a5f565b60405180910390f35b6100d760048036038101906100d2919061083b565b61058c565b005b600080836040516100ea9190610b03565b908152602001604051809103902090508281600001908161010b9190610d30565b508181600101908161011d9190610d30565b50338160020160006101000a81548173ffffffffffffffffffffffffffffffffffffffff021916908373ffffffffffffffffffffffffffffffffffffffff16021790555060008160020160146101000a81548160ff0219169083151502179055507fbeb56548b54488857a76d3fd323bbfd0c3c369e91be7af846181e9ecd29cc4818383336040516101b193929190610e02565b60405180910390a1505050565b3373ffffffffffffffffffffffffffffffffffffffff166000836040516101e59190610b03565b908152602001604051809103902060020160009054906101000a900473ffffffffffffffffffffffffffffffffffffffff1673ffffffffffffffffffffffffffffffffffffffff161461026d576040517f08c379a000000000000000000000000000000000000000000000000000000000815260040161026490610e93565b60405180910390fd5b60008260405161027d9190610b03565b908152602001604051809103902060020160149054906101000a900460ff16156102dc576040517f08c379a00000000000000000000000000000000000000000000000000000000081526004016102d390610eff565b60405180910390fd5b806000836040516102ed9190610b03565b908152602001604051809103902060020160006101000a81548173ffffffffffffffffffffffffffffffffffffffff021916908373ffffffffffffffffffffffffffffffffffffffff1602179055507f33d7ddb6876549915cd9795a7dbec423444d42e83357274141980b02388041d782338360405161036f93929190610f1f565b60405180910390a15050565b6000818051602081018201805184825260208301602085012081835280955050505050506000915090508060000180546103b490610b49565b80601f01602080910402602001604051908101604052809291908181526020018280546103e090610b49565b801561042d5780601f106104025761010080835404028352916020019161042d565b820191906000526020600020905b81548152906001019060200180831161041057829003601f168201915b50505050509080600101805461044290610b49565b80601f016020809104026020016040519081016040528092919081815260200182805461046e90610b49565b80156104bb5780601f10610490576101008083540402835291602001916104bb565b820191906000526020600020905b81548152906001019060200180831161049e57829003601f168201915b5050505050908060020160009054906101000a900473ffffffffffffffffffffffffffffffffffffffff16908060020160149054906101000a900460ff169080600301805461050990610b49565b80601f016020809104026020016040519081016040528092919081815260200182805461053590610b49565b80156105825780601f1061055757610100808354040283529160200191610582565b820191906000526020600020905b81548152906001019060200180831161056557829003601f168201915b5050505050905085565b3373ffffffffffffffffffffffffffffffffffffffff166000836040516105b39190610b03565b908152602001604051809103902060020160009054906101000a900473ffffffffffffffffffffffffffffffffffffffff1673ffffffffffffffffffffffffffffffffffffffff161461063b576040517f08c379a000000000000000000000000000000000000000000000000000000000815260040161063290610e93565b60405180910390fd5b600160008360405161064d9190610b03565b908152602001604051809103902060020160146101000a81548160ff021916908315150217905550806000836040516106869190610b03565b908152602001604051809103902060030190816106a39190610d30565b507f39c936bb3fd9e48f6cb108244bf6d5efcef52fba82547abc61a3144ba15448c282826040516106d5929190610f5d565b60405180910390a15050565b6000604051905090565b600080fd5b600080fd5b600080fd5b600080fd5b6000601f19601f8301169050919050565b7f4e487b7100000000000000000000000000000000000000000000000000000000600052604160045260246000fd5b610748826106ff565b810181811067ffffffffffffffff8211171561076757610766610710565b5b80604052505050565b600061077a6106e1565b9050610786828261073f565b919050565b600067ffffffffffffffff8211156107a6576107a5610710565b5b6107af826106ff565b9050602081019050919050565b82818337600083830152505050565b60006107de6107d98461078b565b610770565b9050828152602081018484840111156107fa576107f96106fa565b5b6108058482856107bc565b509392505050565b600082601f830112610822576108216106f5565b5b81356108328482602086016107cb565b91505092915050565b60008060408385031215610852576108516106eb565b5b600083013567ffffffffffffffff8111156108705761086f6106f0565b5b61087c8582860161080d565b925050602083013567ffffffffffffffff81111561089d5761089c6106f0565b5b6108a98582860161080d565b9150509250929050565b600073ffffffffffffffffffffffffffffffffffffffff82169050919050565b60006108de826108b3565b9050919050565b6108ee816108d3565b81146108f957600080fd5b50565b60008135905061090b816108e5565b92915050565b60008060408385031215610928576109276106eb565b5b600083013567ffffffffffffffff811115610946576109456106f0565b5b6109528582860161080d565b9250506020610963858286016108fc565b9150509250929050565b600060208284031215610983576109826106eb565b5b600082013567ffffffffffffffff8111156109a1576109a06106f0565b5b6109ad8482850161080d565b91505092915050565b600081519050919050565b600082825260208201905092915050565b60005b838110156109f05780820151818401526020810190506109d5565b60008484015250505050565b6000610a07826109b6565b610a1181856109c1565b9350610a218185602086016109d2565b610a2a816106ff565b840191505092915050565b610a3e816108d3565b82525050565b60008115159050919050565b610a5981610a44565b82525050565b600060a0820190508181036000830152610a7981886109fc565b90508181036020830152610a8d81876109fc565b9050610a9c6040830186610a35565b610aa96060830185610a50565b8181036080830152610abb81846109fc565b90509695505050505050565b600081905092915050565b6000610add826109b6565b610ae78185610ac7565b9350610af78185602086016109d2565b80840191505092915050565b6000610b0f8284610ad2565b915081905092915050565b7f4e487b7100000000000000000000000000000000000000000000000000000000600052602260045260246000fd5b60006002820490506001821680610b6157607f821691505b602082108103610b7457610b73610b1a565b5b50919050565b60008190508160005260206000209050919050565b60006020601f8301049050919050565b600082821b905092915050565b600060088302610bdc7fffffffffffffffffffffffffffffffffffffffffffffffffffffffffffffffff82610b9f565b610be68683610b9f565b95508019841693508086168417925050509392505050565b6000819050919050565b6000819050919050565b6000610c2d610c28610c2384610bfe565b610c08565b610bfe565b9050919050565b6000819050919050565b610c4783610c12565b610c5b610c5382610c34565b848454610bac565b825550505050565b600090565b610c70610c63565b610c7b818484610c3e565b505050565b5b81811015610c9f57610c94600082610c68565b600181019050610c81565b5050565b601f821115610ce457610cb581610b7a565b610cbe84610b8f565b81016020851015610ccd578190505b610ce1610cd985610b8f565b830182610c80565b50505b505050565b600082821c905092915050565b6000610d0760001984600802610ce9565b1980831691505092915050565b6000610d208383610cf6565b9150826002028217905092915050565b610d39826109b6565b67ffffffffffffffff811115610d5257610d51610710565b5b610d5c8254610b49565b610d67828285610ca3565b600060209050601f831160018114610d9a5760008415610d88578287015190505b610d928582610d14565b865550610dfa565b601f198416610da886610b7a565b60005b82811015610dd057848901518255600182019150602085019450602081019050610dab565b86831015610ded5784890151610de9601f891682610cf6565b8355505b6001600288020188555050505b505050505050565b60006060820190508181036000830152610e1c81866109fc565b90508181036020830152610e3081856109fc565b9050610e3f6040830184610a35565b949350505050565b7f4e6f7420746865206f776e657200000000000000000000000000000000000000600082015250565b6000610e7d600d836109c1565b9150610e8882610e47565b602082019050919050565b60006020820190508181036000830152610eac81610e70565b9050919050565b7f43726564697420697320616c7265616479207265746972656400000000000000600082015250565b6000610ee96019836109c1565b9150610ef482610eb3565b602082019050919050565b60006020820190508181036000830152610f1881610edc565b9050919050565b60006060820190508181036000830152610f3981866109fc565b9050610f486020830185610a35565b610f556040830184610a35565b949350505050565b60006040820190508181036000830152610f7781856109fc565b90508181036020830152610f8b81846109fc565b9050939250505056fea2646970667358221220d682e0d4c5f2985e42bd17ad37eba7bdd2848498aefa0b03a868bcfb176129f764736f6c634300081f0033",
			"opcodes": "PUSH1 0x80 PUSH1 0x40 MSTORE CALLVALUE DUP1 ISZERO PUSH1 0xF JUMPI PUSH1 0x0 DUP1 REVERT JUMPDEST POP PUSH2 0xFCA DUP1 PUSH2 0x1F PUSH1 0x0 CODECOPY PUSH1 0x0 RETURN INVALID PUSH1 0x80 PUSH1 0x40 MSTORE CALLVALUE DUP1 ISZERO PUSH2 0x10 JUMPI PUSH1 0x0 DUP1 REVERT JUMPDEST POP PUSH1 0x4 CALLDATASIZE LT PUSH2 0x4C JUMPI PUSH1 0x0 CALLDATALOAD PUSH1 0xE0 SHR DUP1 PUSH4 0x1DAA8FFC EQ PUSH2 0x51 JUMPI DUP1 PUSH4 0x43F179C0 EQ PUSH2 0x6D JUMPI DUP1 PUSH4 0x535D9B42 EQ PUSH2 0x89 JUMPI DUP1 PUSH4 0x947788BC EQ PUSH2 0xBD JUMPI JUMPDEST PUSH1 0x0 DUP1 REVERT JUMPDEST PUSH2 0x6B PUSH1 0x4 DUP1 CALLDATASIZE SUB DUP2 ADD SWAP1 PUSH2 0x66 SWAP2 SWAP1 PUSH2 0x83B JUMP JUMPDEST PUSH2 0xD9 JUMP JUMPDEST STOP JUMPDEST PUSH2 0x87 PUSH1 0x4 DUP1 CALLDATASIZE SUB DUP2 ADD SWAP1 PUSH2 0x82 SWAP2 SWAP1 PUSH2 0x911 JUMP JUMPDEST PUSH2 0x1BE JUMP JUMPDEST STOP JUMPDEST PUSH2 0xA3 PUSH1 0x4 DUP1 CALLDATASIZE SUB DUP2 ADD SWAP1 PUSH2 0x9E SWAP2 SWAP1 PUSH2 0x96D JUMP JUMPDEST PUSH2 0x37B JUMP JUMPDEST PUSH1 0x40 MLOAD PUSH2 0xB4 SWAP6 SWAP5 SWAP4 SWAP3 SWAP2 SWAP1 PUSH2 0xA5F JUMP JUMPDEST PUSH1 0x40 MLOAD DUP1 SWAP2 SUB SWAP1 RETURN JUMPDEST PUSH2 0xD7 PUSH1 0x4 DUP1 CALLDATASIZE SUB DUP2 ADD SWAP1 PUSH2 0xD2 SWAP2 SWAP1 PUSH2 0x83B JUMP JUMPDEST PUSH2 0x58C JUMP JUMPDEST STOP JUMPDEST PUSH1 0x0 DUP1 DUP4 PUSH1 0x40 MLOAD PUSH2 0xEA SWAP2 SWAP1 PUSH2 0xB03 JUMP JUMPDEST SWAP1 DUP2 MSTORE PUSH1 0x20 ADD PUSH1 0x40 MLOAD DUP1 SWAP2 SUB SWAP1 KECCAK256 SWAP1 POP DUP3 DUP2 PUSH1 0x0 ADD SWAP1 DUP2 PUSH2 0x10B SWAP2 SWAP1 PUSH2 0xD30 JUMP JUMPDEST POP DUP2 DUP2 PUSH1 0x1 ADD SWAP1 DUP2 PUSH2 0x11D SWAP2 SWAP1 PUSH2 0xD30 JUMP JUMPDEST POP CALLER DUP2 PUSH1 0x2 ADD PUSH1 0x0 PUSH2 0x100 EXP DUP2 SLOAD DUP2 PUSH20 0xFFFFFFFFFFFFFFFFFFFFFFFFFFFFFFFFFFFFFFFF MUL NOT AND SWAP1 DUP4 PUSH20 0xFFFFFFFFFFFFFFFFFFFFFFFFFFFFFFFFFFFFFFFF AND MUL OR SWAP1 SSTORE POP PUSH1 0x0 DUP2 PUSH1 0x2 ADD PUSH1 0x14 PUSH2 0x100 EXP DUP2 SLOAD DUP2 PUSH1 0xFF MUL NOT AND SWAP1 DUP4 ISZERO ISZERO MUL OR SWAP1 SSTORE POP PUSH32 0xBEB56548B54488857A76D3FD323BBFD0C3C369E91BE7AF846181E9ECD29CC481 DUP4 DUP4 CALLER PUSH1 0x40 MLOAD PUSH2 0x1B1 SWAP4 SWAP3 SWAP2 SWAP1 PUSH2 0xE02 JUMP JUMPDEST PUSH1 0x40 MLOAD DUP1 SWAP2 SUB SWAP1 LOG1 POP POP POP JUMP JUMPDEST CALLER PUSH20 0xFFFFFFFFFFFFFFFFFFFFFFFFFFFFFFFFFFFFFFFF AND PUSH1 0x0 DUP4 PUSH1 0x40 MLOAD PUSH2 0x1E5 SWAP2 SWAP1 PUSH2 0xB03 JUMP JUMPDEST SWAP1 DUP2 MSTORE PUSH1 0x20 ADD PUSH1 0x40 MLOAD DUP1 SWAP2 SUB SWAP1 KECCAK256 PUSH1 0x2 ADD PUSH1 0x0 SWAP1 SLOAD SWAP1 PUSH2 0x100 EXP SWAP1 DIV PUSH20 0xFFFFFFFFFFFFFFFFFFFFFFFFFFFFFFFFFFFFFFFF AND PUSH20 0xFFFFFFFFFFFFFFFFFFFFFFFFFFFFFFFFFFFFFFFF AND EQ PUSH2 0x26D JUMPI PUSH1 0x40 MLOAD PUSH32 0x8C379A000000000000000000000000000000000000000000000000000000000 DUP2 MSTORE PUSH1 0x4 ADD PUSH2 0x264 SWAP1 PUSH2 0xE93 JUMP JUMPDEST PUSH1 0x40 MLOAD DUP1 SWAP2 SUB SWAP1 REVERT JUMPDEST PUSH1 0x0 DUP3 PUSH1 0x40 MLOAD PUSH2 0x27D SWAP2 SWAP1 PUSH2 0xB03 JUMP JUMPDEST SWAP1 DUP2 MSTORE PUSH1 0x20 ADD PUSH1 0x40 MLOAD DUP1 SWAP2 SUB SWAP1 KECCAK256 PUSH1 0x2 ADD PUSH1 0x14 SWAP1 SLOAD SWAP1 PUSH2 0x100 EXP SWAP1 DIV PUSH1 0xFF AND ISZERO PUSH2 0x2DC JUMPI PUSH1 0x40 MLOAD PUSH32 0x8C379A000000000000000000000000000000000000000000000000000000000 DUP2 MSTORE PUSH1 0x4 ADD PUSH2 0x2D3 SWAP1 PUSH2 0xEFF JUMP JUMPDEST PUSH1 0x40 MLOAD DUP1 SWAP2 SUB SWAP1 REVERT JUMPDEST DUP1 PUSH1 0x0 DUP4 PUSH1 0x40 MLOAD PUSH2 0x2ED SWAP2 SWAP1 PUSH2 0xB03 JUMP JUMPDEST SWAP1 DUP2 MSTORE PUSH1 0x20 ADD PUSH1 0x40 MLOAD DUP1 SWAP2 SUB SWAP1 KECCAK256 PUSH1 0x2 ADD PUSH1 0x0 PUSH2 0x100 EXP DUP2 SLOAD DUP2 PUSH20 0xFFFFFFFFFFFFFFFFFFFFFFFFFFFFFFFFFFFFFFFF MUL NOT AND SWAP1 DUP4 PUSH20 0xFFFFFFFFFFFFFFFFFFFFFFFFFFFFFFFFFFFFFFFF AND MUL OR SWAP1 SSTORE POP PUSH32 0x33D7DDB6876549915CD9795A7DBEC423444D42E83357274141980B02388041D7 DUP3 CALLER DUP4 PUSH1 0x40 MLOAD PUSH2 0x36F SWAP4 SWAP3 SWAP2 SWAP1 PUSH2 0xF1F JUMP JUMPDEST PUSH1 0x40 MLOAD DUP1 SWAP2 SUB SWAP1 LOG1 POP POP JUMP JUMPDEST PUSH1 0x0 DUP2 DUP1 MLOAD PUSH1 0x20 DUP2 ADD DUP3 ADD DUP1 MLOAD DUP5 DUP3 MSTORE PUSH1 0x20 DUP4 ADD PUSH1 0x20 DUP6 ADD KECCAK256 DUP2 DUP4 MSTORE DUP1 SWAP6 POP POP POP POP POP POP PUSH1 0x0 SWAP2 POP SWAP1 POP DUP1 PUSH1 0x0 ADD DUP1 SLOAD PUSH2 0x3B4 SWAP1 PUSH2 0xB49 JUMP JUMPDEST DUP1 PUSH1 0x1F ADD PUSH1 0x20 DUP1 SWAP2 DIV MUL PUSH1 0x20 ADD PUSH1 0x40 MLOAD SWAP1 DUP2 ADD PUSH1 0x40 MSTORE DUP1 SWAP3 SWAP2 SWAP1 DUP2 DUP2 MSTORE PUSH1 0x20 ADD DUP3 DUP1 SLOAD PUSH2 0x3E0 SWAP1 PUSH2 0xB49 JUMP JUMPDEST DUP1 ISZERO PUSH2 0x42D JUMPI DUP1 PUSH1 0x1F LT PUSH2 0x402 JUMPI PUSH2 0x100 DUP1 DUP4 SLOAD DIV MUL DUP4 MSTORE SWAP2 PUSH1 0x20 ADD SWAP2 PUSH2 0x42D JUMP JUMPDEST DUP3 ADD SWAP2 SWAP1 PUSH1 0x0 MSTORE PUSH1 0x20 PUSH1 0x0 KECCAK256 SWAP1 JUMPDEST DUP2 SLOAD DUP2 MSTORE SWAP1 PUSH1 0x1 ADD SWAP1 PUSH1 0x20 ADD DUP1 DUP4 GT PUSH2 0x410 JUMPI DUP3 SWAP1 SUB PUSH1 0x1F AND DUP3 ADD SWAP2 JUMPDEST POP POP POP POP POP SWAP1 DUP1 PUSH1 0x1 ADD DUP1 SLOAD PUSH2 0x442 SWAP1 PUSH2 0xB49 JUMP JUMPDEST DUP1 PUSH1 0x1F ADD PUSH1 0x20 DUP1 SWAP2 DIV MUL PUSH1 0x20 ADD PUSH1 0x40 MLOAD SWAP1 DUP2 ADD PUSH1 0x40 MSTORE DUP1 SWAP3 SWAP2 SWAP1 DUP2 DUP2 MSTORE PUSH1 0x20 ADD DUP3 DUP1 SLOAD PUSH2 0x46E SWAP1 PUSH2 0xB49 JUMP JUMPDEST DUP1 ISZERO PUSH2 0x4BB JUMPI DUP1 PUSH1 0x1F LT PUSH2 0x490 JUMPI PUSH2 0x100 DUP1 DUP4 SLOAD DIV MUL DUP4 MSTORE SWAP2 PUSH1 0x20 ADD SWAP2 PUSH2 0x4BB JUMP JUMPDEST DUP3 ADD SWAP2 SWAP1 PUSH1 0x0 MSTORE PUSH1 0x20 PUSH1 0x0 KECCAK256 SWAP1 JUMPDEST DUP2 SLOAD DUP2 MSTORE SWAP1 PUSH1 0x1 ADD SWAP1 PUSH1 0x20 ADD DUP1 DUP4 GT PUSH2 0x49E JUMPI DUP3 SWAP1 SUB PUSH1 0x1F AND DUP3 ADD SWAP2 JUMPDEST POP POP POP POP POP SWAP1 DUP1 PUSH1 0x2 ADD PUSH1 0x0 SWAP1 SLOAD SWAP1 PUSH2 0x100 EXP SWAP1 DIV PUSH20 0xFFFFFFFFFFFFFFFFFFFFFFFFFFFFFFFFFFFFFFFF AND SWAP1 DUP1 PUSH1 0x2 ADD PUSH1 0x14 SWAP1 SLOAD SWAP1 PUSH2 0x100 EXP SWAP1 DIV PUSH1 0xFF AND SWAP1 DUP1 PUSH1 0x3 ADD DUP1 SLOAD PUSH2 0x509 SWAP1 PUSH2 0xB49 JUMP JUMPDEST DUP1 PUSH1 0x1F ADD PUSH1 0x20 DUP1 SWAP2 DIV MUL PUSH1 0x20 ADD PUSH1 0x40 MLOAD SWAP1 DUP2 ADD PUSH1 0x40 MSTORE DUP1 SWAP3 SWAP2 SWAP1 DUP2 DUP2 MSTORE PUSH1 0x20 ADD DUP3 DUP1 SLOAD PUSH2 0x535 SWAP1 PUSH2 0xB49 JUMP JUMPDEST DUP1 ISZERO PUSH2 0x582 JUMPI DUP1 PUSH1 0x1F LT PUSH2 0x557 JUMPI PUSH2 0x100 DUP1 DUP4 SLOAD DIV MUL DUP4 MSTORE SWAP2 PUSH1 0x20 ADD SWAP2 PUSH2 0x582 JUMP JUMPDEST DUP3 ADD SWAP2 SWAP1 PUSH1 0x0 MSTORE PUSH1 0x20 PUSH1 0x0 KECCAK256 SWAP1 JUMPDEST DUP2 SLOAD DUP2 MSTORE SWAP1 PUSH1 0x1 ADD SWAP1 PUSH1 0x20 ADD DUP1 DUP4 GT PUSH2 0x565 JUMPI DUP3 SWAP1 SUB PUSH1 0x1F AND DUP3 ADD SWAP2 JUMPDEST POP POP POP POP POP SWAP1 POP DUP6 JUMP JUMPDEST CALLER PUSH20 0xFFFFFFFFFFFFFFFFFFFFFFFFFFFFFFFFFFFFFFFF AND PUSH1 0x0 DUP4 PUSH1 0x40 MLOAD PUSH2 0x5B3 SWAP2 SWAP1 PUSH2 0xB03 JUMP JUMPDEST SWAP1 DUP2 MSTORE PUSH1 0x20 ADD PUSH1 0x40 MLOAD DUP1 SWAP2 SUB SWAP1 KECCAK256 PUSH1 0x2 ADD PUSH1 0x0 SWAP1 SLOAD SWAP1 PUSH2 0x100 EXP SWAP1 DIV PUSH20 0xFFFFFFFFFFFFFFFFFFFFFFFFFFFFFFFFFFFFFFFF AND PUSH20 0xFFFFFFFFFFFFFFFFFFFFFFFFFFFFFFFFFFFFFFFF AND EQ PUSH2 0x63B JUMPI PUSH1 0x40 MLOAD PUSH32 0x8C379A000000000000000000000000000000000000000000000000000000000 DUP2 MSTORE PUSH1 0x4 ADD PUSH2 0x632 SWAP1 PUSH2 0xE93 JUMP JUMPDEST PUSH1 0x40 MLOAD DUP1 SWAP2 SUB SWAP1 REVERT JUMPDEST PUSH1 0x1 PUSH1 0x0 DUP4 PUSH1 0x40 MLOAD PUSH2 0x64D SWAP2 SWAP1 PUSH2 0xB03 JUMP JUMPDEST SWAP1 DUP2 MSTORE PUSH1 0x20 ADD PUSH1 0x40 MLOAD DUP1 SWAP2 SUB SWAP1 KECCAK256 PUSH1 0x2 ADD PUSH1 0x14 PUSH2 0x100 EXP DUP2 SLOAD DUP2 PUSH1 0xFF MUL NOT AND SWAP1 DUP4 ISZERO ISZERO MUL OR SWAP1 SSTORE POP DUP1 PUSH1 0x0 DUP4 PUSH1 0x40 MLOAD PUSH2 0x686 SWAP2 SWAP1 PUSH2 0xB03 JUMP JUMPDEST SWAP1 DUP2 MSTORE PUSH1 0x20 ADD PUSH1 0x40 MLOAD DUP1 SWAP2 SUB SWAP1 KECCAK256 PUSH1 0x3 ADD SWAP1 DUP2 PUSH2 0x6A3 SWAP2 SWAP1 PUSH2 0xD30 JUMP JUMPDEST POP PUSH32 0x39C936BB3FD9E48F6CB108244BF6D5EFCEF52FBA82547ABC61A3144BA15448C2 DUP3 DUP3 PUSH1 0x40 MLOAD PUSH2 0x6D5 SWAP3 SWAP2 SWAP1 PUSH2 0xF5D JUMP JUMPDEST PUSH1 0x40 MLOAD DUP1 SWAP2 SUB SWAP1 LOG1 POP POP JUMP JUMPDEST PUSH1 0x0 PUSH1 0x40 MLOAD SWAP1 POP SWAP1 JUMP JUMPDEST PUSH1 0x0 DUP1 REVERT JUMPDEST PUSH1 0x0 DUP1 REVERT JUMPDEST PUSH1 0x0 DUP1 REVERT JUMPDEST PUSH1 0x0 DUP1 REVERT JUMPDEST PUSH1 0x0 PUSH1 0x1F NOT PUSH1 0x1F DUP4 ADD AND SWAP1 POP SWAP2 SWAP1 POP JUMP JUMPDEST PUSH32 0x4E487B7100000000000000000000000000000000000000000000000000000000 PUSH1 0x0 MSTORE PUSH1 0x41 PUSH1 0x4 MSTORE PUSH1 0x24 PUSH1 0x0 REVERT JUMPDEST PUSH2 0x748 DUP3 PUSH2 0x6FF JUMP JUMPDEST DUP2 ADD DUP2 DUP2 LT PUSH8 0xFFFFFFFFFFFFFFFF DUP3 GT OR ISZERO PUSH2 0x767 JUMPI PUSH2 0x766 PUSH2 0x710 JUMP JUMPDEST JUMPDEST DUP1 PUSH1 0x40 MSTORE POP POP POP JUMP JUMPDEST PUSH1 0x0 PUSH2 0x77A PUSH2 0x6E1 JUMP JUMPDEST SWAP1 POP PUSH2 0x786 DUP3 DUP3 PUSH2 0x73F JUMP JUMPDEST SWAP2 SWAP1 POP JUMP JUMPDEST PUSH1 0x0 PUSH8 0xFFFFFFFFFFFFFFFF DUP3 GT ISZERO PUSH2 0x7A6 JUMPI PUSH2 0x7A5 PUSH2 0x710 JUMP JUMPDEST JUMPDEST PUSH2 0x7AF DUP3 PUSH2 0x6FF JUMP JUMPDEST SWAP1 POP PUSH1 0x20 DUP2 ADD SWAP1 POP SWAP2 SWAP1 POP JUMP JUMPDEST DUP3 DUP2 DUP4 CALLDATACOPY PUSH1 0x0 DUP4 DUP4 ADD MSTORE POP POP POP JUMP JUMPDEST PUSH1 0x0 PUSH2 0x7DE PUSH2 0x7D9 DUP5 PUSH2 0x78B JUMP JUMPDEST PUSH2 0x770 JUMP JUMPDEST SWAP1 POP DUP3 DUP2 MSTORE PUSH1 0x20 DUP2 ADD DUP5 DUP5 DUP5 ADD GT ISZERO PUSH2 0x7FA JUMPI PUSH2 0x7F9 PUSH2 0x6FA JUMP JUMPDEST JUMPDEST PUSH2 0x805 DUP5 DUP3 DUP6 PUSH2 0x7BC JUMP JUMPDEST POP SWAP4 SWAP3 POP POP POP JUMP JUMPDEST PUSH1 0x0 DUP3 PUSH1 0x1F DUP4 ADD SLT PUSH2 0x822 JUMPI PUSH2 0x821 PUSH2 0x6F5 JUMP JUMPDEST JUMPDEST DUP2 CALLDATALOAD PUSH2 0x832 DUP5 DUP3 PUSH1 0x20 DUP7 ADD PUSH2 0x7CB JUMP JUMPDEST SWAP2 POP POP SWAP3 SWAP2 POP POP JUMP JUMPDEST PUSH1 0x0 DUP1 PUSH1 0x40 DUP4 DUP6 SUB SLT ISZERO PUSH2 0x852 JUMPI PUSH2 0x851 PUSH2 0x6EB JUMP JUMPDEST JUMPDEST PUSH1 0x0 DUP4 ADD CALLDATALOAD PUSH8 0xFFFFFFFFFFFFFFFF DUP2 GT ISZERO PUSH2 0x870 JUMPI PUSH2 0x86F PUSH2 0x6F0 JUMP JUMPDEST JUMPDEST PUSH2 0x87C DUP6 DUP3 DUP7 ADD PUSH2 0x80D JUMP JUMPDEST SWAP3 POP POP PUSH1 0x20 DUP4 ADD CALLDATALOAD PUSH8 0xFFFFFFFFFFFFFFFF DUP2 GT ISZERO PUSH2 0x89D JUMPI PUSH2 0x89C PUSH2 0x6F0 JUMP JUMPDEST JUMPDEST PUSH2 0x8A9 DUP6 DUP3 DUP7 ADD PUSH2 0x80D JUMP JUMPDEST SWAP2 POP POP SWAP3 POP SWAP3 SWAP1 POP JUMP JUMPDEST PUSH1 0x0 PUSH20 0xFFFFFFFFFFFFFFFFFFFFFFFFFFFFFFFFFFFFFFFF DUP3 AND SWAP1 POP SWAP2 SWAP1 POP JUMP JUMPDEST PUSH1 0x0 PUSH2 0x8DE DUP3 PUSH2 0x8B3 JUMP JUMPDEST SWAP1 POP SWAP2 SWAP1 POP JUMP JUMPDEST PUSH2 0x8EE DUP2 PUSH2 0x8D3 JUMP JUMPDEST DUP2 EQ PUSH2 0x8F9 JUMPI PUSH1 0x0 DUP1 REVERT JUMPDEST POP JUMP JUMPDEST PUSH1 0x0 DUP2 CALLDATALOAD SWAP1 POP PUSH2 0x90B DUP2 PUSH2 0x8E5 JUMP JUMPDEST SWAP3 SWAP2 POP POP JUMP JUMPDEST PUSH1 0x0 DUP1 PUSH1 0x40 DUP4 DUP6 SUB SLT ISZERO PUSH2 0x928 JUMPI PUSH2 0x927 PUSH2 0x6EB JUMP JUMPDEST JUMPDEST PUSH1 0x0 DUP4 ADD CALLDATALOAD PUSH8 0xFFFFFFFFFFFFFFFF DUP2 GT ISZERO PUSH2 0x946 JUMPI PUSH2 0x945 PUSH2 0x6F0 JUMP JUMPDEST JUMPDEST PUSH2 0x952 DUP6 DUP3 DUP7 ADD PUSH2 0x80D JUMP JUMPDEST SWAP3 POP POP PUSH1 0x20 PUSH2 0x963 DUP6 DUP3 DUP7 ADD PUSH2 0x8FC JUMP JUMPDEST SWAP2 POP POP SWAP3 POP SWAP3 SWAP1 POP JUMP JUMPDEST PUSH1 0x0 PUSH1 0x20 DUP3 DUP5 SUB SLT ISZERO PUSH2 0x983 JUMPI PUSH2 0x982 PUSH2 0x6EB JUMP JUMPDEST JUMPDEST PUSH1 0x0 DUP3 ADD CALLDATALOAD PUSH8 0xFFFFFFFFFFFFFFFF DUP2 GT ISZERO PUSH2 0x9A1 JUMPI PUSH2 0x9A0 PUSH2 0x6F0 JUMP JUMPDEST JUMPDEST PUSH2 0x9AD DUP5 DUP3 DUP6 ADD PUSH2 0x80D JUMP JUMPDEST SWAP2 POP POP SWAP3 SWAP2 POP POP JUMP JUMPDEST PUSH1 0x0 DUP2 MLOAD SWAP1 POP SWAP2 SWAP1 POP JUMP JUMPDEST PUSH1 0x0 DUP3 DUP3 MSTORE PUSH1 0x20 DUP3 ADD SWAP1 POP SWAP3 SWAP2 POP POP JUMP JUMPDEST PUSH1 0x0 JUMPDEST DUP4 DUP2 LT ISZERO PUSH2 0x9F0 JUMPI DUP1 DUP3 ADD MLOAD DUP2 DUP5 ADD MSTORE PUSH1 0x20 DUP2 ADD SWAP1 POP PUSH2 0x9D5 JUMP JUMPDEST PUSH1 0x0 DUP5 DUP5 ADD MSTORE POP POP POP POP JUMP JUMPDEST PUSH1 0x0 PUSH2 0xA07 DUP3 PUSH2 0x9B6 JUMP JUMPDEST PUSH2 0xA11 DUP2 DUP6 PUSH2 0x9C1 JUMP JUMPDEST SWAP4 POP PUSH2 0xA21 DUP2 DUP6 PUSH1 0x20 DUP7 ADD PUSH2 0x9D2 JUMP JUMPDEST PUSH2 0xA2A DUP2 PUSH2 0x6FF JUMP JUMPDEST DUP5 ADD SWAP2 POP POP SWAP3 SWAP2 POP POP JUMP JUMPDEST PUSH2 0xA3E DUP2 PUSH2 0x8D3 JUMP JUMPDEST DUP3 MSTORE POP POP JUMP JUMPDEST PUSH1 0x0 DUP2 ISZERO ISZERO SWAP1 POP SWAP2 SWAP1 POP JUMP JUMPDEST PUSH2 0xA59 DUP2 PUSH2 0xA44 JUMP JUMPDEST DUP3 MSTORE POP POP JUMP JUMPDEST PUSH1 0x0 PUSH1 0xA0 DUP3 ADD SWAP1 POP DUP2 DUP2 SUB PUSH1 0x0 DUP4 ADD MSTORE PUSH2 0xA79 DUP2 DUP9 PUSH2 0x9FC JUMP JUMPDEST SWAP1 POP DUP2 DUP2 SUB PUSH1 0x20 DUP4 ADD MSTORE PUSH2 0xA8D DUP2 DUP8 PUSH2 0x9FC JUMP JUMPDEST SWAP1 POP PUSH2 0xA9C PUSH1 0x40 DUP4 ADD DUP7 PUSH2 0xA35 JUMP JUMPDEST PUSH2 0xAA9 PUSH1 0x60 DUP4 ADD DUP6 PUSH2 0xA50 JUMP JUMPDEST DUP2 DUP2 SUB PUSH1 0x80 DUP4 ADD MSTORE PUSH2 0xABB DUP2 DUP5 PUSH2 0x9FC JUMP JUMPDEST SWAP1 POP SWAP7 SWAP6 POP POP POP POP POP POP JUMP JUMPDEST PUSH1 0x0 DUP2 SWAP1 POP SWAP3 SWAP2 POP POP JUMP JUMPDEST PUSH1 0x0 PUSH2 0xADD DUP3 PUSH2 0x9B6 JUMP JUMPDEST PUSH2 0xAE7 DUP2 DUP6 PUSH2 0xAC7 JUMP JUMPDEST SWAP4 POP PUSH2 0xAF7 DUP2 DUP6 PUSH1 0x20 DUP7 ADD PUSH2 0x9D2 JUMP JUMPDEST DUP1 DUP5 ADD SWAP2 POP POP SWAP3 SWAP2 POP POP JUMP JUMPDEST PUSH1 0x0 PUSH2 0xB0F DUP3 DUP5 PUSH2 0xAD2 JUMP JUMPDEST SWAP2 POP DUP2 SWAP1 POP SWAP3 SWAP2 POP POP JUMP JUMPDEST PUSH32 0x4E487B7100000000000000000000000000000000000000000000000000000000 PUSH1 0x0 MSTORE PUSH1 0x22 PUSH1 0x4 MSTORE PUSH1 0x24 PUSH1 0x0 REVERT JUMPDEST PUSH1 0x0 PUSH1 0x2 DUP3 DIV SWAP1 POP PUSH1 0x1 DUP3 AND DUP1 PUSH2 0xB61 JUMPI PUSH1 0x7F DUP3 AND SWAP2 POP JUMPDEST PUSH1 0x20 DUP3 LT DUP2 SUB PUSH2 0xB74 JUMPI PUSH2 0xB73 PUSH2 0xB1A JUMP JUMPDEST JUMPDEST POP SWAP2 SWAP1 POP JUMP JUMPDEST PUSH1 0x0 DUP2 SWAP1 POP DUP2 PUSH1 0x0 MSTORE PUSH1 0x20 PUSH1 0x0 KECCAK256 SWAP1 POP SWAP2 SWAP1 POP JUMP JUMPDEST PUSH1 0x0 PUSH1 0x20 PUSH1 0x1F DUP4 ADD DIV SWAP1 POP SWAP2 SWAP1 POP JUMP JUMPDEST PUSH1 0x0 DUP3 DUP3 SHL SWAP1 POP SWAP3 SWAP2 POP POP JUMP JUMPDEST PUSH1 0x0 PUSH1 0x8 DUP4 MUL PUSH2 0xBDC PUSH32 0xFFFFFFFFFFFFFFFFFFFFFFFFFFFFFFFFFFFFFFFFFFFFFFFFFFFFFFFFFFFFFFFF DUP3 PUSH2 0xB9F JUMP JUMPDEST PUSH2 0xBE6 DUP7 DUP4 PUSH2 0xB9F JUMP JUMPDEST SWAP6 POP DUP1 NOT DUP5 AND SWAP4 POP DUP1 DUP7 AND DUP5 OR SWAP3 POP POP POP SWAP4 SWAP3 POP POP POP JUMP JUMPDEST PUSH1 0x0 DUP2 SWAP1 POP SWAP2 SWAP1 POP JUMP JUMPDEST PUSH1 0x0 DUP2 SWAP1 POP SWAP2 SWAP1 POP JUMP JUMPDEST PUSH1 0x0 PUSH2 0xC2D PUSH2 0xC28 PUSH2 0xC23 DUP5 PUSH2 0xBFE JUMP JUMPDEST PUSH2 0xC08 JUMP JUMPDEST PUSH2 0xBFE JUMP JUMPDEST SWAP1 POP SWAP2 SWAP1 POP JUMP JUMPDEST PUSH1 0x0 DUP2 SWAP1 POP SWAP2 SWAP1 POP JUMP JUMPDEST PUSH2 0xC47 DUP4 PUSH2 0xC12 JUMP JUMPDEST PUSH2 0xC5B PUSH2 0xC53 DUP3 PUSH2 0xC34 JUMP JUMPDEST DUP5 DUP5 SLOAD PUSH2 0xBAC JUMP JUMPDEST DUP3 SSTORE POP POP POP POP JUMP JUMPDEST PUSH1 0x0 SWAP1 JUMP JUMPDEST PUSH2 0xC70 PUSH2 0xC63 JUMP JUMPDEST PUSH2 0xC7B DUP2 DUP5 DUP5 PUSH2 0xC3E JUMP JUMPDEST POP POP POP JUMP JUMPDEST JUMPDEST DUP2 DUP2 LT ISZERO PUSH2 0xC9F JUMPI PUSH2 0xC94 PUSH1 0x0 DUP3 PUSH2 0xC68 JUMP JUMPDEST PUSH1 0x1 DUP2 ADD SWAP1 POP PUSH2 0xC81 JUMP JUMPDEST POP POP JUMP JUMPDEST PUSH1 0x1F DUP3 GT ISZERO PUSH2 0xCE4 JUMPI PUSH2 0xCB5 DUP2 PUSH2 0xB7A JUMP JUMPDEST PUSH2 0xCBE DUP5 PUSH2 0xB8F JUMP JUMPDEST DUP2 ADD PUSH1 0x20 DUP6 LT ISZERO PUSH2 0xCCD JUMPI DUP2 SWAP1 POP JUMPDEST PUSH2 0xCE1 PUSH2 0xCD9 DUP6 PUSH2 0xB8F JUMP JUMPDEST DUP4 ADD DUP3 PUSH2 0xC80 JUMP JUMPDEST POP POP JUMPDEST POP POP POP JUMP JUMPDEST PUSH1 0x0 DUP3 DUP3 SHR SWAP1 POP SWAP3 SWAP2 POP POP JUMP JUMPDEST PUSH1 0x0 PUSH2 0xD07 PUSH1 0x0 NOT DUP5 PUSH1 0x8 MUL PUSH2 0xCE9 JUMP JUMPDEST NOT DUP1 DUP4 AND SWAP2 POP POP SWAP3 SWAP2 POP POP JUMP JUMPDEST PUSH1 0x0 PUSH2 0xD20 DUP4 DUP4 PUSH2 0xCF6 JUMP JUMPDEST SWAP2 POP DUP3 PUSH1 0x2 MUL DUP3 OR SWAP1 POP SWAP3 SWAP2 POP POP JUMP JUMPDEST PUSH2 0xD39 DUP3 PUSH2 0x9B6 JUMP JUMPDEST PUSH8 0xFFFFFFFFFFFFFFFF DUP2 GT ISZERO PUSH2 0xD52 JUMPI PUSH2 0xD51 PUSH2 0x710 JUMP JUMPDEST JUMPDEST PUSH2 0xD5C DUP3 SLOAD PUSH2 0xB49 JUMP JUMPDEST PUSH2 0xD67 DUP3 DUP3 DUP6 PUSH2 0xCA3 JUMP JUMPDEST PUSH1 0x0 PUSH1 0x20 SWAP1 POP PUSH1 0x1F DUP4 GT PUSH1 0x1 DUP2 EQ PUSH2 0xD9A JUMPI PUSH1 0x0 DUP5 ISZERO PUSH2 0xD88 JUMPI DUP3 DUP8 ADD MLOAD SWAP1 POP JUMPDEST PUSH2 0xD92 DUP6 DUP3 PUSH2 0xD14 JUMP JUMPDEST DUP7 SSTORE POP PUSH2 0xDFA JUMP JUMPDEST PUSH1 0x1F NOT DUP5 AND PUSH2 0xDA8 DUP7 PUSH2 0xB7A JUMP JUMPDEST PUSH1 0x0 JUMPDEST DUP3 DUP2 LT ISZERO PUSH2 0xDD0 JUMPI DUP5 DUP10 ADD MLOAD DUP3 SSTORE PUSH1 0x1 DUP3 ADD SWAP2 POP PUSH1 0x20 DUP6 ADD SWAP5 POP PUSH1 0x20 DUP2 ADD SWAP1 POP PUSH2 0xDAB JUMP JUMPDEST DUP7 DUP4 LT ISZERO PUSH2 0xDED JUMPI DUP5 DUP10 ADD MLOAD PUSH2 0xDE9 PUSH1 0x1F DUP10 AND DUP3 PUSH2 0xCF6 JUMP JUMPDEST DUP4 SSTORE POP JUMPDEST PUSH1 0x1 PUSH1 0x2 DUP9 MUL ADD DUP9 SSTORE POP POP POP JUMPDEST POP POP POP POP POP POP JUMP JUMPDEST PUSH1 0x0 PUSH1 0x60 DUP3 ADD SWAP1 POP DUP2 DUP2 SUB PUSH1 0x0 DUP4 ADD MSTORE PUSH2 0xE1C DUP2 DUP7 PUSH2 0x9FC JUMP JUMPDEST SWAP1 POP DUP2 DUP2 SUB PUSH1 0x20 DUP4 ADD MSTORE PUSH2 0xE30 DUP2 DUP6 PUSH2 0x9FC JUMP JUMPDEST SWAP1 POP PUSH2 0xE3F PUSH1 0x40 DUP4 ADD DUP5 PUSH2 0xA35 JUMP JUMPDEST SWAP5 SWAP4 POP POP POP POP JUMP JUMPDEST PUSH32 0x4E6F7420746865206F776E657200000000000000000000000000000000000000 PUSH1 0x0 DUP3 ADD MSTORE POP JUMP JUMPDEST PUSH1 0x0 PUSH2 0xE7D PUSH1 0xD DUP4 PUSH2 0x9C1 JUMP JUMPDEST SWAP2 POP PUSH2 0xE88 DUP3 PUSH2 0xE47 JUMP JUMPDEST PUSH1 0x20 DUP3 ADD SWAP1 POP SWAP2 SWAP1 POP JUMP JUMPDEST PUSH1 0x0 PUSH1 0x20 DUP3 ADD SWAP1 POP DUP2 DUP2 SUB PUSH1 0x0 DUP4 ADD MSTORE PUSH2 0xEAC DUP2 PUSH2 0xE70 JUMP JUMPDEST SWAP1 POP SWAP2 SWAP1 POP JUMP JUMPDEST PUSH32 0x43726564697420697320616C7265616479207265746972656400000000000000 PUSH1 0x0 DUP3 ADD MSTORE POP JUMP JUMPDEST PUSH1 0x0 PUSH2 0xEE9 PUSH1 0x19 DUP4 PUSH2 0x9C1 JUMP JUMPDEST SWAP2 POP PUSH2 0xEF4 DUP3 PUSH2 0xEB3 JUMP JUMPDEST PUSH1 0x20 DUP3 ADD SWAP1 POP SWAP2 SWAP1 POP JUMP JUMPDEST PUSH1 0x0 PUSH1 0x20 DUP3 ADD SWAP1 POP DUP2 DUP2 SUB PUSH1 0x0 DUP4 ADD MSTORE PUSH2 0xF18 DUP2 PUSH2 0xEDC JUMP JUMPDEST SWAP1 POP SWAP2 SWAP1 POP JUMP JUMPDEST PUSH1 0x0 PUSH1 0x60 DUP3 ADD SWAP1 POP DUP2 DUP2 SUB PUSH1 0x0 DUP4 ADD MSTORE PUSH2 0xF39 DUP2 DUP7 PUSH2 0x9FC JUMP JUMPDEST SWAP1 POP PUSH2 0xF48 PUSH1 0x20 DUP4 ADD DUP6 PUSH2 0xA35 JUMP JUMPDEST PUSH2 0xF55 PUSH1 0x40 DUP4 ADD DUP5 PUSH2 0xA35 JUMP JUMPDEST SWAP5 SWAP4 POP POP POP POP JUMP JUMPDEST PUSH1 0x0 PUSH1 0x40 DUP3 ADD SWAP1 POP DUP2 DUP2 SUB PUSH1 0x0 DUP4 ADD MSTORE PUSH2 0xF77 DUP2 DUP6 PUSH2 0x9FC JUMP JUMPDEST SWAP1 POP DUP2 DUP2 SUB PUSH1 0x20 DUP4 ADD MSTORE PUSH2 0xF8B DUP2 DUP5 PUSH2 0x9FC JUMP JUMPDEST SWAP1 POP SWAP4 SWAP3 POP POP POP JUMP INVALID LOG2 PUSH5 0x6970667358 0x22 SLT KECCAK256 0xD6 DUP3 RJUMP 0xD4C5 CALLCODE SWAP9 MCOPY TIMESTAMP 0xBD OR 0xAD CALLDATACOPY 0xEB 0xA7 0xBD 0xD2 DUP5 DUP5 SWAP9 0xAE STATICCALL SIGNEXTEND SUB 0xA8 PUSH9 0xBCFB176129F764736F PUSH13 0x634300081F0033000000000000 "
		},
		"gasEstimates": {
			"creation": {
				"codeDepositCost": "808400",
				"executionCost": "844",
				"totalCost": "809244"
			},
			"external": {
				"createCredit(string,string)": "infinite",
				"ledger(string)": "infinite",
				"retireCredit(string,string)": "infinite",
				"transferCredit(string,address)": "infinite"
			}
		},
		"methodIdentifiers": {
			"createCredit(string,string)": "1daa8ffc",
			"ledger(string)": "535d9b42",
			"retireCredit(string,string)": "947788bc",
			"transferCredit(string,address)": "43f179c0"
		}
	},
	"abi": [
		{
			"anonymous": false,
			"inputs": [
				{
					"indexed": false,
					"internalType": "string",
					"name": "id",
					"type": "string"
				},
				{
					"indexed": false,
					"internalType": "string",
					"name": "project",
					"type": "string"
				},
				{
					"indexed": false,
					"internalType": "address",
					"name": "owner",
					"type": "address"
				}
			],
			"name": "CreditIssued",
			"type": "event"
		},
		{
			"anonymous": false,
			"inputs": [
				{
					"indexed": false,
					"internalType": "string",
					"name": "id",
					"type": "string"
				},
				{
					"indexed": false,
					"internalType": "string",
					"name": "purpose",
					"type": "string"
				}
			],
			"name": "CreditRetired",
			"type": "event"
		},
		{
			"anonymous": false,
			"inputs": [
				{
					"indexed": false,
					"internalType": "string",
					"name": "id",
					"type": "string"
				},
				{
					"indexed": false,
					"internalType": "address",
					"name": "from",
					"type": "address"
				},
				{
					"indexed": false,
					"internalType": "address",
					"name": "to",
					"type": "address"
				}
			],
			"name": "CreditTransferred",
			"type": "event"
		},
		{
			"inputs": [
				{
					"internalType": "string",
					"name": "_id",
					"type": "string"
				},
				{
					"internalType": "string",
					"name": "_projId",
					"type": "string"
				}
			],
			"name": "createCredit",
			"outputs": [],
			"stateMutability": "nonpayable",
			"type": "function"
		},
		{
			"inputs": [
				{
					"internalType": "string",
					"name": "",
					"type": "string"
				}
			],
			"name": "ledger",
			"outputs": [
				{
					"internalType": "string",
					"name": "creditId",
					"type": "string"
				},
				{
					"internalType": "string",
					"name": "projectId",
					"type": "string"
				},
				{
					"internalType": "address",
					"name": "currentOwner",
					"type": "address"
				},
				{
					"internalType": "bool",
					"name": "isRetired",
					"type": "bool"
				},
				{
					"internalType": "string",
					"name": "retiredPurpose",
					"type": "string"
				}
			],
			"stateMutability": "view",
			"type": "function"
		},
		{
			"inputs": [
				{
					"internalType": "string",
					"name": "_id",
					"type": "string"
				},
				{
					"internalType": "string",
					"name": "_purpose",
					"type": "string"
				}
			],
			"name": "retireCredit",
			"outputs": [],
			"stateMutability": "nonpayable",
			"type": "function"
		},
		{
			"inputs": [
				{
					"internalType": "string",
					"name": "_id",
					"type": "string"
				},
				{
					"internalType": "address",
					"name": "_to",
					"type": "address"
				}
			],
			"name": "transferCredit",
			"outputs": [],
			"stateMutability": "nonpayable",
			"type": "function"
		}
	]
}