{
	"data": {
		"bytecode": {
			"linkReferences": {},
			"object": "6080604052348015600f57600080fd5b50336000806101000a81548173ffffffffffffffffffffffffffffffffffffffff021916908373ffffffffffffffffffffffffffffffffffffffff1602179055506117168061005f6000396000f3fe608060405234801561001057600080fd5b50600436106100575760003560e01c806305c107c81461005c5780631dc0a6a51461007857806343f179c014610096578063947788bc146100b2578063dcc1e336146100ce575b600080fd5b61007660048036038101906100719190610b7b565b610103565b005b610080610353565b60405161008d9190610ca7565b60405180910390f35b6100b060048036038101906100ab9190610cee565b610377565b005b6100cc60048036038101906100c79190610d4a565b6105d7565b005b6100e860048036038101906100e39190610dc2565b6107bd565b6040516100fa96959493929190610eb4565b60405180910390f35b60008054906101000a900473ffffffffffffffffffffffffffffffffffffffff1673ffffffffffffffffffffffffffffffffffffffff163373ffffffffffffffffffffffffffffffffffffffff1614610191576040517f08c379a000000000000000000000000000000000000000000000000000000000815260040161018890610f76565b60405180910390fd5b60006001866040516101a39190610fd2565b908152602001604051809103902060040154146101f5576040517f08c379a00000000000000000000000000000000000000000000000000000000081526004016101ec90611035565b60405180910390fd5b60006001866040516102079190610fd2565b90815260200160405180910390209050858160000190816102289190611261565b508481600101908161023a9190611261565b508381600201908161024c9190611261565b508281600301908161025e9190611261565b50818160040181905550338160050160006101000a81548173ffffffffffffffffffffffffffffffffffffffff021916908373ffffffffffffffffffffffffffffffffffffffff16021790555080600601339080600181540180825580915050600190039060005260206000200160009091909190916101000a81548173ffffffffffffffffffffffffffffffffffffffff021916908373ffffffffffffffffffffffffffffffffffffffff1602179055507f18333675623e02fb1a443aed0d08aafe80d54464e407da936d5921418c6636e78633846040516103439392919061137f565b60405180910390a1505050505050565b60008054906101000a900473ffffffffffffffffffffffffffffffffffffffff1681565b3373ffffffffffffffffffffffffffffffffffffffff1660018360405161039e9190610fd2565b908152602001604051809103902060050160009054906101000a900473ffffffffffffffffffffffffffffffffffffffff1673ffffffffffffffffffffffffffffffffffffffff1614610426576040517f08c379a000000000000000000000000000000000000000000000000000000000815260040161041d9061141c565b60405180910390fd5b6001826040516104369190610fd2565b908152602001604051809103902060070160009054906101000a900460ff1615610495576040517f08c379a000000000000000000000000000000000000000000000000000000000815260040161048c906114ae565b60405180910390fd5b806001836040516104a69190610fd2565b908152602001604051809103902060050160006101000a81548173ffffffffffffffffffffffffffffffffffffffff021916908373ffffffffffffffffffffffffffffffffffffffff1602179055506001826040516105059190610fd2565b9081526020016040518091039020600601819080600181540180825580915050600190039060005260206000200160009091909190916101000a81548173ffffffffffffffffffffffffffffffffffffffff021916908373ffffffffffffffffffffffffffffffffffffffff1602179055507f18333675623e02fb1a443aed0d08aafe80d54464e407da936d5921418c6636e782826001856040516105aa9190610fd2565b9081526020016040518091039020600401546040516105cb9392919061151a565b60405180910390a15050565b3373ffffffffffffffffffffffffffffffffffffffff166001836040516105fe9190610fd2565b908152602001604051809103902060050160009054906101000a900473ffffffffffffffffffffffffffffffffffffffff1673ffffffffffffffffffffffffffffffffffffffff1614610686576040517f08c379a000000000000000000000000000000000000000000000000000000000815260040161067d906115b7565b60405180910390fd5b6001826040516106969190610fd2565b908152602001604051809103902060070160009054906101000a900460ff16156106f5576040517f08c379a00000000000000000000000000000000000000000000000000000000081526004016106ec90611623565b60405180910390fd5b600180836040516107069190610fd2565b908152602001604051809103902060070160006101000a81548160ff0219169083151502179055508060018360405161073f9190610fd2565b9081526020016040518091039020600801908161075c9190611261565b507f18333675623e02fb1a443aed0d08aafe80d54464e407da936d5921418c6636e782336001856040516107909190610fd2565b9081526020016040518091039020600401546040516107b19392919061168f565b60405180910390a15050565b6060806000806000606060006001886040516107d99190610fd2565b90815260200160405180910390209050806000018160010182600401548360050160009054906101000a900473ffffffffffffffffffffffffffffffffffffffff168460070160009054906101000a900460ff168560080185805461083d90611084565b80601f016020809104026020016040519081016040528092919081815260200182805461086990611084565b80156108b65780601f1061088b576101008083540402835291602001916108b6565b820191906000526020600020905b81548152906001019060200180831161089957829003601f168201915b505050505095508480546108c990611084565b80601f01602080910402602001604051908101604052809291908181526020018280546108f590611084565b80156109425780601f1061091757610100808354040283529160200191610942565b820191906000526020600020905b81548152906001019060200180831161092557829003601f168201915b5050505050945080805461095590611084565b80601f016020809104026020016040519081016040528092919081815260200182805461098190611084565b80156109ce5780601f106109a3576101008083540402835291602001916109ce565b820191906000526020600020905b8154815290600101906020018083116109b157829003601f168201915b505050505090509650965096509650965096505091939550919395565b6000604051905090565b600080fd5b600080fd5b600080fd5b600080fd5b6000601f19601f8301169050919050565b7f4e487b7100000000000000000000000000000000000000000000000000000000600052604160045260246000fd5b610a5282610a09565b810181811067ffffffffffffffff82111715610a7157610a70610a1a565b5b80604052505050565b6000610a846109eb565b9050610a908282610a49565b919050565b600067ffffffffffffffff821115610ab057610aaf610a1a565b5b610ab982610a09565b9050602081019050919050565b82818337600083830152505050565b6000610ae8610ae384610a95565b610a7a565b905082815260208101848484011115610b0457610b03610a04565b5b610b0f848285610ac6565b509392505050565b600082601f830112610b2c57610b2b6109ff565b5b8135610b3c848260208601610ad5565b91505092915050565b6000819050919050565b610b5881610b45565b8114610b6357600080fd5b50565b600081359050610b7581610b4f565b92915050565b600080600080600060a08688031215610b9757610b966109f5565b5b600086013567ffffffffffffffff811115610bb557610bb46109fa565b5b610bc188828901610b17565b955050602086013567ffffffffffffffff811115610be257610be16109fa565b5b610bee88828901610b17565b945050604086013567ffffffffffffffff811115610c0f57610c0e6109fa565b5b610c1b88828901610b17565b935050606086013567ffffffffffffffff811115610c3c57610c3b6109fa565b5b610c4888828901610b17565b9250506080610c5988828901610b66565b9150509295509295909350565b600073ffffffffffffffffffffffffffffffffffffffff82169050919050565b6000610c9182610c66565b9050919050565b610ca181610c86565b82525050565b6000602082019050610cbc6000830184610c98565b92915050565b610ccb81610c86565b8114610cd657600080fd5b50565b600081359050610ce881610cc2565b92915050565b60008060408385031215610d0557610d046109f5565b5b600083013567ffffffffffffffff811115610d2357610d226109fa565b5b610d2f85828601610b17565b9250506020610d4085828601610cd9565b9150509250929050565b60008060408385031215610d6157610d606109f5565b5b600083013567ffffffffffffffff811115610d7f57610d7e6109fa565b5b610d8b85828601610b17565b925050602083013567ffffffffffffffff811115610dac57610dab6109fa565b5b610db885828601610b17565b9150509250929050565b600060208284031215610dd857610dd76109f5565b5b600082013567ffffffffffffffff811115610df657610df56109fa565b5b610e0284828501610b17565b91505092915050565b600081519050919050565b600082825260208201905092915050565b60005b83811015610e45578082015181840152602081019050610e2a565b60008484015250505050565b6000610e5c82610e0b565b610e668185610e16565b9350610e76818560208601610e27565b610e7f81610a09565b840191505092915050565b610e9381610b45565b82525050565b60008115159050919050565b610eae81610e99565b82525050565b600060c0820190508181036000830152610ece8189610e51565b90508181036020830152610ee28188610e51565b9050610ef16040830187610e8a565b610efe6060830186610c98565b610f0b6080830185610ea5565b81810360a0830152610f1d8184610e51565b9050979650505050505050565b7f4163636573732044656e6965643a204f6e6c7920526573656172636865720000600082015250565b6000610f60601e83610e16565b9150610f6b82610f2a565b602082019050919050565b60006020820190508181036000830152610f8f81610f53565b9050919050565b600081905092915050565b6000610fac82610e0b565b610fb68185610f96565b9350610fc6818560208601610e27565b80840191505092915050565b6000610fde8284610fa1565b915081905092915050565b7f4572726f723a2043726564697420494420616c72656164792065786973747300600082015250565b600061101f601f83610e16565b915061102a82610fe9565b602082019050919050565b6000602082019050818103600083015261104e81611012565b9050919050565b7f4e487b7100000000000000000000000000000000000000000000000000000000600052602260045260246000fd5b6000600282049050600182168061109c57607f821691505b6020821081036110af576110ae611055565b5b50919050565b60008190508160005260206000209050919050565b60006020601f8301049050919050565b600082821b905092915050565b6000600883026111177fffffffffffffffffffffffffffffffffffffffffffffffffffffffffffffffff826110da565b61112186836110da565b95508019841693508086168417925050509392505050565b6000819050919050565b600061115e61115961115484610b45565b611139565b610b45565b9050919050565b6000819050919050565b61117883611143565b61118c61118482611165565b8484546110e7565b825550505050565b600090565b6111a1611194565b6111ac81848461116f565b505050565b5b818110156111d0576111c5600082611199565b6001810190506111b2565b5050565b601f821115611215576111e6816110b5565b6111ef846110ca565b810160208510156111fe578190505b61121261120a856110ca565b8301826111b1565b50505b505050565b600082821c905092915050565b60006112386000198460080261121a565b1980831691505092915050565b60006112518383611227565b9150826002028217905092915050565b61126a82610e0b565b67ffffffffffffffff81111561128357611282610a1a565b5b61128d8254611084565b6112988282856111d4565b600060209050601f8311600181146112cb57600084156112b9578287015190505b6112c38582611245565b86555061132b565b601f1984166112d9866110b5565b60005b82811015611301578489015182556001820191506020850194506020810190506112dc565b8683101561131e578489015161131a601f891682611227565b8355505b6001600288020188555050505b505050505050565b7f4249525448000000000000000000000000000000000000000000000000000000600082015250565b6000611369600583610e16565b915061137482611333565b602082019050919050565b600060808201905081810360008301526113998186610e51565b905081810360208301526113ac8161135c565b90506113bb6040830185610c98565b6113c86060830184610e8a565b949350505050565b7f4572726f723a20596f7520646f206e6f74206f776e2074686973000000000000600082015250565b6000611406601a83610e16565b9150611411826113d0565b602082019050919050565b60006020820190508181036000830152611435816113f9565b9050919050565b7f4572726f723a20437265646974206973207265746972656420616e64206c6f6360008201527f6b65640000000000000000000000000000000000000000000000000000000000602082015250565b6000611498602383610e16565b91506114a38261143c565b604082019050919050565b600060208201905081810360008301526114c78161148b565b9050919050565b7f5452414e53464552000000000000000000000000000000000000000000000000600082015250565b6000611504600883610e16565b915061150f826114ce565b602082019050919050565b600060808201905081810360008301526115348186610e51565b90508181036020830152611547816114f7565b90506115566040830185610c98565b6115636060830184610e8a565b949350505050565b7f4572726f723a204e6f7420746865206f776e6572000000000000000000000000600082015250565b60006115a1601483610e16565b91506115ac8261156b565b602082019050919050565b600060208201905081810360008301526115d081611594565b9050919050565b7f4572726f723a20416c7265616479207265746972656400000000000000000000600082015250565b600061160d601683610e16565b9150611618826115d7565b602082019050919050565b6000602082019050818103600083015261163c81611600565b9050919050565b7f5245544952454400000000000000000000000000000000000000000000000000600082015250565b6000611679600783610e16565b915061168482611643565b602082019050919050565b600060808201905081810360008301526116a98186610e51565b905081810360208301526116bc8161166c565b90506116cb6040830185610c98565b6116d86060830184610e8a565b94935050505056fea264697066735822122049a3e44461fec7546e42b51b3617736acd0e4381c59305dec1c7f8e5b845819764736f6c634300081f0033",
			"opcodes": "PUSH1 0x80 PUSH1 0x40 MSTORE CALLVALUE DUP1 ISZERO PUSH1 0xF JUMPI PUSH1 0x0 DUP1 REVERT JUMPDEST POP CALLER PUSH1 0x0 DUP1 PUSH2 0x100 EXP DUP2 SLOAD DUP2 PUSH20 0xFFFFFFFFFFFFFFFFFFFFFFFFFFFFFFFFFFFFFFFF MUL NOT AND SWAP1 DUP4 PUSH20 0xFFFFFFFFFFFFFFFFFFFFFFFFFFFFFFFFFFFFFFFF AND MUL OR SWAP1 SSTORE POP PUSH2 0x1716 DUP1 PUSH2 0x5F PUSH1 0x0 CODECOPY PUSH1 0x0 RETURN INVALID PUSH1 0x80 PUSH1 0x40 MSTORE CALLVALUE DUP1 ISZERO PUSH2 0x10 JUMPI PUSH1 0x0 DUP1 REVERT JUMPDEST POP PUSH1 0x4 CALLDATASIZE LT PUSH2 0x57 JUMPI PUSH1 0x0 CALLDATALOAD PUSH1 0xE0 SHR DUP1 PUSH4 0x5C107C8 EQ PUSH2 0x5C JUMPI DUP1 PUSH4 0x1DC0A6A5 EQ PUSH2 0x78 JUMPI DUP1 PUSH4 0x43F179C0 EQ PUSH2 0x96 JUMPI DUP1 PUSH4 0x947788BC EQ PUSH2 0xB2 JUMPI DUP1 PUSH4 0xDCC1E336 EQ PUSH2 0xCE JUMPI JUMPDEST PUSH1 0x0 DUP1 REVERT JUMPDEST PUSH2 0x76 PUSH1 0x4 DUP1 CALLDATASIZE SUB DUP2 ADD SWAP1 PUSH2 0x71 SWAP2 SWAP1 PUSH2 0xB7B JUMP JUMPDEST PUSH2 0x103 JUMP JUMPDEST STOP JUMPDEST PUSH2 0x80 PUSH2 0x353 JUMP JUMPDEST PUSH1 0x40 MLOAD PUSH2 0x8D SWAP2 SWAP1 PUSH2 0xCA7 JUMP JUMPDEST PUSH1 0x40 MLOAD DUP1 SWAP2 SUB SWAP1 RETURN JUMPDEST PUSH2 0xB0 PUSH1 0x4 DUP1 CALLDATASIZE SUB DUP2 ADD SWAP1 PUSH2 0xAB SWAP2 SWAP1 PUSH2 0xCEE JUMP JUMPDEST PUSH2 0x377 JUMP JUMPDEST STOP JUMPDEST PUSH2 0xCC PUSH1 0x4 DUP1 CALLDATASIZE SUB DUP2 ADD SWAP1 PUSH2 0xC7 SWAP2 SWAP1 PUSH2 0xD4A JUMP JUMPDEST PUSH2 0x5D7 JUMP JUMPDEST STOP JUMPDEST PUSH2 0xE8 PUSH1 0x4 DUP1 CALLDATASIZE SUB DUP2 ADD SWAP1 PUSH2 0xE3 SWAP2 SWAP1 PUSH2 0xDC2 JUMP JUMPDEST PUSH2 0x7BD JUMP JUMPDEST PUSH1 0x40 MLOAD PUSH2 0xFA SWAP7 SWAP6 SWAP5 SWAP4 SWAP3 SWAP2 SWAP1 PUSH2 0xEB4 JUMP JUMPDEST PUSH1 0x40 MLOAD DUP1 SWAP2 SUB SWAP1 RETURN JUMPDEST PUSH1 0x0 DUP1 SLOAD SWAP1 PUSH2 0x100 EXP SWAP1 DIV PUSH20 0xFFFFFFFFFFFFFFFFFFFFFFFFFFFFFFFFFFFFFFFF AND PUSH20 0xFFFFFFFFFFFFFFFFFFFFFFFFFFFFFFFFFFFFFFFF AND CALLER PUSH20 0xFFFFFFFFFFFFFFFFFFFFFFFFFFFFFFFFFFFFFFFF AND EQ PUSH2 0x191 JUMPI PUSH1 0x40 MLOAD PUSH32 0x8C379A000000000000000000000000000000000000000000000000000000000 DUP2 MSTORE PUSH1 0x4 ADD PUSH2 0x188 SWAP1 PUSH2 0xF76 JUMP JUMPDEST PUSH1 0x40 MLOAD DUP1 SWAP2 SUB SWAP1 REVERT JUMPDEST PUSH1 0x0 PUSH1 0x1 DUP7 PUSH1 0x40 MLOAD PUSH2 0x1A3 SWAP2 SWAP1 PUSH2 0xFD2 JUMP JUMPDEST SWAP1 DUP2 MSTORE PUSH1 0x20 ADD PUSH1 0x40 MLOAD DUP1 SWAP2 SUB SWAP1 KECCAK256 PUSH1 0x4 ADD SLOAD EQ PUSH2 0x1F5 JUMPI PUSH1 0x40 MLOAD PUSH32 0x8C379A000000000000000000000000000000000000000000000000000000000 DUP2 MSTORE PUSH1 0x4 ADD PUSH2 0x1EC SWAP1 PUSH2 0x1035 JUMP JUMPDEST PUSH1 0x40 MLOAD DUP1 SWAP2 SUB SWAP1 REVERT JUMPDEST PUSH1 0x0 PUSH1 0x1 DUP7 PUSH1 0x40 MLOAD PUSH2 0x207 SWAP2 SWAP1 PUSH2 0xFD2 JUMP JUMPDEST SWAP1 DUP2 MSTORE PUSH1 0x20 ADD PUSH1 0x40 MLOAD DUP1 SWAP2 SUB SWAP1 KECCAK256 SWAP1 POP DUP6 DUP2 PUSH1 0x0 ADD SWAP1 DUP2 PUSH2 0x228 SWAP2 SWAP1 PUSH2 0x1261 JUMP JUMPDEST POP DUP5 DUP2 PUSH1 0x1 ADD SWAP1 DUP2 PUSH2 0x23A SWAP2 SWAP1 PUSH2 0x1261 JUMP JUMPDEST POP DUP4 DUP2 PUSH1 0x2 ADD SWAP1 DUP2 PUSH2 0x24C SWAP2 SWAP1 PUSH2 0x1261 JUMP JUMPDEST POP DUP3 DUP2 PUSH1 0x3 ADD SWAP1 DUP2 PUSH2 0x25E SWAP2 SWAP1 PUSH2 0x1261 JUMP JUMPDEST POP DUP2 DUP2 PUSH1 0x4 ADD DUP2 SWAP1 SSTORE POP CALLER DUP2 PUSH1 0x5 ADD PUSH1 0x0 PUSH2 0x100 EXP DUP2 SLOAD DUP2 PUSH20 0xFFFFFFFFFFFFFFFFFFFFFFFFFFFFFFFFFFFFFFFF MUL NOT AND SWAP1 DUP4 PUSH20 0xFFFFFFFFFFFFFFFFFFFFFFFFFFFFFFFFFFFFFFFF AND MUL OR SWAP1 SSTORE POP DUP1 PUSH1 0x6 ADD CALLER SWAP1 DUP1 PUSH1 0x1 DUP2 SLOAD ADD DUP1 DUP3 SSTORE DUP1 SWAP2 POP POP PUSH1 0x1 SWAP1 SUB SWAP1 PUSH1 0x0 MSTORE PUSH1 0x20 PUSH1 0x0 KECCAK256 ADD PUSH1 0x0 SWAP1 SWAP2 SWAP1 SWAP2 SWAP1 SWAP2 PUSH2 0x100 EXP DUP2 SLOAD DUP2 PUSH20 0xFFFFFFFFFFFFFFFFFFFFFFFFFFFFFFFFFFFFFFFF MUL NOT AND SWAP1 DUP4 PUSH20 0xFFFFFFFFFFFFFFFFFFFFFFFFFFFFFFFFFFFFFFFF AND MUL OR SWAP1 SSTORE POP PUSH32 0x18333675623E02FB1A443AED0D08AAFE80D54464E407DA936D5921418C6636E7 DUP7 CALLER DUP5 PUSH1 0x40 MLOAD PUSH2 0x343 SWAP4 SWAP3 SWAP2 SWAP1 PUSH2 0x137F JUMP JUMPDEST PUSH1 0x40 MLOAD DUP1 SWAP2 SUB SWAP1 LOG1 POP POP POP POP POP POP JUMP JUMPDEST PUSH1 0x0 DUP1 SLOAD SWAP1 PUSH2 0x100 EXP SWAP1 DIV PUSH20 0xFFFFFFFFFFFFFFFFFFFFFFFFFFFFFFFFFFFFFFFF AND DUP2 JUMP JUMPDEST CALLER PUSH20 0xFFFFFFFFFFFFFFFFFFFFFFFFFFFFFFFFFFFFFFFF AND PUSH1 0x1 DUP4 PUSH1 0x40 MLOAD PUSH2 0x39E SWAP2 SWAP1 PUSH2 0xFD2 JUMP JUMPDEST SWAP1 DUP2 MSTORE PUSH1 0x20 ADD PUSH1 0x40 MLOAD DUP1 SWAP2 SUB SWAP1 KECCAK256 PUSH1 0x5 ADD PUSH1 0x0 SWAP1 SLOAD SWAP1 PUSH2 0x100 EXP SWAP1 DIV PUSH20 0xFFFFFFFFFFFFFFFFFFFFFFFFFFFFFFFFFFFFFFFF AND PUSH20 0xFFFFFFFFFFFFFFFFFFFFFFFFFFFFFFFFFFFFFFFF AND EQ PUSH2 0x426 JUMPI PUSH1 0x40 MLOAD PUSH32 0x8C379A000000000000000000000000000000000000000000000000000000000 DUP2 MSTORE PUSH1 0x4 ADD PUSH2 0x41D SWAP1 PUSH2 0x141C JUMP JUMPDEST PUSH1 0x40 MLOAD DUP1 SWAP2 SUB SWAP1 REVERT JUMPDEST PUSH1 0x1 DUP3 PUSH1 0x40 MLOAD PUSH2 0x436 SWAP2 SWAP1 PUSH2 0xFD2 JUMP JUMPDEST SWAP1 DUP2 MSTORE PUSH1 0x20 ADD PUSH1 0x40 MLOAD DUP1 SWAP2 SUB SWAP1 KECCAK256 PUSH1 0x7 ADD PUSH1 0x0 SWAP1 SLOAD SWAP1 PUSH2 0x100 EXP SWAP1 DIV PUSH1 0xFF AND ISZERO PUSH2 0x495 JUMPI PUSH1 0x40 MLOAD PUSH32 0x8C379A000000000000000000000000000000000000000000000000000000000 DUP2 MSTORE PUSH1 0x4 ADD PUSH2 0x48C SWAP1 PUSH2 0x14AE JUMP JUMPDEST PUSH1 0x40 MLOAD DUP1 SWAP2 SUB SWAP1 REVERT JUMPDEST DUP1 PUSH1 0x1 DUP4 PUSH1 0x40 MLOAD PUSH2 0x4A6 SWAP2 SWAP1 PUSH2 0xFD2 JUMP JUMPDEST SWAP1 DUP2 MSTORE PUSH1 0x20 ADD PUSH1 0x40 MLOAD DUP1 SWAP2 SUB SWAP1 KECCAK256 PUSH1 0x5 ADD PUSH1 0x0 PUSH2 0x100 EXP DUP2 SLOAD DUP2 PUSH20 0xFFFFFFFFFFFFFFFFFFFFFFFFFFFFFFFFFFFFFFFF MUL NOT AND SWAP1 DUP4 PUSH20 0xFFFFFFFFFFFFFFFFFFFFFFFFFFFFFFFFFFFFFFFF AND MUL OR SWAP1 SSTORE POP PUSH1 0x1 DUP3 PUSH1 0x40 MLOAD PUSH2 0x505 SWAP2 SWAP1 PUSH2 0xFD2 JUMP JUMPDEST SWAP1 DUP2 MSTORE PUSH1 0x20 ADD PUSH1 0x40 MLOAD DUP1 SWAP2 SUB SWAP1 KECCAK256 PUSH1 0x6 ADD DUP2 SWAP1 DUP1 PUSH1 0x1 DUP2 SLOAD ADD DUP1 DUP3 SSTORE DUP1 SWAP2 POP POP PUSH1 0x1 SWAP1 SUB SWAP1 PUSH1 0x0 MSTORE PUSH1 0x20 PUSH1 0x0 KECCAK256 ADD PUSH1 0x0 SWAP1 SWAP2 SWAP1 SWAP2 SWAP1 SWAP2 PUSH2 0x100 EXP DUP2 SLOAD DUP2 PUSH20 0xFFFFFFFFFFFFFFFFFFFFFFFFFFFFFFFFFFFFFFFF MUL NOT AND SWAP1 DUP4 PUSH20 0xFFFFFFFFFFFFFFFFFFFFFFFFFFFFFFFFFFFFFFFF AND MUL OR SWAP1 SSTORE POP PUSH32 0x18333675623E02FB1A443AED0D08AAFE80D54464E407DA936D5921418C6636E7 DUP3 DUP3 PUSH1 0x1 DUP6 PUSH1 0x40 MLOAD PUSH2 0x5AA SWAP2 SWAP1 PUSH2 0xFD2 JUMP JUMPDEST SWAP1 DUP2 MSTORE PUSH1 0x20 ADD PUSH1 0x40 MLOAD DUP1 SWAP2 SUB SWAP1 KECCAK256 PUSH1 0x4 ADD SLOAD PUSH1 0x40 MLOAD PUSH2 0x5CB SWAP4 SWAP3 SWAP2 SWAP1 PUSH2 0x151A JUMP JUMPDEST PUSH1 0x40 MLOAD DUP1 SWAP2 SUB SWAP1 LOG1 POP POP JUMP JUMPDEST CALLER PUSH20 0xFFFFFFFFFFFFFFFFFFFFFFFFFFFFFFFFFFFFFFFF AND PUSH1 0x1 DUP4 PUSH1 0x40 MLOAD PUSH2 0x5FE SWAP2 SWAP1 PUSH2 0xFD2 JUMP JUMPDEST SWAP1 DUP2 MSTORE PUSH1 0x20 ADD PUSH1 0x40 MLOAD DUP1 SWAP2 SUB SWAP1 KECCAK256 PUSH1 0x5 ADD PUSH1 0x0 SWAP1 SLOAD SWAP1 PUSH2 0x100 EXP SWAP1 DIV PUSH20 0xFFFFFFFFFFFFFFFFFFFFFFFFFFFFFFFFFFFFFFFF AND PUSH20 0xFFFFFFFFFFFFFFFFFFFFFFFFFFFFFFFFFFFFFFFF AND EQ PUSH2 0x686 JUMPI PUSH1 0x40 MLOAD PUSH32 0x8C379A000000000000000000000000000000000000000000000000000000000 DUP2 MSTORE PUSH1 0x4 ADD PUSH2 0x67D SWAP1 PUSH2 0x15B7 JUMP JUMPDEST PUSH1 0x40 MLOAD DUP1 SWAP2 SUB SWAP1 REVERT JUMPDEST PUSH1 0x1 DUP3 PUSH1 0x40 MLOAD PUSH2 0x696 SWAP2 SWAP1 PUSH2 0xFD2 JUMP JUMPDEST SWAP1 DUP2 MSTORE PUSH1 0x20 ADD PUSH1 0x40 MLOAD DUP1 SWAP2 SUB SWAP1 KECCAK256 PUSH1 0x7 ADD PUSH1 0x0 SWAP1 SLOAD SWAP1 PUSH2 0x100 EXP SWAP1 DIV PUSH1 0xFF AND ISZERO PUSH2 0x6F5 JUMPI PUSH1 0x40 MLOAD PUSH32 0x8C379A000000000000000000000000000000000000000000000000000000000 DUP2 MSTORE PUSH1 0x4 ADD PUSH2 0x6EC SWAP1 PUSH2 0x1623 JUMP JUMPDEST PUSH1 0x40 MLOAD DUP1 SWAP2 SUB SWAP1 REVERT JUMPDEST PUSH1 0x1 DUP1 DUP4 PUSH1 0x40 MLOAD PUSH2 0x706 SWAP2 SWAP1 PUSH2 0xFD2 JUMP JUMPDEST SWAP1 DUP2 MSTORE PUSH1 0x20 ADD PUSH1 0x40 MLOAD DUP1 SWAP2 SUB SWAP1 KECCAK256 PUSH1 0x7 ADD PUSH1 0x0 PUSH2 0x100 EXP DUP2 SLOAD DUP2 PUSH1 0xFF MUL NOT AND SWAP1 DUP4 ISZERO ISZERO MUL OR SWAP1 SSTORE POP DUP1 PUSH1 0x1 DUP4 PUSH1 0x40 MLOAD PUSH2 0x73F SWAP2 SWAP1 PUSH2 0xFD2 JUMP JUMPDEST SWAP1 DUP2 MSTORE PUSH1 0x20 ADD PUSH1 0x40 MLOAD DUP1 SWAP2 SUB SWAP1 KECCAK256 PUSH1 0x8 ADD SWAP1 DUP2 PUSH2 0x75C SWAP2 SWAP1 PUSH2 0x1261 JUMP JUMPDEST POP PUSH32 0x18333675623E02FB1A443AED0D08AAFE80D54464E407DA936D5921418C6636E7 DUP3 CALLER PUSH1 0x1 DUP6 PUSH1 0x40 MLOAD PUSH2 0x790 SWAP2 SWAP1 PUSH2 0xFD2 JUMP JUMPDEST SWAP1 DUP2 MSTORE PUSH1 0x20 ADD PUSH1 0x40 MLOAD DUP1 SWAP2 SUB SWAP1 KECCAK256 PUSH1 0x4 ADD SLOAD PUSH1 0x40 MLOAD PUSH2 0x7B1 SWAP4 SWAP3 SWAP2 SWAP1 PUSH2 0x168F JUMP JUMPDEST PUSH1 0x40 MLOAD DUP1 SWAP2 SUB SWAP1 LOG1 POP POP JUMP JUMPDEST PUSH1 0x60 DUP1 PUSH1 0x0 DUP1 PUSH1 0x0 PUSH1 0x60 PUSH1 0x0 PUSH1 0x1 DUP9 PUSH1 0x40 MLOAD PUSH2 0x7D9 SWAP2 SWAP1 PUSH2 0xFD2 JUMP JUMPDEST SWAP1 DUP2 MSTORE PUSH1 0x20 ADD PUSH1 0x40 MLOAD DUP1 SWAP2 SUB SWAP1 KECCAK256 SWAP1 POP DUP1 PUSH1 0x0 ADD DUP2 PUSH1 0x1 ADD DUP3 PUSH1 0x4 ADD SLOAD DUP4 PUSH1 0x5 ADD PUSH1 0x0 SWAP1 SLOAD SWAP1 PUSH2 0x100 EXP SWAP1 DIV PUSH20 0xFFFFFFFFFFFFFFFFFFFFFFFFFFFFFFFFFFFFFFFF AND DUP5 PUSH1 0x7 ADD PUSH1 0x0 SWAP1 SLOAD SWAP1 PUSH2 0x100 EXP SWAP1 DIV PUSH1 0xFF AND DUP6 PUSH1 0x8 ADD DUP6 DUP1 SLOAD PUSH2 0x83D SWAP1 PUSH2 0x1084 JUMP JUMPDEST DUP1 PUSH1 0x1F ADD PUSH1 0x20 DUP1 SWAP2 DIV MUL PUSH1 0x20 ADD PUSH1 0x40 MLOAD SWAP1 DUP2 ADD PUSH1 0x40 MSTORE DUP1 SWAP3 SWAP2 SWAP1 DUP2 DUP2 MSTORE PUSH1 0x20 ADD DUP3 DUP1 SLOAD PUSH2 0x869 SWAP1 PUSH2 0x1084 JUMP JUMPDEST DUP1 ISZERO PUSH2 0x8B6 JUMPI DUP1 PUSH1 0x1F LT PUSH2 0x88B JUMPI PUSH2 0x100 DUP1 DUP4 SLOAD DIV MUL DUP4 MSTORE SWAP2 PUSH1 0x20 ADD SWAP2 PUSH2 0x8B6 JUMP JUMPDEST DUP3 ADD SWAP2 SWAP1 PUSH1 0x0 MSTORE PUSH1 0x20 PUSH1 0x0 KECCAK256 SWAP1 JUMPDEST DUP2 SLOAD DUP2 MSTORE SWAP1 PUSH1 0x1 ADD SWAP1 PUSH1 0x20 ADD DUP1 DUP4 GT PUSH2 0x899 JUMPI DUP3 SWAP1 SUB PUSH1 0x1F AND DUP3 ADD SWAP2 JUMPDEST POP POP POP POP POP SWAP6 POP DUP5 DUP1 SLOAD PUSH2 0x8C9 SWAP1 PUSH2 0x1084 JUMP JUMPDEST DUP1 PUSH1 0x1F ADD PUSH1 0x20 DUP1 SWAP2 DIV MUL PUSH1 0x20 ADD PUSH1 0x40 MLOAD SWAP1 DUP2 ADD PUSH1 0x40 MSTORE DUP1 SWAP3 SWAP2 SWAP1 DUP2 DUP2 MSTORE PUSH1 0x20 ADD DUP3 DUP1 SLOAD PUSH2 0x8F5 SWAP1 PUSH2 0x1084 JUMP JUMPDEST DUP1 ISZERO PUSH2 0x942 JUMPI DUP1 PUSH1 0x1F LT PUSH2 0x917 JUMPI PUSH2 0x100 DUP1 DUP4 SLOAD DIV MUL DUP4 MSTORE SWAP2 PUSH1 0x20 ADD SWAP2 PUSH2 0x942 JUMP JUMPDEST DUP3 ADD SWAP2 SWAP1 PUSH1 0x0 MSTORE PUSH1 0x20 PUSH1 0x0 KECCAK256 SWAP1 JUMPDEST DUP2 SLOAD DUP2 MSTORE SWAP1 PUSH1 0x1 ADD SWAP1 PUSH1 0x20 ADD DUP1 DUP4 GT PUSH2 0x925 JUMPI DUP3 SWAP1 SUB PUSH1 0x1F AND DUP3 ADD SWAP2 JUMPDEST POP POP POP POP POP SWAP5 POP DUP1 DUP1 SLOAD PUSH2 0x955 SWAP1 PUSH2 0x1084 JUMP JUMPDEST DUP1 PUSH1 0x1F ADD PUSH1 0x20 DUP1 SWAP2 DIV MUL PUSH1 0x20 ADD PUSH1 0x40 MLOAD SWAP1 DUP2 ADD PUSH1 0x40 MSTORE DUP1 SWAP3 SWAP2 SWAP1 DUP2 DUP2 MSTORE PUSH1 0x20 ADD DUP3 DUP1 SLOAD PUSH2 0x981 SWAP1 PUSH2 0x1084 JUMP JUMPDEST DUP1 ISZERO PUSH2 0x9CE JUMPI DUP1 PUSH1 0x1F LT PUSH2 0x9A3 JUMPI PUSH2 0x100 DUP1 DUP4 SLOAD DIV MUL DUP4 MSTORE SWAP2 PUSH1 0x20 ADD SWAP2 PUSH2 0x9CE JUMP JUMPDEST DUP3 ADD SWAP2 SWAP1 PUSH1 0x0 MSTORE PUSH1 0x20 PUSH1 0x0 KECCAK256 SWAP1 JUMPDEST DUP2 SLOAD DUP2 MSTORE SWAP1 PUSH1 0x1 ADD SWAP1 PUSH1 0x20 ADD DUP1 DUP4 GT PUSH2 0x9B1 JUMPI DUP3 SWAP1 SUB PUSH1 0x1F AND DUP3 ADD SWAP2 JUMPDEST POP POP POP POP POP SWAP1 POP SWAP7 POP SWAP7 POP SWAP7 POP SWAP7 POP SWAP7 POP SWAP7 POP POP SWAP2 SWAP4 SWAP6 POP SWAP2 SWAP4 SWAP6 JUMP JUMPDEST PUSH1 0x0 PUSH1 0x40 MLOAD SWAP1 POP SWAP1 JUMP JUMPDEST PUSH1 0x0 DUP1 REVERT JUMPDEST PUSH1 0x0 DUP1 REVERT JUMPDEST PUSH1 0x0 DUP1 REVERT JUMPDEST PUSH1 0x0 DUP1 REVERT JUMPDEST PUSH1 0x0 PUSH1 0x1F NOT PUSH1 0x1F DUP4 ADD AND SWAP1 POP SWAP2 SWAP1 POP JUMP JUMPDEST PUSH32 0x4E487B7100000000000000000000000000000000000000000000000000000000 PUSH1 0x0 MSTORE PUSH1 0x41 PUSH1 0x4 MSTORE PUSH1 0x24 PUSH1 0x0 REVERT JUMPDEST PUSH2 0xA52 DUP3 PUSH2 0xA09 JUMP JUMPDEST DUP2 ADD DUP2 DUP2 LT PUSH8 0xFFFFFFFFFFFFFFFF DUP3 GT OR ISZERO PUSH2 0xA71 JUMPI PUSH2 0xA70 PUSH2 0xA1A JUMP JUMPDEST JUMPDEST DUP1 PUSH1 0x40 MSTORE POP POP POP JUMP JUMPDEST PUSH1 0x0 PUSH2 0xA84 PUSH2 0x9EB JUMP JUMPDEST SWAP1 POP PUSH2 0xA90 DUP3 DUP3 PUSH2 0xA49 JUMP JUMPDEST SWAP2 SWAP1 POP JUMP JUMPDEST PUSH1 0x0 PUSH8 0xFFFFFFFFFFFFFFFF DUP3 GT ISZERO PUSH2 0xAB0 JUMPI PUSH2 0xAAF PUSH2 0xA1A JUMP JUMPDEST JUMPDEST PUSH2 0xAB9 DUP3 PUSH2 0xA09 JUMP JUMPDEST SWAP1 POP PUSH1 0x20 DUP2 ADD SWAP1 POP SWAP2 SWAP1 POP JUMP JUMPDEST DUP3 DUP2 DUP4 CALLDATACOPY PUSH1 0x0 DUP4 DUP4 ADD MSTORE POP POP POP JUMP JUMPDEST PUSH1 0x0 PUSH2 0xAE8 PUSH2 0xAE3 DUP5 PUSH2 0xA95 JUMP JUMPDEST PUSH2 0xA7A JUMP JUMPDEST SWAP1 POP DUP3 DUP2 MSTORE PUSH1 0x20 DUP2 ADD DUP5 DUP5 DUP5 ADD GT ISZERO PUSH2 0xB04 JUMPI PUSH2 0xB03 PUSH2 0xA04 JUMP JUMPDEST JUMPDEST PUSH2 0xB0F DUP5 DUP3 DUP6 PUSH2 0xAC6 JUMP JUMPDEST POP SWAP4 SWAP3 POP POP POP JUMP JUMPDEST PUSH1 0x0 DUP3 PUSH1 0x1F DUP4 ADD SLT PUSH2 0xB2C JUMPI PUSH2 0xB2B PUSH2 0x9FF JUMP JUMPDEST JUMPDEST DUP2 CALLDATALOAD PUSH2 0xB3C DUP5 DUP3 PUSH1 0x20 DUP7 ADD PUSH2 0xAD5 JUMP JUMPDEST SWAP2 POP POP SWAP3 SWAP2 POP POP JUMP JUMPDEST PUSH1 0x0 DUP2 SWAP1 POP SWAP2 SWAP1 POP JUMP JUMPDEST PUSH2 0xB58 DUP2 PUSH2 0xB45 JUMP JUMPDEST DUP2 EQ PUSH2 0xB63 JUMPI PUSH1 0x0 DUP1 REVERT JUMPDEST POP JUMP JUMPDEST PUSH1 0x0 DUP2 CALLDATALOAD SWAP1 POP PUSH2 0xB75 DUP2 PUSH2 0xB4F JUMP JUMPDEST SWAP3 SWAP2 POP POP JUMP JUMPDEST PUSH1 0x0 DUP1 PUSH1 0x0 DUP1 PUSH1 0x0 PUSH1 0xA0 DUP7 DUP9 SUB SLT ISZERO PUSH2 0xB97 JUMPI PUSH2 0xB96 PUSH2 0x9F5 JUMP JUMPDEST JUMPDEST PUSH1 0x0 DUP7 ADD CALLDATALOAD PUSH8 0xFFFFFFFFFFFFFFFF DUP2 GT ISZERO PUSH2 0xBB5 JUMPI PUSH2 0xBB4 PUSH2 0x9FA JUMP JUMPDEST JUMPDEST PUSH2 0xBC1 DUP9 DUP3 DUP10 ADD PUSH2 0xB17 JUMP JUMPDEST SWAP6 POP POP PUSH1 0x20 DUP7 ADD CALLDATALOAD PUSH8 0xFFFFFFFFFFFFFFFF DUP2 GT ISZERO PUSH2 0xBE2 JUMPI PUSH2 0xBE1 PUSH2 0x9FA JUMP JUMPDEST JUMPDEST PUSH2 0xBEE DUP9 DUP3 DUP10 ADD PUSH2 0xB17 JUMP JUMPDEST SWAP5 POP POP PUSH1 0x40 DUP7 ADD CALLDATALOAD PUSH8 0xFFFFFFFFFFFFFFFF DUP2 GT ISZERO PUSH2 0xC0F JUMPI PUSH2 0xC0E PUSH2 0x9FA JUMP JUMPDEST JUMPDEST PUSH2 0xC1B DUP9 DUP3 DUP10 ADD PUSH2 0xB17 JUMP JUMPDEST SWAP4 POP POP PUSH1 0x60 DUP7 ADD CALLDATALOAD PUSH8 0xFFFFFFFFFFFFFFFF DUP2 GT ISZERO PUSH2 0xC3C JUMPI PUSH2 0xC3B PUSH2 0x9FA JUMP JUMPDEST JUMPDEST PUSH2 0xC48 DUP9 DUP3 DUP10 ADD PUSH2 0xB17 JUMP JUMPDEST SWAP3 POP POP PUSH1 0x80 PUSH2 0xC59 DUP9 DUP3 DUP10 ADD PUSH2 0xB66 JUMP JUMPDEST SWAP2 POP POP SWAP3 SWAP6 POP SWAP3 SWAP6 SWAP1 SWAP4 POP JUMP JUMPDEST PUSH1 0x0 PUSH20 0xFFFFFFFFFFFFFFFFFFFFFFFFFFFFFFFFFFFFFFFF DUP3 AND SWAP1 POP SWAP2 SWAP1 POP JUMP JUMPDEST PUSH1 0x0 PUSH2 0xC91 DUP3 PUSH2 0xC66 JUMP JUMPDEST SWAP1 POP SWAP2 SWAP1 POP JUMP JUMPDEST PUSH2 0xCA1 DUP2 PUSH2 0xC86 JUMP JUMPDEST DUP3 MSTORE POP POP JUMP JUMPDEST PUSH1 0x0 PUSH1 0x20 DUP3 ADD SWAP1 POP PUSH2 0xCBC PUSH1 0x0 DUP4 ADD DUP5 PUSH2 0xC98 JUMP JUMPDEST SWAP3 SWAP2 POP POP JUMP JUMPDEST PUSH2 0xCCB DUP2 PUSH2 0xC86 JUMP JUMPDEST DUP2 EQ PUSH2 0xCD6 JUMPI PUSH1 0x0 DUP1 REVERT JUMPDEST POP JUMP JUMPDEST PUSH1 0x0 DUP2 CALLDATALOAD SWAP1 POP PUSH2 0xCE8 DUP2 PUSH2 0xCC2 JUMP JUMPDEST SWAP3 SWAP2 POP POP JUMP JUMPDEST PUSH1 0x0 DUP1 PUSH1 0x40 DUP4 DUP6 SUB SLT ISZERO PUSH2 0xD05 JUMPI PUSH2 0xD04 PUSH2 0x9F5 JUMP JUMPDEST JUMPDEST PUSH1 0x0 DUP4 ADD CALLDATALOAD PUSH8 0xFFFFFFFFFFFFFFFF DUP2 GT ISZERO PUSH2 0xD23 JUMPI PUSH2 0xD22 PUSH2 0x9FA JUMP JUMPDEST JUMPDEST PUSH2 0xD2F DUP6 DUP3 DUP7 ADD PUSH2 0xB17 JUMP JUMPDEST SWAP3 POP POP PUSH1 0x20 PUSH2 0xD40 DUP6 DUP3 DUP7 ADD PUSH2 0xCD9 JUMP JUMPDEST SWAP2 POP POP SWAP3 POP SWAP3 SWAP1 POP JUMP JUMPDEST PUSH1 0x0 DUP1 PUSH1 0x40 DUP4 DUP6 SUB SLT ISZERO PUSH2 0xD61 JUMPI PUSH2 0xD60 PUSH2 0x9F5 JUMP JUMPDEST JUMPDEST PUSH1 0x0 DUP4 ADD CALLDATALOAD PUSH8 0xFFFFFFFFFFFFFFFF DUP2 GT ISZERO PUSH2 0xD7F JUMPI PUSH2 0xD7E PUSH2 0x9FA JUMP JUMPDEST JUMPDEST PUSH2 0xD8B DUP6 DUP3 DUP7 ADD PUSH2 0xB17 JUMP JUMPDEST SWAP3 POP POP PUSH1 0x20 DUP4 ADD CALLDATALOAD PUSH8 0xFFFFFFFFFFFFFFFF DUP2 GT ISZERO PUSH2 0xDAC JUMPI PUSH2 0xDAB PUSH2 0x9FA JUMP JUMPDEST JUMPDEST PUSH2 0xDB8 DUP6 DUP3 DUP7 ADD PUSH2 0xB17 JUMP JUMPDEST SWAP2 POP POP SWAP3 POP SWAP3 SWAP1 POP JUMP JUMPDEST PUSH1 0x0 PUSH1 0x20 DUP3 DUP5 SUB SLT ISZERO PUSH2 0xDD8 JUMPI PUSH2 0xDD7 PUSH2 0x9F5 JUMP JUMPDEST JUMPDEST PUSH1 0x0 DUP3 ADD CALLDATALOAD PUSH8 0xFFFFFFFFFFFFFFFF DUP2 GT ISZERO PUSH2 0xDF6 JUMPI PUSH2 0xDF5 PUSH2 0x9FA JUMP JUMPDEST JUMPDEST PUSH2 0xE02 DUP5 DUP3 DUP6 ADD PUSH2 0xB17 JUMP JUMPDEST SWAP2 POP POP SWAP3 SWAP2 POP POP JUMP JUMPDEST PUSH1 0x0 DUP2 MLOAD SWAP1 POP SWAP2 SWAP1 POP JUMP JUMPDEST PUSH1 0x0 DUP3 DUP3 MSTORE PUSH1 0x20 DUP3 ADD SWAP1 POP SWAP3 SWAP2 POP POP JUMP JUMPDEST PUSH1 0x0 JUMPDEST DUP4 DUP2 LT ISZERO PUSH2 0xE45 JUMPI DUP1 DUP3 ADD MLOAD DUP2 DUP5 ADD MSTORE PUSH1 0x20 DUP2 ADD SWAP1 POP PUSH2 0xE2A JUMP JUMPDEST PUSH1 0x0 DUP5 DUP5 ADD MSTORE POP POP POP POP JUMP JUMPDEST PUSH1 0x0 PUSH2 0xE5C DUP3 PUSH2 0xE0B JUMP JUMPDEST PUSH2 0xE66 DUP2 DUP6 PUSH2 0xE16 JUMP JUMPDEST SWAP4 POP PUSH2 0xE76 DUP2 DUP6 PUSH1 0x20 DUP7 ADD PUSH2 0xE27 JUMP JUMPDEST PUSH2 0xE7F DUP2 PUSH2 0xA09 JUMP JUMPDEST DUP5 ADD SWAP2 POP POP SWAP3 SWAP2 POP POP JUMP JUMPDEST PUSH2 0xE93 DUP2 PUSH2 0xB45 JUMP JUMPDEST DUP3 MSTORE POP POP JUMP JUMPDEST PUSH1 0x0 DUP2 ISZERO ISZERO SWAP1 POP SWAP2 SWAP1 POP JUMP JUMPDEST PUSH2 0xEAE DUP2 PUSH2 0xE99 JUMP JUMPDEST DUP3 MSTORE POP POP JUMP JUMPDEST PUSH1 0x0 PUSH1 0xC0 DUP3 ADD SWAP1 POP DUP2 DUP2 SUB PUSH1 0x0 DUP4 ADD MSTORE PUSH2 0xECE DUP2 DUP10 PUSH2 0xE51 JUMP JUMPDEST SWAP1 POP DUP2 DUP2 SUB PUSH1 0x20 DUP4 ADD MSTORE PUSH2 0xEE2 DUP2 DUP9 PUSH2 0xE51 JUMP JUMPDEST SWAP1 POP PUSH2 0xEF1 PUSH1 0x40 DUP4 ADD DUP8 PUSH2 0xE8A JUMP JUMPDEST PUSH2 0xEFE PUSH1 0x60 DUP4 ADD DUP7 PUSH2 0xC98 JUMP JUMPDEST PUSH2 0xF0B PUSH1 0x80 DUP4 ADD DUP6 PUSH2 0xEA5 JUMP JUMPDEST DUP2 DUP2 SUB PUSH1 0xA0 DUP4 ADD MSTORE PUSH2 0xF1D DUP2 DUP5 PUSH2 0xE51 JUMP JUMPDEST SWAP1 POP SWAP8 SWAP7 POP POP POP POP POP POP POP JUMP JUMPDEST PUSH32 0x4163636573732044656E6965643A204F6E6C7920526573656172636865720000 PUSH1 0x0 DUP3 ADD MSTORE POP JUMP JUMPDEST PUSH1 0x0 PUSH2 0xF60 PUSH1 0x1E DUP4 PUSH2 0xE16 JUMP JUMPDEST SWAP2 POP PUSH2 0xF6B DUP3 PUSH2 0xF2A JUMP JUMPDEST PUSH1 0x20 DUP3 ADD SWAP1 POP SWAP2 SWAP1 POP JUMP JUMPDEST PUSH1 0x0 PUSH1 0x20 DUP3 ADD SWAP1 POP DUP2 DUP2 SUB PUSH1 0x0 DUP4 ADD MSTORE PUSH2 0xF8F DUP2 PUSH2 0xF53 JUMP JUMPDEST SWAP1 POP SWAP2 SWAP1 POP JUMP JUMPDEST PUSH1 0x0 DUP2 SWAP1 POP SWAP3 SWAP2 POP POP JUMP JUMPDEST PUSH1 0x0 PUSH2 0xFAC DUP3 PUSH2 0xE0B JUMP JUMPDEST PUSH2 0xFB6 DUP2 DUP6 PUSH2 0xF96 JUMP JUMPDEST SWAP4 POP PUSH2 0xFC6 DUP2 DUP6 PUSH1 0x20 DUP7 ADD PUSH2 0xE27 JUMP JUMPDEST DUP1 DUP5 ADD SWAP2 POP POP SWAP3 SWAP2 POP POP JUMP JUMPDEST PUSH1 0x0 PUSH2 0xFDE DUP3 DUP5 PUSH2 0xFA1 JUMP JUMPDEST SWAP2 POP DUP2 SWAP1 POP SWAP3 SWAP2 POP POP JUMP JUMPDEST PUSH32 0x4572726F723A2043726564697420494420616C72656164792065786973747300 PUSH1 0x0 DUP3 ADD MSTORE POP JUMP JUMPDEST PUSH1 0x0 PUSH2 0x101F PUSH1 0x1F DUP4 PUSH2 0xE16 JUMP JUMPDEST SWAP2 POP PUSH2 0x102A DUP3 PUSH2 0xFE9 JUMP JUMPDEST PUSH1 0x20 DUP3 ADD SWAP1 POP SWAP2 SWAP1 POP JUMP JUMPDEST PUSH1 0x0 PUSH1 0x20 DUP3 ADD SWAP1 POP DUP2 DUP2 SUB PUSH1 0x0 DUP4 ADD MSTORE PUSH2 0x104E DUP2 PUSH2 0x1012 JUMP JUMPDEST SWAP1 POP SWAP2 SWAP1 POP JUMP JUMPDEST PUSH32 0x4E487B7100000000000000000000000000000000000000000000000000000000 PUSH1 0x0 MSTORE PUSH1 0x22 PUSH1 0x4 MSTORE PUSH1 0x24 PUSH1 0x0 REVERT JUMPDEST PUSH1 0x0 PUSH1 0x2 DUP3 DIV SWAP1 POP PUSH1 0x1 DUP3 AND DUP1 PUSH2 0x109C JUMPI PUSH1 0x7F DUP3 AND SWAP2 POP JUMPDEST PUSH1 0x20 DUP3 LT DUP2 SUB PUSH2 0x10AF JUMPI PUSH2 0x10AE PUSH2 0x1055 JUMP JUMPDEST JUMPDEST POP SWAP2 SWAP1 POP JUMP JUMPDEST PUSH1 0x0 DUP2 SWAP1 POP DUP2 PUSH1 0x0 MSTORE PUSH1 0x20 PUSH1 0x0 KECCAK256 SWAP1 POP SWAP2 SWAP1 POP JUMP JUMPDEST PUSH1 0x0 PUSH1 0x20 PUSH1 0x1F DUP4 ADD DIV SWAP1 POP SWAP2 SWAP1 POP JUMP JUMPDEST PUSH1 0x0 DUP3 DUP3 SHL SWAP1 POP SWAP3 SWAP2 POP POP JUMP JUMPDEST PUSH1 0x0 PUSH1 0x8 DUP4 MUL PUSH2 0x1117 PUSH32 0xFFFFFFFFFFFFFFFFFFFFFFFFFFFFFFFFFFFFFFFFFFFFFFFFFFFFFFFFFFFFFFFF DUP3 PUSH2 0x10DA JUMP JUMPDEST PUSH2 0x1121 DUP7 DUP4 PUSH2 0x10DA JUMP JUMPDEST SWAP6 POP DUP1 NOT DUP5 AND SWAP4 POP DUP1 DUP7 AND DUP5 OR SWAP3 POP POP POP SWAP4 SWAP3 POP POP POP JUMP JUMPDEST PUSH1 0x0 DUP2 SWAP1 POP SWAP2 SWAP1 POP JUMP JUMPDEST PUSH1 0x0 PUSH2 0x115E PUSH2 0x1159 PUSH2 0x1154 DUP5 PUSH2 0xB45 JUMP JUMPDEST PUSH2 0x1139 JUMP JUMPDEST PUSH2 0xB45 JUMP JUMPDEST SWAP1 POP SWAP2 SWAP1 POP JUMP JUMPDEST PUSH1 0x0 DUP2 SWAP1 POP SWAP2 SWAP1 POP JUMP JUMPDEST PUSH2 0x1178 DUP4 PUSH2 0x1143 JUMP JUMPDEST PUSH2 0x118C PUSH2 0x1184 DUP3 PUSH2 0x1165 JUMP JUMPDEST DUP5 DUP5 SLOAD PUSH2 0x10E7 JUMP JUMPDEST DUP3 SSTORE POP POP POP POP JUMP JUMPDEST PUSH1 0x0 SWAP1 JUMP JUMPDEST PUSH2 0x11A1 PUSH2 0x1194 JUMP JUMPDEST PUSH2 0x11AC DUP2 DUP5 DUP5 PUSH2 0x116F JUMP JUMPDEST POP POP POP JUMP JUMPDEST JUMPDEST DUP2 DUP2 LT ISZERO PUSH2 0x11D0 JUMPI PUSH2 0x11C5 PUSH1 0x0 DUP3 PUSH2 0x1199 JUMP JUMPDEST PUSH1 0x1 DUP2 ADD SWAP1 POP PUSH2 0x11B2 JUMP JUMPDEST POP POP JUMP JUMPDEST PUSH1 0x1F DUP3 GT ISZERO PUSH2 0x1215 JUMPI PUSH2 0x11E6 DUP2 PUSH2 0x10B5 JUMP JUMPDEST PUSH2 0x11EF DUP5 PUSH2 0x10CA JUMP JUMPDEST DUP2 ADD PUSH1 0x20 DUP6 LT ISZERO PUSH2 0x11FE JUMPI DUP2 SWAP1 POP JUMPDEST PUSH2 0x1212 PUSH2 0x120A DUP6 PUSH2 0x10CA JUMP JUMPDEST DUP4 ADD DUP3 PUSH2 0x11B1 JUMP JUMPDEST POP POP JUMPDEST POP POP POP JUMP JUMPDEST PUSH1 0x0 DUP3 DUP3 SHR SWAP1 POP SWAP3 SWAP2 POP POP JUMP JUMPDEST PUSH1 0x0 PUSH2 0x1238 PUSH1 0x0 NOT DUP5 PUSH1 0x8 MUL PUSH2 0x121A JUMP JUMPDEST NOT DUP1 DUP4 AND SWAP2 POP POP SWAP3 SWAP2 POP POP JUMP JUMPDEST PUSH1 0x0 PUSH2 0x1251 DUP4 DUP4 PUSH2 0x1227 JUMP JUMPDEST SWAP2 POP DUP3 PUSH1 0x2 MUL DUP3 OR SWAP1 POP SWAP3 SWAP2 POP POP JUMP JUMPDEST PUSH2 0x126A DUP3 PUSH2 0xE0B JUMP JUMPDEST PUSH8 0xFFFFFFFFFFFFFFFF DUP2 GT ISZERO PUSH2 0x1283 JUMPI PUSH2 0x1282 PUSH2 0xA1A JUMP JUMPDEST JUMPDEST PUSH2 0x128D DUP3 SLOAD PUSH2 0x1084 JUMP JUMPDEST PUSH2 0x1298 DUP3 DUP3 DUP6 PUSH2 0x11D4 JUMP JUMPDEST PUSH1 0x0 PUSH1 0x20 SWAP1 POP PUSH1 0x1F DUP4 GT PUSH1 0x1 DUP2 EQ PUSH2 0x12CB JUMPI PUSH1 0x0 DUP5 ISZERO PUSH2 0x12B9 JUMPI DUP3 DUP8 ADD MLOAD SWAP1 POP JUMPDEST PUSH2 0x12C3 DUP6 DUP3 PUSH2 0x1245 JUMP JUMPDEST DUP7 SSTORE POP PUSH2 0x132B JUMP JUMPDEST PUSH1 0x1F NOT DUP5 AND PUSH2 0x12D9 DUP7 PUSH2 0x10B5 JUMP JUMPDEST PUSH1 0x0 JUMPDEST DUP3 DUP2 LT ISZERO PUSH2 0x1301 JUMPI DUP5 DUP10 ADD MLOAD DUP3 SSTORE PUSH1 0x1 DUP3 ADD SWAP2 POP PUSH1 0x20 DUP6 ADD SWAP5 POP PUSH1 0x20 DUP2 ADD SWAP1 POP PUSH2 0x12DC JUMP JUMPDEST DUP7 DUP4 LT ISZERO PUSH2 0x131E JUMPI DUP5 DUP10 ADD MLOAD PUSH2 0x131A PUSH1 0x1F DUP10 AND DUP3 PUSH2 0x1227 JUMP JUMPDEST DUP4 SSTORE POP JUMPDEST PUSH1 0x1 PUSH1 0x2 DUP9 MUL ADD DUP9 SSTORE POP POP POP JUMPDEST POP POP POP POP POP POP JUMP JUMPDEST PUSH32 0x4249525448000000000000000000000000000000000000000000000000000000 PUSH1 0x0 DUP3 ADD MSTORE POP JUMP JUMPDEST PUSH1 0x0 PUSH2 0x1369 PUSH1 0x5 DUP4 PUSH2 0xE16 JUMP JUMPDEST SWAP2 POP PUSH2 0x1374 DUP3 PUSH2 0x1333 JUMP JUMPDEST PUSH1 0x20 DUP3 ADD SWAP1 POP SWAP2 SWAP1 POP JUMP JUMPDEST PUSH1 0x0 PUSH1 0x80 DUP3 ADD SWAP1 POP DUP2 DUP2 SUB PUSH1 0x0 DUP4 ADD MSTORE PUSH2 0x1399 DUP2 DUP7 PUSH2 0xE51 JUMP JUMPDEST SWAP1 POP DUP2 DUP2 SUB PUSH1 0x20 DUP4 ADD MSTORE PUSH2 0x13AC DUP2 PUSH2 0x135C JUMP JUMPDEST SWAP1 POP PUSH2 0x13BB PUSH1 0x40 DUP4 ADD DUP6 PUSH2 0xC98 JUMP JUMPDEST PUSH2 0x13C8 PUSH1 0x60 DUP4 ADD DUP5 PUSH2 0xE8A JUMP JUMPDEST SWAP5 SWAP4 POP POP POP POP JUMP JUMPDEST PUSH32 0x4572726F723A20596F7520646F206E6F74206F776E2074686973000000000000 PUSH1 0x0 DUP3 ADD MSTORE POP JUMP JUMPDEST PUSH1 0x0 PUSH2 0x1406 PUSH1 0x1A DUP4 PUSH2 0xE16 JUMP JUMPDEST SWAP2 POP PUSH2 0x1411 DUP3 PUSH2 0x13D0 JUMP JUMPDEST PUSH1 0x20 DUP3 ADD SWAP1 POP SWAP2 SWAP1 POP JUMP JUMPDEST PUSH1 0x0 PUSH1 0x20 DUP3 ADD SWAP1 POP DUP2 DUP2 SUB PUSH1 0x0 DUP4 ADD MSTORE PUSH2 0x1435 DUP2 PUSH2 0x13F9 JUMP JUMPDEST SWAP1 POP SWAP2 SWAP1 POP JUMP JUMPDEST PUSH32 0x4572726F723A20437265646974206973207265746972656420616E64206C6F63 PUSH1 0x0 DUP3 ADD MSTORE PUSH32 0x6B65640000000000000000000000000000000000000000000000000000000000 PUSH1 0x20 DUP3 ADD MSTORE POP JUMP JUMPDEST PUSH1 0x0 PUSH2 0x1498 PUSH1 0x23 DUP4 PUSH2 0xE16 JUMP JUMPDEST SWAP2 POP PUSH2 0x14A3 DUP3 PUSH2 0x143C JUMP JUMPDEST PUSH1 0x40 DUP3 ADD SWAP1 POP SWAP2 SWAP1 POP JUMP JUMPDEST PUSH1 0x0 PUSH1 0x20 DUP3 ADD SWAP1 POP DUP2 DUP2 SUB PUSH1 0x0 DUP4 ADD MSTORE PUSH2 0x14C7 DUP2 PUSH2 0x148B JUMP JUMPDEST SWAP1 POP SWAP2 SWAP1 POP JUMP JUMPDEST PUSH32 0x5452414E53464552000000000000000000000000000000000000000000000000 PUSH1 0x0 DUP3 ADD MSTORE POP JUMP JUMPDEST PUSH1 0x0 PUSH2 0x1504 PUSH1 0x8 DUP4 PUSH2 0xE16 JUMP JUMPDEST SWAP2 POP PUSH2 0x150F DUP3 PUSH2 0x14CE JUMP JUMPDEST PUSH1 0x20 DUP3 ADD SWAP1 POP SWAP2 SWAP1 POP JUMP JUMPDEST PUSH1 0x0 PUSH1 0x80 DUP3 ADD SWAP1 POP DUP2 DUP2 SUB PUSH1 0x0 DUP4 ADD MSTORE PUSH2 0x1534 DUP2 DUP7 PUSH2 0xE51 JUMP JUMPDEST SWAP1 POP DUP2 DUP2 SUB PUSH1 0x20 DUP4 ADD MSTORE PUSH2 0x1547 DUP2 PUSH2 0x14F7 JUMP JUMPDEST SWAP1 POP PUSH2 0x1556 PUSH1 0x40 DUP4 ADD DUP6 PUSH2 0xC98 JUMP JUMPDEST PUSH2 0x1563 PUSH1 0x60 DUP4 ADD DUP5 PUSH2 0xE8A JUMP JUMPDEST SWAP5 SWAP4 POP POP POP POP JUMP JUMPDEST PUSH32 0x4572726F723A204E6F7420746865206F776E6572000000000000000000000000 PUSH1 0x0 DUP3 ADD MSTORE POP JUMP JUMPDEST PUSH1 0x0 PUSH2 0x15A1 PUSH1 0x14 DUP4 PUSH2 0xE16 JUMP JUMPDEST SWAP2 POP PUSH2 0x15AC DUP3 PUSH2 0x156B JUMP JUMPDEST PUSH1 0x20 DUP3 ADD SWAP1 POP SWAP2 SWAP1 POP JUMP JUMPDEST PUSH1 0x0 PUSH1 0x20 DUP3 ADD SWAP1 POP DUP2 DUP2 SUB PUSH1 0x0 DUP4 ADD MSTORE PUSH2 0x15D0 DUP2 PUSH2 0x1594 JUMP JUMPDEST SWAP1 POP SWAP2 SWAP1 POP JUMP JUMPDEST PUSH32 0x4572726F723A20416C7265616479207265746972656400000000000000000000 PUSH1 0x0 DUP3 ADD MSTORE POP JUMP JUMPDEST PUSH1 0x0 PUSH2 0x160D PUSH1 0x16 DUP4 PUSH2 0xE16 JUMP JUMPDEST SWAP2 POP PUSH2 0x1618 DUP3 PUSH2 0x15D7 JUMP JUMPDEST PUSH1 0x20 DUP3 ADD SWAP1 POP SWAP2 SWAP1 POP JUMP JUMPDEST PUSH1 0x0 PUSH1 0x20 DUP3 ADD SWAP1 POP DUP2 DUP2 SUB PUSH1 0x0 DUP4 ADD MSTORE PUSH2 0x163C DUP2 PUSH2 0x1600 JUMP JUMPDEST SWAP1 POP SWAP2 SWAP1 POP JUMP JUMPDEST PUSH32 0x5245544952454400000000000000000000000000000000000000000000000000 PUSH1 0x0 DUP3 ADD MSTORE POP JUMP JUMPDEST PUSH1 0x0 PUSH2 0x1679 PUSH1 0x7 DUP4 PUSH2 0xE16 JUMP JUMPDEST SWAP2 POP PUSH2 0x1684 DUP3 PUSH2 0x1643 JUMP JUMPDEST PUSH1 0x20 DUP3 ADD SWAP1 POP SWAP2 SWAP1 POP JUMP JUMPDEST PUSH1 0x0 PUSH1 0x80 DUP3 ADD SWAP1 POP DUP2 DUP2 SUB PUSH1 0x0 DUP4 ADD MSTORE PUSH2 0x16A9 DUP2 DUP7 PUSH2 0xE51 JUMP JUMPDEST SWAP1 POP DUP2 DUP2 SUB PUSH1 0x20 DUP4 ADD MSTORE PUSH2 0x16BC DUP2 PUSH2 0x166C JUMP JUMPDEST SWAP1 POP PUSH2 0x16CB PUSH1 0x40 DUP4 ADD DUP6 PUSH2 0xC98 JUMP JUMPDEST PUSH2 0x16D8 PUSH1 0x60 DUP4 ADD DUP5 PUSH2 0xE8A JUMP JUMPDEST SWAP5 SWAP4 POP POP POP POP JUMP INVALID LOG2 PUSH5 0x6970667358 0x22 SLT KECCAK256 BLOBHASH LOG3 RETF PREVRANDAO PUSH2 0xFEC7 SLOAD PUSH15 0x42B51B3617736ACD0E4381C59305DE 0xC1 0xC7 EXTCALL JUMPF 0xB845 DUP2 SWAP8 PUSH5 0x736F6C6343 STOP ADDMOD 0x1F STOP CALLER "
		},
		"gasEstimates": {
			"creation": {
				"codeDepositCost": "1182000",
				"executionCost": "25493",
				"totalCost": "1207493"
			},
			"external": {
				"createCredit(string,string,string,string,uint256)": "infinite",
				"researcher()": "2511",
				"retireCredit(string,string)": "infinite",
				"transferCredit(string,address)": "infinite",
				"viewCreditDetails(string)": "infinite"
			}
		},
		"methodIdentifiers": {
			"createCredit(string,string,string,string,uint256)": "05c107c8",
			"researcher()": "1dc0a6a5",
			"retireCredit(string,string)": "947788bc",
			"transferCredit(string,address)": "43f179c0",
			"viewCreditDetails(string)": "dcc1e336"
		}
	},
	"abi": [
		{
			"inputs": [],
			"stateMutability": "nonpayable",
			"type": "constructor"
		},
		{
			"anonymous": false,
			"inputs": [
				{
					"indexed": false,
					"internalType": "string",
					"name": "id",
					"type": "string"
				},
				{
					"indexed": false,
					"internalType": "string",
					"name": "action",
					"type": "string"
				},
				{
					"indexed": false,
					"internalType": "address",
					"name": "user",
					"type": "address"
				},
				{
					"indexed": false,
					"internalType": "uint256",
					"name": "currentTons",
					"type": "uint256"
				}
			],
			"name": "TransactionUpdate",
			"type": "event"
		},
		{
			"inputs": [
				{
					"internalType": "string",
					"name": "_id",
					"type": "string"
				},
				{
					"internalType": "string",
					"name": "_land",
					"type": "string"
				},
				{
					"internalType": "string",
					"name": "_vintage",
					"type": "string"
				},
				{
					"internalType": "string",
					"name": "_pdf",
					"type": "string"
				},
				{
					"internalType": "uint256",
					"name": "_tons",
					"type": "uint256"
				}
			],
			"name": "createCredit",
			"outputs": [],
			"stateMutability": "nonpayable",
			"type": "function"
		},
		{
			"inputs": [],
			"name": "researcher",
			"outputs": [
				{
					"internalType": "address",
					"name": "",
					"type": "address"
				}
			],
			"stateMutability": "view",
			"type": "function"
		},
		{
			"inputs": [
				{
					"internalType": "string",
					"name": "_id",
					"type": "string"
				},
				{
					"internalType": "string",
					"name": "_note",
					"type": "string"
				}
			],
			"name": "retireCredit",
			"outputs": [],
			"stateMutability": "nonpayable",
			"type": "function"
		},
		{
			"inputs": [
				{
					"internalType": "string",
					"name": "_id",
					"type": "string"
				},
				{
					"internalType": "address",
					"name": "_to",
					"type": "address"
				}
			],
			"name": "transferCredit",
			"outputs": [],
			"stateMutability": "nonpayable",
			"type": "function"
		},
		{
			"inputs": [
				{
					"internalType": "string",
					"name": "_id",
					"type": "string"
				}
			],
			"name": "viewCreditDetails",
			"outputs": [
				{
					"internalType": "string",
					"name": "ID",
					"type": "string"
				},
				{
					"internalType": "string",
					"name": "Land",
					"type": "string"
				},
				{
					"internalType": "uint256",
					"name": "RemainingTons",
					"type": "uint256"
				},
				{
					"internalType": "address",
					"name": "Owner",
					"type": "address"
				},
				{
					"internalType": "bool",
					"name": "Retired",
					"type": "bool"
				},
				{
					"internalType": "string",
					"name": "Note",
					"type": "string"
				}
			],
			"stateMutability": "view",
			"type": "function"
		}
	]
}